{
  "_format": "hh-sol-artifact-1",
  "contractName": "PFPStore",
  "sourceName": "contracts/PFPStore.sol",
  "abi": [
    {
      "constant": true,
      "inputs": [
        {
          "name": "seller",
          "type": "address"
        }
      ],
      "name": "userAuctionInfoLength",
      "outputs": [
        {
          "name": "",
          "type": "uint256"
        }
      ],
      "payable": false,
      "stateMutability": "view",
      "type": "function"
    },
    {
      "constant": false,
      "inputs": [
        {
          "name": "addr",
          "type": "address"
        },
        {
          "name": "id",
          "type": "uint256"
        },
        {
          "name": "offerId",
          "type": "uint256"
        }
      ],
      "name": "cancelOffer",
      "outputs": [],
      "payable": false,
      "stateMutability": "nonpayable",
      "type": "function"
    },
    {
      "constant": false,
      "inputs": [
        {
          "name": "addr",
          "type": "address"
        },
        {
          "name": "id",
          "type": "uint256"
        },
        {
          "name": "price",
          "type": "uint256"
        }
      ],
      "name": "bid",
      "outputs": [
        {
          "name": "biddingId",
          "type": "uint256"
        }
      ],
      "payable": false,
      "stateMutability": "nonpayable",
      "type": "function"
    },
    {
      "constant": false,
      "inputs": [
        {
          "name": "user",
          "type": "address"
        }
      ],
      "name": "banUser",
      "outputs": [],
      "payable": false,
      "stateMutability": "nonpayable",
      "type": "function"
    },
    {
      "constant": false,
      "inputs": [
        {
          "name": "_pfps",
          "type": "address"
        }
      ],
      "name": "setPFPs",
      "outputs": [],
      "payable": false,
      "stateMutability": "nonpayable",
      "type": "function"
    },
    {
      "constant": true,
      "inputs": [
        {
          "name": "addr",
          "type": "address"
        }
      ],
      "name": "onSalesCount",
      "outputs": [
        {
          "name": "",
          "type": "uint256"
        }
      ],
      "payable": false,
      "stateMutability": "view",
      "type": "function"
    },
    {
      "constant": true,
      "inputs": [
        {
          "name": "",
          "type": "address"
        },
        {
          "name": "",
          "type": "uint256"
        }
      ],
      "name": "userAuctionInfo",
      "outputs": [
        {
          "name": "pfp",
          "type": "address"
        },
        {
          "name": "id",
          "type": "uint256"
        },
        {
          "name": "price",
          "type": "uint256"
        }
      ],
      "payable": false,
      "stateMutability": "view",
      "type": "function"
    },
    {
      "constant": true,
      "inputs": [
        {
          "name": "addr",
          "type": "address"
        },
        {
          "name": "id",
          "type": "uint256"
        }
      ],
      "name": "offerCount",
      "outputs": [
        {
          "name": "",
          "type": "uint256"
        }
      ],
      "payable": false,
      "stateMutability": "view",
      "type": "function"
    },
    {
      "constant": true,
      "inputs": [
        {
          "name": "",
          "type": "address"
        },
        {
          "name": "",
          "type": "uint256"
        }
      ],
      "name": "sales",
      "outputs": [
        {
          "name": "seller",
          "type": "address"
        },
        {
          "name": "price",
          "type": "uint256"
        }
      ],
      "payable": false,
      "stateMutability": "view",
      "type": "function"
    },
    {
      "constant": false,
      "inputs": [
        {
          "name": "addrs",
          "type": "address[]"
        },
        {
          "name": "ids",
          "type": "uint256[]"
        },
        {
          "name": "offerIds",
          "type": "uint256[]"
        }
      ],
      "name": "cancelOfferByOwner",
      "outputs": [],
      "payable": false,
      "stateMutability": "nonpayable",
      "type": "function"
    },
    {
      "constant": true,
      "inputs": [
        {
          "name": "bidder",
          "type": "address"
        }
      ],
      "name": "userBiddingInfoLength",
      "outputs": [
        {
          "name": "",
          "type": "uint256"
        }
      ],
      "payable": false,
      "stateMutability": "view",
      "type": "function"
    },
    {
      "constant": false,
      "inputs": [
        {
          "name": "addr",
          "type": "address"
        },
        {
          "name": "id",
          "type": "uint256"
        },
        {
          "name": "offerId",
          "type": "uint256"
        }
      ],
      "name": "acceptOffer",
      "outputs": [],
      "payable": false,
      "stateMutability": "nonpayable",
      "type": "function"
    },
    {
      "constant": true,
      "inputs": [
        {
          "name": "",
          "type": "address"
        },
        {
          "name": "",
          "type": "uint256"
        }
      ],
      "name": "auctions",
      "outputs": [
        {
          "name": "seller",
          "type": "address"
        },
        {
          "name": "startPrice",
          "type": "uint256"
        },
        {
          "name": "endBlock",
          "type": "uint256"
        }
      ],
      "payable": false,
      "stateMutability": "view",
      "type": "function"
    },
    {
      "constant": true,
      "inputs": [
        {
          "name": "",
          "type": "address"
        },
        {
          "name": "",
          "type": "uint256"
        },
        {
          "name": "",
          "type": "uint256"
        }
      ],
      "name": "biddings",
      "outputs": [
        {
          "name": "bidder",
          "type": "address"
        },
        {
          "name": "price",
          "type": "uint256"
        }
      ],
      "payable": false,
      "stateMutability": "view",
      "type": "function"
    },
    {
      "constant": true,
      "inputs": [],
      "name": "pfps",
      "outputs": [
        {
          "name": "",
          "type": "address"
        }
      ],
      "payable": false,
      "stateMutability": "view",
      "type": "function"
    },
    {
      "constant": true,
      "inputs": [
        {
          "name": "",
          "type": "address"
        },
        {
          "name": "",
          "type": "uint256"
        }
      ],
      "name": "userOfferInfo",
      "outputs": [
        {
          "name": "pfp",
          "type": "address"
        },
        {
          "name": "id",
          "type": "uint256"
        },
        {
          "name": "price",
          "type": "uint256"
        }
      ],
      "payable": false,
      "stateMutability": "view",
      "type": "function"
    },
    {
      "constant": false,
      "inputs": [
        {
          "name": "user",
          "type": "address"
        }
      ],
      "name": "unbanUser",
      "outputs": [],
      "payable": false,
      "stateMutability": "nonpayable",
      "type": "function"
    },
    {
      "constant": true,
      "inputs": [
        {
          "name": "seller",
          "type": "address"
        }
      ],
      "name": "userSellInfoLength",
      "outputs": [
        {
          "name": "",
          "type": "uint256"
        }
      ],
      "payable": false,
      "stateMutability": "view",
      "type": "function"
    },
    {
      "constant": false,
      "inputs": [
        {
          "name": "addr",
          "type": "address"
        },
        {
          "name": "id",
          "type": "uint256"
        },
        {
          "name": "startPrice",
          "type": "uint256"
        },
        {
          "name": "endBlock",
          "type": "uint256"
        }
      ],
      "name": "createAuction",
      "outputs": [],
      "payable": false,
      "stateMutability": "nonpayable",
      "type": "function"
    },
    {
      "constant": false,
      "inputs": [
        {
          "name": "_fee",
          "type": "uint256"
        }
      ],
      "name": "setFee",
      "outputs": [],
      "payable": false,
      "stateMutability": "nonpayable",
      "type": "function"
    },
    {
      "constant": true,
      "inputs": [
        {
          "name": "",
          "type": "address"
        },
        {
          "name": "",
          "type": "uint256"
        }
      ],
      "name": "onAuctionsIndex",
      "outputs": [
        {
          "name": "",
          "type": "uint256"
        }
      ],
      "payable": false,
      "stateMutability": "view",
      "type": "function"
    },
    {
      "constant": false,
      "inputs": [],
      "name": "renounceOwnership",
      "outputs": [],
      "payable": false,
      "stateMutability": "nonpayable",
      "type": "function"
    },
    {
      "constant": false,
      "inputs": [
        {
          "name": "addr",
          "type": "address"
        },
        {
          "name": "id",
          "type": "uint256"
        },
        {
          "name": "price",
          "type": "uint256"
        }
      ],
      "name": "makeOffer",
      "outputs": [
        {
          "name": "offerId",
          "type": "uint256"
        }
      ],
      "payable": false,
      "stateMutability": "nonpayable",
      "type": "function"
    },
    {
      "constant": false,
      "inputs": [
        {
          "name": "interval",
          "type": "uint256"
        }
      ],
      "name": "setAuctionExtensionInterval",
      "outputs": [],
      "payable": false,
      "stateMutability": "nonpayable",
      "type": "function"
    },
    {
      "constant": true,
      "inputs": [
        {
          "name": "",
          "type": "address"
        },
        {
          "name": "",
          "type": "uint256"
        }
      ],
      "name": "onAuctions",
      "outputs": [
        {
          "name": "",
          "type": "uint256"
        }
      ],
      "payable": false,
      "stateMutability": "view",
      "type": "function"
    },
    {
      "constant": false,
      "inputs": [
        {
          "name": "addr",
          "type": "address"
        },
        {
          "name": "id",
          "type": "uint256"
        }
      ],
      "name": "cancelAuction",
      "outputs": [],
      "payable": false,
      "stateMutability": "nonpayable",
      "type": "function"
    },
    {
      "constant": true,
      "inputs": [
        {
          "name": "addr",
          "type": "address"
        },
        {
          "name": "id",
          "type": "uint256"
        }
      ],
      "name": "biddingCount",
      "outputs": [
        {
          "name": "",
          "type": "uint256"
        }
      ],
      "payable": false,
      "stateMutability": "view",
      "type": "function"
    },
    {
      "constant": true,
      "inputs": [],
      "name": "owner",
      "outputs": [
        {
          "name": "",
          "type": "address"
        }
      ],
      "payable": false,
      "stateMutability": "view",
      "type": "function"
    },
    {
      "constant": true,
      "inputs": [],
      "name": "isOwner",
      "outputs": [
        {
          "name": "",
          "type": "bool"
        }
      ],
      "payable": false,
      "stateMutability": "view",
      "type": "function"
    },
    {
      "constant": false,
      "inputs": [
        {
          "name": "addrs",
          "type": "address[]"
        },
        {
          "name": "ids",
          "type": "uint256[]"
        }
      ],
      "name": "cancelSaleByOwner",
      "outputs": [],
      "payable": false,
      "stateMutability": "nonpayable",
      "type": "function"
    },
    {
      "constant": true,
      "inputs": [
        {
          "name": "addr",
          "type": "address"
        },
        {
          "name": "id",
          "type": "uint256"
        }
      ],
      "name": "checkAuction",
      "outputs": [
        {
          "name": "",
          "type": "bool"
        }
      ],
      "payable": false,
      "stateMutability": "view",
      "type": "function"
    },
    {
      "constant": true,
      "inputs": [
        {
          "name": "",
          "type": "address"
        }
      ],
      "name": "isBanned",
      "outputs": [
        {
          "name": "",
          "type": "bool"
        }
      ],
      "payable": false,
      "stateMutability": "view",
      "type": "function"
    },
    {
      "constant": true,
      "inputs": [
        {
          "name": "offeror",
          "type": "address"
        }
      ],
      "name": "userOfferInfoLength",
      "outputs": [
        {
          "name": "",
          "type": "uint256"
        }
      ],
      "payable": false,
      "stateMutability": "view",
      "type": "function"
    },
    {
      "constant": false,
      "inputs": [
        {
          "name": "addrs",
          "type": "address[]"
        },
        {
          "name": "ids",
          "type": "uint256[]"
        },
        {
          "name": "prices",
          "type": "uint256[]"
        }
      ],
      "name": "sell",
      "outputs": [],
      "payable": false,
      "stateMutability": "nonpayable",
      "type": "function"
    },
    {
      "constant": true,
      "inputs": [],
      "name": "auctionExtensionInterval",
      "outputs": [
        {
          "name": "",
          "type": "uint256"
        }
      ],
      "payable": false,
      "stateMutability": "view",
      "type": "function"
    },
    {
      "constant": false,
      "inputs": [
        {
          "name": "addr",
          "type": "address"
        },
        {
          "name": "id",
          "type": "uint256"
        }
      ],
      "name": "claim",
      "outputs": [],
      "payable": false,
      "stateMutability": "nonpayable",
      "type": "function"
    },
    {
      "constant": false,
      "inputs": [
        {
          "name": "addrs",
          "type": "address[]"
        },
        {
          "name": "ids",
          "type": "uint256[]"
        }
      ],
      "name": "cancelSale",
      "outputs": [],
      "payable": false,
      "stateMutability": "nonpayable",
      "type": "function"
    },
    {
      "constant": false,
      "inputs": [
        {
          "name": "addrs",
          "type": "address[]"
        },
        {
          "name": "ids",
          "type": "uint256[]"
        }
      ],
      "name": "cancelAuctionByOwner",
      "outputs": [],
      "payable": false,
      "stateMutability": "nonpayable",
      "type": "function"
    },
    {
      "constant": true,
      "inputs": [],
      "name": "feeReceiver",
      "outputs": [
        {
          "name": "",
          "type": "address"
        }
      ],
      "payable": false,
      "stateMutability": "view",
      "type": "function"
    },
    {
      "constant": true,
      "inputs": [
        {
          "name": "",
          "type": "address"
        },
        {
          "name": "",
          "type": "uint256"
        }
      ],
      "name": "userSellInfo",
      "outputs": [
        {
          "name": "pfp",
          "type": "address"
        },
        {
          "name": "id",
          "type": "uint256"
        },
        {
          "name": "price",
          "type": "uint256"
        }
      ],
      "payable": false,
      "stateMutability": "view",
      "type": "function"
    },
    {
      "constant": true,
      "inputs": [],
      "name": "mix",
      "outputs": [
        {
          "name": "",
          "type": "address"
        }
      ],
      "payable": false,
      "stateMutability": "view",
      "type": "function"
    },
    {
      "constant": true,
      "inputs": [
        {
          "name": "addr",
          "type": "address"
        }
      ],
      "name": "onAuctionsCount",
      "outputs": [
        {
          "name": "",
          "type": "uint256"
        }
      ],
      "payable": false,
      "stateMutability": "view",
      "type": "function"
    },
    {
      "constant": true,
      "inputs": [
        {
          "name": "",
          "type": "address"
        },
        {
          "name": "",
          "type": "uint256"
        }
      ],
      "name": "onSales",
      "outputs": [
        {
          "name": "",
          "type": "uint256"
        }
      ],
      "payable": false,
      "stateMutability": "view",
      "type": "function"
    },
    {
      "constant": false,
      "inputs": [
        {
          "name": "addrs",
          "type": "address[]"
        },
        {
          "name": "ids",
          "type": "uint256[]"
        }
      ],
      "name": "buy",
      "outputs": [],
      "payable": false,
      "stateMutability": "nonpayable",
      "type": "function"
    },
    {
      "constant": true,
      "inputs": [
        {
          "name": "",
          "type": "address"
        },
        {
          "name": "",
          "type": "uint256"
        }
      ],
      "name": "userBiddingInfo",
      "outputs": [
        {
          "name": "pfp",
          "type": "address"
        },
        {
          "name": "id",
          "type": "uint256"
        },
        {
          "name": "price",
          "type": "uint256"
        }
      ],
      "payable": false,
      "stateMutability": "view",
      "type": "function"
    },
    {
      "constant": true,
      "inputs": [],
      "name": "fee",
      "outputs": [
        {
          "name": "",
          "type": "uint256"
        }
      ],
      "payable": false,
      "stateMutability": "view",
      "type": "function"
    },
    {
      "constant": true,
      "inputs": [
        {
          "name": "",
          "type": "address"
        },
        {
          "name": "",
          "type": "uint256"
        },
        {
          "name": "",
          "type": "uint256"
        }
      ],
      "name": "offers",
      "outputs": [
        {
          "name": "offeror",
          "type": "address"
        },
        {
          "name": "price",
          "type": "uint256"
        }
      ],
      "payable": false,
      "stateMutability": "view",
      "type": "function"
    },
    {
      "constant": true,
      "inputs": [
        {
          "name": "",
          "type": "address"
        },
        {
          "name": "",
          "type": "uint256"
        }
      ],
      "name": "onSalesIndex",
      "outputs": [
        {
          "name": "",
          "type": "uint256"
        }
      ],
      "payable": false,
      "stateMutability": "view",
      "type": "function"
    },
    {
      "constant": false,
      "inputs": [
        {
          "name": "_receiver",
          "type": "address"
        }
      ],
      "name": "setFeeReceiver",
      "outputs": [],
      "payable": false,
      "stateMutability": "nonpayable",
      "type": "function"
    },
    {
      "constant": false,
      "inputs": [
        {
          "name": "newOwner",
          "type": "address"
        }
      ],
      "name": "transferOwnership",
      "outputs": [],
      "payable": false,
      "stateMutability": "nonpayable",
      "type": "function"
    },
    {
      "constant": true,
      "inputs": [
        {
          "name": "addr",
          "type": "address"
        },
        {
          "name": "id",
          "type": "uint256"
        }
      ],
      "name": "checkSelling",
      "outputs": [
        {
          "name": "",
          "type": "bool"
        }
      ],
      "payable": false,
      "stateMutability": "view",
      "type": "function"
    },
    {
      "inputs": [
        {
          "name": "_pfps",
          "type": "address"
        },
        {
          "name": "_mix",
          "type": "address"
        }
      ],
      "payable": false,
      "stateMutability": "nonpayable",
      "type": "constructor"
    },
    {
      "anonymous": false,
      "inputs": [
        {
          "indexed": true,
          "name": "addr",
          "type": "address"
        },
        {
          "indexed": true,
          "name": "id",
          "type": "uint256"
        },
        {
          "indexed": true,
          "name": "owner",
          "type": "address"
        },
        {
          "indexed": false,
          "name": "price",
          "type": "uint256"
        }
      ],
      "name": "Sell",
      "type": "event"
    },
    {
      "anonymous": false,
      "inputs": [
        {
          "indexed": true,
          "name": "addr",
          "type": "address"
        },
        {
          "indexed": true,
          "name": "id",
          "type": "uint256"
        },
        {
          "indexed": true,
          "name": "buyer",
          "type": "address"
        },
        {
          "indexed": false,
          "name": "price",
          "type": "uint256"
        }
      ],
      "name": "Buy",
      "type": "event"
    },
    {
      "anonymous": false,
      "inputs": [
        {
          "indexed": true,
          "name": "addr",
          "type": "address"
        },
        {
          "indexed": true,
          "name": "id",
          "type": "uint256"
        },
        {
          "indexed": true,
          "name": "owner",
          "type": "address"
        }
      ],
      "name": "CancelSale",
      "type": "event"
    },
    {
      "anonymous": false,
      "inputs": [
        {
          "indexed": true,
          "name": "addr",
          "type": "address"
        },
        {
          "indexed": true,
          "name": "id",
          "type": "uint256"
        },
        {
          "indexed": true,
          "name": "offerId",
          "type": "uint256"
        },
        {
          "indexed": false,
          "name": "offeror",
          "type": "address"
        },
        {
          "indexed": false,
          "name": "price",
          "type": "uint256"
        }
      ],
      "name": "MakeOffer",
      "type": "event"
    },
    {
      "anonymous": false,
      "inputs": [
        {
          "indexed": true,
          "name": "addr",
          "type": "address"
        },
        {
          "indexed": true,
          "name": "id",
          "type": "uint256"
        },
        {
          "indexed": true,
          "name": "offerId",
          "type": "uint256"
        },
        {
          "indexed": false,
          "name": "offeror",
          "type": "address"
        }
      ],
      "name": "CancelOffer",
      "type": "event"
    },
    {
      "anonymous": false,
      "inputs": [
        {
          "indexed": true,
          "name": "addr",
          "type": "address"
        },
        {
          "indexed": true,
          "name": "id",
          "type": "uint256"
        },
        {
          "indexed": true,
          "name": "offerId",
          "type": "uint256"
        },
        {
          "indexed": false,
          "name": "acceptor",
          "type": "address"
        }
      ],
      "name": "AcceptOffer",
      "type": "event"
    },
    {
      "anonymous": false,
      "inputs": [
        {
          "indexed": true,
          "name": "addr",
          "type": "address"
        },
        {
          "indexed": true,
          "name": "id",
          "type": "uint256"
        },
        {
          "indexed": true,
          "name": "owner",
          "type": "address"
        },
        {
          "indexed": false,
          "name": "startPrice",
          "type": "uint256"
        },
        {
          "indexed": false,
          "name": "endBlock",
          "type": "uint256"
        }
      ],
      "name": "CreateAuction",
      "type": "event"
    },
    {
      "anonymous": false,
      "inputs": [
        {
          "indexed": true,
          "name": "addr",
          "type": "address"
        },
        {
          "indexed": true,
          "name": "id",
          "type": "uint256"
        },
        {
          "indexed": true,
          "name": "owner",
          "type": "address"
        }
      ],
      "name": "CancelAuction",
      "type": "event"
    },
    {
      "anonymous": false,
      "inputs": [
        {
          "indexed": true,
          "name": "addr",
          "type": "address"
        },
        {
          "indexed": true,
          "name": "id",
          "type": "uint256"
        },
        {
          "indexed": true,
          "name": "bidder",
          "type": "address"
        },
        {
          "indexed": false,
          "name": "price",
          "type": "uint256"
        }
      ],
      "name": "Bid",
      "type": "event"
    },
    {
      "anonymous": false,
      "inputs": [
        {
          "indexed": true,
          "name": "addr",
          "type": "address"
        },
        {
          "indexed": true,
          "name": "id",
          "type": "uint256"
        },
        {
          "indexed": true,
          "name": "bidder",
          "type": "address"
        },
        {
          "indexed": false,
          "name": "price",
          "type": "uint256"
        }
      ],
      "name": "Claim",
      "type": "event"
    },
    {
      "anonymous": false,
      "inputs": [
        {
          "indexed": true,
          "name": "addr",
          "type": "address"
        },
        {
          "indexed": true,
          "name": "id",
          "type": "uint256"
        }
      ],
      "name": "CancelSaleByOwner",
      "type": "event"
    },
    {
      "anonymous": false,
      "inputs": [
        {
          "indexed": true,
          "name": "addr",
          "type": "address"
        },
        {
          "indexed": true,
          "name": "id",
          "type": "uint256"
        },
        {
          "indexed": true,
          "name": "offerId",
          "type": "uint256"
        }
      ],
      "name": "CancelOfferByOwner",
      "type": "event"
    },
    {
      "anonymous": false,
      "inputs": [
        {
          "indexed": true,
          "name": "addr",
          "type": "address"
        },
        {
          "indexed": true,
          "name": "id",
          "type": "uint256"
        }
      ],
      "name": "CancelAuctionByOwner",
      "type": "event"
    },
    {
      "anonymous": false,
      "inputs": [
        {
          "indexed": true,
          "name": "addr",
          "type": "address"
        }
      ],
      "name": "Ban",
      "type": "event"
    },
    {
      "anonymous": false,
      "inputs": [
        {
          "indexed": true,
          "name": "addr",
          "type": "address"
        }
      ],
      "name": "Unban",
      "type": "event"
    },
    {
      "anonymous": false,
      "inputs": [
        {
          "indexed": true,
          "name": "previousOwner",
          "type": "address"
        },
        {
          "indexed": true,
          "name": "newOwner",
          "type": "address"
        }
      ],
      "name": "OwnershipTransferred",
      "type": "event"
    }
  ],
  "bytecode": "0x608060405260fa60015561012c60035534801561001b57600080fd5b506040516040806200541a8339810180604052604081101561003c57600080fd5b508051602090910151600080546001600160a01b03191633178082556040516001600160a01b039190911691907f8be0079c531659141344cd1fd0a4f28419497f9722a3daafe3b4186f6b6457e0908290a3600280546001600160a01b03199081163317909155600480546001600160a01b039485169083161790556005805492909316911617905561534580620000d56000396000f3fe608060405234801561001057600080fd5b50600436106102f15760003560e01c8063859b97fe1161019d578063b3f00674116100e9578063daa30712116100a2578063ecd424d91161007c578063ecd424d914610e5b578063efdcd97414610e87578063f2fde38b14610ead578063fa9f83c714610ed3576102f1565b8063daa3071214610df5578063ddca3f4314610e21578063e3b4367714610e29576102f1565b8063b3f0067414610ca9578063b534f15014610cb1578063be32cf8d14610cdd578063bfe71f1414610ce5578063d14ff43014610d0b578063d21ac34f14610d37576102f1565b806397f735d511610156578063a914607c11610130578063a914607c14610af9578063aad3ec9614610b01578063aee916e214610b2d578063b1d96eea14610beb576102f1565b806397f735d51461099f5780639e584b30146109c5578063a8935dbf146109eb576102f1565b8063859b97fe146108395780638c64628c146108655780638da5cb5b146108915780638f32d59b1461089957806391529180146108b5578063968a4f2214610973576102f1565b806344f91c1e1161025c57806361beb1d711610215578063715018a6116101ef578063715018a6146107b65780637de3bd07146107be57806382223202146107f057806382d3e41f1461080d576102f1565b806361beb1d71461073557806369fe0e2d1461076d5780636ad52b701461078a576102f1565b806344f91c1e1461063b578063453e93e514610667578063466877c21461069957806346a11e5c146106bd5780634d12b695146106e95780635cf435a71461070f576102f1565b8063200d44eb116102ae578063200d44eb1461040657806337afaf491461045a5780633a1c83ac146104865780633b2f046e146104d55780633bdf871a146105e35780633c6fc81714610609576102f1565b8063072f5ff5146102f65780630e030d6a1461032e5780630f41ba4b1461036257806310d86b1f1461039457806313455697146103ba57806316a649c5146103e0575b600080fd5b61031c6004803603602081101561030c57600080fd5b50356001600160a01b0316610eff565b60408051918252519081900360200190f35b6103606004803603606081101561034457600080fd5b506001600160a01b038135169060208101359060400135610f1a565b005b61031c6004803603606081101561037857600080fd5b506001600160a01b03813516906020810135906040013561109c565b610360600480360360208110156103aa57600080fd5b50356001600160a01b03166115ab565b610360600480360360208110156103d057600080fd5b50356001600160a01b0316611641565b61031c600480360360208110156103f657600080fd5b50356001600160a01b03166116ad565b6104326004803603604081101561041c57600080fd5b506001600160a01b0381351690602001356116c8565b604080516001600160a01b039094168452602084019290925282820152519081900360600190f35b61031c6004803603604081101561047057600080fd5b506001600160a01b038135169060200135611711565b6104b26004803603604081101561049c57600080fd5b506001600160a01b03813516906020013561173c565b604080516001600160a01b03909316835260208301919091528051918290030190f35b610360600480360360608110156104eb57600080fd5b810190602081018135600160201b81111561050557600080fd5b82018360208201111561051757600080fd5b803590602001918460208302840111600160201b8311171561053857600080fd5b919390929091602081019035600160201b81111561055557600080fd5b82018360208201111561056757600080fd5b803590602001918460208302840111600160201b8311171561058857600080fd5b919390929091602081019035600160201b8111156105a557600080fd5b8201836020820111156105b757600080fd5b803590602001918460208302840111600160201b831117156105d857600080fd5b50909250905061176c565b61031c600480360360208110156105f957600080fd5b50356001600160a01b0316611abf565b6103606004803603606081101561061f57600080fd5b506001600160a01b038135169060208101359060400135611ada565b6104326004803603604081101561065157600080fd5b506001600160a01b038135169060200135611c82565b6104b26004803603606081101561067d57600080fd5b506001600160a01b038135169060208101359060400135611cb8565b6106a1611d09565b604080516001600160a01b039092168252519081900360200190f35b610432600480360360408110156106d357600080fd5b506001600160a01b038135169060200135611d18565b610360600480360360208110156106ff57600080fd5b50356001600160a01b0316611d31565b61031c6004803603602081101561072557600080fd5b50356001600160a01b0316611dc4565b6103606004803603608081101561074b57600080fd5b506001600160a01b038135169060208101359060408101359060600135611ddf565b6103606004803603602081101561078357600080fd5b50356122c5565b61031c600480360360408110156107a057600080fd5b506001600160a01b038135169060200135612322565b61036061233f565b61031c600480360360608110156107d457600080fd5b506001600160a01b0381351690602081013590604001356123d3565b6103606004803603602081101561080657600080fd5b50356128b1565b61031c6004803603604081101561082357600080fd5b506001600160a01b038135169060200135612900565b6103606004803603604081101561084f57600080fd5b506001600160a01b03813516906020013561292e565b61031c6004803603604081101561087b57600080fd5b506001600160a01b038135169060200135612a53565b6106a1612a7b565b6108a1612a8b565b604080519115158252519081900360200190f35b610360600480360360408110156108cb57600080fd5b810190602081018135600160201b8111156108e557600080fd5b8201836020820111156108f757600080fd5b803590602001918460208302840111600160201b8311171561091857600080fd5b919390929091602081019035600160201b81111561093557600080fd5b82018360208201111561094757600080fd5b803590602001918460208302840111600160201b8311171561096857600080fd5b509092509050612a9c565b6108a16004803603604081101561098957600080fd5b506001600160a01b038135169060200135612d82565b6108a1600480360360208110156109b557600080fd5b50356001600160a01b0316612dac565b61031c600480360360208110156109db57600080fd5b50356001600160a01b0316612dc1565b61036060048036036060811015610a0157600080fd5b810190602081018135600160201b811115610a1b57600080fd5b820183602082011115610a2d57600080fd5b803590602001918460208302840111600160201b83111715610a4e57600080fd5b919390929091602081019035600160201b811115610a6b57600080fd5b820183602082011115610a7d57600080fd5b803590602001918460208302840111600160201b83111715610a9e57600080fd5b919390929091602081019035600160201b811115610abb57600080fd5b820183602082011115610acd57600080fd5b803590602001918460208302840111600160201b83111715610aee57600080fd5b509092509050612ddc565b61031c6134a1565b61036060048036036040811015610b1757600080fd5b506001600160a01b0381351690602001356134a7565b61036060048036036040811015610b4357600080fd5b810190602081018135600160201b811115610b5d57600080fd5b820183602082011115610b6f57600080fd5b803590602001918460208302840111600160201b83111715610b9057600080fd5b919390929091602081019035600160201b811115610bad57600080fd5b820183602082011115610bbf57600080fd5b803590602001918460208302840111600160201b83111715610be057600080fd5b5090925090506136b2565b61036060048036036040811015610c0157600080fd5b810190602081018135600160201b811115610c1b57600080fd5b820183602082011115610c2d57600080fd5b803590602001918460208302840111600160201b83111715610c4e57600080fd5b919390929091602081019035600160201b811115610c6b57600080fd5b820183602082011115610c7d57600080fd5b803590602001918460208302840111600160201b83111715610c9e57600080fd5b509092509050613896565b6106a1613df6565b61043260048036036040811015610cc757600080fd5b506001600160a01b038135169060200135613e05565b6106a1613e1e565b61031c60048036036020811015610cfb57600080fd5b50356001600160a01b0316613e2d565b61031c60048036036040811015610d2157600080fd5b506001600160a01b038135169060200135613e48565b61036060048036036040811015610d4d57600080fd5b810190602081018135600160201b811115610d6757600080fd5b820183602082011115610d7957600080fd5b803590602001918460208302840111600160201b83111715610d9a57600080fd5b919390929091602081019035600160201b811115610db757600080fd5b820183602082011115610dc957600080fd5b803590602001918460208302840111600160201b83111715610dea57600080fd5b509092509050613e61565b61043260048036036040811015610e0b57600080fd5b506001600160a01b03813516906020013561418b565b61031c6141a4565b6104b260048036036060811015610e3f57600080fd5b506001600160a01b0381351690602081013590604001356141aa565b61031c60048036036040811015610e7157600080fd5b506001600160a01b0381351690602001356141cf565b61036060048036036020811015610e9d57600080fd5b50356001600160a01b03166141ec565b61036060048036036020811015610ec357600080fd5b50356001600160a01b0316614258565b6108a160048036036040811015610ee957600080fd5b506001600160a01b0381351690602001356142ae565b6001600160a01b031660009081526012602052604090205490565b6001600160a01b0383166000908152600c602090815260408083208584529091529020610f45615180565b818381548110610f5157fe5b60009182526020918290206040805180820190915260029092020180546001600160a01b03168083526001909101549282019290925291503314610f9457600080fd5b818381548110610fa057fe5b60009182526020822060029091020180546001600160a01b031916815560010155610fcc3386866142d8565b60055460208083015160408051600160e01b63a9059cbb0281523360048201526024810192909252516001600160a01b039093169263a9059cbb926044808401939192918290030181600087803b15801561102657600080fd5b505af115801561103a573d6000803e3d6000fd5b505050506040513d602081101561105057600080fd5b5050604080513381529051849186916001600160a01b038916917f1a99e8401ad0f5c42a44ff151af1dd043e4abef0362617d113662727868e64ce919081900360200190a45050505050565b6004805460408051600160e01b637f4401030281526001600160a01b0380881694820194909452905160009387931691637f440103916024808301926020929190829003018186803b1580156110f157600080fd5b505afa158015611105573d6000803e3d6000fd5b505050506040513d602081101561111b57600080fd5b505180156111a657506004805460408051600160e01b639c8d83bb0281526001600160a01b038581169482019490945290519290911691639c8d83bb91602480820192602092909190829003018186803b15801561117857600080fd5b505afa15801561118c573d6000803e3d6000fd5b505050506040513d60208110156111a257600080fd5b5051155b6111af57600080fd5b3360008181526006602052604090205460ff16156111cc57600080fd5b6001600160a01b038087166000908152600f602090815260408083208984529091529020600281015481549192909116801580159061121457506001600160a01b0381163314155b801561121f57508143105b61122857600080fd5b6001600160a01b03891660009081526014602090815260408083208b84529091529020805496508661126a57878460010154111561126557600080fd5b611358565b611272615180565b81600189038154811061128157fe5b60009182526020918290206040805180820190915260029092020180546001600160a01b0316825260010154918101829052915089116112c057600080fd5b600554815160208084015160408051600160e01b63a9059cbb0281526001600160a01b039485166004820152602481019290925251929093169263a9059cbb92604480830193928290030181600087803b15801561131d57600080fd5b505af1158015611331573d6000803e3d6000fd5b505050506040513d602081101561134757600080fd5b50508051611356908c8c61447c565b505b6040805180820182523380825260208083018c815285546001808201885560008881528481209651600290930290960180546001600160a01b0319166001600160a01b0393841617815592519201919091556005548551600160e01b6323b872dd0281526004810194909452306024850152604484018e905294519416936323b872dd936064808501948390030190829087803b1580156113f857600080fd5b505af115801561140c573d6000803e3d6000fd5b505050506040513d602081101561142257600080fd5b506000905061143033611abf565b905060156000336001600160a01b03166001600160a01b0316815260200190815260200160002060405180606001604052808d6001600160a01b031681526020018c81526020018b8152509080600181540180825580915050906001820390600052602060002090600302016000909192909190915060008201518160000160006101000a8154816001600160a01b0302191690836001600160a01b03160217905550602082015181600101556040820151816002015550505080601660008d6001600160a01b03166001600160a01b0316815260200190815260200160002060008c81526020019081526020016000208190555061153a600354856145f690919063ffffffff16565b431061155a5760035461155490859063ffffffff61463f16565b60028601555b604080518a8152905133918c916001600160a01b038f16917f7f863cab1b412077be133ef69af7df0e6aca4c67ff7d89db843d601f124a025d919081900360200190a4505050505050509392505050565b6115b3612a8b565b6115f55760408051600160e51b62461bcd02815260206004820181905260248201526000805160206152fa833981519152604482015290519081900360640190fd5b6001600160a01b038116600081815260066020526040808220805460ff19166001179055517f9a4e757235705bd178419abc9fa645392c5c7dce5b09940a81ef76794b84bd689190a250565b611649612a8b565b61168b5760408051600160e51b62461bcd02815260206004820181905260248201526000805160206152fa833981519152604482015290519081900360640190fd5b600480546001600160a01b0319166001600160a01b0392909216919091179055565b6001600160a01b031660009081526008602052604090205490565b601260205281600052604060002081815481106116e157fe5b60009182526020909120600390910201805460018201546002909201546001600160a01b03909116935090915083565b6001600160a01b0382166000908152600c602090815260408083208484529091529020545b92915050565b6007602090815260009283526040808420909152908252902080546001909101546001600160a01b039091169082565b611774612a8b565b6117b65760408051600160e51b62461bcd02815260206004820181905260248201526000805160206152fa833981519152604482015290519081900360640190fd5b84831480156117c457508481145b6117cd57600080fd5b60005b85811015611ab6576000600c60008989858181106117ea57fe5b905060200201356001600160a01b03166001600160a01b03166001600160a01b03168152602001908152602001600020600087878581811061182857fe5b9050602002013581526020019081526020016000209050611847615180565b8185858581811061185457fe5b905060200201358154811061186557fe5b60009182526020918290206040805180820190915260029092020180546001600160a01b0316825260010154918101919091529050818585858181106118a757fe5b90506020020135815481106118b857fe5b60009182526020822060029091020180546001600160a01b0319168155600101558051611913908a8a868181106118eb57fe5b905060200201356001600160a01b031689898781811061190757fe5b905060200201356142d8565b600554815160208084015160408051600160e01b63a9059cbb0281526001600160a01b039485166004820152602481019290925251929093169263a9059cbb92604480830193928290030181600087803b15801561197057600080fd5b505af1158015611984573d6000803e3d6000fd5b505050506040513d602081101561199a57600080fd5b5085905084848181106119a957fe5b905060200201358787858181106119bc57fe5b905060200201358a8a868181106119cf57fe5b905060200201356001600160a01b03166001600160a01b03167f1a99e8401ad0f5c42a44ff151af1dd043e4abef0362617d113662727868e64ce846000015160405180826001600160a01b03166001600160a01b0316815260200191505060405180910390a4848484818110611a4157fe5b90506020020135878785818110611a5457fe5b905060200201358a8a86818110611a6757fe5b905060200201356001600160a01b03166001600160a01b03167fcb855c3e97c83f0226c45d77800d5f87c8a28847246f0cbbe0c378cd9f4cefe060405160405180910390a450506001016117d0565b50505050505050565b6001600160a01b031660009081526015602052604090205490565b3360008181526006602052604090205460ff1615611af757600080fd5b6001600160a01b0384166000908152600c602090815260408083208684529091529020611b22615180565b818481548110611b2e57fe5b60009182526020918290206040805180820190915260029092020180546001600160a01b0316808352600190910154928201929092529150331415611b7257600080fd5b805160408051600160e11b63214217070281523360048201526001600160a01b039283166024820152604481018890529051918816916342842e0e9160648082019260009290919082900301818387803b158015611bcf57600080fd5b505af1158015611be3573d6000803e3d6000fd5b50505050600081602001519050828581548110611bfc57fe5b60009182526020822060029091020180546001600160a01b031916815560010155611c298787338461469c565b8151611c369088886142d8565b604080513381529051869188916001600160a01b038b16917f464e2668c1227b2db98a77a3752380089500f8cd3e641a33e0aa2437c978a1a9919081900360200190a450505050505050565b600f6020908152600092835260408084209091529082529020805460018201546002909201546001600160a01b03909116919083565b60146020528260005260406000206020528160005260406000208181548110611cdd57fe5b6000918252602090912060029091020180546001909101546001600160a01b0390911693509150839050565b6004546001600160a01b031681565b600d60205281600052604060002081815481106116e157fe5b611d39612a8b565b611d7b5760408051600160e51b62461bcd02815260206004820181905260248201526000805160206152fa833981519152604482015290519081900360640190fd5b6001600160a01b038116600081815260066020526040808220805460ff19169055517f866c4c4c778f85c380f911e6c43d125e57865fec38a5ccf53b62b74a8473ed169190a250565b6001600160a01b03166000908152600a602052604090205490565b6004805460408051600160e01b637f4401030281526001600160a01b03808916948201949094529051879390921691637f44010391602480820192602092909190829003018186803b158015611e3457600080fd5b505afa158015611e48573d6000803e3d6000fd5b505050506040513d6020811015611e5e57600080fd5b50518015611ee957506004805460408051600160e01b639c8d83bb0281526001600160a01b038581169482019490945290519290911691639c8d83bb91602480820192602092909190829003018186803b158015611ebb57600080fd5b505afa158015611ecf573d6000803e3d6000fd5b505050506040513d6020811015611ee557600080fd5b5051155b611ef257600080fd5b3360008181526006602052604090205460ff1615611f0f57600080fd5b60408051600160e11b6331a9108f028152600481018790529051879133916001600160a01b03841691636352211e916024808301926020929190829003018186803b158015611f5d57600080fd5b505afa158015611f71573d6000803e3d6000fd5b505050506040513d6020811015611f8757600080fd5b50516001600160a01b031614611f9c57600080fd5b438411611fa857600080fd5b60408051600160e01b6323b872dd0281523360048201523060248201526044810188905290516001600160a01b038316916323b872dd91606480830192600092919082900301818387803b158015611fff57600080fd5b505af1158015612013573d6000803e3d6000fd5b505050506040518060600160405280336001600160a01b0316815260200186815260200185815250600f6000896001600160a01b03166001600160a01b03168152602001908152602001600020600088815260200190815260200160002060008201518160000160006101000a8154816001600160a01b0302191690836001600160a01b03160217905550602082015181600101556040820151816002015590505060106000886001600160a01b03166001600160a01b031681526020019081526020016000208054905060116000896001600160a01b03166001600160a01b0316815260200190815260200160002060008881526020019081526020016000208190555060106000886001600160a01b03166001600160a01b03168152602001908152602001600020869080600181540180825580915050906001820390600052602060002001600090919290919091505550600061217233610eff565b905060126000336001600160a01b03166001600160a01b0316815260200190815260200160002060405180606001604052808a6001600160a01b03168152602001898152602001888152509080600181540180825580915050906001820390600052602060002090600302016000909192909190915060008201518160000160006101000a8154816001600160a01b0302191690836001600160a01b03160217905550602082015181600101556040820151816002015550505080601360008a6001600160a01b03166001600160a01b03168152602001908152602001600020600089815260200190815260200160002081905550336001600160a01b031687896001600160a01b03167f9203fe49746ebaea75e6d96aa8792491d4ebcdc8fbd8919e5ab056cc10667ce88989604051808381526020018281526020019250505060405180910390a45050505050505050565b6122cd612a8b565b61230f5760408051600160e51b62461bcd02815260206004820181905260248201526000805160206152fa833981519152604482015290519081900360640190fd5b612328811061231d57600080fd5b600155565b601160209081526000928352604080842090915290825290205481565b612347612a8b565b6123895760408051600160e51b62461bcd02815260206004820181905260248201526000805160206152fa833981519152604482015290519081900360640190fd5b600080546040516001600160a01b03909116907f8be0079c531659141344cd1fd0a4f28419497f9722a3daafe3b4186f6b6457e0908390a3600080546001600160a01b0319169055565b6004805460408051600160e01b637f4401030281526001600160a01b0380881694820194909452905160009387931691637f440103916024808301926020929190829003018186803b15801561242857600080fd5b505afa15801561243c573d6000803e3d6000fd5b505050506040513d602081101561245257600080fd5b505180156124dd57506004805460408051600160e01b639c8d83bb0281526001600160a01b038581169482019490945290519290911691639c8d83bb91602480820192602092909190829003018186803b1580156124af57600080fd5b505afa1580156124c3573d6000803e3d6000fd5b505050506040513d60208110156124d957600080fd5b5051155b6124e657600080fd5b3360008181526006602052604090205460ff161561250357600080fd5b6000841161251057600080fd5b336001600160a01b0316866001600160a01b0316636352211e876040518263ffffffff1660e01b81526004018082815260200191505060206040518083038186803b15801561255e57600080fd5b505afa158015612572573d6000803e3d6000fd5b505050506040513d602081101561258857600080fd5b50516001600160a01b0316141561259e57600080fd5b60006125a933612dc1565b111561263557336000908152600d60205260408120805482906125c857fe5b600091825260208083206001600160a01b038b168452600e825260408085208b865283528085203386529092529220546003909102909101915015801561262a575080546001600160a01b03888116911614158061262a575085816001015414155b61263357600080fd5b505b6001600160a01b038681166000908152600c602090815260408083208984528252808320805482518084018452338082528186018c81526001808501865585895287892093516002860290940180546001600160a01b031916948b1694909417845590519201919091556005548451600160e01b6323b872dd0281526004810192909252306024830152604482018c90529351919950919592909216936323b872dd9360648084019491939192918390030190829087803b1580156126f957600080fd5b505af115801561270d573d6000803e3d6000fd5b505050506040513d602081101561272357600080fd5b506000905061273133612dc1565b9050600d6000336001600160a01b03166001600160a01b0316815260200190815260200160002060405180606001604052808a6001600160a01b03168152602001898152602001888152509080600181540180825580915050906001820390600052602060002090600302016000909192909190915060008201518160000160006101000a8154816001600160a01b0302191690836001600160a01b03160217905550602082015181600101556040820151816002015550505080600e60008a6001600160a01b03166001600160a01b0316815260200190815260200160002060008981526020019081526020016000206000336001600160a01b03166001600160a01b03168152602001908152602001600020819055508487896001600160a01b03167fbe72fd9b8baf2479ab63dab3ead72630b55f7f030098b560a66ba0dbe7c51508338a60405180836001600160a01b03166001600160a01b031681526020018281526020019250505060405180910390a4505050509392505050565b6128b9612a8b565b6128fb5760408051600160e51b62461bcd02815260206004820181905260248201526000805160206152fa833981519152604482015290519081900360640190fd5b600355565b6010602052816000526040600020818154811061291957fe5b90600052602060002001600091509150505481565b6001600160a01b03821660009081526014602090815260408083208484529091529020541561295c57600080fd5b6001600160a01b038083166000908152600f602090815260408083208584529091529020541633811461298e57600080fd5b60408051600160e01b6323b872dd0281523060048201526001600160a01b038381166024830152604482018590529151918516916323b872dd9160648082019260009290919082900301818387803b1580156129e957600080fd5b505af11580156129fd573d6000803e3d6000fd5b50505050612a0b8383614967565b612a16818484614ade565b604051339083906001600160a01b038616907f26d4510b556e779d6507640413e013206e44c8f5d018c7c74ed8926f3f024a9c90600090a4505050565b6001600160a01b03919091166000908152601460209081526040808320938352929052205490565b6000546001600160a01b03165b90565b6000546001600160a01b0316331490565b612aa4612a8b565b612ae65760408051600160e51b62461bcd02815260206004820181905260248201526000805160206152fa833981519152604482015290519081900360640190fd5b828114612af257600080fd5b60005b83811015612d7b57600060076000878785818110612b0f57fe5b905060200201356001600160a01b03166001600160a01b03166001600160a01b031681526020019081526020016000206000858585818110612b4d57fe5b60209081029290920135835250810191909152604001600020546001600160a01b03169050858583818110612b7e57fe5b905060200201356001600160a01b03166001600160a01b03166323b872dd3083878787818110612baa57fe5b905060200201356040518463ffffffff1660e01b815260040180846001600160a01b03166001600160a01b03168152602001836001600160a01b03166001600160a01b031681526020018281526020019350505050600060405180830381600087803b158015612c1957600080fd5b505af1158015612c2d573d6000803e3d6000fd5b50505050612c68868684818110612c4057fe5b905060200201356001600160a01b0316858585818110612c5c57fe5b90506020020135614c58565b612ca081878785818110612c7857fe5b905060200201356001600160a01b0316868686818110612c9457fe5b90506020020135614dc8565b806001600160a01b0316848484818110612cb657fe5b90506020020135878785818110612cc957fe5b905060200201356001600160a01b03166001600160a01b03167fc14de1e0640c6a4e914f570610341c22dcf6a3a940582f767b41c8802a94b4b460405160405180910390a4838383818110612d1a57fe5b90506020020135868684818110612d2d57fe5b905060200201356001600160a01b03166001600160a01b03167f5deb79d5bc0d944465d9cb2ae92a6d89a5e22142f829d46b03d8e8a3419c497d60405160405180910390a350600101612af5565b5050505050565b6001600160a01b039182166000908152600f60209081526040808320938352929052205416151590565b60066020526000908152604090205460ff1681565b6001600160a01b03166000908152600d602052604090205490565b3360008181526006602052604090205460ff1615612df957600080fd5b8584148015612e0757508582145b612e1057600080fd5b60005b86811015613497576004546001600160a01b0316637f440103898984818110612e3857fe5b905060200201356001600160a01b03166040518263ffffffff1660e01b815260040180826001600160a01b03166001600160a01b0316815260200191505060206040518083038186803b158015612e8e57600080fd5b505afa158015612ea2573d6000803e3d6000fd5b505050506040513d6020811015612eb857600080fd5b50518015612f6257506004546001600160a01b0316639c8d83bb898984818110612ede57fe5b905060200201356001600160a01b03166040518263ffffffff1660e01b815260040180826001600160a01b03166001600160a01b0316815260200191505060206040518083038186803b158015612f3457600080fd5b505afa158015612f48573d6000803e3d6000fd5b505050506040513d6020811015612f5e57600080fd5b5051155b612f6b57600080fd5b6000848483818110612f7957fe5b9050602002013511612f8a57600080fd5b6000888883818110612f9857fe5b905060200201356001600160a01b03169050336001600160a01b0316816001600160a01b0316636352211e898986818110612fcf57fe5b905060200201356040518263ffffffff1660e01b81526004018082815260200191505060206040518083038186803b15801561300a57600080fd5b505afa15801561301e573d6000803e3d6000fd5b505050506040513d602081101561303457600080fd5b50516001600160a01b03161461304957600080fd5b806001600160a01b03166323b872dd33308a8a8781811061306657fe5b905060200201356040518463ffffffff1660e01b815260040180846001600160a01b03166001600160a01b03168152602001836001600160a01b03166001600160a01b031681526020018281526020019350505050600060405180830381600087803b1580156130d557600080fd5b505af11580156130e9573d6000803e3d6000fd5b505050506040518060400160405280336001600160a01b0316815260200186868581811061311357fe5b90506020020135815250600760008b8b8681811061312d57fe5b905060200201356001600160a01b03166001600160a01b03166001600160a01b03168152602001908152602001600020600089898681811061316b57fe5b60209081029290920135835250818101929092526040016000908120835181546001600160a01b0319166001600160a01b0390911617815592909101516001909201919091556008908a8a858181106131c057fe5b905060200201356001600160a01b03166001600160a01b03166001600160a01b0316815260200190815260200160002080549050600960008b8b8681811061320457fe5b905060200201356001600160a01b03166001600160a01b03166001600160a01b03168152602001908152602001600020600089898681811061324257fe5b90506020020135815260200190815260200160002081905550600860008a8a8581811061326b57fe5b905060200201356001600160a01b03166001600160a01b03166001600160a01b031681526020019081526020016000208787848181106132a757fe5b83546001810185556000948552602080862092029390930135920191909155506132d033611dc4565b336000908152600a602052604090819020815160608101909252919250808c8c878181106132fa57fe5b905060200201356001600160a01b03166001600160a01b031681526020018a8a8781811061332457fe5b90506020020135815260200188888781811061333c57fe5b602090810292909201359092528354600180820186556000958652828620855160039093020180546001600160a01b0319166001600160a01b039093169290921782559184015191810191909155604090920151600290920191909155508190600b908c8c878181106133ab57fe5b905060200201356001600160a01b03166001600160a01b03166001600160a01b0316815260200190815260200160002060008a8a878181106133e957fe5b90506020020135815260200190815260200160002081905550336001600160a01b031688888581811061341857fe5b905060200201358b8b8681811061342b57fe5b905060200201356001600160a01b03166001600160a01b03167f463904c4b0359ad674399537c3d4e4e44acc0b0dd259453d17329fd9b4be52c089898881811061347157fe5b905060200201356040518082815260200191505060405180910390a45050600101612e13565b5050505050505050565b60035481565b6134af615197565b506001600160a01b038083166000818152600f602090815260408083208684528252808320815160608082018452825490971681526001820154818501526002909101548183015293835260148252808320868452825280832080548251818502810185019093528083529495949193909284015b8282101561356c576000848152602090819020604080518082019091526002850290910180546001600160a01b03168252600190810154828401529083529092019101613524565b50505050905061357a615180565b8151829061358f90600163ffffffff6145f616565b8151811061359957fe5b6020026020010151905082604001514310156135b457600080fd5b805160408051600160e11b63214217070281523060048201526001600160a01b039283166024820152604481018790529051918716916342842e0e9160648082019260009290919082900301818387803b15801561361157600080fd5b505af1158015613625573d6000803e3d6000fd5b5050505061363d85858560000151846020015161469c565b825161364a908686614ade565b805161365790868661447c565b80600001516001600160a01b031684866001600160a01b03167fad03f837a9207e368d73ec028e1f54428184da8cfea258cc116da2225f3ac5eb84602001516040518082815260200191505060405180910390a45050505050565b8281146136be57600080fd5b60005b83811015612d7b576000600760008787858181106136db57fe5b905060200201356001600160a01b03166001600160a01b03166001600160a01b03168152602001908152602001600020600085858581811061371957fe5b60209081029290920135835250810191909152604001600020546001600160a01b0316905033811461374a57600080fd5b85858381811061375657fe5b905060200201356001600160a01b03166001600160a01b03166323b872dd308387878781811061378257fe5b905060200201356040518463ffffffff1660e01b815260040180846001600160a01b03166001600160a01b03168152602001836001600160a01b03166001600160a01b031681526020018281526020019350505050600060405180830381600087803b1580156137f157600080fd5b505af1158015613805573d6000803e3d6000fd5b50505050613818868684818110612c4057fe5b61382881878785818110612c7857fe5b3384848481811061383557fe5b9050602002013587878581811061384857fe5b905060200201356001600160a01b03166001600160a01b03167fc14de1e0640c6a4e914f570610341c22dcf6a3a940582f767b41c8802a94b4b460405160405180910390a4506001016136c1565b61389e612a8b565b6138e05760408051600160e51b62461bcd02815260206004820181905260248201526000805160206152fa833981519152604482015290519081900360640190fd5b8281146138ec57600080fd5b60005b83811015612d7b576138ff615197565b600f600087878581811061390f57fe5b905060200201356001600160a01b03166001600160a01b03166001600160a01b03168152602001908152602001600020600085858581811061394d57fe5b9050602002013581526020019081526020016000206040518060600160405290816000820160009054906101000a90046001600160a01b03166001600160a01b03166001600160a01b031681526020016001820154815260200160028201548152505090506060601460008888868181106139c457fe5b905060200201356001600160a01b03166001600160a01b03166001600160a01b031681526020019081526020016000206000868686818110613a0257fe5b905060200201358152602001908152602001600020805480602002602001604051908101604052809291908181526020016000905b82821015613a7f576000848152602090819020604080518082019091526002850290910180546001600160a01b03168252600190810154828401529083529092019101613a37565b505050509050600081511115613be557613a97615180565b81600183510381518110613aa757fe5b60209081029190910181015160055481518284015160408051600160e01b63a9059cbb0281526001600160a01b03938416600482015260248101929092525193955091169263a9059cbb926044808401938290030181600087803b158015613b0e57600080fd5b505af1158015613b22573d6000803e3d6000fd5b505050506040513d6020811015613b3857600080fd5b50508051613b7490898987818110613b4c57fe5b905060200201356001600160a01b0316888888818110613b6857fe5b9050602002013561447c565b60146000898987818110613b8457fe5b905060200201356001600160a01b03166001600160a01b03166001600160a01b031681526020019081526020016000206000878787818110613bc257fe5b9050602002013581526020019081526020016000206000613be391906151c1565b505b868684818110613bf157fe5b905060200201356001600160a01b03166001600160a01b03166323b872dd308460000151888888818110613c2157fe5b905060200201356040518463ffffffff1660e01b815260040180846001600160a01b03166001600160a01b03168152602001836001600160a01b03166001600160a01b031681526020018281526020019350505050600060405180830381600087803b158015613c9057600080fd5b505af1158015613ca4573d6000803e3d6000fd5b50505050613cdf878785818110613cb757fe5b905060200201356001600160a01b0316868686818110613cd357fe5b90506020020135614967565b8151613d1990888886818110613cf157fe5b905060200201356001600160a01b0316878787818110613d0d57fe5b90506020020135614ade565b81516001600160a01b0316858585818110613d3057fe5b90506020020135888886818110613d4357fe5b905060200201356001600160a01b03166001600160a01b03167f26d4510b556e779d6507640413e013206e44c8f5d018c7c74ed8926f3f024a9c60405160405180910390a4848484818110613d9457fe5b90506020020135878785818110613da757fe5b905060200201356001600160a01b03166001600160a01b03167f0b6a6e5699648b002a2b58c277b1339f3fd3dee5c20cec5c7a46ff809b82521f60405160405180910390a350506001016138ef565b6002546001600160a01b031681565b600a60205281600052604060002081815481106116e157fe5b6005546001600160a01b031681565b6001600160a01b031660009081526010602052604090205490565b6008602052816000526040600020818154811061291957fe5b3360008181526006602052604090205460ff1615613e7e57600080fd5b838214613e8a57600080fd5b60005b8481101561418357613e9d615180565b60076000888885818110613ead57fe5b905060200201356001600160a01b03166001600160a01b03166001600160a01b031681526020019081526020016000206000868685818110613eeb57fe5b60209081029290920135835250818101929092526040908101600020815180830190925280546001600160a01b031680835260019091015492820192909252915015801590613f44575080516001600160a01b03163314155b613f4d57600080fd5b868683818110613f5957fe5b905060200201356001600160a01b03166001600160a01b03166342842e0e3033888887818110613f8557fe5b905060200201356040518463ffffffff1660e01b815260040180846001600160a01b03166001600160a01b03168152602001836001600160a01b03166001600160a01b031681526020018281526020019350505050600060405180830381600087803b158015613ff457600080fd5b505af1158015614008573d6000803e3d6000fd5b505060055460208085015160408051600160e01b6323b872dd0281523360048201523060248201526044810192909252516001600160a01b0390931694506323b872dd9350606480820193918290030181600087803b15801561406a57600080fd5b505af115801561407e573d6000803e3d6000fd5b505050506040513d602081101561409457600080fd5b506140d890508787848181106140a657fe5b905060200201356001600160a01b03168686858181106140c257fe5b905060200201358360000151846020015161469c565b8051614106908888858181106140ea57fe5b905060200201356001600160a01b0316878786818110612c9457fe5b3385858481811061411357fe5b9050602002013588888581811061412657fe5b905060200201356001600160a01b03166001600160a01b03167fa76261e4127b2ebc809716d704216602fdaee4ae5b72745ed9aec0d7bd73b75d84602001516040518082815260200191505060405180910390a450600101613e8d565b505050505050565b601560205281600052604060002081815481106116e157fe5b60015481565b600c6020528260005260406000206020528160005260406000208181548110611cdd57fe5b600960209081526000928352604080842090915290825290205481565b6141f4612a8b565b6142365760408051600160e51b62461bcd02815260206004820181905260248201526000805160206152fa833981519152604482015290519081900360640190fd5b600280546001600160a01b0319166001600160a01b0392909216919091179055565b614260612a8b565b6142a25760408051600160e51b62461bcd02815260206004820181905260248201526000805160206152fa833981519152604482015290519081900360640190fd5b6142ab81614f42565b50565b6001600160a01b039182166000908152600760209081526040808320938352929052205416151590565b60006142f460016142e886612dc1565b9063ffffffff6145f616565b6001600160a01b038085166000908152600e6020908152604080832087845282528083209389168352929052205490915080821461441c57614334615197565b6001600160a01b0386166000908152600d6020526040902080548490811061435857fe5b6000918252602080832060408051606081018252600390940290910180546001600160a01b039081168552600182015485850152600290910154848301528a168452600d90915290912080549192508291849081106143b357fe5b6000918252602080832084516003939093020180546001600160a01b0319166001600160a01b03938416178155848201516001820155604094850151600290910155845182168352600e8152838320948101518352938452828220908916825290925290208190555b6001600160a01b0385166000908152600d602052604090208054906144459060001983016151e2565b5050506001600160a01b039182166000908152600e6020908152604080832093835292815282822094909316815292909152812055565b600061448c60016142e886611abf565b6001600160a01b03841660009081526016602090815260408083208684529091529020549091508082146145a1576144c2615197565b6001600160a01b03861660009081526015602052604090208054849081106144e657fe5b6000918252602080832060408051606081018252600390940290910180546001600160a01b039081168552600182015485850152600290910154848301528a1684526015909152909120805491925082918490811061454157fe5b6000918252602080832084516003939093020180546001600160a01b0319166001600160a01b0393841617815584820151600182015560409485015160029091015584519091168252601681528282209381015182529290925290208190555b6001600160a01b03851660009081526015602052604090208054906145ca9060001983016151e2565b5050506001600160a01b0390911660009081526016602090815260408083209383529290529081205550565b600061463883836040518060400160405280601e81526020017f536166654d6174683a207375627472616374696f6e206f766572666c6f770000815250614fe5565b9392505050565b6000828201838110156146385760408051600160e51b62461bcd02815260206004820152601b60248201527f536166654d6174683a206164646974696f6e206f766572666c6f770000000000604482015290519081900360640190fd5b60006146c56127106146b96001548561507f90919063ffffffff16565b9063ffffffff6150db16565b905080156147565760055460025460408051600160e01b63a9059cbb0281526001600160a01b039283166004820152602481018590529051919092169163a9059cbb9160448083019260209291908290030181600087803b15801561472957600080fd5b505af115801561473d573d6000803e3d6000fd5b505050506040513d602081101561475357600080fd5b50505b6004805460408051600160e51b6304fd35a50281526001600160a01b0389811694820194909452815160009485941692639fa6b4a09260248082019391829003018186803b1580156147a757600080fd5b505afa1580156147bb573d6000803e3d6000fd5b505050506040513d60408110156147d157600080fd5b508051602090910151909250905060006147f76127106146b9878563ffffffff61507f16565b905080156148855760055460408051600160e01b63a9059cbb0281526001600160a01b038681166004830152602482018590529151919092169163a9059cbb9160448083019260209291908290030181600087803b15801561485857600080fd5b505af115801561486c573d6000803e3d6000fd5b505050506040513d602081101561488257600080fd5b50505b6005546001600160a01b031663a9059cbb876148ab846142e88a8a63ffffffff6145f616565b6040518363ffffffff1660e01b815260040180836001600160a01b03166001600160a01b0316815260200182815260200192505050602060405180830381600087803b1580156148fa57600080fd5b505af115801561490e573d6000803e3d6000fd5b505050506040513d602081101561492457600080fd5b5061493190508888614c58565b61493b8888614967565b6001600160a01b03881660009081526014602090815260408083208a84529091528120613497916151c1565b6149718282612d82565b151560011415614a9e57600061498b60016142e885613e2d565b6001600160a01b0384166000908152601160209081526040808320868452909152902054909150808214614a4d576001600160a01b03841660009081526010602052604081208054849081106149dd57fe5b906000526020600020015490508060106000876001600160a01b03166001600160a01b031681526020019081526020016000208381548110614a1b57fe5b60009182526020808320909101929092556001600160a01b038716815260118252604080822093825292909152208190555b6001600160a01b0384166000908152601060205260409020805490614a76906000198301615213565b5050506001600160a01b03821660009081526011602090815260408083208484529091528120555b6001600160a01b039091166000908152600f6020908152604080832093835292905290812080546001600160a01b03191681556001810182905560020155565b6000614aee60016142e886610eff565b6001600160a01b0384166000908152601360209081526040808320868452909152902054909150808214614c0357614b24615197565b6001600160a01b0386166000908152601260205260409020805484908110614b4857fe5b6000918252602080832060408051606081018252600390940290910180546001600160a01b039081168552600182015485850152600290910154848301528a16845260129091529091208054919250829184908110614ba357fe5b6000918252602080832084516003939093020180546001600160a01b0319166001600160a01b0393841617815584820151600182015560409485015160029091015584519091168252601381528282209381015182529290925290208190555b6001600160a01b0385166000908152601260205260409020805490614c2c9060001983016151e2565b5050506001600160a01b0390911660009081526013602090815260408083209383529290529081205550565b614c6282826142ae565b151560011415614d8f576000614c7c60016142e8856116ad565b6001600160a01b0384166000908152600960209081526040808320868452909152902054909150808214614d3e576001600160a01b0384166000908152600860205260408120805484908110614cce57fe5b906000526020600020015490508060086000876001600160a01b03166001600160a01b031681526020019081526020016000208381548110614d0c57fe5b60009182526020808320909101929092556001600160a01b038716815260098252604080822093825292909152208190555b6001600160a01b0384166000908152600860205260409020805490614d67906000198301615213565b5050506001600160a01b03821660009081526009602090815260408083208484529091528120555b6001600160a01b03909116600090815260076020908152604080832093835292905290812080546001600160a01b031916815560010155565b6000614dd860016142e886611dc4565b6001600160a01b0384166000908152600b60209081526040808320868452909152902054909150808214614eed57614e0e615197565b6001600160a01b0386166000908152600a60205260409020805484908110614e3257fe5b6000918252602080832060408051606081018252600390940290910180546001600160a01b039081168552600182015485850152600290910154848301528a168452600a9091529091208054919250829184908110614e8d57fe5b6000918252602080832084516003939093020180546001600160a01b0319166001600160a01b0393841617815584820151600182015560409485015160029091015584519091168252600b81528282209381015182529290925290208190555b6001600160a01b0385166000908152600a60205260409020805490614f169060001983016151e2565b5050506001600160a01b039091166000908152600b602090815260408083209383529290529081205550565b6001600160a01b038116614f8a57604051600160e51b62461bcd0281526004018080602001828103825260268152602001806152b36026913960400191505060405180910390fd5b600080546040516001600160a01b03808516939216917f8be0079c531659141344cd1fd0a4f28419497f9722a3daafe3b4186f6b6457e091a3600080546001600160a01b0319166001600160a01b0392909216919091179055565b6000818484111561507757604051600160e51b62461bcd0281526004018080602001828103825283818151815260200191508051906020019080838360005b8381101561503c578181015183820152602001615024565b50505050905090810190601f1680156150695780820380516001836020036101000a031916815260200191505b509250505060405180910390fd5b505050900390565b60008261508e57506000611736565b8282028284828161509b57fe5b041461463857604051600160e51b62461bcd0281526004018080602001828103825260218152602001806152d96021913960400191505060405180910390fd5b600061463883836040518060400160405280601a81526020017f536166654d6174683a206469766973696f6e206279207a65726f0000000000008152506000818361516a57604051600160e51b62461bcd02815260206004820181815283516024840152835190928392604490910191908501908083836000831561503c578181015183820152602001615024565b50600083858161517657fe5b0495945050505050565b604080518082019091526000808252602082015290565b604051806060016040528060006001600160a01b0316815260200160008152602001600081525090565b50805460008255600202906000526020600020908101906142ab9190615237565b81548183558181111561520e5760030281600302836000526020600020918201910161520e9190615266565b505050565b81548183558181111561520e5760008381526020902061520e918101908301615298565b612a8891905b808211156152625780546001600160a01b03191681556000600182015560020161523d565b5090565b612a8891905b808211156152625780546001600160a01b0319168155600060018201819055600282015560030161526c565b612a8891905b80821115615262576000815560010161529e56fe4f776e61626c653a206e6577206f776e657220697320746865207a65726f2061646472657373536166654d6174683a206d756c7469706c69636174696f6e206f766572666c6f774f776e61626c653a2063616c6c6572206973206e6f7420746865206f776e6572a165627a7a723058203345c0bdf58c922bf9dd8179e57ff4de3d0849932b9838129e2a22031e7436b60029",
  "linkReferences": {},
  "deployedLinkReferences": {}
}