{
  "_format": "hh-sol-artifact-1",
  "contractName": "PFPStore",
  "sourceName": "contracts/PFPStore.sol",
  "abi": [
    {
      "constant": true,
      "inputs": [
        {
          "name": "seller",
          "type": "address"
        }
      ],
      "name": "userAuctionInfoLength",
      "outputs": [
        {
          "name": "",
          "type": "uint256"
        }
      ],
      "payable": false,
      "stateMutability": "view",
      "type": "function"
    },
    {
      "constant": false,
      "inputs": [
        {
          "name": "addr",
          "type": "address"
        },
        {
          "name": "id",
          "type": "uint256"
        },
        {
          "name": "offerId",
          "type": "uint256"
        }
      ],
      "name": "cancelOffer",
      "outputs": [],
      "payable": false,
      "stateMutability": "nonpayable",
      "type": "function"
    },
    {
      "constant": false,
      "inputs": [
        {
          "name": "addr",
          "type": "address"
        },
        {
          "name": "id",
          "type": "uint256"
        },
        {
          "name": "price",
          "type": "uint256"
        }
      ],
      "name": "bid",
      "outputs": [
        {
          "name": "biddingId",
          "type": "uint256"
        }
      ],
      "payable": false,
      "stateMutability": "nonpayable",
      "type": "function"
    },
    {
      "constant": false,
      "inputs": [
        {
          "name": "user",
          "type": "address"
        }
      ],
      "name": "banUser",
      "outputs": [],
      "payable": false,
      "stateMutability": "nonpayable",
      "type": "function"
    },
    {
      "constant": false,
      "inputs": [
        {
          "name": "_pfps",
          "type": "address"
        }
      ],
      "name": "setPFPs",
      "outputs": [],
      "payable": false,
      "stateMutability": "nonpayable",
      "type": "function"
    },
    {
      "constant": true,
      "inputs": [
        {
          "name": "",
          "type": "address"
        },
        {
          "name": "",
          "type": "uint256"
        }
      ],
      "name": "userAuctionInfo",
      "outputs": [
        {
          "name": "pfp",
          "type": "address"
        },
        {
          "name": "id",
          "type": "uint256"
        },
        {
          "name": "price",
          "type": "uint256"
        }
      ],
      "payable": false,
      "stateMutability": "view",
      "type": "function"
    },
    {
      "constant": true,
      "inputs": [
        {
          "name": "addr",
          "type": "address"
        },
        {
          "name": "id",
          "type": "uint256"
        }
      ],
      "name": "offerCount",
      "outputs": [
        {
          "name": "",
          "type": "uint256"
        }
      ],
      "payable": false,
      "stateMutability": "view",
      "type": "function"
    },
    {
      "constant": true,
      "inputs": [
        {
          "name": "",
          "type": "address"
        },
        {
          "name": "",
          "type": "uint256"
        }
      ],
      "name": "sales",
      "outputs": [
        {
          "name": "seller",
          "type": "address"
        },
        {
          "name": "price",
          "type": "uint256"
        }
      ],
      "payable": false,
      "stateMutability": "view",
      "type": "function"
    },
    {
      "constant": false,
      "inputs": [
        {
          "name": "addrs",
          "type": "address[]"
        },
        {
          "name": "ids",
          "type": "uint256[]"
        },
        {
          "name": "offerIds",
          "type": "uint256[]"
        }
      ],
      "name": "cancelOfferByOwner",
      "outputs": [],
      "payable": false,
      "stateMutability": "nonpayable",
      "type": "function"
    },
    {
      "constant": true,
      "inputs": [
        {
          "name": "bidder",
          "type": "address"
        }
      ],
      "name": "userBiddingInfoLength",
      "outputs": [
        {
          "name": "",
          "type": "uint256"
        }
      ],
      "payable": false,
      "stateMutability": "view",
      "type": "function"
    },
    {
      "constant": false,
      "inputs": [
        {
          "name": "addr",
          "type": "address"
        },
        {
          "name": "id",
          "type": "uint256"
        },
        {
          "name": "offerId",
          "type": "uint256"
        }
      ],
      "name": "acceptOffer",
      "outputs": [],
      "payable": false,
      "stateMutability": "nonpayable",
      "type": "function"
    },
    {
      "constant": true,
      "inputs": [
        {
          "name": "",
          "type": "address"
        },
        {
          "name": "",
          "type": "uint256"
        }
      ],
      "name": "auctions",
      "outputs": [
        {
          "name": "seller",
          "type": "address"
        },
        {
          "name": "startPrice",
          "type": "uint256"
        },
        {
          "name": "endBlock",
          "type": "uint256"
        }
      ],
      "payable": false,
      "stateMutability": "view",
      "type": "function"
    },
    {
      "constant": true,
      "inputs": [
        {
          "name": "",
          "type": "address"
        },
        {
          "name": "",
          "type": "uint256"
        },
        {
          "name": "",
          "type": "uint256"
        }
      ],
      "name": "biddings",
      "outputs": [
        {
          "name": "bidder",
          "type": "address"
        },
        {
          "name": "price",
          "type": "uint256"
        }
      ],
      "payable": false,
      "stateMutability": "view",
      "type": "function"
    },
    {
      "constant": true,
      "inputs": [],
      "name": "pfps",
      "outputs": [
        {
          "name": "",
          "type": "address"
        }
      ],
      "payable": false,
      "stateMutability": "view",
      "type": "function"
    },
    {
      "constant": true,
      "inputs": [
        {
          "name": "",
          "type": "address"
        },
        {
          "name": "",
          "type": "uint256"
        }
      ],
      "name": "userOfferInfo",
      "outputs": [
        {
          "name": "pfp",
          "type": "address"
        },
        {
          "name": "id",
          "type": "uint256"
        },
        {
          "name": "price",
          "type": "uint256"
        }
      ],
      "payable": false,
      "stateMutability": "view",
      "type": "function"
    },
    {
      "constant": false,
      "inputs": [
        {
          "name": "user",
          "type": "address"
        }
      ],
      "name": "unbanUser",
      "outputs": [],
      "payable": false,
      "stateMutability": "nonpayable",
      "type": "function"
    },
    {
      "constant": true,
      "inputs": [
        {
          "name": "seller",
          "type": "address"
        }
      ],
      "name": "userSellInfoLength",
      "outputs": [
        {
          "name": "",
          "type": "uint256"
        }
      ],
      "payable": false,
      "stateMutability": "view",
      "type": "function"
    },
    {
      "constant": false,
      "inputs": [
        {
          "name": "addr",
          "type": "address"
        },
        {
          "name": "id",
          "type": "uint256"
        },
        {
          "name": "startPrice",
          "type": "uint256"
        },
        {
          "name": "endBlock",
          "type": "uint256"
        }
      ],
      "name": "createAuction",
      "outputs": [],
      "payable": false,
      "stateMutability": "nonpayable",
      "type": "function"
    },
    {
      "constant": false,
      "inputs": [
        {
          "name": "_fee",
          "type": "uint256"
        }
      ],
      "name": "setFee",
      "outputs": [],
      "payable": false,
      "stateMutability": "nonpayable",
      "type": "function"
    },
    {
      "constant": false,
      "inputs": [],
      "name": "renounceOwnership",
      "outputs": [],
      "payable": false,
      "stateMutability": "nonpayable",
      "type": "function"
    },
    {
      "constant": false,
      "inputs": [
        {
          "name": "addr",
          "type": "address"
        },
        {
          "name": "id",
          "type": "uint256"
        },
        {
          "name": "price",
          "type": "uint256"
        }
      ],
      "name": "makeOffer",
      "outputs": [
        {
          "name": "offerId",
          "type": "uint256"
        }
      ],
      "payable": false,
      "stateMutability": "nonpayable",
      "type": "function"
    },
    {
      "constant": false,
      "inputs": [
        {
          "name": "interval",
          "type": "uint256"
        }
      ],
      "name": "setAuctionExtensionInterval",
      "outputs": [],
      "payable": false,
      "stateMutability": "nonpayable",
      "type": "function"
    },
    {
      "constant": false,
      "inputs": [
        {
          "name": "addr",
          "type": "address"
        },
        {
          "name": "id",
          "type": "uint256"
        }
      ],
      "name": "cancelAuction",
      "outputs": [],
      "payable": false,
      "stateMutability": "nonpayable",
      "type": "function"
    },
    {
      "constant": true,
      "inputs": [
        {
          "name": "addr",
          "type": "address"
        },
        {
          "name": "id",
          "type": "uint256"
        }
      ],
      "name": "biddingCount",
      "outputs": [
        {
          "name": "",
          "type": "uint256"
        }
      ],
      "payable": false,
      "stateMutability": "view",
      "type": "function"
    },
    {
      "constant": true,
      "inputs": [],
      "name": "owner",
      "outputs": [
        {
          "name": "",
          "type": "address"
        }
      ],
      "payable": false,
      "stateMutability": "view",
      "type": "function"
    },
    {
      "constant": true,
      "inputs": [],
      "name": "isOwner",
      "outputs": [
        {
          "name": "",
          "type": "bool"
        }
      ],
      "payable": false,
      "stateMutability": "view",
      "type": "function"
    },
    {
      "constant": false,
      "inputs": [
        {
          "name": "addrs",
          "type": "address[]"
        },
        {
          "name": "ids",
          "type": "uint256[]"
        }
      ],
      "name": "cancelSaleByOwner",
      "outputs": [],
      "payable": false,
      "stateMutability": "nonpayable",
      "type": "function"
    },
    {
      "constant": true,
      "inputs": [
        {
          "name": "addr",
          "type": "address"
        },
        {
          "name": "id",
          "type": "uint256"
        }
      ],
      "name": "checkAuction",
      "outputs": [
        {
          "name": "",
          "type": "bool"
        }
      ],
      "payable": false,
      "stateMutability": "view",
      "type": "function"
    },
    {
      "constant": true,
      "inputs": [
        {
          "name": "",
          "type": "address"
        }
      ],
      "name": "isBanned",
      "outputs": [
        {
          "name": "",
          "type": "bool"
        }
      ],
      "payable": false,
      "stateMutability": "view",
      "type": "function"
    },
    {
      "constant": true,
      "inputs": [
        {
          "name": "offeror",
          "type": "address"
        }
      ],
      "name": "userOfferInfoLength",
      "outputs": [
        {
          "name": "",
          "type": "uint256"
        }
      ],
      "payable": false,
      "stateMutability": "view",
      "type": "function"
    },
    {
      "constant": false,
      "inputs": [
        {
          "name": "addrs",
          "type": "address[]"
        },
        {
          "name": "ids",
          "type": "uint256[]"
        },
        {
          "name": "prices",
          "type": "uint256[]"
        }
      ],
      "name": "sell",
      "outputs": [],
      "payable": false,
      "stateMutability": "nonpayable",
      "type": "function"
    },
    {
      "constant": true,
      "inputs": [],
      "name": "auctionExtensionInterval",
      "outputs": [
        {
          "name": "",
          "type": "uint256"
        }
      ],
      "payable": false,
      "stateMutability": "view",
      "type": "function"
    },
    {
      "constant": false,
      "inputs": [
        {
          "name": "addr",
          "type": "address"
        },
        {
          "name": "id",
          "type": "uint256"
        }
      ],
      "name": "claim",
      "outputs": [],
      "payable": false,
      "stateMutability": "nonpayable",
      "type": "function"
    },
    {
      "constant": false,
      "inputs": [
        {
          "name": "addrs",
          "type": "address[]"
        },
        {
          "name": "ids",
          "type": "uint256[]"
        }
      ],
      "name": "cancelSale",
      "outputs": [],
      "payable": false,
      "stateMutability": "nonpayable",
      "type": "function"
    },
    {
      "constant": false,
      "inputs": [
        {
          "name": "addrs",
          "type": "address[]"
        },
        {
          "name": "ids",
          "type": "uint256[]"
        }
      ],
      "name": "cancelAuctionByOwner",
      "outputs": [],
      "payable": false,
      "stateMutability": "nonpayable",
      "type": "function"
    },
    {
      "constant": true,
      "inputs": [],
      "name": "feeReceiver",
      "outputs": [
        {
          "name": "",
          "type": "address"
        }
      ],
      "payable": false,
      "stateMutability": "view",
      "type": "function"
    },
    {
      "constant": true,
      "inputs": [
        {
          "name": "",
          "type": "address"
        },
        {
          "name": "",
          "type": "uint256"
        }
      ],
      "name": "userSellInfo",
      "outputs": [
        {
          "name": "pfp",
          "type": "address"
        },
        {
          "name": "id",
          "type": "uint256"
        },
        {
          "name": "price",
          "type": "uint256"
        }
      ],
      "payable": false,
      "stateMutability": "view",
      "type": "function"
    },
    {
      "constant": true,
      "inputs": [],
      "name": "mix",
      "outputs": [
        {
          "name": "",
          "type": "address"
        }
      ],
      "payable": false,
      "stateMutability": "view",
      "type": "function"
    },
    {
      "constant": false,
      "inputs": [
        {
          "name": "addrs",
          "type": "address[]"
        },
        {
          "name": "ids",
          "type": "uint256[]"
        }
      ],
      "name": "buy",
      "outputs": [],
      "payable": false,
      "stateMutability": "nonpayable",
      "type": "function"
    },
    {
      "constant": true,
      "inputs": [
        {
          "name": "",
          "type": "address"
        },
        {
          "name": "",
          "type": "uint256"
        }
      ],
      "name": "userBiddingInfo",
      "outputs": [
        {
          "name": "pfp",
          "type": "address"
        },
        {
          "name": "id",
          "type": "uint256"
        },
        {
          "name": "price",
          "type": "uint256"
        }
      ],
      "payable": false,
      "stateMutability": "view",
      "type": "function"
    },
    {
      "constant": true,
      "inputs": [],
      "name": "fee",
      "outputs": [
        {
          "name": "",
          "type": "uint256"
        }
      ],
      "payable": false,
      "stateMutability": "view",
      "type": "function"
    },
    {
      "constant": true,
      "inputs": [
        {
          "name": "",
          "type": "address"
        },
        {
          "name": "",
          "type": "uint256"
        },
        {
          "name": "",
          "type": "uint256"
        }
      ],
      "name": "offers",
      "outputs": [
        {
          "name": "offeror",
          "type": "address"
        },
        {
          "name": "price",
          "type": "uint256"
        }
      ],
      "payable": false,
      "stateMutability": "view",
      "type": "function"
    },
    {
      "constant": false,
      "inputs": [
        {
          "name": "_receiver",
          "type": "address"
        }
      ],
      "name": "setFeeReceiver",
      "outputs": [],
      "payable": false,
      "stateMutability": "nonpayable",
      "type": "function"
    },
    {
      "constant": false,
      "inputs": [
        {
          "name": "newOwner",
          "type": "address"
        }
      ],
      "name": "transferOwnership",
      "outputs": [],
      "payable": false,
      "stateMutability": "nonpayable",
      "type": "function"
    },
    {
      "constant": true,
      "inputs": [
        {
          "name": "addr",
          "type": "address"
        },
        {
          "name": "id",
          "type": "uint256"
        }
      ],
      "name": "checkSelling",
      "outputs": [
        {
          "name": "",
          "type": "bool"
        }
      ],
      "payable": false,
      "stateMutability": "view",
      "type": "function"
    },
    {
      "inputs": [
        {
          "name": "_pfps",
          "type": "address"
        },
        {
          "name": "_mix",
          "type": "address"
        }
      ],
      "payable": false,
      "stateMutability": "nonpayable",
      "type": "constructor"
    },
    {
      "anonymous": false,
      "inputs": [
        {
          "indexed": true,
          "name": "addr",
          "type": "address"
        },
        {
          "indexed": true,
          "name": "id",
          "type": "uint256"
        },
        {
          "indexed": true,
          "name": "owner",
          "type": "address"
        },
        {
          "indexed": false,
          "name": "price",
          "type": "uint256"
        }
      ],
      "name": "Sell",
      "type": "event"
    },
    {
      "anonymous": false,
      "inputs": [
        {
          "indexed": true,
          "name": "addr",
          "type": "address"
        },
        {
          "indexed": true,
          "name": "id",
          "type": "uint256"
        },
        {
          "indexed": true,
          "name": "buyer",
          "type": "address"
        },
        {
          "indexed": false,
          "name": "price",
          "type": "uint256"
        }
      ],
      "name": "Buy",
      "type": "event"
    },
    {
      "anonymous": false,
      "inputs": [
        {
          "indexed": true,
          "name": "addr",
          "type": "address"
        },
        {
          "indexed": true,
          "name": "id",
          "type": "uint256"
        },
        {
          "indexed": true,
          "name": "owner",
          "type": "address"
        }
      ],
      "name": "CancelSale",
      "type": "event"
    },
    {
      "anonymous": false,
      "inputs": [
        {
          "indexed": true,
          "name": "addr",
          "type": "address"
        },
        {
          "indexed": true,
          "name": "id",
          "type": "uint256"
        },
        {
          "indexed": true,
          "name": "offerId",
          "type": "uint256"
        },
        {
          "indexed": false,
          "name": "offeror",
          "type": "address"
        },
        {
          "indexed": false,
          "name": "price",
          "type": "uint256"
        }
      ],
      "name": "MakeOffer",
      "type": "event"
    },
    {
      "anonymous": false,
      "inputs": [
        {
          "indexed": true,
          "name": "addr",
          "type": "address"
        },
        {
          "indexed": true,
          "name": "id",
          "type": "uint256"
        },
        {
          "indexed": true,
          "name": "offerId",
          "type": "uint256"
        },
        {
          "indexed": false,
          "name": "offeror",
          "type": "address"
        }
      ],
      "name": "CancelOffer",
      "type": "event"
    },
    {
      "anonymous": false,
      "inputs": [
        {
          "indexed": true,
          "name": "addr",
          "type": "address"
        },
        {
          "indexed": true,
          "name": "id",
          "type": "uint256"
        },
        {
          "indexed": true,
          "name": "offerId",
          "type": "uint256"
        },
        {
          "indexed": false,
          "name": "acceptor",
          "type": "address"
        }
      ],
      "name": "AcceptOffer",
      "type": "event"
    },
    {
      "anonymous": false,
      "inputs": [
        {
          "indexed": true,
          "name": "addr",
          "type": "address"
        },
        {
          "indexed": true,
          "name": "id",
          "type": "uint256"
        },
        {
          "indexed": true,
          "name": "owner",
          "type": "address"
        },
        {
          "indexed": false,
          "name": "startPrice",
          "type": "uint256"
        },
        {
          "indexed": false,
          "name": "endBlock",
          "type": "uint256"
        }
      ],
      "name": "CreateAuction",
      "type": "event"
    },
    {
      "anonymous": false,
      "inputs": [
        {
          "indexed": true,
          "name": "addr",
          "type": "address"
        },
        {
          "indexed": true,
          "name": "id",
          "type": "uint256"
        },
        {
          "indexed": true,
          "name": "owner",
          "type": "address"
        }
      ],
      "name": "CancelAuction",
      "type": "event"
    },
    {
      "anonymous": false,
      "inputs": [
        {
          "indexed": true,
          "name": "addr",
          "type": "address"
        },
        {
          "indexed": true,
          "name": "id",
          "type": "uint256"
        },
        {
          "indexed": true,
          "name": "bidder",
          "type": "address"
        },
        {
          "indexed": false,
          "name": "price",
          "type": "uint256"
        }
      ],
      "name": "Bid",
      "type": "event"
    },
    {
      "anonymous": false,
      "inputs": [
        {
          "indexed": true,
          "name": "addr",
          "type": "address"
        },
        {
          "indexed": true,
          "name": "id",
          "type": "uint256"
        },
        {
          "indexed": true,
          "name": "bidder",
          "type": "address"
        },
        {
          "indexed": false,
          "name": "price",
          "type": "uint256"
        }
      ],
      "name": "Claim",
      "type": "event"
    },
    {
      "anonymous": false,
      "inputs": [
        {
          "indexed": true,
          "name": "addr",
          "type": "address"
        },
        {
          "indexed": true,
          "name": "id",
          "type": "uint256"
        }
      ],
      "name": "CancelSaleByOwner",
      "type": "event"
    },
    {
      "anonymous": false,
      "inputs": [
        {
          "indexed": true,
          "name": "addr",
          "type": "address"
        },
        {
          "indexed": true,
          "name": "id",
          "type": "uint256"
        },
        {
          "indexed": true,
          "name": "offerId",
          "type": "uint256"
        }
      ],
      "name": "CancelOfferByOwner",
      "type": "event"
    },
    {
      "anonymous": false,
      "inputs": [
        {
          "indexed": true,
          "name": "addr",
          "type": "address"
        },
        {
          "indexed": true,
          "name": "id",
          "type": "uint256"
        }
      ],
      "name": "CancelAuctionByOwner",
      "type": "event"
    },
    {
      "anonymous": false,
      "inputs": [
        {
          "indexed": true,
          "name": "addr",
          "type": "address"
        }
      ],
      "name": "Ban",
      "type": "event"
    },
    {
      "anonymous": false,
      "inputs": [
        {
          "indexed": true,
          "name": "addr",
          "type": "address"
        }
      ],
      "name": "Unban",
      "type": "event"
    },
    {
      "anonymous": false,
      "inputs": [
        {
          "indexed": true,
          "name": "previousOwner",
          "type": "address"
        },
        {
          "indexed": true,
          "name": "newOwner",
          "type": "address"
        }
      ],
      "name": "OwnershipTransferred",
      "type": "event"
    }
  ],
  "bytecode": "0x608060405260fa60015561012c60035534801561001b57600080fd5b5060405160408062004e6f8339810180604052604081101561003c57600080fd5b508051602090910151600080546001600160a01b03191633178082556040516001600160a01b039190911691907f8be0079c531659141344cd1fd0a4f28419497f9722a3daafe3b4186f6b6457e0908290a3600280546001600160a01b03199081163317909155600480546001600160a01b0394851690831617905560058054929093169116179055614d9a80620000d56000396000f3fe608060405234801561001057600080fd5b506004361061027f5760003560e01c8063859b97fe1161015c578063aee916e2116100ce578063daa3071211610087578063daa3071214610cb3578063ddca3f4314610cdf578063e3b4367714610ce7578063efdcd97414610d19578063f2fde38b14610d3f578063fa9f83c714610d655761027f565b8063aee916e214610a3d578063b1d96eea14610afb578063b3f0067414610bb9578063b534f15014610bc1578063be32cf8d14610bed578063d21ac34f14610bf55761027f565b8063968a4f2211610120578063968a4f221461088357806397f735d5146108af5780639e584b30146108d5578063a8935dbf146108fb578063a914607c14610a09578063aad3ec9614610a115761027f565b8063859b97fe146107495780638c64628c146107755780638da5cb5b146107a15780638f32d59b146107a957806391529180146107c55761027f565b806344f91c1e116101f55780635cf435a7116101b95780635cf435a71461067757806361beb1d71461069d57806369fe0e2d146106d5578063715018a6146106f25780637de3bd07146106fa578063822232021461072c5761027f565b806344f91c1e146105a3578063453e93e5146105cf578063466877c21461060157806346a11e5c146106255780634d12b695146106515761027f565b8063200d44eb11610247578063200d44eb1461036e57806337afaf49146103c25780633a1c83ac146103ee5780633b2f046e1461043d5780633bdf871a1461054b5780633c6fc817146105715761027f565b8063072f5ff5146102845780630e030d6a146102bc5780630f41ba4b146102f057806310d86b1f146103225780631345569714610348575b600080fd5b6102aa6004803603602081101561029a57600080fd5b50356001600160a01b0316610d91565b60408051918252519081900360200190f35b6102ee600480360360608110156102d257600080fd5b506001600160a01b038135169060208101359060400135610dac565b005b6102aa6004803603606081101561030657600080fd5b506001600160a01b038135169060208101359060400135610f2e565b6102ee6004803603602081101561033857600080fd5b50356001600160a01b031661143d565b6102ee6004803603602081101561035e57600080fd5b50356001600160a01b03166114d3565b61039a6004803603604081101561038457600080fd5b506001600160a01b03813516906020013561153f565b604080516001600160a01b039094168452602084019290925282820152519081900360600190f35b6102aa600480360360408110156103d857600080fd5b506001600160a01b038135169060200135611588565b61041a6004803603604081101561040457600080fd5b506001600160a01b0381351690602001356115b3565b604080516001600160a01b03909316835260208301919091528051918290030190f35b6102ee6004803603606081101561045357600080fd5b810190602081018135600160201b81111561046d57600080fd5b82018360208201111561047f57600080fd5b803590602001918460208302840111600160201b831117156104a057600080fd5b919390929091602081019035600160201b8111156104bd57600080fd5b8201836020820111156104cf57600080fd5b803590602001918460208302840111600160201b831117156104f057600080fd5b919390929091602081019035600160201b81111561050d57600080fd5b82018360208201111561051f57600080fd5b803590602001918460208302840111600160201b8311171561054057600080fd5b5090925090506115e3565b6102aa6004803603602081101561056157600080fd5b50356001600160a01b0316611936565b6102ee6004803603606081101561058757600080fd5b506001600160a01b038135169060208101359060400135611951565b61039a600480360360408110156105b957600080fd5b506001600160a01b038135169060200135611af9565b61041a600480360360608110156105e557600080fd5b506001600160a01b038135169060208101359060400135611b2f565b610609611b80565b604080516001600160a01b039092168252519081900360200190f35b61039a6004803603604081101561063b57600080fd5b506001600160a01b038135169060200135611b8f565b6102ee6004803603602081101561066757600080fd5b50356001600160a01b0316611ba8565b6102aa6004803603602081101561068d57600080fd5b50356001600160a01b0316611c3b565b6102ee600480360360808110156106b357600080fd5b506001600160a01b038135169060208101359060408101359060600135611c56565b6102ee600480360360208110156106eb57600080fd5b503561208a565b6102ee6120e7565b6102aa6004803603606081101561071057600080fd5b506001600160a01b03813516906020810135906040013561217b565b6102ee6004803603602081101561074257600080fd5b5035612659565b6102ee6004803603604081101561075f57600080fd5b506001600160a01b0381351690602001356126a8565b6102aa6004803603604081101561078b57600080fd5b506001600160a01b0381351690602001356127ff565b610609612827565b6107b1612837565b604080519115158252519081900360200190f35b6102ee600480360360408110156107db57600080fd5b810190602081018135600160201b8111156107f557600080fd5b82018360208201111561080757600080fd5b803590602001918460208302840111600160201b8311171561082857600080fd5b919390929091602081019035600160201b81111561084557600080fd5b82018360208201111561085757600080fd5b803590602001918460208302840111600160201b8311171561087857600080fd5b509092509050612848565b6107b16004803603604081101561089957600080fd5b506001600160a01b038135169060200135612b72565b6107b1600480360360208110156108c557600080fd5b50356001600160a01b0316612b9c565b6102aa600480360360208110156108eb57600080fd5b50356001600160a01b0316612bb1565b6102ee6004803603606081101561091157600080fd5b810190602081018135600160201b81111561092b57600080fd5b82018360208201111561093d57600080fd5b803590602001918460208302840111600160201b8311171561095e57600080fd5b919390929091602081019035600160201b81111561097b57600080fd5b82018360208201111561098d57600080fd5b803590602001918460208302840111600160201b831117156109ae57600080fd5b919390929091602081019035600160201b8111156109cb57600080fd5b8201836020820111156109dd57600080fd5b803590602001918460208302840111600160201b831117156109fe57600080fd5b509092509050612bcc565b6102aa61317b565b6102ee60048036036040811015610a2757600080fd5b506001600160a01b038135169060200135613181565b6102ee60048036036040811015610a5357600080fd5b810190602081018135600160201b811115610a6d57600080fd5b820183602082011115610a7f57600080fd5b803590602001918460208302840111600160201b83111715610aa057600080fd5b919390929091602081019035600160201b811115610abd57600080fd5b820183602082011115610acf57600080fd5b803590602001918460208302840111600160201b83111715610af057600080fd5b50909250905061338c565b6102ee60048036036040811015610b1157600080fd5b810190602081018135600160201b811115610b2b57600080fd5b820183602082011115610b3d57600080fd5b803590602001918460208302840111600160201b83111715610b5e57600080fd5b919390929091602081019035600160201b811115610b7b57600080fd5b820183602082011115610b8d57600080fd5b803590602001918460208302840111600160201b83111715610bae57600080fd5b5090925090506135dc565b610609613b87565b61039a60048036036040811015610bd757600080fd5b506001600160a01b038135169060200135613b96565b610609613baf565b6102ee60048036036040811015610c0b57600080fd5b810190602081018135600160201b811115610c2557600080fd5b820183602082011115610c3757600080fd5b803590602001918460208302840111600160201b83111715610c5857600080fd5b919390929091602081019035600160201b811115610c7557600080fd5b820183602082011115610c8757600080fd5b803590602001918460208302840111600160201b83111715610ca857600080fd5b509092509050613bbe565b61039a60048036036040811015610cc957600080fd5b506001600160a01b038135169060200135613ee8565b6102aa613f01565b61041a60048036036060811015610cfd57600080fd5b506001600160a01b038135169060208101359060400135613f07565b6102ee60048036036020811015610d2f57600080fd5b50356001600160a01b0316613f2c565b6102ee60048036036020811015610d5557600080fd5b50356001600160a01b0316613f98565b6107b160048036036040811015610d7b57600080fd5b506001600160a01b038135169060200135613fee565b6001600160a01b03166000908152600e602052604090205490565b6001600160a01b0383166000908152600a602090815260408083208584529091529020610dd7614c13565b818381548110610de357fe5b60009182526020918290206040805180820190915260029092020180546001600160a01b03168083526001909101549282019290925291503314610e2657600080fd5b818381548110610e3257fe5b60009182526020822060029091020180546001600160a01b031916815560010155610e5e338686614018565b60055460208083015160408051600160e01b63a9059cbb0281523360048201526024810192909252516001600160a01b039093169263a9059cbb926044808401939192918290030181600087803b158015610eb857600080fd5b505af1158015610ecc573d6000803e3d6000fd5b505050506040513d6020811015610ee257600080fd5b5050604080513381529051849186916001600160a01b038916917f1a99e8401ad0f5c42a44ff151af1dd043e4abef0362617d113662727868e64ce919081900360200190a45050505050565b6004805460408051600160e01b637f4401030281526001600160a01b0380881694820194909452905160009387931691637f440103916024808301926020929190829003018186803b158015610f8357600080fd5b505afa158015610f97573d6000803e3d6000fd5b505050506040513d6020811015610fad57600080fd5b5051801561103857506004805460408051600160e01b639c8d83bb0281526001600160a01b038581169482019490945290519290911691639c8d83bb91602480820192602092909190829003018186803b15801561100a57600080fd5b505afa15801561101e573d6000803e3d6000fd5b505050506040513d602081101561103457600080fd5b5051155b61104157600080fd5b3360008181526006602052604090205460ff161561105e57600080fd5b6001600160a01b038087166000908152600d60209081526040808320898452909152902060028101548154919290911680158015906110a657506001600160a01b0381163314155b80156110b157508143105b6110ba57600080fd5b6001600160a01b03891660009081526010602090815260408083208b8452909152902080549650866110fc5787846001015411156110f757600080fd5b6111ea565b611104614c13565b81600189038154811061111357fe5b60009182526020918290206040805180820190915260029092020180546001600160a01b03168252600101549181018290529150891161115257600080fd5b600554815160208084015160408051600160e01b63a9059cbb0281526001600160a01b039485166004820152602481019290925251929093169263a9059cbb92604480830193928290030181600087803b1580156111af57600080fd5b505af11580156111c3573d6000803e3d6000fd5b505050506040513d60208110156111d957600080fd5b505080516111e8908c8c6141bc565b505b6040805180820182523380825260208083018c815285546001808201885560008881528481209651600290930290960180546001600160a01b0319166001600160a01b0393841617815592519201919091556005548551600160e01b6323b872dd0281526004810194909452306024850152604484018e905294519416936323b872dd936064808501948390030190829087803b15801561128a57600080fd5b505af115801561129e573d6000803e3d6000fd5b505050506040513d60208110156112b457600080fd5b50600090506112c233611936565b905060116000336001600160a01b03166001600160a01b0316815260200190815260200160002060405180606001604052808d6001600160a01b031681526020018c81526020018b8152509080600181540180825580915050906001820390600052602060002090600302016000909192909190915060008201518160000160006101000a8154816001600160a01b0302191690836001600160a01b03160217905550602082015181600101556040820151816002015550505080601260008d6001600160a01b03166001600160a01b0316815260200190815260200160002060008c8152602001908152602001600020819055506113cc6003548561433690919063ffffffff16565b43106113ec576003546113e690859063ffffffff61437f16565b60028601555b604080518a8152905133918c916001600160a01b038f16917f7f863cab1b412077be133ef69af7df0e6aca4c67ff7d89db843d601f124a025d919081900360200190a4505050505050509392505050565b611445612837565b6114875760408051600160e51b62461bcd0281526020600482018190526024820152600080516020614d4f833981519152604482015290519081900360640190fd5b6001600160a01b038116600081815260066020526040808220805460ff19166001179055517f9a4e757235705bd178419abc9fa645392c5c7dce5b09940a81ef76794b84bd689190a250565b6114db612837565b61151d5760408051600160e51b62461bcd0281526020600482018190526024820152600080516020614d4f833981519152604482015290519081900360640190fd5b600480546001600160a01b0319166001600160a01b0392909216919091179055565b600e602052816000526040600020818154811061155857fe5b60009182526020909120600390910201805460018201546002909201546001600160a01b03909116935090915083565b6001600160a01b0382166000908152600a602090815260408083208484529091529020545b92915050565b6007602090815260009283526040808420909152908252902080546001909101546001600160a01b039091169082565b6115eb612837565b61162d5760408051600160e51b62461bcd0281526020600482018190526024820152600080516020614d4f833981519152604482015290519081900360640190fd5b848314801561163b57508481145b61164457600080fd5b60005b8581101561192d576000600a600089898581811061166157fe5b905060200201356001600160a01b03166001600160a01b03166001600160a01b03168152602001908152602001600020600087878581811061169f57fe5b90506020020135815260200190815260200160002090506116be614c13565b818585858181106116cb57fe5b90506020020135815481106116dc57fe5b60009182526020918290206040805180820190915260029092020180546001600160a01b03168252600101549181019190915290508185858581811061171e57fe5b905060200201358154811061172f57fe5b60009182526020822060029091020180546001600160a01b031916815560010155805161178a908a8a8681811061176257fe5b905060200201356001600160a01b031689898781811061177e57fe5b90506020020135614018565b600554815160208084015160408051600160e01b63a9059cbb0281526001600160a01b039485166004820152602481019290925251929093169263a9059cbb92604480830193928290030181600087803b1580156117e757600080fd5b505af11580156117fb573d6000803e3d6000fd5b505050506040513d602081101561181157600080fd5b50859050848481811061182057fe5b9050602002013587878581811061183357fe5b905060200201358a8a8681811061184657fe5b905060200201356001600160a01b03166001600160a01b03167f1a99e8401ad0f5c42a44ff151af1dd043e4abef0362617d113662727868e64ce846000015160405180826001600160a01b03166001600160a01b0316815260200191505060405180910390a48484848181106118b857fe5b905060200201358787858181106118cb57fe5b905060200201358a8a868181106118de57fe5b905060200201356001600160a01b03166001600160a01b03167fcb855c3e97c83f0226c45d77800d5f87c8a28847246f0cbbe0c378cd9f4cefe060405160405180910390a45050600101611647565b50505050505050565b6001600160a01b031660009081526011602052604090205490565b3360008181526006602052604090205460ff161561196e57600080fd5b6001600160a01b0384166000908152600a602090815260408083208684529091529020611999614c13565b8184815481106119a557fe5b60009182526020918290206040805180820190915260029092020180546001600160a01b03168083526001909101549282019290925291503314156119e957600080fd5b805160408051600160e11b63214217070281523360048201526001600160a01b039283166024820152604481018890529051918816916342842e0e9160648082019260009290919082900301818387803b158015611a4657600080fd5b505af1158015611a5a573d6000803e3d6000fd5b50505050600081602001519050828581548110611a7357fe5b60009182526020822060029091020180546001600160a01b031916815560010155611aa0878733846143dc565b8151611aad908888614018565b604080513381529051869188916001600160a01b038b16917f464e2668c1227b2db98a77a3752380089500f8cd3e641a33e0aa2437c978a1a9919081900360200190a450505050505050565b600d6020908152600092835260408084209091529082529020805460018201546002909201546001600160a01b03909116919083565b60106020528260005260406000206020528160005260406000208181548110611b5457fe5b6000918252602090912060029091020180546001909101546001600160a01b0390911693509150839050565b6004546001600160a01b031681565b600b602052816000526040600020818154811061155857fe5b611bb0612837565b611bf25760408051600160e51b62461bcd0281526020600482018190526024820152600080516020614d4f833981519152604482015290519081900360640190fd5b6001600160a01b038116600081815260066020526040808220805460ff19169055517f866c4c4c778f85c380f911e6c43d125e57865fec38a5ccf53b62b74a8473ed169190a250565b6001600160a01b031660009081526008602052604090205490565b6004805460408051600160e01b637f4401030281526001600160a01b03808916948201949094529051879390921691637f44010391602480820192602092909190829003018186803b158015611cab57600080fd5b505afa158015611cbf573d6000803e3d6000fd5b505050506040513d6020811015611cd557600080fd5b50518015611d6057506004805460408051600160e01b639c8d83bb0281526001600160a01b038581169482019490945290519290911691639c8d83bb91602480820192602092909190829003018186803b158015611d3257600080fd5b505afa158015611d46573d6000803e3d6000fd5b505050506040513d6020811015611d5c57600080fd5b5051155b611d6957600080fd5b3360008181526006602052604090205460ff1615611d8657600080fd5b60408051600160e11b6331a9108f028152600481018790529051879133916001600160a01b03841691636352211e916024808301926020929190829003018186803b158015611dd457600080fd5b505afa158015611de8573d6000803e3d6000fd5b505050506040513d6020811015611dfe57600080fd5b50516001600160a01b031614611e1357600080fd5b438411611e1f57600080fd5b60408051600160e01b6323b872dd0281523360048201523060248201526044810188905290516001600160a01b038316916323b872dd91606480830192600092919082900301818387803b158015611e7657600080fd5b505af1158015611e8a573d6000803e3d6000fd5b505050506040518060600160405280336001600160a01b0316815260200186815260200185815250600d6000896001600160a01b03166001600160a01b03168152602001908152602001600020600088815260200190815260200160002060008201518160000160006101000a8154816001600160a01b0302191690836001600160a01b0316021790555060208201518160010155604082015181600201559050506000611f3733610d91565b9050600e6000336001600160a01b03166001600160a01b0316815260200190815260200160002060405180606001604052808a6001600160a01b03168152602001898152602001888152509080600181540180825580915050906001820390600052602060002090600302016000909192909190915060008201518160000160006101000a8154816001600160a01b0302191690836001600160a01b03160217905550602082015181600101556040820151816002015550505080600f60008a6001600160a01b03166001600160a01b03168152602001908152602001600020600089815260200190815260200160002081905550336001600160a01b031687896001600160a01b03167f9203fe49746ebaea75e6d96aa8792491d4ebcdc8fbd8919e5ab056cc10667ce88989604051808381526020018281526020019250505060405180910390a45050505050505050565b612092612837565b6120d45760408051600160e51b62461bcd0281526020600482018190526024820152600080516020614d4f833981519152604482015290519081900360640190fd5b61232881106120e257600080fd5b600155565b6120ef612837565b6121315760408051600160e51b62461bcd0281526020600482018190526024820152600080516020614d4f833981519152604482015290519081900360640190fd5b600080546040516001600160a01b03909116907f8be0079c531659141344cd1fd0a4f28419497f9722a3daafe3b4186f6b6457e0908390a3600080546001600160a01b0319169055565b6004805460408051600160e01b637f4401030281526001600160a01b0380881694820194909452905160009387931691637f440103916024808301926020929190829003018186803b1580156121d057600080fd5b505afa1580156121e4573d6000803e3d6000fd5b505050506040513d60208110156121fa57600080fd5b5051801561228557506004805460408051600160e01b639c8d83bb0281526001600160a01b038581169482019490945290519290911691639c8d83bb91602480820192602092909190829003018186803b15801561225757600080fd5b505afa15801561226b573d6000803e3d6000fd5b505050506040513d602081101561228157600080fd5b5051155b61228e57600080fd5b3360008181526006602052604090205460ff16156122ab57600080fd5b600084116122b857600080fd5b336001600160a01b0316866001600160a01b0316636352211e876040518263ffffffff1660e01b81526004018082815260200191505060206040518083038186803b15801561230657600080fd5b505afa15801561231a573d6000803e3d6000fd5b505050506040513d602081101561233057600080fd5b50516001600160a01b0316141561234657600080fd5b600061235133612bb1565b11156123dd57336000908152600b602052604081208054829061237057fe5b600091825260208083206001600160a01b038b168452600c825260408085208b86528352808520338652909252922054600390910290910191501580156123d2575080546001600160a01b0388811691161415806123d2575085816001015414155b6123db57600080fd5b505b6001600160a01b038681166000908152600a602090815260408083208984528252808320805482518084018452338082528186018c81526001808501865585895287892093516002860290940180546001600160a01b031916948b1694909417845590519201919091556005548451600160e01b6323b872dd0281526004810192909252306024830152604482018c90529351919950919592909216936323b872dd9360648084019491939192918390030190829087803b1580156124a157600080fd5b505af11580156124b5573d6000803e3d6000fd5b505050506040513d60208110156124cb57600080fd5b50600090506124d933612bb1565b9050600b6000336001600160a01b03166001600160a01b0316815260200190815260200160002060405180606001604052808a6001600160a01b03168152602001898152602001888152509080600181540180825580915050906001820390600052602060002090600302016000909192909190915060008201518160000160006101000a8154816001600160a01b0302191690836001600160a01b03160217905550602082015181600101556040820151816002015550505080600c60008a6001600160a01b03166001600160a01b0316815260200190815260200160002060008981526020019081526020016000206000336001600160a01b03166001600160a01b03168152602001908152602001600020819055508487896001600160a01b03167fbe72fd9b8baf2479ab63dab3ead72630b55f7f030098b560a66ba0dbe7c51508338a60405180836001600160a01b03166001600160a01b031681526020018281526020019250505060405180910390a4505050509392505050565b612661612837565b6126a35760408051600160e51b62461bcd0281526020600482018190526024820152600080516020614d4f833981519152604482015290519081900360640190fd5b600355565b6001600160a01b0382166000908152601060209081526040808320848452909152902054156126d657600080fd5b6001600160a01b038083166000908152600d602090815260408083208584529091529020541633811461270857600080fd5b60408051600160e01b6323b872dd0281523060048201526001600160a01b038381166024830152604482018590529151918516916323b872dd9160648082019260009290919082900301818387803b15801561276357600080fd5b505af1158015612777573d6000803e3d6000fd5b5050506001600160a01b0384166000908152600d60209081526040808320868452909152812080546001600160a01b03191681556001810182905560020155506127c28184846146e1565b604051339083906001600160a01b038616907f26d4510b556e779d6507640413e013206e44c8f5d018c7c74ed8926f3f024a9c90600090a4505050565b6001600160a01b03919091166000908152601060209081526040808320938352929052205490565b6000546001600160a01b03165b90565b6000546001600160a01b0316331490565b612850612837565b6128925760408051600160e51b62461bcd0281526020600482018190526024820152600080516020614d4f833981519152604482015290519081900360640190fd5b82811461289e57600080fd5b60005b83811015612b6b576000600760008787858181106128bb57fe5b905060200201356001600160a01b03166001600160a01b03166001600160a01b0316815260200190815260200160002060008585858181106128f957fe5b60209081029290920135835250810191909152604001600020546001600160a01b0316905085858381811061292a57fe5b905060200201356001600160a01b03166001600160a01b03166323b872dd308387878781811061295657fe5b905060200201356040518463ffffffff1660e01b815260040180846001600160a01b03166001600160a01b03168152602001836001600160a01b03166001600160a01b031681526020018281526020019350505050600060405180830381600087803b1580156129c557600080fd5b505af11580156129d9573d6000803e3d6000fd5b50505050600760008787858181106129ed57fe5b905060200201356001600160a01b03166001600160a01b03166001600160a01b031681526020019081526020016000206000858585818110612a2b57fe5b60209081029290920135835250810191909152604001600090812080546001600160a01b031916815560010155612a9081878785818110612a6857fe5b905060200201356001600160a01b0316868686818110612a8457fe5b9050602002013561485b565b806001600160a01b0316848484818110612aa657fe5b90506020020135878785818110612ab957fe5b905060200201356001600160a01b03166001600160a01b03167fc14de1e0640c6a4e914f570610341c22dcf6a3a940582f767b41c8802a94b4b460405160405180910390a4838383818110612b0a57fe5b90506020020135868684818110612b1d57fe5b905060200201356001600160a01b03166001600160a01b03167f5deb79d5bc0d944465d9cb2ae92a6d89a5e22142f829d46b03d8e8a3419c497d60405160405180910390a3506001016128a1565b5050505050565b6001600160a01b039182166000908152600d60209081526040808320938352929052205416151590565b60066020526000908152604090205460ff1681565b6001600160a01b03166000908152600b602052604090205490565b3360008181526006602052604090205460ff1615612be957600080fd5b8584148015612bf757508582145b612c0057600080fd5b60005b86811015613171576004546001600160a01b0316637f440103898984818110612c2857fe5b905060200201356001600160a01b03166040518263ffffffff1660e01b815260040180826001600160a01b03166001600160a01b0316815260200191505060206040518083038186803b158015612c7e57600080fd5b505afa158015612c92573d6000803e3d6000fd5b505050506040513d6020811015612ca857600080fd5b50518015612d5257506004546001600160a01b0316639c8d83bb898984818110612cce57fe5b905060200201356001600160a01b03166040518263ffffffff1660e01b815260040180826001600160a01b03166001600160a01b0316815260200191505060206040518083038186803b158015612d2457600080fd5b505afa158015612d38573d6000803e3d6000fd5b505050506040513d6020811015612d4e57600080fd5b5051155b612d5b57600080fd5b6000848483818110612d6957fe5b9050602002013511612d7a57600080fd5b6000888883818110612d8857fe5b905060200201356001600160a01b03169050336001600160a01b0316816001600160a01b0316636352211e898986818110612dbf57fe5b905060200201356040518263ffffffff1660e01b81526004018082815260200191505060206040518083038186803b158015612dfa57600080fd5b505afa158015612e0e573d6000803e3d6000fd5b505050506040513d6020811015612e2457600080fd5b50516001600160a01b031614612e3957600080fd5b806001600160a01b03166323b872dd33308a8a87818110612e5657fe5b905060200201356040518463ffffffff1660e01b815260040180846001600160a01b03166001600160a01b03168152602001836001600160a01b03166001600160a01b031681526020018281526020019350505050600060405180830381600087803b158015612ec557600080fd5b505af1158015612ed9573d6000803e3d6000fd5b505050506040518060400160405280336001600160a01b03168152602001868685818110612f0357fe5b90506020020135815250600760008b8b86818110612f1d57fe5b905060200201356001600160a01b03166001600160a01b03166001600160a01b031681526020019081526020016000206000898986818110612f5b57fe5b60209081029290920135835250818101929092526040016000908120835181546001600160a01b0319166001600160a01b039091161781559290910151600190920191909155612faa33611c3b565b3360009081526008602052604090819020815160608101909252919250808c8c87818110612fd457fe5b905060200201356001600160a01b03166001600160a01b031681526020018a8a87818110612ffe57fe5b90506020020135815260200188888781811061301657fe5b602090810292909201359092528354600180820186556000958652828620855160039093020180546001600160a01b0319166001600160a01b0390931692909217825591840151918101919091556040909201516002909201919091555081906009908c8c8781811061308557fe5b905060200201356001600160a01b03166001600160a01b03166001600160a01b0316815260200190815260200160002060008a8a878181106130c357fe5b90506020020135815260200190815260200160002081905550336001600160a01b03168888858181106130f257fe5b905060200201358b8b8681811061310557fe5b905060200201356001600160a01b03166001600160a01b03167f463904c4b0359ad674399537c3d4e4e44acc0b0dd259453d17329fd9b4be52c089898881811061314b57fe5b905060200201356040518082815260200191505060405180910390a45050600101612c03565b5050505050505050565b60035481565b613189614c2a565b506001600160a01b038083166000818152600d602090815260408083208684528252808320815160608082018452825490971681526001820154818501526002909101548183015293835260108252808320868452825280832080548251818502810185019093528083529495949193909284015b82821015613246576000848152602090819020604080518082019091526002850290910180546001600160a01b031682526001908101548284015290835290920191016131fe565b505050509050613254614c13565b8151829061326990600163ffffffff61433616565b8151811061327357fe5b60200260200101519050826040015143101561328e57600080fd5b805160408051600160e11b63214217070281523060048201526001600160a01b039283166024820152604481018790529051918716916342842e0e9160648082019260009290919082900301818387803b1580156132eb57600080fd5b505af11580156132ff573d6000803e3d6000fd5b505050506133178585856000015184602001516143dc565b82516133249086866146e1565b80516133319086866141bc565b80600001516001600160a01b031684866001600160a01b03167fad03f837a9207e368d73ec028e1f54428184da8cfea258cc116da2225f3ac5eb84602001516040518082815260200191505060405180910390a45050505050565b82811461339857600080fd5b60005b83811015612b6b576000600760008787858181106133b557fe5b905060200201356001600160a01b03166001600160a01b03166001600160a01b0316815260200190815260200160002060008585858181106133f357fe5b60209081029290920135835250810191909152604001600020546001600160a01b0316905033811461342457600080fd5b85858381811061343057fe5b905060200201356001600160a01b03166001600160a01b03166323b872dd308387878781811061345c57fe5b905060200201356040518463ffffffff1660e01b815260040180846001600160a01b03166001600160a01b03168152602001836001600160a01b03166001600160a01b031681526020018281526020019350505050600060405180830381600087803b1580156134cb57600080fd5b505af11580156134df573d6000803e3d6000fd5b50505050600760008787858181106134f357fe5b905060200201356001600160a01b03166001600160a01b03166001600160a01b03168152602001908152602001600020600085858581811061353157fe5b60209081029290920135835250810191909152604001600090812080546001600160a01b03191681556001015561356e81878785818110612a6857fe5b3384848481811061357b57fe5b9050602002013587878581811061358e57fe5b905060200201356001600160a01b03166001600160a01b03167fc14de1e0640c6a4e914f570610341c22dcf6a3a940582f767b41c8802a94b4b460405160405180910390a45060010161339b565b6135e4612837565b6136265760408051600160e51b62461bcd0281526020600482018190526024820152600080516020614d4f833981519152604482015290519081900360640190fd5b82811461363257600080fd5b60005b83811015612b6b57613645614c2a565b600d600087878581811061365557fe5b905060200201356001600160a01b03166001600160a01b03166001600160a01b03168152602001908152602001600020600085858581811061369357fe5b9050602002013581526020019081526020016000206040518060600160405290816000820160009054906101000a90046001600160a01b03166001600160a01b03166001600160a01b0316815260200160018201548152602001600282015481525050905060606010600088888681811061370a57fe5b905060200201356001600160a01b03166001600160a01b03166001600160a01b03168152602001908152602001600020600086868681811061374857fe5b905060200201358152602001908152602001600020805480602002602001604051908101604052809291908181526020016000905b828210156137c5576000848152602090819020604080518082019091526002850290910180546001600160a01b0316825260019081015482840152908352909201910161377d565b50505050905060008151111561392b576137dd614c13565b816001835103815181106137ed57fe5b60209081029190910181015160055481518284015160408051600160e01b63a9059cbb0281526001600160a01b03938416600482015260248101929092525193955091169263a9059cbb926044808401938290030181600087803b15801561385457600080fd5b505af1158015613868573d6000803e3d6000fd5b505050506040513d602081101561387e57600080fd5b505080516138ba9089898781811061389257fe5b905060200201356001600160a01b03168888888181106138ae57fe5b905060200201356141bc565b601060008989878181106138ca57fe5b905060200201356001600160a01b03166001600160a01b03166001600160a01b03168152602001908152602001600020600087878781811061390857fe5b90506020020135815260200190815260200160002060006139299190614c54565b505b86868481811061393757fe5b905060200201356001600160a01b03166001600160a01b03166323b872dd30846000015188888881811061396757fe5b905060200201356040518463ffffffff1660e01b815260040180846001600160a01b03166001600160a01b03168152602001836001600160a01b03166001600160a01b031681526020018281526020019350505050600060405180830381600087803b1580156139d657600080fd5b505af11580156139ea573d6000803e3d6000fd5b50505050600d60008888868181106139fe57fe5b905060200201356001600160a01b03166001600160a01b03166001600160a01b031681526020019081526020016000206000868686818110613a3c57fe5b60209081029290920135835250810191909152604001600090812080546001600160a01b031916815560018101829055600201558151613aaa90888886818110613a8257fe5b905060200201356001600160a01b0316878787818110613a9e57fe5b905060200201356146e1565b81516001600160a01b0316858585818110613ac157fe5b90506020020135888886818110613ad457fe5b905060200201356001600160a01b03166001600160a01b03167f26d4510b556e779d6507640413e013206e44c8f5d018c7c74ed8926f3f024a9c60405160405180910390a4848484818110613b2557fe5b90506020020135878785818110613b3857fe5b905060200201356001600160a01b03166001600160a01b03167f0b6a6e5699648b002a2b58c277b1339f3fd3dee5c20cec5c7a46ff809b82521f60405160405180910390a35050600101613635565b6002546001600160a01b031681565b6008602052816000526040600020818154811061155857fe5b6005546001600160a01b031681565b3360008181526006602052604090205460ff1615613bdb57600080fd5b838214613be757600080fd5b60005b84811015613ee057613bfa614c13565b60076000888885818110613c0a57fe5b905060200201356001600160a01b03166001600160a01b03166001600160a01b031681526020019081526020016000206000868685818110613c4857fe5b60209081029290920135835250818101929092526040908101600020815180830190925280546001600160a01b031680835260019091015492820192909252915015801590613ca1575080516001600160a01b03163314155b613caa57600080fd5b868683818110613cb657fe5b905060200201356001600160a01b03166001600160a01b03166342842e0e3033888887818110613ce257fe5b905060200201356040518463ffffffff1660e01b815260040180846001600160a01b03166001600160a01b03168152602001836001600160a01b03166001600160a01b031681526020018281526020019350505050600060405180830381600087803b158015613d5157600080fd5b505af1158015613d65573d6000803e3d6000fd5b505060055460208085015160408051600160e01b6323b872dd0281523360048201523060248201526044810192909252516001600160a01b0390931694506323b872dd9350606480820193918290030181600087803b158015613dc757600080fd5b505af1158015613ddb573d6000803e3d6000fd5b505050506040513d6020811015613df157600080fd5b50613e359050878784818110613e0357fe5b905060200201356001600160a01b0316868685818110613e1f57fe5b90506020020135836000015184602001516143dc565b8051613e6390888885818110613e4757fe5b905060200201356001600160a01b0316878786818110612a8457fe5b33858584818110613e7057fe5b90506020020135888885818110613e8357fe5b905060200201356001600160a01b03166001600160a01b03167fa76261e4127b2ebc809716d704216602fdaee4ae5b72745ed9aec0d7bd73b75d84602001516040518082815260200191505060405180910390a450600101613bea565b505050505050565b6011602052816000526040600020818154811061155857fe5b60015481565b600a6020528260005260406000206020528160005260406000208181548110611b5457fe5b613f34612837565b613f765760408051600160e51b62461bcd0281526020600482018190526024820152600080516020614d4f833981519152604482015290519081900360640190fd5b600280546001600160a01b0319166001600160a01b0392909216919091179055565b613fa0612837565b613fe25760408051600160e51b62461bcd0281526020600482018190526024820152600080516020614d4f833981519152604482015290519081900360640190fd5b613feb816149d5565b50565b6001600160a01b039182166000908152600760209081526040808320938352929052205416151590565b6000614034600161402886612bb1565b9063ffffffff61433616565b6001600160a01b038085166000908152600c6020908152604080832087845282528083209389168352929052205490915080821461415c57614074614c2a565b6001600160a01b0386166000908152600b6020526040902080548490811061409857fe5b6000918252602080832060408051606081018252600390940290910180546001600160a01b039081168552600182015485850152600290910154848301528a168452600b90915290912080549192508291849081106140f357fe5b6000918252602080832084516003939093020180546001600160a01b0319166001600160a01b03938416178155848201516001820155604094850151600290910155845182168352600c8152838320948101518352938452828220908916825290925290208190555b6001600160a01b0385166000908152600b60205260409020805490614185906000198301614c75565b5050506001600160a01b039182166000908152600c6020908152604080832093835292815282822094909316815292909152812055565b60006141cc600161402886611936565b6001600160a01b03841660009081526012602090815260408083208684529091529020549091508082146142e157614202614c2a565b6001600160a01b038616600090815260116020526040902080548490811061422657fe5b6000918252602080832060408051606081018252600390940290910180546001600160a01b039081168552600182015485850152600290910154848301528a1684526011909152909120805491925082918490811061428157fe5b6000918252602080832084516003939093020180546001600160a01b0319166001600160a01b0393841617815584820151600182015560409485015160029091015584519091168252601281528282209381015182529290925290208190555b6001600160a01b038516600090815260116020526040902080549061430a906000198301614c75565b5050506001600160a01b0390911660009081526012602090815260408083209383529290529081205550565b600061437883836040518060400160405280601e81526020017f536166654d6174683a207375627472616374696f6e206f766572666c6f770000815250614a78565b9392505050565b6000828201838110156143785760408051600160e51b62461bcd02815260206004820152601b60248201527f536166654d6174683a206164646974696f6e206f766572666c6f770000000000604482015290519081900360640190fd5b60006144056127106143f960015485614b1290919063ffffffff16565b9063ffffffff614b6e16565b905080156144965760055460025460408051600160e01b63a9059cbb0281526001600160a01b039283166004820152602481018590529051919092169163a9059cbb9160448083019260209291908290030181600087803b15801561446957600080fd5b505af115801561447d573d6000803e3d6000fd5b505050506040513d602081101561449357600080fd5b50505b6004805460408051600160e51b6304fd35a50281526001600160a01b0389811694820194909452815160009485941692639fa6b4a09260248082019391829003018186803b1580156144e757600080fd5b505afa1580156144fb573d6000803e3d6000fd5b505050506040513d604081101561451157600080fd5b508051602090910151909250905060006145376127106143f9878563ffffffff614b1216565b905080156145c55760055460408051600160e01b63a9059cbb0281526001600160a01b038681166004830152602482018590529151919092169163a9059cbb9160448083019260209291908290030181600087803b15801561459857600080fd5b505af11580156145ac573d6000803e3d6000fd5b505050506040513d60208110156145c257600080fd5b50505b6005546001600160a01b031663a9059cbb876145eb846140288a8a63ffffffff61433616565b6040518363ffffffff1660e01b815260040180836001600160a01b03166001600160a01b0316815260200182815260200192505050602060405180830381600087803b15801561463a57600080fd5b505af115801561464e573d6000803e3d6000fd5b505050506040513d602081101561466457600080fd5b50506001600160a01b03881660008181526007602090815260408083208b8452825280832080546001600160a01b031990811682556001918201859055858552600d84528285208d8652845282852080549091168155908101849055600201839055928252601081528282208a8352905290812061317191614c54565b60006146f1600161402886610d91565b6001600160a01b0384166000908152600f6020908152604080832086845290915290205490915080821461480657614727614c2a565b6001600160a01b0386166000908152600e6020526040902080548490811061474b57fe5b6000918252602080832060408051606081018252600390940290910180546001600160a01b039081168552600182015485850152600290910154848301528a168452600e90915290912080549192508291849081106147a657fe5b6000918252602080832084516003939093020180546001600160a01b0319166001600160a01b0393841617815584820151600182015560409485015160029091015584519091168252600f81528282209381015182529290925290208190555b6001600160a01b0385166000908152600e6020526040902080549061482f906000198301614c75565b5050506001600160a01b039091166000908152600f602090815260408083209383529290529081205550565b600061486b600161402886611c3b565b6001600160a01b0384166000908152600960209081526040808320868452909152902054909150808214614980576148a1614c2a565b6001600160a01b03861660009081526008602052604090208054849081106148c557fe5b6000918252602080832060408051606081018252600390940290910180546001600160a01b039081168552600182015485850152600290910154848301528a1684526008909152909120805491925082918490811061492057fe5b6000918252602080832084516003939093020180546001600160a01b0319166001600160a01b0393841617815584820151600182015560409485015160029091015584519091168252600981528282209381015182529290925290208190555b6001600160a01b03851660009081526008602052604090208054906149a9906000198301614c75565b5050506001600160a01b0390911660009081526009602090815260408083209383529290529081205550565b6001600160a01b038116614a1d57604051600160e51b62461bcd028152600401808060200182810382526026815260200180614d086026913960400191505060405180910390fd5b600080546040516001600160a01b03808516939216917f8be0079c531659141344cd1fd0a4f28419497f9722a3daafe3b4186f6b6457e091a3600080546001600160a01b0319166001600160a01b0392909216919091179055565b60008184841115614b0a57604051600160e51b62461bcd0281526004018080602001828103825283818151815260200191508051906020019080838360005b83811015614acf578181015183820152602001614ab7565b50505050905090810190601f168015614afc5780820380516001836020036101000a031916815260200191505b509250505060405180910390fd5b505050900390565b600082614b21575060006115ad565b82820282848281614b2e57fe5b041461437857604051600160e51b62461bcd028152600401808060200182810382526021815260200180614d2e6021913960400191505060405180910390fd5b600061437883836040518060400160405280601a81526020017f536166654d6174683a206469766973696f6e206279207a65726f00000000000081525060008183614bfd57604051600160e51b62461bcd028152602060048201818152835160248401528351909283926044909101919085019080838360008315614acf578181015183820152602001614ab7565b506000838581614c0957fe5b0495945050505050565b604080518082019091526000808252602082015290565b604051806060016040528060006001600160a01b0316815260200160008152602001600081525090565b5080546000825560020290600052602060002090810190613feb9190614ca6565b815481835581811115614ca157600302816003028360005260206000209182019101614ca19190614cd5565b505050565b61283491905b80821115614cd15780546001600160a01b031916815560006001820155600201614cac565b5090565b61283491905b80821115614cd15780546001600160a01b03191681556000600182018190556002820155600301614cdb56fe4f776e61626c653a206e6577206f776e657220697320746865207a65726f2061646472657373536166654d6174683a206d756c7469706c69636174696f6e206f766572666c6f774f776e61626c653a2063616c6c6572206973206e6f7420746865206f776e6572a165627a7a723058203e987a7189af89022682375b60aa5408217c1707af17c4c5ebace12737de78c50029",
  "linkReferences": {},
  "deployedLinkReferences": {}
}