{
  "_format": "hh-sol-artifact-1",
  "contractName": "BurnPool",
  "sourceName": "contracts/BurnPool.sol",
  "abi": [
    {
      "constant": true,
      "inputs": [],
      "name": "mixEmitter",
      "outputs": [
        {
          "name": "",
          "type": "address"
        }
      ],
      "payable": false,
      "stateMutability": "view",
      "type": "function"
    },
    {
      "constant": false,
      "inputs": [],
      "name": "burn",
      "outputs": [],
      "payable": false,
      "stateMutability": "nonpayable",
      "type": "function"
    },
    {
      "constant": true,
      "inputs": [],
      "name": "mix",
      "outputs": [
        {
          "name": "",
          "type": "address"
        }
      ],
      "payable": false,
      "stateMutability": "view",
      "type": "function"
    },
    {
      "constant": true,
      "inputs": [],
      "name": "pid",
      "outputs": [
        {
          "name": "",
          "type": "uint256"
        }
      ],
      "payable": false,
      "stateMutability": "view",
      "type": "function"
    },
    {
      "inputs": [
        {
          "name": "_mixEmitter",
          "type": "address"
        },
        {
          "name": "_pid",
          "type": "uint256"
        }
      ],
      "payable": false,
      "stateMutability": "nonpayable",
      "type": "constructor"
    }
  ],
  "bytecode": "0x608060405234801561001057600080fd5b506040516040806103308339810180604052604081101561003057600080fd5b508051602091820151600080546001600160a01b0319166001600160a01b038416908117909155604080517fbe32cf8d000000000000000000000000000000000000000000000000000000008152905193949293919263be32cf8d92600480840193829003018186803b1580156100a657600080fd5b505afa1580156100ba573d6000803e3d6000fd5b505050506040513d60208110156100d057600080fd5b5051600180546001600160a01b0319166001600160a01b039092169190911790556002555061022c806101046000396000f3fe608060405234801561001057600080fd5b506004361061004c5760003560e01c80630ade3ac11461005157806344df8e7014610075578063be32cf8d1461007f578063f106845414610087575b600080fd5b6100596100a1565b604080516001600160a01b039092168252519081900360200190f35b61007d6100b0565b005b6100596101eb565b61008f6101fa565b60408051918252519081900360200190f35b6000546001600160a01b031681565b6000805460025460408051600160e11b6328f582d30281526004810192909252516001600160a01b03909216926351eb05a69260248084019382900301818387803b1580156100fe57600080fd5b505af1158015610112573d6000803e3d6000fd5b505060015460408051600160e01b6370a0823102815230600482015290516001600160a01b0390921693506342966c68925083916370a0823191602480820192602092909190829003018186803b15801561016c57600080fd5b505afa158015610180573d6000803e3d6000fd5b505050506040513d602081101561019657600080fd5b50516040805163ffffffff841660e01b8152600481019290925251602480830192600092919082900301818387803b1580156101d157600080fd5b505af11580156101e5573d6000803e3d6000fd5b50505050565b6001546001600160a01b031681565b6002548156fea165627a7a72305820a22de7862b78ea775e3d6ccc1a7ee6d21aebcbccd7193b52e56f70ac2ab3b5c30029",
  "linkReferences": {},
  "deployedLinkReferences": {}
}