{
    "_format": "hh-sol-artifact-1",
    "contractName": "PFPs",
    "sourceName": "contracts/PFPs.sol",
    "abi": [
        {
            "constant": false,
            "inputs": [
                {
                    "name": "addr",
                    "type": "address"
                }
            ],
            "name": "propose",
            "outputs": [],
            "payable": false,
            "stateMutability": "nonpayable",
            "type": "function"
        },
        {
            "constant": true,
            "inputs": [
                {
                    "name": "",
                    "type": "uint256"
                }
            ],
            "name": "proposals",
            "outputs": [
                {
                    "name": "addr",
                    "type": "address"
                },
                {
                    "name": "manager",
                    "type": "address"
                }
            ],
            "payable": false,
            "stateMutability": "view",
            "type": "function"
        },
        {
            "constant": true,
            "inputs": [
                {
                    "name": "",
                    "type": "address"
                }
            ],
            "name": "extras",
            "outputs": [
                {
                    "name": "",
                    "type": "string"
                }
            ],
            "payable": false,
            "stateMutability": "view",
            "type": "function"
        },
        {
            "constant": true,
            "inputs": [
                {
                    "name": "",
                    "type": "uint256"
                }
            ],
            "name": "addrs",
            "outputs": [
                {
                    "name": "",
                    "type": "address"
                }
            ],
            "payable": false,
            "stateMutability": "view",
            "type": "function"
        },
        {
            "constant": true,
            "inputs": [
                {
                    "name": "",
                    "type": "address"
                },
                {
                    "name": "",
                    "type": "uint256"
                }
            ],
            "name": "managerPFPs",
            "outputs": [
                {
                    "name": "",
                    "type": "address"
                }
            ],
            "payable": false,
            "stateMutability": "view",
            "type": "function"
        },
        {
            "constant": true,
            "inputs": [
                {
                    "name": "",
                    "type": "address"
                },
                {
                    "name": "",
                    "type": "address"
                }
            ],
            "name": "managersIndex",
            "outputs": [
                {
                    "name": "",
                    "type": "uint256"
                }
            ],
            "payable": false,
            "stateMutability": "view",
            "type": "function"
        },
        {
            "constant": false,
            "inputs": [
                {
                    "name": "addr",
                    "type": "address"
                },
                {
                    "name": "extra",
                    "type": "string"
                }
            ],
            "name": "setExtra",
            "outputs": [],
            "payable": false,
            "stateMutability": "nonpayable",
            "type": "function"
        },
        {
            "constant": false,
            "inputs": [
                {
                    "name": "addr",
                    "type": "address"
                },
                {
                    "name": "receiver",
                    "type": "address"
                },
                {
                    "name": "royalty",
                    "type": "uint256"
                }
            ],
            "name": "setRoyalty",
            "outputs": [],
            "payable": false,
            "stateMutability": "nonpayable",
            "type": "function"
        },
        {
            "constant": true,
            "inputs": [
                {
                    "name": "",
                    "type": "address"
                }
            ],
            "name": "addedBlocks",
            "outputs": [
                {
                    "name": "",
                    "type": "uint256"
                }
            ],
            "payable": false,
            "stateMutability": "view",
            "type": "function"
        },
        {
            "constant": false,
            "inputs": [
                {
                    "name": "addr",
                    "type": "address"
                }
            ],
            "name": "addByPFPOwner",
            "outputs": [],
            "payable": false,
            "stateMutability": "nonpayable",
            "type": "function"
        },
        {
            "constant": true,
            "inputs": [
                {
                    "name": "",
                    "type": "address"
                },
                {
                    "name": "",
                    "type": "uint256"
                }
            ],
            "name": "managers",
            "outputs": [
                {
                    "name": "",
                    "type": "address"
                }
            ],
            "payable": false,
            "stateMutability": "view",
            "type": "function"
        },
        {
            "constant": true,
            "inputs": [
                {
                    "name": "addr",
                    "type": "address"
                }
            ],
            "name": "getTotalSupply",
            "outputs": [
                {
                    "name": "",
                    "type": "uint256"
                }
            ],
            "payable": false,
            "stateMutability": "view",
            "type": "function"
        },
        {
            "constant": true,
            "inputs": [
                {
                    "name": "",
                    "type": "address"
                },
                {
                    "name": "",
                    "type": "address"
                }
            ],
            "name": "managerPFPsIndex",
            "outputs": [
                {
                    "name": "",
                    "type": "uint256"
                }
            ],
            "payable": false,
            "stateMutability": "view",
            "type": "function"
        },
        {
            "constant": false,
            "inputs": [],
            "name": "renounceOwnership",
            "outputs": [],
            "payable": false,
            "stateMutability": "nonpayable",
            "type": "function"
        },
        {
            "constant": false,
            "inputs": [
                {
                    "name": "addr",
                    "type": "address"
                },
                {
                    "name": "totalSupply",
                    "type": "uint256"
                }
            ],
            "name": "setTotalSupply",
            "outputs": [],
            "payable": false,
            "stateMutability": "nonpayable",
            "type": "function"
        },
        {
            "constant": true,
            "inputs": [
                {
                    "name": "",
                    "type": "address"
                }
            ],
            "name": "added",
            "outputs": [
                {
                    "name": "",
                    "type": "bool"
                }
            ],
            "payable": false,
            "stateMutability": "view",
            "type": "function"
        },
        {
            "constant": false,
            "inputs": [
                {
                    "name": "addr",
                    "type": "address"
                },
                {
                    "name": "manager",
                    "type": "address"
                }
            ],
            "name": "addManager",
            "outputs": [],
            "payable": false,
            "stateMutability": "nonpayable",
            "type": "function"
        },
        {
            "constant": false,
            "inputs": [
                {
                    "name": "addr",
                    "type": "address"
                }
            ],
            "name": "addByMinter",
            "outputs": [],
            "payable": false,
            "stateMutability": "nonpayable",
            "type": "function"
        },
        {
            "constant": true,
            "inputs": [],
            "name": "owner",
            "outputs": [
                {
                    "name": "",
                    "type": "address"
                }
            ],
            "payable": false,
            "stateMutability": "view",
            "type": "function"
        },
        {
            "constant": true,
            "inputs": [
                {
                    "name": "addr",
                    "type": "address"
                }
            ],
            "name": "managerCount",
            "outputs": [
                {
                    "name": "",
                    "type": "uint256"
                }
            ],
            "payable": false,
            "stateMutability": "view",
            "type": "function"
        },
        {
            "constant": true,
            "inputs": [],
            "name": "isOwner",
            "outputs": [
                {
                    "name": "",
                    "type": "bool"
                }
            ],
            "payable": false,
            "stateMutability": "view",
            "type": "function"
        },
        {
            "constant": true,
            "inputs": [
                {
                    "name": "",
                    "type": "address"
                }
            ],
            "name": "enumerables",
            "outputs": [
                {
                    "name": "",
                    "type": "bool"
                }
            ],
            "payable": false,
            "stateMutability": "view",
            "type": "function"
        },
        {
            "constant": true,
            "inputs": [
                {
                    "name": "",
                    "type": "address"
                }
            ],
            "name": "totalSupplies",
            "outputs": [
                {
                    "name": "",
                    "type": "uint256"
                }
            ],
            "payable": false,
            "stateMutability": "view",
            "type": "function"
        },
        {
            "constant": false,
            "inputs": [
                {
                    "name": "addr",
                    "type": "address"
                }
            ],
            "name": "ban",
            "outputs": [],
            "payable": false,
            "stateMutability": "nonpayable",
            "type": "function"
        },
        {
            "constant": true,
            "inputs": [
                {
                    "name": "",
                    "type": "address"
                }
            ],
            "name": "banned",
            "outputs": [
                {
                    "name": "",
                    "type": "bool"
                }
            ],
            "payable": false,
            "stateMutability": "view",
            "type": "function"
        },
        {
            "constant": false,
            "inputs": [
                {
                    "name": "proposalId",
                    "type": "uint256"
                }
            ],
            "name": "passProposal",
            "outputs": [],
            "payable": false,
            "stateMutability": "nonpayable",
            "type": "function"
        },
        {
            "constant": true,
            "inputs": [
                {
                    "name": "",
                    "type": "address"
                }
            ],
            "name": "royalties",
            "outputs": [
                {
                    "name": "receiver",
                    "type": "address"
                },
                {
                    "name": "royalty",
                    "type": "uint256"
                }
            ],
            "payable": false,
            "stateMutability": "view",
            "type": "function"
        },
        {
            "constant": true,
            "inputs": [
                {
                    "name": "addr",
                    "type": "address"
                },
                {
                    "name": "manager",
                    "type": "address"
                }
            ],
            "name": "existsManager",
            "outputs": [
                {
                    "name": "",
                    "type": "bool"
                }
            ],
            "payable": false,
            "stateMutability": "view",
            "type": "function"
        },
        {
            "constant": false,
            "inputs": [
                {
                    "name": "addr",
                    "type": "address"
                }
            ],
            "name": "unban",
            "outputs": [],
            "payable": false,
            "stateMutability": "nonpayable",
            "type": "function"
        },
        {
            "constant": true,
            "inputs": [
                {
                    "name": "manager",
                    "type": "address"
                }
            ],
            "name": "managerPFPCount",
            "outputs": [
                {
                    "name": "",
                    "type": "uint256"
                }
            ],
            "payable": false,
            "stateMutability": "view",
            "type": "function"
        },
        {
            "constant": false,
            "inputs": [
                {
                    "name": "addr",
                    "type": "address"
                },
                {
                    "name": "manager",
                    "type": "address"
                }
            ],
            "name": "addByOwner",
            "outputs": [],
            "payable": false,
            "stateMutability": "nonpayable",
            "type": "function"
        },
        {
            "constant": true,
            "inputs": [],
            "name": "proposalCount",
            "outputs": [
                {
                    "name": "",
                    "type": "uint256"
                }
            ],
            "payable": false,
            "stateMutability": "view",
            "type": "function"
        },
        {
            "constant": false,
            "inputs": [
                {
                    "name": "newOwner",
                    "type": "address"
                }
            ],
            "name": "transferOwnership",
            "outputs": [],
            "payable": false,
            "stateMutability": "nonpayable",
            "type": "function"
        },
        {
            "constant": false,
            "inputs": [
                {
                    "name": "addr",
                    "type": "address"
                },
                {
                    "name": "enumerable",
                    "type": "bool"
                }
            ],
            "name": "setEnumerable",
            "outputs": [],
            "payable": false,
            "stateMutability": "nonpayable",
            "type": "function"
        },
        {
            "constant": false,
            "inputs": [
                {
                    "name": "addr",
                    "type": "address"
                },
                {
                    "name": "manager",
                    "type": "address"
                }
            ],
            "name": "removeManager",
            "outputs": [],
            "payable": false,
            "stateMutability": "nonpayable",
            "type": "function"
        },
        {
            "constant": true,
            "inputs": [],
            "name": "addrCount",
            "outputs": [
                {
                    "name": "",
                    "type": "uint256"
                }
            ],
            "payable": false,
            "stateMutability": "view",
            "type": "function"
        },
        {
            "anonymous": false,
            "inputs": [
                {
                    "indexed": true,
                    "name": "addr",
                    "type": "address"
                },
                {
                    "indexed": true,
                    "name": "manager",
                    "type": "address"
                }
            ],
            "name": "Propose",
            "type": "event"
        },
        {
            "anonymous": false,
            "inputs": [
                {
                    "indexed": true,
                    "name": "addr",
                    "type": "address"
                },
                {
                    "indexed": true,
                    "name": "manager",
                    "type": "address"
                }
            ],
            "name": "Add",
            "type": "event"
        },
        {
            "anonymous": false,
            "inputs": [
                {
                    "indexed": true,
                    "name": "addr",
                    "type": "address"
                },
                {
                    "indexed": true,
                    "name": "manager",
                    "type": "address"
                }
            ],
            "name": "AddManager",
            "type": "event"
        },
        {
            "anonymous": false,
            "inputs": [
                {
                    "indexed": true,
                    "name": "addr",
                    "type": "address"
                },
                {
                    "indexed": true,
                    "name": "manager",
                    "type": "address"
                }
            ],
            "name": "RemoveManager",
            "type": "event"
        },
        {
            "anonymous": false,
            "inputs": [
                {
                    "indexed": true,
                    "name": "addr",
                    "type": "address"
                },
                {
                    "indexed": false,
                    "name": "enumerable",
                    "type": "bool"
                }
            ],
            "name": "SetEnumerable",
            "type": "event"
        },
        {
            "anonymous": false,
            "inputs": [
                {
                    "indexed": true,
                    "name": "addr",
                    "type": "address"
                },
                {
                    "indexed": false,
                    "name": "totalSupply",
                    "type": "uint256"
                }
            ],
            "name": "SetTotalSupply",
            "type": "event"
        },
        {
            "anonymous": false,
            "inputs": [
                {
                    "indexed": true,
                    "name": "addr",
                    "type": "address"
                },
                {
                    "indexed": false,
                    "name": "receiver",
                    "type": "address"
                },
                {
                    "indexed": false,
                    "name": "royalty",
                    "type": "uint256"
                }
            ],
            "name": "SetRoyalty",
            "type": "event"
        },
        {
            "anonymous": false,
            "inputs": [
                {
                    "indexed": true,
                    "name": "addr",
                    "type": "address"
                },
                {
                    "indexed": false,
                    "name": "extra",
                    "type": "string"
                }
            ],
            "name": "SetExtra",
            "type": "event"
        },
        {
            "anonymous": false,
            "inputs": [
                {
                    "indexed": true,
                    "name": "addr",
                    "type": "address"
                }
            ],
            "name": "Ban",
            "type": "event"
        },
        {
            "anonymous": false,
            "inputs": [
                {
                    "indexed": true,
                    "name": "addr",
                    "type": "address"
                }
            ],
            "name": "Unban",
            "type": "event"
        },
        {
            "anonymous": false,
            "inputs": [
                {
                    "indexed": true,
                    "name": "previousOwner",
                    "type": "address"
                },
                {
                    "indexed": true,
                    "name": "newOwner",
                    "type": "address"
                }
            ],
            "name": "OwnershipTransferred",
            "type": "event"
        }
    ],
    "bytecode": "0x60806040819052600080546001600160a01b03191633178082556001600160a01b0316917f8be0079c531659141344cd1fd0a4f28419497f9722a3daafe3b4186f6b6457e0908290a3611bba806100576000396000f3fe608060405234801561001057600080fd5b506004361061021c5760003560e01c80638da5cb5b11610125578063b16f0f88116100ad578063da35c6641161007c578063da35c664146107ec578063f2fde38b146107f4578063f4c811971461081a578063f85771b214610848578063f9dabeff146108765761021c565b8063b16f0f8814610744578063b9f1455714610772578063cfa6336714610798578063d7ef5f31146107be5761021c565b80639782e821116100f45780639782e8211461066c57806397c3ccd8146106925780639c8d83bb146106b85780639c93e166146106de5780639fa6b4a0146106fb5761021c565b80638da5cb5b146106105780638f127322146106185780638f32d59b1461063e578063970aa34e146106465761021c565b80636024828c116101a8578063715018a611610177578063715018a61461054e57806379ba7f39146105565780637f440103146105825780638513c619146105bc5780638af5d0d2146105ea5761021c565b80636024828c146104a857806362c855ac146104ce57806368da10ae146104fa5780636fe8f6b4146105205761021c565b80633c39e3a1116101ef5780633c39e3a1146103605780633f7901461461038c57806354f05397146103cc57806355c338aa1461044c5780635db218e1146104825761021c565b80630126795114610221578063013cf08b146102495780630a1ffba31461028c578063371eb66914610327575b600080fd5b6102476004803603602081101561023757600080fd5b50356001600160a01b031661087e565b005b6102666004803603602081101561025f57600080fd5b5035610948565b604080516001600160a01b03938416815291909216602082015281519081900390910190f35b6102b2600480360360208110156102a257600080fd5b50356001600160a01b031661097e565b6040805160208082528351818301528351919283929083019185019080838360005b838110156102ec5781810151838201526020016102d4565b50505050905090810190601f1680156103195780820380516001836020036101000a031916815260200191505b509250505060405180910390f35b6103446004803603602081101561033d57600080fd5b5035610a19565b604080516001600160a01b039092168252519081900360200190f35b6103446004803603604081101561037657600080fd5b506001600160a01b038135169060200135610a40565b6103ba600480360360408110156103a257600080fd5b506001600160a01b0381358116916020013516610a75565b60408051918252519081900360200190f35b610247600480360360408110156103e257600080fd5b6001600160a01b03823516919081019060408101602082013564010000000081111561040d57600080fd5b82018360208201111561041f57600080fd5b8035906020019184600183028401116401000000008311171561044157600080fd5b509092509050610a92565b6102476004803603606081101561046257600080fd5b506001600160a01b03813581169160208101359091169060400135610b53565b6103ba6004803603602081101561049857600080fd5b50356001600160a01b0316610c1a565b610247600480360360208110156104be57600080fd5b50356001600160a01b0316610c2c565b610344600480360360408110156104e457600080fd5b506001600160a01b038135169060200135610cbb565b6103ba6004803603602081101561051057600080fd5b50356001600160a01b0316610cd4565b6103ba6004803603604081101561053657600080fd5b506001600160a01b0381358116916020013516610d86565b610247610da3565b6102476004803603604081101561056c57600080fd5b506001600160a01b038135169060200135610e37565b6105a86004803603602081101561059857600080fd5b50356001600160a01b0316610eea565b604080519115158252519081900360200190f35b610247600480360360408110156105d257600080fd5b506001600160a01b0381358116916020013516610eff565b6102476004803603602081101561060057600080fd5b50356001600160a01b0316610ffc565b61034461107f565b6103ba6004803603602081101561062e57600080fd5b50356001600160a01b031661108f565b6105a86110aa565b6105a86004803603602081101561065c57600080fd5b50356001600160a01b03166110bb565b6103ba6004803603602081101561068257600080fd5b50356001600160a01b03166110d0565b610247600480360360208110156106a857600080fd5b50356001600160a01b03166110e2565b6105a8600480360360208110156106ce57600080fd5b50356001600160a01b0316611178565b610247600480360360208110156106f457600080fd5b503561118d565b6107216004803603602081101561071157600080fd5b50356001600160a01b0316611234565b604080516001600160a01b03909316835260208301919091528051918290030190f35b6105a86004803603604081101561075a57600080fd5b506001600160a01b0381358116916020013516611259565b6102476004803603602081101561078857600080fd5b50356001600160a01b03166112b3565b6103ba600480360360208110156107ae57600080fd5b50356001600160a01b0316611346565b610247600480360360408110156107d457600080fd5b506001600160a01b0381358116916020013516611361565b6103ba6113b5565b6102476004803603602081101561080a57600080fd5b50356001600160a01b03166113bb565b6102476004803603604081101561083057600080fd5b506001600160a01b038135169060200135151561140e565b6102476004803603604081101561085e57600080fd5b506001600160a01b038135811691602001351661149c565b6103ba6117c3565b6040805180820182526001600160a01b0380841680835233602084018181526001805480820182556000918252955160029096027fb10e2d527612073b26eecdfd717e6a320cf44b4afac2b0732d9fcbe2b7fa0cf6810180549787166001600160a01b031998891617905591517fb10e2d527612073b26eecdfd717e6a320cf44b4afac2b0732d9fcbe2b7fa0cf7909201805492909516919095161790925592519092917f84877e6a47b1faeeabf9d4ac0d4c83816c6e6e69a69919bd28b31868999221f891a350565b6001818154811061095557fe5b6000918252602090912060029091020180546001909101546001600160a01b0391821692501682565b600c6020908152600091825260409182902080548351601f600260001961010060018616150201909316929092049182018490048402810184019094528084529091830182828015610a115780601f106109e657610100808354040283529160200191610a11565b820191906000526020600020905b8154815290600101906020018083116109f457829003601f168201915b505050505081565b60028181548110610a2657fe5b6000918252602090912001546001600160a01b0316905081565b60076020528160005260406000208181548110610a5957fe5b6000918252602090912001546001600160a01b03169150829050565b600660209081526000928352604080842090915290825290205481565b82610a9b6110aa565b151560011480610ab65750610ab08133611259565b15156001145b610abf57600080fd5b6001600160a01b0384166000908152600c60205260409020610ae2908484611a70565b50836001600160a01b03167f8bddafc1afbb5ffb7978ef140ddf8afae8c1d786c5d32b73f8da2d0c813bc10e848460405180806020018281038252848482818152602001925080828437600083820152604051601f909101601f19169092018290039550909350505050a250505050565b82610b5c6110aa565b151560011480610b775750610b718133611259565b15156001145b610b8057600080fd5b6103e8821115610b8f57600080fd5b6040805180820182526001600160a01b0385811680835260208084018781528984166000818152600b8452879020955186546001600160a01b0319169516949094178555516001909401939093558351908152918201859052825190927fb6b61d78ac5372b51940cf3b322ea21839c456cade69acdf1b9fb9a6f79d6ff7928290030190a250505050565b60046020526000908152604090205481565b336001600160a01b0316816001600160a01b0316638da5cb5b6040518163ffffffff1660e01b815260040160206040518083038186803b158015610c6f57600080fd5b505afa158015610c83573d6000803e3d6000fd5b505050506040513d6020811015610c9957600080fd5b50516001600160a01b031614610cae57600080fd5b610cb881336117c9565b50565b60056020528160005260406000208181548110610a5957fe5b6001600160a01b03811660009081526009602052604081205460ff16151560011415610d6657816001600160a01b03166318160ddd6040518163ffffffff1660e01b815260040160206040518083038186803b158015610d3357600080fd5b505afa158015610d47573d6000803e3d6000fd5b505050506040513d6020811015610d5d57600080fd5b50519050610d81565b506001600160a01b0381166000908152600a60205260409020545b919050565b600860209081526000928352604080842090915290825290205481565b610dab6110aa565b610ded5760408051600160e51b62461bcd0281526020600482018190526024820152600080516020611b6f833981519152604482015290519081900360640190fd5b600080546040516001600160a01b03909116907f8be0079c531659141344cd1fd0a4f28419497f9722a3daafe3b4186f6b6457e0908390a3600080546001600160a01b0319169055565b81610e406110aa565b151560011480610e5b5750610e558133611259565b15156001145b610e6457600080fd5b6001600160a01b03831660009081526009602052604090205460ff16151560011415610e9557610e9583600061140e565b6001600160a01b0383166000818152600a6020908152604091829020859055815185815291517f39d2a73d35776663391b17495b1604c7f03a3ea88e0eaf24f5a9ab3bdb3205df9281900390910190a2505050565b60036020526000908152604090205460ff1681565b81610f086110aa565b151560011480610f235750610f1d8133611259565b15156001145b610f2c57600080fd5b610f368383611259565b151560011415610f4557600080fd5b6001600160a01b038084166000818152600560209081526040808320805460068452828520968916808652968452828520819055600180820183559185528385200180546001600160a01b031990811688179091558685526007808552838620805460088752858820898952875285882081905591865292810183559185529284200180549092168417909155517f80dc3d87a7a642c46b6272b119f53d4db8aef58e5984b633f1055308b77dce6d9190a3505050565b60408051600160e11b6355138f0d02815233600482015290516001600160a01b0383169163aa271e1a916024808301926020929190829003018186803b15801561104557600080fd5b505afa158015611059573d6000803e3d6000fd5b505050506040513d602081101561106f57600080fd5b50511515600114610cae57600080fd5b6000546001600160a01b03165b90565b6001600160a01b031660009081526005602052604090205490565b6000546001600160a01b0316331490565b60096020526000908152604090205460ff1681565b600a6020526000908152604090205481565b6110ea6110aa565b61112c5760408051600160e51b62461bcd0281526020600482018190526024820152600080516020611b6f833981519152604482015290519081900360640190fd5b6001600160a01b0381166000818152600d6020526040808220805460ff19166001179055517f9a4e757235705bd178419abc9fa645392c5c7dce5b09940a81ef76794b84bd689190a250565b600d6020526000908152604090205460ff1681565b6111956110aa565b6111d75760408051600160e51b62461bcd0281526020600482018190526024820152600080516020611b6f833981519152604482015290519081900360640190fd5b6111df611aee565b600182815481106111ec57fe5b60009182526020918290206040805180820190915260029092020180546001600160a01b0390811680845260019092015416928201839052909250611230916117c9565b5050565b600b60205260009081526040902080546001909101546001600160a01b039091169082565b6001600160a01b03828116600090815260056020908152604080832060068352818420948616808552949092528220548154929392811061129657fe5b6000918252602090912001546001600160a01b0316149392505050565b6112bb6110aa565b6112fd5760408051600160e51b62461bcd0281526020600482018190526024820152600080516020611b6f833981519152604482015290519081900360640190fd5b6001600160a01b0381166000818152600d6020526040808220805460ff19169055517f866c4c4c778f85c380f911e6c43d125e57865fec38a5ccf53b62b74a8473ed169190a250565b6001600160a01b031660009081526007602052604090205490565b6113696110aa565b6113ab5760408051600160e51b62461bcd0281526020600482018190526024820152600080516020611b6f833981519152604482015290519081900360640190fd5b61123082826117c9565b60015490565b6113c36110aa565b6114055760408051600160e51b62461bcd0281526020600482018190526024820152600080516020611b6f833981519152604482015290519081900360640190fd5b610cb8816118ea565b816114176110aa565b151560011480611432575061142c8133611259565b15156001145b61143b57600080fd5b6001600160a01b038316600081815260096020908152604091829020805460ff1916861515908117909155825190815291517fe54e1d877db9d59fb8b6055f09c39b9cf6e4ef0e7423d71bd06b2d86496ba51c9281900390910190a2505050565b816114a56110aa565b1515600114806114c057506114ba8133611259565b15156001145b6114c957600080fd5b6001600160a01b03821633148015906114ed57506114e78383611259565b15156001145b6114f657600080fd5b6001600160a01b03831660009081526005602052604081205461152090600163ffffffff61198d16565b90508061152c57600080fd5b6001600160a01b038085166000908152600660209081526040808320938716835292905220548181146115fd576001600160a01b038516600090815260056020526040812080548490811061157d57fe5b60009182526020808320909101546001600160a01b038981168452600590925260409092208054919092169250829190849081106115b757fe5b600091825260208083209190910180546001600160a01b0319166001600160a01b0394851617905588831682526006815260408083209490931682529290925290208190555b6001600160a01b0385166000908152600560205260409020805490611626906000198301611b05565b506001600160a01b038086166000908152600660209081526040808320938816835292815282822082905560079052205461166890600163ffffffff61198d16565b6001600160a01b038086166000908152600860209081526040808320938a1683529290522054909250905080821461173e576001600160a01b03841660009081526007602052604081208054849081106116be57fe5b60009182526020808320909101546001600160a01b038881168452600790925260409092208054919092169250829190849081106116f857fe5b600091825260208083209190910180546001600160a01b0319166001600160a01b0394851617905587831682526008815260408083209490931682529290925290208190555b6001600160a01b0384166000908152600760205260409020805490611767906000198301611b05565b506001600160a01b038085166000818152600860209081526040808320948a1680845294909152808220829055519192917f82854a3ef36f2eb671d3d796a049df4c263e4aae926ac9a7cf483fc411f8e90d9190a35050505050565b60025490565b6001600160a01b03821660009081526003602052604090205460ff161515600114156117f457600080fd5b6002805460018181019092557f405787fa12a823e0f2b7631cc41b3ba8828b3321ca811111fa75cd3aa3bb5ace0180546001600160a01b038086166001600160a01b031992831681179093556000838152600360209081526040808320805460ff191688179055600482528083204390556005825280832080548089018255908452828420018054948916948616851790558383526007808352818420805460088552838620898752855283862081905591845297810188559683529082209095018054909316841790925592517f473b736fe95295e8fbc851ca8acdc12a750976edad27a92f666b3d888eb895d39190a35050565b6001600160a01b03811661193257604051600160e51b62461bcd028152600401808060200182810382526026815260200180611b496026913960400191505060405180910390fd5b600080546040516001600160a01b03808516939216917f8be0079c531659141344cd1fd0a4f28419497f9722a3daafe3b4186f6b6457e091a3600080546001600160a01b0319166001600160a01b0392909216919091179055565b60006119cf83836040518060400160405280601e81526020017f536166654d6174683a207375627472616374696f6e206f766572666c6f7700008152506119d6565b9392505050565b60008184841115611a6857604051600160e51b62461bcd0281526004018080602001828103825283818151815260200191508051906020019080838360005b83811015611a2d578181015183820152602001611a15565b50505050905090810190601f168015611a5a5780820380516001836020036101000a031916815260200191505b509250505060405180910390fd5b505050900390565b828054600181600116156101000203166002900490600052602060002090601f016020900481019282601f10611ab15782800160ff19823516178555611ade565b82800160010185558215611ade579182015b82811115611ade578235825591602001919060010190611ac3565b50611aea929150611b2e565b5090565b604080518082019091526000808252602082015290565b815481835581811115611b2957600083815260209020611b29918101908301611b2e565b505050565b61108c91905b80821115611aea5760008155600101611b3456fe4f776e61626c653a206e6577206f776e657220697320746865207a65726f20616464726573734f776e61626c653a2063616c6c6572206973206e6f7420746865206f776e6572a165627a7a723058207cacccb0bb3b05d262e9e0cb04b81f3ed01bf77378258af1ed857291e4e6f1500029",
    "linkReferences": {},
    "deployedLinkReferences": {}
}