{
    "_format": "hh-sol-artifact-1",
    "contractName": "ItemStoreAuction",
    "sourceName": "contracts/ItemStoreAuction.sol",
    "abi": [
        {
            "constant": true,
            "inputs": [
                {
                    "name": "interfaceId",
                    "type": "bytes4"
                }
            ],
            "name": "supportsInterface",
            "outputs": [
                {
                    "name": "",
                    "type": "bool"
                }
            ],
            "payable": false,
            "stateMutability": "view",
            "type": "function"
        },
        {
            "constant": true,
            "inputs": [
                {
                    "name": "seller",
                    "type": "address"
                }
            ],
            "name": "userAuctionInfoLength",
            "outputs": [
                {
                    "name": "",
                    "type": "uint256"
                }
            ],
            "payable": false,
            "stateMutability": "view",
            "type": "function"
        },
        {
            "constant": true,
            "inputs": [],
            "name": "mileage",
            "outputs": [
                {
                    "name": "",
                    "type": "address"
                }
            ],
            "payable": false,
            "stateMutability": "view",
            "type": "function"
        },
        {
            "constant": true,
            "inputs": [
                {
                    "name": "metaverseId",
                    "type": "uint256"
                }
            ],
            "name": "auctionsOnMetaverseLength",
            "outputs": [
                {
                    "name": "",
                    "type": "uint256"
                }
            ],
            "payable": false,
            "stateMutability": "view",
            "type": "function"
        },
        {
            "constant": true,
            "inputs": [
                {
                    "name": "",
                    "type": "bytes32"
                },
                {
                    "name": "",
                    "type": "uint256"
                }
            ],
            "name": "biddings",
            "outputs": [
                {
                    "name": "bidder",
                    "type": "address"
                },
                {
                    "name": "metaverseId",
                    "type": "uint256"
                },
                {
                    "name": "item",
                    "type": "address"
                },
                {
                    "name": "id",
                    "type": "uint256"
                },
                {
                    "name": "amount",
                    "type": "uint256"
                },
                {
                    "name": "price",
                    "type": "uint256"
                },
                {
                    "name": "mileage",
                    "type": "uint256"
                }
            ],
            "payable": false,
            "stateMutability": "view",
            "type": "function"
        },
        {
            "constant": true,
            "inputs": [
                {
                    "name": "",
                    "type": "address"
                },
                {
                    "name": "",
                    "type": "uint256"
                }
            ],
            "name": "userAuctionInfo",
            "outputs": [
                {
                    "name": "",
                    "type": "bytes32"
                }
            ],
            "payable": false,
            "stateMutability": "view",
            "type": "function"
        },
        {
            "constant": false,
            "inputs": [
                {
                    "name": "metaverseId",
                    "type": "uint256"
                },
                {
                    "name": "item",
                    "type": "address"
                },
                {
                    "name": "id",
                    "type": "uint256"
                },
                {
                    "name": "amount",
                    "type": "uint256"
                },
                {
                    "name": "startTotalPrice",
                    "type": "uint256"
                },
                {
                    "name": "endBlock",
                    "type": "uint256"
                }
            ],
            "name": "createAuction",
            "outputs": [
                {
                    "name": "auctionId",
                    "type": "uint256"
                }
            ],
            "payable": false,
            "stateMutability": "nonpayable",
            "type": "function"
        },
        {
            "constant": true,
            "inputs": [
                {
                    "name": "bidder",
                    "type": "address"
                }
            ],
            "name": "userBiddingInfoLength",
            "outputs": [
                {
                    "name": "",
                    "type": "uint256"
                }
            ],
            "payable": false,
            "stateMutability": "view",
            "type": "function"
        },
        {
            "constant": false,
            "inputs": [
                {
                    "name": "auctionVerificationID",
                    "type": "bytes32"
                }
            ],
            "name": "cancelAuction",
            "outputs": [],
            "payable": false,
            "stateMutability": "nonpayable",
            "type": "function"
        },
        {
            "constant": true,
            "inputs": [
                {
                    "name": "auctionVerificationID",
                    "type": "bytes32"
                }
            ],
            "name": "biddingsCount",
            "outputs": [
                {
                    "name": "",
                    "type": "uint256"
                }
            ],
            "payable": false,
            "stateMutability": "view",
            "type": "function"
        },
        {
            "constant": false,
            "inputs": [
                {
                    "name": "auctionVerificationID",
                    "type": "bytes32"
                },
                {
                    "name": "price",
                    "type": "uint256"
                },
                {
                    "name": "_mileage",
                    "type": "uint256"
                }
            ],
            "name": "bid",
            "outputs": [
                {
                    "name": "biddingId",
                    "type": "uint256"
                }
            ],
            "payable": false,
            "stateMutability": "nonpayable",
            "type": "function"
        },
        {
            "constant": true,
            "inputs": [
                {
                    "name": "seller",
                    "type": "address"
                },
                {
                    "name": "metaverseId",
                    "type": "uint256"
                },
                {
                    "name": "item",
                    "type": "address"
                },
                {
                    "name": "id",
                    "type": "uint256"
                },
                {
                    "name": "amount",
                    "type": "uint256"
                }
            ],
            "name": "canCreateAuction",
            "outputs": [
                {
                    "name": "",
                    "type": "bool"
                }
            ],
            "payable": false,
            "stateMutability": "view",
            "type": "function"
        },
        {
            "constant": true,
            "inputs": [
                {
                    "name": "item",
                    "type": "address"
                },
                {
                    "name": "id",
                    "type": "uint256"
                }
            ],
            "name": "auctionsCount",
            "outputs": [
                {
                    "name": "",
                    "type": "uint256"
                }
            ],
            "payable": false,
            "stateMutability": "view",
            "type": "function"
        },
        {
            "constant": true,
            "inputs": [
                {
                    "name": "",
                    "type": "address"
                }
            ],
            "name": "nonce",
            "outputs": [
                {
                    "name": "",
                    "type": "uint256"
                }
            ],
            "payable": false,
            "stateMutability": "view",
            "type": "function"
        },
        {
            "constant": false,
            "inputs": [],
            "name": "renounceOwnership",
            "outputs": [],
            "payable": false,
            "stateMutability": "nonpayable",
            "type": "function"
        },
        {
            "constant": true,
            "inputs": [
                {
                    "name": "",
                    "type": "address"
                },
                {
                    "name": "",
                    "type": "uint256"
                }
            ],
            "name": "onAuctions",
            "outputs": [
                {
                    "name": "",
                    "type": "bytes32"
                }
            ],
            "payable": false,
            "stateMutability": "view",
            "type": "function"
        },
        {
            "constant": true,
            "inputs": [
                {
                    "name": "bidder",
                    "type": "address"
                },
                {
                    "name": "price",
                    "type": "uint256"
                },
                {
                    "name": "auctionVerificationID",
                    "type": "bytes32"
                }
            ],
            "name": "canBid",
            "outputs": [
                {
                    "name": "",
                    "type": "bool"
                }
            ],
            "payable": false,
            "stateMutability": "view",
            "type": "function"
        },
        {
            "constant": true,
            "inputs": [],
            "name": "owner",
            "outputs": [
                {
                    "name": "",
                    "type": "address"
                }
            ],
            "payable": false,
            "stateMutability": "view",
            "type": "function"
        },
        {
            "constant": true,
            "inputs": [],
            "name": "isOwner",
            "outputs": [
                {
                    "name": "",
                    "type": "bool"
                }
            ],
            "payable": false,
            "stateMutability": "view",
            "type": "function"
        },
        {
            "constant": false,
            "inputs": [
                {
                    "name": "",
                    "type": "address"
                },
                {
                    "name": "",
                    "type": "address"
                },
                {
                    "name": "",
                    "type": "uint256[]"
                },
                {
                    "name": "",
                    "type": "uint256[]"
                },
                {
                    "name": "",
                    "type": "bytes"
                }
            ],
            "name": "onKIP37BatchReceived",
            "outputs": [
                {
                    "name": "",
                    "type": "bytes4"
                }
            ],
            "payable": false,
            "stateMutability": "nonpayable",
            "type": "function"
        },
        {
            "constant": false,
            "inputs": [
                {
                    "name": "",
                    "type": "address"
                },
                {
                    "name": "",
                    "type": "address"
                },
                {
                    "name": "",
                    "type": "uint256[]"
                },
                {
                    "name": "",
                    "type": "uint256[]"
                },
                {
                    "name": "",
                    "type": "bytes"
                }
            ],
            "name": "onERC1155BatchReceived",
            "outputs": [
                {
                    "name": "",
                    "type": "bytes4"
                }
            ],
            "payable": false,
            "stateMutability": "nonpayable",
            "type": "function"
        },
        {
            "constant": false,
            "inputs": [
                {
                    "name": "auctionVerificationID",
                    "type": "bytes32"
                }
            ],
            "name": "claim",
            "outputs": [],
            "payable": false,
            "stateMutability": "nonpayable",
            "type": "function"
        },
        {
            "constant": true,
            "inputs": [],
            "name": "mix",
            "outputs": [
                {
                    "name": "",
                    "type": "address"
                }
            ],
            "payable": false,
            "stateMutability": "view",
            "type": "function"
        },
        {
            "constant": true,
            "inputs": [
                {
                    "name": "auctionVerificationID",
                    "type": "bytes32"
                }
            ],
            "name": "getAuctionInfo",
            "outputs": [
                {
                    "name": "item",
                    "type": "address"
                },
                {
                    "name": "id",
                    "type": "uint256"
                },
                {
                    "name": "auctionId",
                    "type": "uint256"
                }
            ],
            "payable": false,
            "stateMutability": "view",
            "type": "function"
        },
        {
            "constant": true,
            "inputs": [
                {
                    "name": "item",
                    "type": "address"
                }
            ],
            "name": "onAuctionsCount",
            "outputs": [
                {
                    "name": "",
                    "type": "uint256"
                }
            ],
            "payable": false,
            "stateMutability": "view",
            "type": "function"
        },
        {
            "constant": true,
            "inputs": [
                {
                    "name": "",
                    "type": "uint256"
                },
                {
                    "name": "",
                    "type": "uint256"
                }
            ],
            "name": "auctionsOnMetaverse",
            "outputs": [
                {
                    "name": "",
                    "type": "bytes32"
                }
            ],
            "payable": false,
            "stateMutability": "view",
            "type": "function"
        },
        {
            "constant": true,
            "inputs": [
                {
                    "name": "",
                    "type": "address"
                },
                {
                    "name": "",
                    "type": "uint256"
                },
                {
                    "name": "",
                    "type": "uint256"
                }
            ],
            "name": "auctions",
            "outputs": [
                {
                    "name": "seller",
                    "type": "address"
                },
                {
                    "name": "metaverseId",
                    "type": "uint256"
                },
                {
                    "name": "item",
                    "type": "address"
                },
                {
                    "name": "id",
                    "type": "uint256"
                },
                {
                    "name": "amount",
                    "type": "uint256"
                },
                {
                    "name": "startTotalPrice",
                    "type": "uint256"
                },
                {
                    "name": "endBlock",
                    "type": "uint256"
                },
                {
                    "name": "verificationID",
                    "type": "bytes32"
                }
            ],
            "payable": false,
            "stateMutability": "view",
            "type": "function"
        },
        {
            "constant": false,
            "inputs": [
                {
                    "name": "auctionVerificationIDs",
                    "type": "bytes32[]"
                }
            ],
            "name": "cancelAuctionByOwner",
            "outputs": [],
            "payable": false,
            "stateMutability": "nonpayable",
            "type": "function"
        },
        {
            "constant": true,
            "inputs": [
                {
                    "name": "",
                    "type": "address"
                },
                {
                    "name": "",
                    "type": "uint256"
                }
            ],
            "name": "userBiddingInfo",
            "outputs": [
                {
                    "name": "auctionVerificationID",
                    "type": "bytes32"
                },
                {
                    "name": "biddingId",
                    "type": "uint256"
                }
            ],
            "payable": false,
            "stateMutability": "view",
            "type": "function"
        },
        {
            "constant": false,
            "inputs": [
                {
                    "name": "",
                    "type": "address"
                },
                {
                    "name": "",
                    "type": "address"
                },
                {
                    "name": "",
                    "type": "uint256"
                },
                {
                    "name": "",
                    "type": "uint256"
                },
                {
                    "name": "",
                    "type": "bytes"
                }
            ],
            "name": "onKIP37Received",
            "outputs": [
                {
                    "name": "",
                    "type": "bytes4"
                }
            ],
            "payable": false,
            "stateMutability": "nonpayable",
            "type": "function"
        },
        {
            "constant": false,
            "inputs": [
                {
                    "name": "",
                    "type": "address"
                },
                {
                    "name": "",
                    "type": "address"
                },
                {
                    "name": "",
                    "type": "uint256"
                },
                {
                    "name": "",
                    "type": "uint256"
                },
                {
                    "name": "",
                    "type": "bytes"
                }
            ],
            "name": "onERC1155Received",
            "outputs": [
                {
                    "name": "",
                    "type": "bytes4"
                }
            ],
            "payable": false,
            "stateMutability": "nonpayable",
            "type": "function"
        },
        {
            "constant": true,
            "inputs": [],
            "name": "commonData",
            "outputs": [
                {
                    "name": "",
                    "type": "address"
                }
            ],
            "payable": false,
            "stateMutability": "view",
            "type": "function"
        },
        {
            "constant": false,
            "inputs": [
                {
                    "name": "newOwner",
                    "type": "address"
                }
            ],
            "name": "transferOwnership",
            "outputs": [],
            "payable": false,
            "stateMutability": "nonpayable",
            "type": "function"
        },
        {
            "inputs": [
                {
                    "name": "_commonData",
                    "type": "address"
                }
            ],
            "payable": false,
            "stateMutability": "nonpayable",
            "type": "constructor"
        },
        {
            "anonymous": false,
            "inputs": [
                {
                    "indexed": true,
                    "name": "metaverseId",
                    "type": "uint256"
                },
                {
                    "indexed": true,
                    "name": "item",
                    "type": "address"
                },
                {
                    "indexed": false,
                    "name": "id",
                    "type": "uint256"
                },
                {
                    "indexed": false,
                    "name": "seller",
                    "type": "address"
                },
                {
                    "indexed": false,
                    "name": "amount",
                    "type": "uint256"
                },
                {
                    "indexed": false,
                    "name": "startPrice",
                    "type": "uint256"
                },
                {
                    "indexed": false,
                    "name": "endBlock",
                    "type": "uint256"
                },
                {
                    "indexed": true,
                    "name": "auctionVerificationID",
                    "type": "bytes32"
                }
            ],
            "name": "CreateAuction",
            "type": "event"
        },
        {
            "anonymous": false,
            "inputs": [
                {
                    "indexed": true,
                    "name": "metaverseId",
                    "type": "uint256"
                },
                {
                    "indexed": true,
                    "name": "item",
                    "type": "address"
                },
                {
                    "indexed": false,
                    "name": "id",
                    "type": "uint256"
                },
                {
                    "indexed": true,
                    "name": "auctionVerificationID",
                    "type": "bytes32"
                }
            ],
            "name": "CancelAuction",
            "type": "event"
        },
        {
            "anonymous": false,
            "inputs": [
                {
                    "indexed": true,
                    "name": "metaverseId",
                    "type": "uint256"
                },
                {
                    "indexed": true,
                    "name": "item",
                    "type": "address"
                },
                {
                    "indexed": false,
                    "name": "id",
                    "type": "uint256"
                },
                {
                    "indexed": false,
                    "name": "bidder",
                    "type": "address"
                },
                {
                    "indexed": false,
                    "name": "amount",
                    "type": "uint256"
                },
                {
                    "indexed": false,
                    "name": "price",
                    "type": "uint256"
                },
                {
                    "indexed": true,
                    "name": "auctionVerificationID",
                    "type": "bytes32"
                },
                {
                    "indexed": false,
                    "name": "biddingId",
                    "type": "uint256"
                }
            ],
            "name": "Bid",
            "type": "event"
        },
        {
            "anonymous": false,
            "inputs": [
                {
                    "indexed": true,
                    "name": "metaverseId",
                    "type": "uint256"
                },
                {
                    "indexed": true,
                    "name": "item",
                    "type": "address"
                },
                {
                    "indexed": false,
                    "name": "id",
                    "type": "uint256"
                },
                {
                    "indexed": false,
                    "name": "bestBidder",
                    "type": "address"
                },
                {
                    "indexed": false,
                    "name": "amount",
                    "type": "uint256"
                },
                {
                    "indexed": false,
                    "name": "price",
                    "type": "uint256"
                },
                {
                    "indexed": true,
                    "name": "auctionVerificationID",
                    "type": "bytes32"
                },
                {
                    "indexed": false,
                    "name": "biddingId",
                    "type": "uint256"
                }
            ],
            "name": "Claim",
            "type": "event"
        },
        {
            "anonymous": false,
            "inputs": [
                {
                    "indexed": true,
                    "name": "metaverseId",
                    "type": "uint256"
                },
                {
                    "indexed": true,
                    "name": "item",
                    "type": "address"
                },
                {
                    "indexed": false,
                    "name": "id",
                    "type": "uint256"
                },
                {
                    "indexed": true,
                    "name": "auctionVerificationID",
                    "type": "bytes32"
                }
            ],
            "name": "CancelAuctionByOwner",
            "type": "event"
        },
        {
            "anonymous": false,
            "inputs": [
                {
                    "indexed": true,
                    "name": "previousOwner",
                    "type": "address"
                },
                {
                    "indexed": true,
                    "name": "newOwner",
                    "type": "address"
                }
            ],
            "name": "OwnershipTransferred",
            "type": "event"
        }
    ],
    "bytecode": "0x60806040523480156200001157600080fd5b506040516020806200440b833981018060405260208110156200003357600080fd5b5051600080546001600160a01b03191633178082556040516001600160a01b039190911691907f8be0079c531659141344cd1fd0a4f28419497f9722a3daafe3b4186f6b6457e0908290a3620000966301ffc9a760e01b6200025a60201b60201c565b620000c87f7cc2d017000000000000000000000000000000000000000000000000000000006200025a602090811b901c565b620000fa7f4e2312e0000000000000000000000000000000000000000000000000000000006200025a602090811b901c565b600280546001600160a01b0319166001600160a01b038316908117909155604080517fbe32cf8d000000000000000000000000000000000000000000000000000000008152905163be32cf8d91600480820192602092909190829003018186803b1580156200016857600080fd5b505afa1580156200017d573d6000803e3d6000fd5b505050506040513d60208110156200019457600080fd5b5051600380546001600160a01b0319166001600160a01b03928316179055604080517f15585289000000000000000000000000000000000000000000000000000000008152905191831691631558528991600480820192602092909190829003018186803b1580156200020657600080fd5b505afa1580156200021b573d6000803e3d6000fd5b505050506040513d60208110156200023257600080fd5b5051600480546001600160a01b0319166001600160a01b03909216919091179055506200032c565b7fffffffff000000000000000000000000000000000000000000000000000000008082161415620002ec57604080517f08c379a000000000000000000000000000000000000000000000000000000000815260206004820152601b60248201527f4b495031333a20696e76616c696420696e746572666163652069640000000000604482015290519081900360640190fd5b7fffffffff00000000000000000000000000000000000000000000000000000000166000908152600160208190526040909120805460ff19169091179055565b6140cf806200033c6000396000f3fe608060405234801561001057600080fd5b50600436106101fb5760003560e01c806383bd8e1f1161011a578063bfe71f14116100ad578063daa307121161007c578063daa3071214610a63578063e78b332514610aa8578063f23a6e6114610b71578063f28a945414610c3a578063f2fde38b14610c42576101fb565b8063bfe71f141461092a578063c783846c14610950578063c83e033914610973578063c840017f146109f5576101fb565b8063bc197c81116100e9578063bc197c81146106ff578063bd66528a146108c0578063be32cf8d146108dd578063bf9fc26c146108e5576101fb565b806383bd8e1f146104df5780638da5cb5b146105115780638f32d59b146105195780639b49e33214610521576101fb565b80633ef4d1301161019257806365a49a741161016157806365a49a741461045957806370ae92d214610485578063715018a6146104ab57806382d3e41f146104b3576101fb565b80633ef4d130146103b45780634c48d55b146103d35780635260946d146103f057806357061e1814610419576101fb565b80631f7db329116101ce5780631f7db329146102b4578063200d44eb1461031e5780632303db3b1461034a5780633bdf871a1461038e576101fb565b806301ffc9a714610200578063072f5ff51461023b57806315585289146102735780631bcaee6214610297575b600080fd5b6102276004803603602081101561021657600080fd5b50356001600160e01b031916610c68565b604080519115158252519081900360200190f35b6102616004803603602081101561025157600080fd5b50356001600160a01b0316610c87565b60408051918252519081900360200190f35b61027b610ca2565b604080516001600160a01b039092168252519081900360200190f35b610261600480360360208110156102ad57600080fd5b5035610cb1565b6102d7600480360360408110156102ca57600080fd5b5080359060200135610cc3565b604080516001600160a01b039889168152602081019790975294909616858501526060850192909252608084015260a083015260c082019290925290519081900360e00190f35b6102616004803603604081101561033457600080fd5b506001600160a01b038135169060200135610d27565b610261600480360360c081101561036057600080fd5b508035906001600160a01b036020820135169060408101359060608101359060808101359060a00135610d55565b610261600480360360208110156103a457600080fd5b50356001600160a01b0316611322565b6103d1600480360360208110156103ca57600080fd5b503561133d565b005b610261600480360360208110156103e957600080fd5b50356114b7565b6102616004803603606081101561040657600080fd5b50803590602081013590604001356114c9565b610227600480360360a081101561042f57600080fd5b506001600160a01b0381358116916020810135916040820135169060608101359060800135611c17565b6102616004803603604081101561046f57600080fd5b506001600160a01b038135169060200135611e6b565b6102616004803603602081101561049b57600080fd5b50356001600160a01b0316611e96565b6103d1611ea8565b610261600480360360408110156104c957600080fd5b506001600160a01b038135169060200135611f4e565b610227600480360360608110156104f557600080fd5b506001600160a01b038135169060208101359060400135611f67565b61027b612122565b610227612132565b6106e2600480360360a081101561053757600080fd5b6001600160a01b038235811692602081013590911691810190606081016040820135600160201b81111561056a57600080fd5b82018360208201111561057c57600080fd5b803590602001918460208302840111600160201b8311171561059d57600080fd5b9190808060200260200160405190810160405280939291908181526020018383602002808284376000920191909152509295949360208101935035915050600160201b8111156105ec57600080fd5b8201836020820111156105fe57600080fd5b803590602001918460208302840111600160201b8311171561061f57600080fd5b9190808060200260200160405190810160405280939291908181526020018383602002808284376000920191909152509295949360208101935035915050600160201b81111561066e57600080fd5b82018360208201111561068057600080fd5b803590602001918460018302840111600160201b831117156106a157600080fd5b91908080601f016020809104026020016040519081016040528093929190818152602001838380828437600092019190915250929550612143945050505050565b604080516001600160e01b03199092168252519081900360200190f35b6106e2600480360360a081101561071557600080fd5b6001600160a01b038235811692602081013590911691810190606081016040820135600160201b81111561074857600080fd5b82018360208201111561075a57600080fd5b803590602001918460208302840111600160201b8311171561077b57600080fd5b9190808060200260200160405190810160405280939291908181526020018383602002808284376000920191909152509295949360208101935035915050600160201b8111156107ca57600080fd5b8201836020820111156107dc57600080fd5b803590602001918460208302840111600160201b831117156107fd57600080fd5b9190808060200260200160405190810160405280939291908181526020018383602002808284376000920191909152509295949360208101935035915050600160201b81111561084c57600080fd5b82018360208201111561085e57600080fd5b803590602001918460018302840111600160201b8311171561087f57600080fd5b91908080601f016020809104026020016040519081016040528093929190818152602001838380828437600092019190915250929550612157945050505050565b6103d1600480360360208110156108d657600080fd5b503561216b565b61027b612386565b610902600480360360208110156108fb57600080fd5b5035612395565b604080516001600160a01b039094168452602084019290925282820152519081900360600190f35b6102616004803603602081101561094057600080fd5b50356001600160a01b0316612406565b6102616004803603604081101561096657600080fd5b5080359060200135612421565b6109a56004803603606081101561098957600080fd5b506001600160a01b03813516906020810135906040013561243a565b604080516001600160a01b03998a168152602081019890985295909716868601526060860193909352608085019190915260a084015260c083015260e08201929092529051908190036101000190f35b6103d160048036036020811015610a0b57600080fd5b810190602081018135600160201b811115610a2557600080fd5b820183602082011115610a3757600080fd5b803590602001918460208302840111600160201b83111715610a5857600080fd5b5090925090506124b1565b610a8f60048036036040811015610a7957600080fd5b506001600160a01b03813516906020013561296f565b6040805192835260208301919091528051918290030190f35b6106e2600480360360a0811015610abe57600080fd5b6001600160a01b03823581169260208101359091169160408201359160608101359181019060a081016080820135600160201b811115610afd57600080fd5b820183602082011115610b0f57600080fd5b803590602001918460018302840111600160201b83111715610b3057600080fd5b91908080601f0160208091040260200160405190810160405280939291908181526020018383808284376000920191909152509295506129a8945050505050565b6106e2600480360360a0811015610b8757600080fd5b6001600160a01b03823581169260208101359091169160408201359160608101359181019060a081016080820135600160201b811115610bc657600080fd5b820183602082011115610bd857600080fd5b803590602001918460018302840111600160201b83111715610bf957600080fd5b91908080601f0160208091040260200160405190810160405280939291908181526020018383808284376000920191909152509295506129bc945050505050565b61027b6129d0565b6103d160048036036020811015610c5857600080fd5b50356001600160a01b03166129df565b6001600160e01b03191660009081526001602052604090205460ff1690565b6001600160a01b03166000908152600a602052604090205490565b6004546001600160a01b031681565b6000908152600c602052604090205490565b600e6020528160005260406000208181548110610cdc57fe5b600091825260209091206007909102018054600182015460028301546003840154600485015460058601546006909601546001600160a01b0395861698509396509190931693909187565b600a6020528160005260406000208181548110610d4057fe5b90600052602060002001600091509150505481565b60025460408051600160e01b638fb74ae902815233600482015290516000926001600160a01b031691638fb74ae9916024808301926020929190829003018186803b158015610da357600080fd5b505afa158015610db7573d6000803e3d6000fd5b505050506040513d6020811015610dcd57600080fd5b505115610dd957600080fd5b60008311610de657600080fd5b438211610df257600080fd5b610dff3388888888611c17565b610e0857600080fd5b3360008181526005602090815260408083208054600181019091558151606095861b81850152603481018d90526001600160a01b03808d1690961b6054820152606881018b9052608881018a905260a8810189905260c8810188905260e8808201929092528251808203909201825261010801825280519083012080845260079092529091205490911615610e9c57600080fd5b60066000886001600160a01b03166001600160a01b03168152602001908152602001600020600087815260200190815260200160002080549050915060066000886001600160a01b03166001600160a01b031681526020019081526020016000206000878152602001908152602001600020604051806101000160405280336001600160a01b031681526020018a8152602001896001600160a01b03168152602001888152602001878152602001868152602001858152602001838152509080600181540180825580915050906001820390600052602060002090600802016000909192909190915060008201518160000160006101000a8154816001600160a01b0302191690836001600160a01b031602179055506020820151816001015560408201518160020160006101000a8154816001600160a01b0302191690836001600160a01b03160217905550606082015181600301556080820151816004015560a0820151816005015560c0820151816006015560e082015181600701555050506040518060600160405280886001600160a01b03168152602001878152602001838152506007600083815260200190815260200160002060008201518160000160006101000a8154816001600160a01b0302191690836001600160a01b03160217905550602082015181600101556040820151816002015590505060086000886001600160a01b03166001600160a01b0316815260200190815260200160002080549050600960008381526020019081526020016000208190555060086000886001600160a01b03166001600160a01b03168152602001908152602001600020819080600181540180825580915050906001820390600052602060002001600090919290919091505550600a6000336001600160a01b03166001600160a01b0316815260200190815260200160002080549050600b600083815260200190815260200160002081905550600a6000336001600160a01b03166001600160a01b03168152602001908152602001600020819080600181540180825580915050906001820390600052602060002001600090919290919091505550600c600089815260200190815260200160002080549050600d600083815260200190815260200160002081905550600c60008981526020019081526020016000208190806001815401808255809150509060018203906000526020600020016000909192909190915055506112ba600260009054906101000a90046001600160a01b03166001600160a01b031663977803b76040518163ffffffff1660e01b815260040160206040518083038186803b15801561127357600080fd5b505afa158015611287573d6000803e3d6000fd5b505050506040513d602081101561129d57600080fd5b50516001600160a01b038916908a8989333063ffffffff612a4716565b604080518781523360208201528082018790526060810186905260808101859052905182916001600160a01b038a16918b917f35c85de974d9bb8ff11cda4eafb7f2d836aee5df0ddcae9b37a105f01eb2e53f919081900360a00190a4509695505050505050565b6001600160a01b03166000908152600f602052604090205490565b6000818152600e60205260409020541561135657600080fd5b6000818152600760209081526040808320805460018201546001600160a01b039091168086526006855283862082875290945291842060028201548154929592811061139e57fe5b6000918252602090912060089091020180549091506001600160a01b031633146113c757600080fd5b600181015460025460408051600160e01b63977803b70281529051611463926001600160a01b03169163977803b7916004808301926020929190829003018186803b15801561141557600080fd5b505afa158015611429573d6000803e3d6000fd5b505050506040513d602081101561143f57600080fd5b505160048401546001600160a01b038716919084908790303363ffffffff612a4716565b85846001600160a01b0316827ffcd7239f485fd88443ee4ededcbb23845ec145e7b5119e2e1880a4f4101208fb866040518082815260200191505060405180910390a46114af86612b7c565b505050505050565b6000908152600e602052604090205490565b60025460408051600160e01b638fb74ae902815233600482015290516000926001600160a01b031691638fb74ae9916024808301926020929190829003018186803b15801561151757600080fd5b505afa15801561152b573d6000803e3d6000fd5b505050506040513d602081101561154157600080fd5b50511561154d57600080fd5b611558338486611f67565b61156157600080fd5b611569613e35565b506000848152600760209081526040808320815160608101835281546001600160a01b031680825260018301548286019081526002909301548285019081529086526006855283862092518652919093529083209051815492939281106115cc57fe5b6000918252602080832060016008909302019182015460048301548a8552600e9092526040909320805496509193509085156117ea57600081600188038154811061161357fe5b600091825260209091206007909102018054600682015460035460058401549394506001600160a01b03928316939192169063a9059cbb90849061165d908563ffffffff6130c616565b6040518363ffffffff1660e01b815260040180836001600160a01b03166001600160a01b0316815260200182815260200192505050602060405180830381600087803b1580156116ac57600080fd5b505af11580156116c0573d6000803e3d6000fd5b505050506040513d60208110156116d657600080fd5b505080156117dc576003546004805460408051600160e01b63095ea7b30281526001600160a01b0392831693810193909352602483018590525192169163095ea7b3916044808201926020929091908290030181600087803b15801561173b57600080fd5b505af115801561174f573d6000803e3d6000fd5b505050506040513d602081101561176557600080fd5b50506004805460408051600160e01b63a3ffa9cd0281526001600160a01b0386811694820194909452602481018590529051929091169163a3ffa9cd9160448082019260009290919082900301818387803b1580156117c357600080fd5b505af11580156117d7573d6000803e3d6000fd5b505050505b6117e6828d613108565b5050505b806040518060e00160405280336001600160a01b0316815260200185815260200187600001516001600160a01b03168152602001876020015181526020018481526020018a8152602001898152509080600181540180825580915050906001820390600052602060002090600702016000909192909190915060008201518160000160006101000a8154816001600160a01b0302191690836001600160a01b031602179055506020820151816001015560408201518160020160006101000a8154816001600160a01b0302191690836001600160a01b03160217905550606082015181600301556080820151816004015560a0820151816005015560c08201518160060155505050600f6000336001600160a01b03166001600160a01b031681526020019081526020016000208054905060106000336001600160a01b03166001600160a01b0316815260200190815260200160002060008b815260200190815260200160002081905550600f6000336001600160a01b03166001600160a01b0316815260200190815260200160002060405180604001604052808b815260200188815250908060018154018082558091505090600182039060005260206000209060020201600090919290919091506000820151816000015560208201518160010155505050600360009054906101000a90046001600160a01b03166001600160a01b03166323b872dd3330611a0a8b8d6130c690919063ffffffff16565b6040805163ffffffff861660e01b81526001600160a01b0394851660048201529290931660248301526044820152905160648083019260209291908290030181600087803b158015611a5b57600080fd5b505af1158015611a6f573d6000803e3d6000fd5b505050506040513d6020811015611a8557600080fd5b50508615611afd576004805460408051600160e51b63034fd9510281523393810193909352602483018a9052516001600160a01b03909116916369fb2a2091604480830192600092919082900301818387803b158015611ae457600080fd5b505af1158015611af8573d6000803e3d6000fd5b505050505b600684015460025460408051600160e21b632a45181f02815290516000926001600160a01b03169163a914607c916004808301926020929190829003018186803b158015611b4a57600080fd5b505afa158015611b5e573d6000803e3d6000fd5b505050506040513d6020811015611b7457600080fd5b50519050611b88828263ffffffff6130c616565b4310611ba457611b9e828263ffffffff61325f16565b60068701555b50508451602080870151604080519182523392820192909252808201859052606081018b90526080810189905290518b926001600160a01b03169186917f1b6e6e42f0c3500c424fc3e3ed1e8465bd37c0498cbe0b70c7d6da575a1e7d0d9181900360a00190a450505050509392505050565b600254604080516001600160e21b6222f3170203198152600481018790526001600160a01b0386811660248301529151600093929092169163ff7433a491604480820192602092909190829003018186803b158015611c7557600080fd5b505afa158015611c89573d6000803e3d6000fd5b505050506040513d6020811015611c9f57600080fd5b5051611cad57506000611e62565b60025460408051600160e01b63977803b70281529051611d39926001600160a01b03169163977803b7916004808301926020929190829003018186803b158015611cf657600080fd5b505afa158015611d0a573d6000803e3d6000fd5b505050506040513d6020811015611d2057600080fd5b50516001600160a01b038616908763ffffffff6132bc16565b15611dd0578115801590611dc9575060408051600160e11b627eeac70281526001600160a01b038881166004830152602482018690529151849287169162fdd58e916044808301926020929190829003018186803b158015611d9a57600080fd5b505afa158015611dae573d6000803e3d6000fd5b505050506040513d6020811015611dc457600080fd5b505110155b9050611e62565b816001148015611dc95750856001600160a01b0316846001600160a01b0316636352211e856040518263ffffffff1660e01b81526004018082815260200191505060206040518083038186803b158015611e2957600080fd5b505afa158015611e3d573d6000803e3d6000fd5b505050506040513d6020811015611e5357600080fd5b50516001600160a01b03161490505b95945050505050565b6001600160a01b03821660009081526006602090815260408083208484529091529020545b92915050565b60056020526000908152604090205481565b611eb0612132565b611f045760408051600160e51b62461bcd02815260206004820181905260248201527f4f776e61626c653a2063616c6c6572206973206e6f7420746865206f776e6572604482015290519081900360640190fd5b600080546040516001600160a01b03909116907f8be0079c531659141344cd1fd0a4f28419497f9722a3daafe3b4186f6b6457e0908390a3600080546001600160a01b0319169055565b60086020528160005260406000208181548110610d4057fe5b600081815260076020526040812080546001600160a01b031680611f905760009250505061211b565b6001600160a01b0381166000908152600660209081526040808320600186015484529091528120600284015481548110611fc657fe5b6000918252602091829020600254600892909202016001810154604080516001600160e21b6222f317020319815260048101929092526001600160a01b03878116602484015290519295509092169263ff7433a49260448082019391829003018186803b15801561203657600080fd5b505afa15801561204a573d6000803e3d6000fd5b505050506040513d602081101561206057600080fd5b5051612072576000935050505061211b565b80546001600160a01b031680158061209b5750876001600160a01b0316816001600160a01b0316145b156120ad57600094505050505061211b565b438260060154116120c557600094505050505061211b565b6000868152600e602052604090208054806120ef578884600501541115965050505050505061211b565b888260018303815481106120ff57fe5b9060005260206000209060070201600501541096505050505050505b9392505050565b6000546001600160a01b03165b90565b6000546001600160a01b0316331490565b600160e11b634da4f1990295945050505050565b600160e01b63bc197c810295945050505050565b6000818152600760209081526040808320805460018201546001600160a01b03909116808652600685528386208287529094529184206002820154815492959281106121b357fe5b6000918252602080832060016008909302018281015460048201548a8652600e9093526040852080549296509094929383928392916121f8919063ffffffff6130c616565b9350600081858154811061220857fe5b60009182526020909120600790910201805460059091015460068a01546001600160a01b03909216955093504310159150612244905057600080fd5b60025460408051600160e01b63977803b702815290516000926001600160a01b03169163977803b7916004808301926020929190829003018186803b15801561228c57600080fd5b505afa1580156122a0573d6000803e3d6000fd5b505050506040513d60208110156122b657600080fd5b505190506122d86001600160a01b038a1682888b89308963ffffffff612a4716565b86546122f190879085906001600160a01b03168561335d565b6122fb838c613108565b60008b8152600e6020526040812061231291613e5f565b61231b8b612b7c565b604080518981526001600160a01b038581166020830152818301889052606082018590526080820187905291518d928c169189917fc7bbedb9d84ca5545b122d80ddbfb12a1f361fb88d6ea879a72e55872b3c8d069181900360a00190a45050505050505050505050565b6003546001600160a01b031681565b60008060006123a2613e35565b50600084815260076020908152604091829020825160608101845281546001600160a01b0316808252600183015493820193909352600290910154928101929092526123ed57600080fd5b8051602082015160409092015190969195509350915050565b6001600160a01b031660009081526008602052604090205490565b600c6020528160005260406000208181548110610d4057fe5b6006602052826000526040600020602052816000526040600020818154811061245f57fe5b6000918252602090912060089091020180546001820154600283015460038401546004850154600586015460068701546007909701546001600160a01b039687169a5094985092909416955093909188565b6124b9612132565b61250d5760408051600160e51b62461bcd02815260206004820181905260248201527f4f776e61626c653a2063616c6c6572206973206e6f7420746865206f776e6572604482015290519081900360640190fd5b60005b8181101561296a5760006007600085858581811061252a57fe5b602090810292909201358352508181019290925260409081016000908120805460018201546001600160a01b0390911680845260068652848420828552909552928220600282015481549296509091811061258157fe5b906000526020600020906008020190506000600e60008989898181106125a357fe5b60209081029290920135835250810191909152604001600020805490915080156127f25760008260018303815481106125d857fe5b600091825260209091206007909102018054600682015460035460058401549394506001600160a01b03928316939192169063a9059cbb908490612622908563ffffffff6130c616565b6040518363ffffffff1660e01b815260040180836001600160a01b03166001600160a01b0316815260200182815260200192505050602060405180830381600087803b15801561267157600080fd5b505af1158015612685573d6000803e3d6000fd5b505050506040513d602081101561269b57600080fd5b505080156127a1576003546004805460408051600160e01b63095ea7b30281526001600160a01b0392831693810193909352602483018590525192169163095ea7b3916044808201926020929091908290030181600087803b15801561270057600080fd5b505af1158015612714573d6000803e3d6000fd5b505050506040513d602081101561272a57600080fd5b50506004805460408051600160e01b63a3ffa9cd0281526001600160a01b0386811694820194909452602481018590529051929091169163a3ffa9cd9160448082019260009290919082900301818387803b15801561278857600080fd5b505af115801561279c573d6000803e3d6000fd5b505050505b6127bd828d8d8d8181106127b157fe5b90506020020135613108565b600e60008d8d8d8181106127cd57fe5b90506020020135815260200190815260200160002060006127ee9190613e5f565b5050505b600183015460025460408051600160e01b63977803b70281529051612892926001600160a01b03169163977803b7916004808301926020929190829003018186803b15801561284057600080fd5b505afa158015612854573d6000803e3d6000fd5b505050506040513d602081101561286a57600080fd5b5051600486015486546001600160a01b038a8116939286928b9230911663ffffffff612a4716565b6128ad8a8a8a8181106128a157fe5b90506020020135612b7c565b8989898181106128b957fe5b90506020020135866001600160a01b0316827ffcd7239f485fd88443ee4ededcbb23845ec145e7b5119e2e1880a4f4101208fb886040518082815260200191505060405180910390a489898981811061290e57fe5b90506020020135866001600160a01b0316827f1deb92cd440050370861d56ea1e58958c2cd59aa73d7b6b94f63f0fb08cceaa0886040518082815260200191505060405180910390a45050600190950194506125109350505050565b505050565b600f602052816000526040600020818154811061298857fe5b600091825260209091206002909102018054600190910154909250905082565b600160e01b63e78b33250295945050505050565b600160e01b63f23a6e610295945050505050565b6002546001600160a01b031681565b6129e7612132565b612a3b5760408051600160e51b62461bcd02815260206004820181905260248201527f4f776e61626c653a2063616c6c6572206973206e6f7420746865206f776e6572604482015290519081900360640190fd5b612a4481613bf7565b50565b612a528787876132bc565b15612af05760008311612a6457600080fd5b60408051600160e11b63792121950281526001600160a01b0384811660048301528381166024830152604482018790526064820186905260a06084830152600060a483018190529251908a169263f242432a9260e4808201939182900301818387803b158015612ad357600080fd5b505af1158015612ae7573d6000803e3d6000fd5b50505050612b73565b82600114612afd57600080fd5b60408051600160e01b6323b872dd0281526001600160a01b0384811660048301528381166024830152604482018790529151918916916323b872dd9160648082019260009290919082900301818387803b158015612b5a57600080fd5b505af1158015612b6e573d6000803e3d6000fd5b505050505b50505050505050565b60008181526007602090815260408083208054600182015460028301546001600160a01b039092168087526006865284872082885290955292852080549295919283908110612bc757fe5b600091825260208083206001600160a01b0388168452600891829052604084205492909102019250612bfa9060016130c6565b600088815260096020526040902054909150808214612c95576001600160a01b0386166000908152600860205260408120805484908110612c3757fe5b906000526020600020015490508060086000896001600160a01b03166001600160a01b031681526020019081526020016000208381548110612c7557fe5b600091825260208083209091019290925591825260099052604090208190555b6001600160a01b0386166000908152600860205260409020805490612cbe906000198301613e80565b50600088815260096020908152604080832083905585546001600160a01b0316808452600a90925290912054612cfb90600163ffffffff6130c616565b60008a8152600b60205260409020549093509150818314612d98576001600160a01b0381166000908152600a60205260408120805485908110612d3a57fe5b9060005260206000200154905080600a6000846001600160a01b03166001600160a01b031681526020019081526020016000208481548110612d7857fe5b6000918252602080832090910192909255918252600b9052604090208290555b6001600160a01b0381166000908152600a60205260409020805490612dc1906000198301613e80565b506000898152600b60209081526040808320839055600180880154808552600c9093529220549091612df9919063ffffffff6130c616565b60008b8152600d60205260409020549094509250828414612e7a576000818152600c60205260408120805486908110612e2e57fe5b9060005260206000200154905080600c60008481526020019081526020016000208581548110612e5a57fe5b6000918252602080832090910192909255918252600d9052604090208390555b6000818152600c60205260409020805490612e99906000198301613e80565b5060008a8152600d602090815260408083208390556001600160a01b038b168352600682528083208a8452909152812054612edb90600163ffffffff6130c616565b9050612ee5613ea4565b6001600160a01b038a1660009081526006602090815260408083208c84529091529020805483908110612f1457fe5b60009182526020918290206040805161010081018252600890930290910180546001600160a01b0390811684526001820154948401949094526002810154909316908201526003820154606082015260048201546080820152600582015460a0820152600682015460c082015260079091015460e0820152905087821461305a576001600160a01b038a1660009081526006602090815260408083208c8452909152902080548291908a908110612fc757fe5b60009182526020808320845160089093020180546001600160a01b039384166001600160a01b031991821617825585830151600183015560408087015160028085018054929097169190931617909455606086015160038301556080860151600483015560a0860151600583015560c0860151600683015560e09586015160079283015594860151845290529020018890555b6001600160a01b038a1660009081526006602090815260408083208c8452909152902080549061308e906000198301613efe565b5050506000998a525050600760205250506040862080546001600160a01b031916815560018101879055600201959095555050505050565b600061211b83836040518060400160405280601e81526020017f536166654d6174683a207375627472616374696f6e206f766572666c6f770000815250613c9a565b6001600160a01b0382166000908152600f602052604081205461313290600163ffffffff6130c616565b6001600160a01b038416600090815260106020908152604080832086845290915290205490915080821461321957613168613f2a565b6001600160a01b0385166000908152600f6020526040902080548490811061318c57fe5b6000918252602080832060408051808201825260029094029091018054845260010154838301526001600160a01b0389168452600f90915290912080549192508291849081106131d857fe5b600091825260208083208451600290930201918255928301516001909101556001600160a01b03871681526010825260408082209351825292909152208190555b6001600160a01b03841660008181526010602090815260408083208784528252808320839055928252600f905220805490613258906000198301613f41565b5050505050565b60008282018381101561211b5760408051600160e51b62461bcd02815260206004820152601b60248201527f536166654d6174683a206164646974696f6e206f766572666c6f770000000000604482015290519081900360640190fd5b600080836001600160a01b03166349d1834a84876040518363ffffffff1660e01b815260040180838152602001826001600160a01b03166001600160a01b031681526020019250505060206040518083038186803b15801561331d57600080fd5b505afa158015613331573d6000803e3d6000fd5b505050506040513d602081101561334757600080fd5b5051600181111561335457fe5b14949350505050565b60025460408051600160e01b63977803b702815290516000926001600160a01b03169163977803b7916004808301926020929190829003018186803b1580156133a557600080fd5b505afa1580156133b9573d6000803e3d6000fd5b505050506040513d60208110156133cf57600080fd5b505160025460408051600160e01b63ddca3f4302815290519293506000926001600160a01b039092169163ddca3f4391600480820192602092909190829003018186803b15801561341f57600080fd5b505afa158015613433573d6000803e3d6000fd5b505050506040513d602081101561344957600080fd5b505160408051600160e21b631fddfd5d02815260048101899052815192935060009283926001600160a01b03871692637f77f5749260248083019392829003018186803b15801561349957600080fd5b505afa1580156134ad573d6000803e3d6000fd5b505050506040513d60408110156134c357600080fd5b50805160209182015160408051600160e01b63a7b63a4b028152600481018d90529051929550909350600092839283926001600160a01b038a169263a7b63a4b92602480840193829003018186803b15801561351e57600080fd5b505afa158015613532573d6000803e3d6000fd5b505050506040513d602081101561354857600080fd5b50511561389257866001600160a01b0316635184eca88c6040518263ffffffff1660e01b81526004018082815260200191505060206040518083038186803b15801561359357600080fd5b505afa1580156135a7573d6000803e3d6000fd5b505050506040513d60208110156135bd57600080fd5b5051156137af576000613662612710613656600460009054906101000a90046001600160a01b03166001600160a01b031663dbee2a256040518163ffffffff1660e01b815260040160206040518083038186803b15801561361d57600080fd5b505afa158015613631573d6000803e3d6000fd5b505050506040513d602081101561364757600080fd5b50518c9063ffffffff613d3416565b9063ffffffff613d9016565b905061367a6127106136568b8a63ffffffff613d3416565b93508084111561369e57905080613697848263ffffffff6130c616565b93506136a4565b60009391505b60006137468261373a612710613656600460009054906101000a90046001600160a01b03166001600160a01b0316639390150f6040518163ffffffff1660e01b815260040160206040518083038186803b15801561370157600080fd5b505afa158015613715573d6000803e3d6000fd5b505050506040513d602081101561372b57600080fd5b50518f9063ffffffff613d3416565b9063ffffffff6130c616565b905061375e6127106136568c8963ffffffff613d3416565b93508084111561379157613778838263ffffffff61325f16565b925061378a848263ffffffff6130c616565b93506137a8565b6137a1838563ffffffff61325f16565b9250600093505b505061388d565b6137c56127106136568a8963ffffffff613d3416565b6004805460408051600160e01b639390150f028152905193965061384f9361271093613656936001600160a01b031692639390150f9281830192602092829003018186803b15801561381657600080fd5b505afa15801561382a573d6000803e3d6000fd5b505050506040513d602081101561384057600080fd5b50518b9063ffffffff613d3416565b90506138676127106136568a8763ffffffff613d3416565b91508082111561388857613881828263ffffffff6130c616565b915061388d565b506000905b6138c3565b6138a86127106136568a8963ffffffff613d3416565b92506138c06127106136568a8763ffffffff613d3416565b91505b82156139bd5760035460025460408051600160e21b632cfc019d02815290516001600160a01b039384169363a9059cbb93169163b3f00674916004808301926020929190829003018186803b15801561391b57600080fd5b505afa15801561392f573d6000803e3d6000fd5b505050506040513d602081101561394557600080fd5b50516040805163ffffffff841660e01b81526001600160a01b039092166004830152602482018790525160448083019260209291908290030181600087803b15801561399057600080fd5b505af11580156139a4573d6000803e3d6000fd5b505050506040513d60208110156139ba57600080fd5b50505b8115613a495760035460408051600160e01b63a9059cbb0281526001600160a01b038881166004830152602482018690529151919092169163a9059cbb9160448083019260209291908290030181600087803b158015613a1c57600080fd5b505af1158015613a30573d6000803e3d6000fd5b505050506040513d6020811015613a4657600080fd5b50505b8015613b4d576003546004805460408051600160e01b63095ea7b30281526001600160a01b0392831693810193909352602483018590525192169163095ea7b3916044808201926020929091908290030181600087803b158015613aac57600080fd5b505af1158015613ac0573d6000803e3d6000fd5b505050506040513d6020811015613ad657600080fd5b50506004805460408051600160e01b63a3ffa9cd0281526001600160a01b038e811694820194909452602481018590529051929091169163a3ffa9cd9160448082019260009290919082900301818387803b158015613b3457600080fd5b505af1158015613b48573d6000803e3d6000fd5b505050505b613b638161373a84818c8863ffffffff6130c616565b60035460408051600160e01b63a9059cbb0281526001600160a01b038d81166004830152602482018590529151939b5091169163a9059cbb916044808201926020929091908290030181600087803b158015613bbe57600080fd5b505af1158015613bd2573d6000803e3d6000fd5b505050506040513d6020811015613be857600080fd5b50505050505050505050505050565b6001600160a01b038116613c3f57604051600160e51b62461bcd02815260040180806020018281038252602681526020018061405d6026913960400191505060405180910390fd5b600080546040516001600160a01b03808516939216917f8be0079c531659141344cd1fd0a4f28419497f9722a3daafe3b4186f6b6457e091a3600080546001600160a01b0319166001600160a01b0392909216919091179055565b60008184841115613d2c57604051600160e51b62461bcd0281526004018080602001828103825283818151815260200191508051906020019080838360005b83811015613cf1578181015183820152602001613cd9565b50505050905090810190601f168015613d1e5780820380516001836020036101000a031916815260200191505b509250505060405180910390fd5b505050900390565b600082613d4357506000611e90565b82820282848281613d5057fe5b041461211b57604051600160e51b62461bcd0281526004018080602001828103825260218152602001806140836021913960400191505060405180910390fd5b600061211b83836040518060400160405280601a81526020017f536166654d6174683a206469766973696f6e206279207a65726f00000000000081525060008183613e1f57604051600160e51b62461bcd028152602060048201818152835160248401528351909283926044909101919085019080838360008315613cf1578181015183820152602001613cd9565b506000838581613e2b57fe5b0495945050505050565b604051806060016040528060006001600160a01b0316815260200160008152602001600081525090565b5080546000825560070290600052602060002090810190612a449190613f6d565b81548183558181111561296a5760008381526020902061296a918101908301613fc6565b60405180610100016040528060006001600160a01b031681526020016000815260200160006001600160a01b0316815260200160008152602001600081526020016000815260200160008152602001600080191681525090565b81548183558181111561296a5760080281600802836000526020600020918201910161296a9190613fe0565b604080518082019091526000808252602082015290565b81548183558181111561296a5760020281600202836000526020600020918201910161296a919061403c565b61212f91905b80821115613fc25780546001600160a01b031990811682556000600183018190556002830180549092169091556003820181905560048201819055600582018190556006820155600701613f73565b5090565b61212f91905b80821115613fc25760008155600101613fcc565b61212f91905b80821115613fc25780546001600160a01b03199081168255600060018301819055600283018054909216909155600382018190556004820181905560058201819055600682018190556007820155600801613fe6565b61212f91905b80821115613fc2576000808255600182015560020161404256fe4f776e61626c653a206e6577206f776e657220697320746865207a65726f2061646472657373536166654d6174683a206d756c7469706c69636174696f6e206f766572666c6f77a165627a7a7230582063e06089b17ce76f9ac32aca862e3ab93164b0c44a9b01de70778f6cf096c7180029",
    "linkReferences": {},
    "deployedLinkReferences": {}
}