{
  "_format": "hh-sol-artifact-1",
  "contractName": "Operator",
  "sourceName": "contracts/klayswap/KlayswapAirdropOperator.sol",
  "abi": [
    {
      "constant": true,
      "inputs": [],
      "name": "lp",
      "outputs": [
        {
          "name": "",
          "type": "address"
        }
      ],
      "payable": false,
      "stateMutability": "view",
      "type": "function"
    },
    {
      "constant": false,
      "inputs": [
        {
          "name": "tokenAddr",
          "type": "address"
        }
      ],
      "name": "withdraw",
      "outputs": [],
      "payable": false,
      "stateMutability": "nonpayable",
      "type": "function"
    },
    {
      "constant": true,
      "inputs": [],
      "name": "version",
      "outputs": [
        {
          "name": "",
          "type": "string"
        }
      ],
      "payable": false,
      "stateMutability": "pure",
      "type": "function"
    },
    {
      "constant": false,
      "inputs": [
        {
          "name": "_nextOwner",
          "type": "address"
        }
      ],
      "name": "changeNextOwner",
      "outputs": [],
      "payable": false,
      "stateMutability": "nonpayable",
      "type": "function"
    },
    {
      "constant": true,
      "inputs": [],
      "name": "treasury",
      "outputs": [
        {
          "name": "",
          "type": "address"
        }
      ],
      "payable": false,
      "stateMutability": "view",
      "type": "function"
    },
    {
      "constant": false,
      "inputs": [],
      "name": "changeOwner",
      "outputs": [],
      "payable": false,
      "stateMutability": "nonpayable",
      "type": "function"
    },
    {
      "constant": true,
      "inputs": [],
      "name": "nextOwner",
      "outputs": [
        {
          "name": "",
          "type": "address"
        }
      ],
      "payable": false,
      "stateMutability": "view",
      "type": "function"
    },
    {
      "constant": false,
      "inputs": [
        {
          "name": "totalAmount",
          "type": "uint256"
        },
        {
          "name": "blockAmount",
          "type": "uint256"
        },
        {
          "name": "startBlock",
          "type": "uint256"
        }
      ],
      "name": "createDistribution",
      "outputs": [],
      "payable": false,
      "stateMutability": "nonpayable",
      "type": "function"
    },
    {
      "constant": true,
      "inputs": [],
      "name": "owner",
      "outputs": [
        {
          "name": "",
          "type": "address"
        }
      ],
      "payable": false,
      "stateMutability": "view",
      "type": "function"
    },
    {
      "constant": true,
      "inputs": [],
      "name": "ksp",
      "outputs": [
        {
          "name": "",
          "type": "address"
        }
      ],
      "payable": false,
      "stateMutability": "view",
      "type": "function"
    },
    {
      "constant": false,
      "inputs": [
        {
          "name": "amount",
          "type": "uint256"
        }
      ],
      "name": "deposit",
      "outputs": [],
      "payable": false,
      "stateMutability": "nonpayable",
      "type": "function"
    },
    {
      "constant": false,
      "inputs": [
        {
          "name": "blockAmount",
          "type": "uint256"
        }
      ],
      "name": "refixBlockAmount",
      "outputs": [],
      "payable": false,
      "stateMutability": "nonpayable",
      "type": "function"
    },
    {
      "constant": true,
      "inputs": [],
      "name": "getAirdropStat",
      "outputs": [
        {
          "name": "distributionContract",
          "type": "address"
        },
        {
          "name": "totalAmount",
          "type": "uint256"
        },
        {
          "name": "blockAmount",
          "type": "uint256"
        },
        {
          "name": "distributableBlock",
          "type": "uint256"
        },
        {
          "name": "endBlock",
          "type": "uint256"
        },
        {
          "name": "distributed",
          "type": "uint256"
        },
        {
          "name": "remain",
          "type": "uint256"
        },
        {
          "name": "targetCount",
          "type": "uint256"
        },
        {
          "name": "targets",
          "type": "address[]"
        },
        {
          "name": "rates",
          "type": "uint256[]"
        }
      ],
      "payable": false,
      "stateMutability": "view",
      "type": "function"
    },
    {
      "constant": true,
      "inputs": [],
      "name": "token",
      "outputs": [
        {
          "name": "",
          "type": "address"
        }
      ],
      "payable": false,
      "stateMutability": "view",
      "type": "function"
    },
    {
      "inputs": [
        {
          "name": "_token",
          "type": "address"
        },
        {
          "name": "_lp",
          "type": "address"
        }
      ],
      "payable": false,
      "stateMutability": "nonpayable",
      "type": "constructor"
    },
    {
      "payable": true,
      "stateMutability": "payable",
      "type": "fallback"
    }
  ],
  "bytecode": "0x60806040523480156200001157600080fd5b5060405160408062001b1d833981018060405260408110156200003357600080fd5b508051602090910151600080546001600160a01b03199081163317909155600280546001600160a01b038086169190931617908190551615620000fa57600260009054906101000a90046001600160a01b03166001600160a01b031663313ce5676040518163ffffffff1660e01b815260040160206040518083038186803b158015620000bf57600080fd5b505afa158015620000d4573d6000803e3d6000fd5b505050506040513d6020811015620000eb57600080fd5b505160ff16620000fa57600080fd5b600380546001600160a01b0319166001600160a01b038381169190911791829055604080517f89345efb0000000000000000000000000000000000000000000000000000000081529290911660048301525173c6a2ad8cc6e4a7e08fc37cc5954be07d499e7654916389345efb916024808301926020929190829003018186803b1580156200018857600080fd5b505afa1580156200019d573d6000803e3d6000fd5b505050506040513d6020811015620001b457600080fd5b5051620001c057600080fd5b505061194b80620001d26000396000f3fe6080604052600436106100dd5760003560e01c8063757060631161007f578063b6b55f2511610059578063b6b55f251461029f578063d39bb21f146102c9578063eff3126d146102f3578063fc0c546a146103eb576100dd565b8063757060631461023f5780638da5cb5b146102755780639082d0ed1461028a576100dd565b80635d7fb0d4116100bb5780635d7fb0d4146101cd57806361d027b31461020057806362a094771461021557806369f3331d1461022a576100dd565b8063313c06a0146100df57806351cff8d91461011057806354fd4d5014610143575b005b3480156100eb57600080fd5b506100f4610400565b604080516001600160a01b039092168252519081900360200190f35b34801561011c57600080fd5b506100dd6004803603602081101561013357600080fd5b50356001600160a01b031661040f565b34801561014f57600080fd5b506101586105b6565b6040805160208082528351818301528351919283929083019185019080838360005b8381101561019257818101518382015260200161017a565b50505050905090810190601f1680156101bf5780820380516001836020036101000a031916815260200191505b509250505060405180910390f35b3480156101d957600080fd5b506100dd600480360360208110156101f057600080fd5b50356001600160a01b03166105ed565b34801561020c57600080fd5b506100f4610626565b34801561022157600080fd5b506100dd61063e565b34801561023657600080fd5b506100f461067c565b34801561024b57600080fd5b506100dd6004803603606081101561026257600080fd5b508035906020810135906040013561068b565b34801561028157600080fd5b506100f4610e32565b34801561029657600080fd5b506100f4610e41565b3480156102ab57600080fd5b506100dd600480360360208110156102c257600080fd5b5035610e59565b3480156102d557600080fd5b506100dd600480360360208110156102ec57600080fd5b50356111a4565b3480156102ff57600080fd5b50610308611356565b604051808b6001600160a01b03166001600160a01b031681526020018a81526020018981526020018881526020018781526020018681526020018581526020018481526020018060200180602001838103835285818151815260200191508051906020019060200280838360005b8381101561038e578181015183820152602001610376565b50505050905001838103825284818151815260200191508051906020019060200280838360005b838110156103cd5781810151838201526020016103b5565b505050509050019c5050505050505050505050505060405180910390f35b3480156103f757600080fd5b506100f4611910565b6003546001600160a01b031681565b6000546001600160a01b0316331461042657600080fd5b60006001600160a01b0382166104a65750303180156104a157600080546040516001600160a01b039091169083908381818185875af1925050503d806000811461048c576040519150601f19603f3d011682016040523d82523d6000602084013e610491565b606091505b505090508061049f57600080fd5b505b6105b2565b60408051600160e01b6370a0823102815230600482015290516001600160a01b038416916370a08231916024808301926020929190829003018186803b1580156104ef57600080fd5b505afa158015610503573d6000803e3d6000fd5b505050506040513d602081101561051957600080fd5b5051905080156105b2576000805460408051600160e01b63a9059cbb0281526001600160a01b0392831660048201526024810185905290519185169263a9059cbb926044808401936020939083900390910190829087803b15801561057d57600080fd5b505af1158015610591573d6000803e3d6000fd5b505050506040513d60208110156105a757600080fd5b50516105b257600080fd5b5050565b60408051808201909152601781527f41697264726f704f70657261746f723230323130383234000000000000000000602082015290565b6000546001600160a01b0316331461060457600080fd5b600180546001600160a01b0319166001600160a01b0392909216919091179055565b7329990aaf04f3d5ac7d8c88beab1a009c1ab4936e81565b6001546001600160a01b0316331461065557600080fd5b60018054600080546001600160a01b03199081166001600160a01b03841617909155169055565b6001546001600160a01b031681565b6000546001600160a01b031633146106a257600080fd5b60408051600160e01b636f00321302815230600482015290517329990aaf04f3d5ac7d8c88beab1a009c1ab4936e918291636f00321391602480820192602092909190829003018186803b1580156106f957600080fd5b505afa15801561070d573d6000803e3d6000fd5b505050506040513d602081101561072357600080fd5b505161072e57600080fd5b60025460408051600160e11b632827ff290281523060048201526001600160a01b039283166024820152905160009284169163504ffe52916044808301926020929190829003018186803b15801561078557600080fd5b505afa158015610799573d6000803e3d6000fd5b505050506040513d60208110156107af57600080fd5b50516001600160a01b0316146107c457600080fd5b438210156107d157600080fd5b60408051600180825281830190925260609160208083019080388339505060035482519293506001600160a01b03169183915060009061080d57fe5b6001600160a01b039092166020928302919091019091015260408051600180825281830190925260609181602001602082028038833901905050905060648160008151811061085857fe5b6020026020010181815250506000836001600160a01b031663ddca3f436040518163ffffffff1660e01b815260040160206040518083038186803b15801561089f57600080fd5b505afa1580156108b3573d6000803e3d6000fd5b505050506040513d60208110156108c957600080fd5b50511115610add57826001600160a01b031663ddca3f436040518163ffffffff1660e01b815260040160206040518083038186803b15801561090a57600080fd5b505afa15801561091e573d6000803e3d6000fd5b505050506040513d602081101561093457600080fd5b505160408051600160e01b6370a08231028152306004820152905173c6a2ad8cc6e4a7e08fc37cc5954be07d499e7654916370a08231916024808301926020929190829003018186803b15801561098a57600080fd5b505afa15801561099e573d6000803e3d6000fd5b505050506040513d60208110156109b457600080fd5b505110156109c157600080fd5b73c6a2ad8cc6e4a7e08fc37cc5954be07d499e76546001600160a01b031663095ea7b37329990aaf04f3d5ac7d8c88beab1a009c1ab4936e856001600160a01b031663ddca3f436040518163ffffffff1660e01b815260040160206040518083038186803b158015610a3257600080fd5b505afa158015610a46573d6000803e3d6000fd5b505050506040513d6020811015610a5c57600080fd5b50516040805163ffffffff851660e01b81526001600160a01b03909316600484015260248301919091525160448083019260209291908290030181600087803b158015610aa857600080fd5b505af1158015610abc573d6000803e3d6000fd5b505050506040513d6020811015610ad257600080fd5b5051610add57600080fd5b6002546001600160a01b0316610bf3573031861115610afb57600080fd5b826001600160a01b0316635a5d4f7087878786866040518663ffffffff1660e01b8152600401808581526020018481526020018060200180602001838103835285818151815260200191508051906020019060200280838360005b83811015610b6e578181015183820152602001610b56565b50505050905001838103825284818151815260200191508051906020019060200280838360005b83811015610bad578181015183820152602001610b95565b5050505090500196505050505050506000604051808303818588803b158015610bd557600080fd5b505af1158015610be9573d6000803e3d6000fd5b5050505050610e2a565b60025460408051600160e01b6370a08231028152306004820152905188926001600160a01b0316916370a08231916024808301926020929190829003018186803b158015610c4057600080fd5b505afa158015610c54573d6000803e3d6000fd5b505050506040513d6020811015610c6a57600080fd5b50511015610c7757600080fd5b60025460408051600160e01b63095ea7b30281527329990aaf04f3d5ac7d8c88beab1a009c1ab4936e60048201526024810189905290516001600160a01b039092169163095ea7b3916044808201926020929091908290030181600087803b158015610ce257600080fd5b505af1158015610cf6573d6000803e3d6000fd5b505050506040513d6020811015610d0c57600080fd5b5051610d1757600080fd5b600254604051600160e01b6302703d810281526001600160a01b0391821660048201818152602483018a9052604483018990526064830188905260c060848401908152865160c48501528651948816946302703d81948c938c938c938b938b93929160a482019160e401906020808801910280838360005b83811015610da7578181015183820152602001610d8f565b50505050905001838103825284818151815260200191508051906020019060200280838360005b83811015610de6578181015183820152602001610dce565b5050505090500198505050505050505050600060405180830381600087803b158015610e1157600080fd5b505af1158015610e25573d6000803e3d6000fd5b505050505b505050505050565b6000546001600160a01b031681565b73c6a2ad8cc6e4a7e08fc37cc5954be07d499e765481565b6000546001600160a01b03163314610e7057600080fd5b60408051600160e01b636f00321302815230600482015290517329990aaf04f3d5ac7d8c88beab1a009c1ab4936e918291636f00321391602480820192602092909190829003018186803b158015610ec757600080fd5b505afa158015610edb573d6000803e3d6000fd5b505050506040513d6020811015610ef157600080fd5b5051610efc57600080fd5b60025460408051600160e11b632827ff290281523060048201526001600160a01b039283166024820152905160009284169163504ffe52916044808301926020929190829003018186803b158015610f5357600080fd5b505afa158015610f67573d6000803e3d6000fd5b505050506040513d6020811015610f7d57600080fd5b50516001600160a01b03161415610f9357600080fd5b81610f9d57600080fd5b6002546001600160a01b0316611014573031821115610fbb57600080fd5b806001600160a01b031663fa317bf1836040518263ffffffff1660e01b81526004016000604051808303818588803b158015610ff657600080fd5b505af115801561100a573d6000803e3d6000fd5b50505050506105b2565b60025460408051600160e01b6370a08231028152306004820152905184926001600160a01b0316916370a08231916024808301926020929190829003018186803b15801561106157600080fd5b505afa158015611075573d6000803e3d6000fd5b505050506040513d602081101561108b57600080fd5b5051101561109857600080fd5b60025460408051600160e01b63095ea7b30281527329990aaf04f3d5ac7d8c88beab1a009c1ab4936e60048201526024810185905290516001600160a01b039092169163095ea7b3916044808201926020929091908290030181600087803b15801561110357600080fd5b505af1158015611117573d6000803e3d6000fd5b505050506040513d602081101561112d57600080fd5b505161113857600080fd5b60025460408051600160e11b6319c5aef50281526001600160a01b0392831660048201526024810185905290519183169163338b5dea9160448082019260009290919082900301818387803b15801561119057600080fd5b505af1158015610e2a573d6000803e3d6000fd5b6000546001600160a01b031633146111bb57600080fd5b60408051600160e01b636f00321302815230600482015290517329990aaf04f3d5ac7d8c88beab1a009c1ab4936e918291636f00321391602480820192602092909190829003018186803b15801561121257600080fd5b505afa158015611226573d6000803e3d6000fd5b505050506040513d602081101561123c57600080fd5b505161124757600080fd5b60025460408051600160e11b632827ff290281523060048201526001600160a01b039283166024820152905160009284169163504ffe52916044808301926020929190829003018186803b15801561129e57600080fd5b505afa1580156112b2573d6000803e3d6000fd5b505050506040513d60208110156112c857600080fd5b50516001600160a01b031614156112de57600080fd5b816112e857600080fd5b600254604080517fff6347cc0000000000000000000000000000000000000000000000000000000081526001600160a01b0392831660048201526024810185905290519183169163ff6347cc9160448082019260009290919082900301818387803b15801561119057600080fd5b60025460408051600160e11b632827ff290281523060048201526001600160a01b03909216602483015251600091829182918291829182918291829160609182917329990aaf04f3d5ac7d8c88beab1a009c1ab4936e9163504ffe52916044808301926020929190829003018186803b1580156113d257600080fd5b505afa1580156113e6573d6000803e3d6000fd5b505050506040513d60208110156113fc57600080fd5b505160408051600160e01b631a39d8ef0281529051919b508b916001600160a01b03831691631a39d8ef916004808301926020929190829003018186803b15801561144657600080fd5b505afa15801561145a573d6000803e3d6000fd5b505050506040513d602081101561147057600080fd5b505160408051600160e01b637a5fc7b10281529051919b506001600160a01b03831691637a5fc7b191600480820192602092909190829003018186803b1580156114b957600080fd5b505afa1580156114cd573d6000803e3d6000fd5b505050506040513d60208110156114e357600080fd5b505160408051600160e11b634a03b03d0281529051919a506001600160a01b03831691639407607a91600480820192602092909190829003018186803b15801561152c57600080fd5b505afa158015611540573d6000803e3d6000fd5b505050506040513d602081101561155657600080fd5b505160408051600160e01b630fec6d3902815290519199506001600160a01b03831691630fec6d3991600480820192602092909190829003018186803b15801561159f57600080fd5b505afa1580156115b3573d6000803e3d6000fd5b505050506040513d60208110156115c957600080fd5b505160408051600160e21b6317b963bf02815290519198506001600160a01b03831691635ee58efc91600480820192602092909190829003018186803b15801561161257600080fd5b505afa158015611626573d6000803e3d6000fd5b505050506040513d602081101561163c57600080fd5b50516002549096506001600160a01b0316611663578a6001600160a01b03163194506116e2565b60025460408051600160e01b6370a082310281526001600160a01b038e81166004830152915191909216916370a08231916024808301926020929190829003018186803b1580156116b357600080fd5b505afa1580156116c7573d6000803e3d6000fd5b505050506040513d60208110156116dd57600080fd5b505194505b806001600160a01b031663b01285cd6040518163ffffffff1660e01b815260040160206040518083038186803b15801561171b57600080fd5b505afa15801561172f573d6000803e3d6000fd5b505050506040513d602081101561174557600080fd5b5051604080518281526020808402820101909152909450848015611773578160200160208202803883390190505b509250836040519080825280602002602001820160405280156117a0578160200160208202803883390190505b50915060005b8481101561190257816001600160a01b03166302744fc9826040518263ffffffff1660e01b81526004018082815260200191505060206040518083038186803b1580156117f257600080fd5b505afa158015611806573d6000803e3d6000fd5b505050506040513d602081101561181c57600080fd5b5051845185908390811061182c57fe5b60200260200101906001600160a01b031690816001600160a01b031681525050816001600160a01b0316635816c56f85838151811061186757fe5b60200260200101516040518263ffffffff1660e01b815260040180826001600160a01b03166001600160a01b0316815260200191505060206040518083038186803b1580156118b557600080fd5b505afa1580156118c9573d6000803e3d6000fd5b505050506040513d60208110156118df57600080fd5b505183518490839081106118ef57fe5b60209081029190910101526001016117a6565b505090919293949596979899565b6002546001600160a01b03168156fea165627a7a72305820cc3bbe0f9d4f24c621dac26caaaaf06e14283106096a20604599dbab36f098d70029",
  "linkReferences": {},
  "deployedLinkReferences": {}
}