{
  "_format": "hh-sol-artifact-1",
  "contractName": "Mileage",
  "sourceName": "contracts/Mileage.sol",
  "abi": [
    {
      "constant": true,
      "inputs": [
        {
          "name": "",
          "type": "address"
        }
      ],
      "name": "mileages",
      "outputs": [
        {
          "name": "",
          "type": "uint256"
        }
      ],
      "payable": false,
      "stateMutability": "view",
      "type": "function"
    },
    {
      "constant": false,
      "inputs": [
        {
          "name": "percent",
          "type": "uint256"
        }
      ],
      "name": "setMileagePercent",
      "outputs": [],
      "payable": false,
      "stateMutability": "nonpayable",
      "type": "function"
    },
    {
      "constant": false,
      "inputs": [
        {
          "name": "user",
          "type": "address"
        },
        {
          "name": "amount",
          "type": "uint256"
        }
      ],
      "name": "use",
      "outputs": [],
      "payable": false,
      "stateMutability": "nonpayable",
      "type": "function"
    },
    {
      "constant": false,
      "inputs": [],
      "name": "renounceOwnership",
      "outputs": [],
      "payable": false,
      "stateMutability": "nonpayable",
      "type": "function"
    },
    {
      "constant": false,
      "inputs": [
        {
          "name": "percent",
          "type": "uint256"
        }
      ],
      "name": "setOnlyKlubsPercent",
      "outputs": [],
      "payable": false,
      "stateMutability": "nonpayable",
      "type": "function"
    },
    {
      "constant": false,
      "inputs": [
        {
          "name": "addr",
          "type": "address"
        }
      ],
      "name": "removeFromWhitelist",
      "outputs": [],
      "payable": false,
      "stateMutability": "nonpayable",
      "type": "function"
    },
    {
      "constant": true,
      "inputs": [],
      "name": "owner",
      "outputs": [
        {
          "name": "",
          "type": "address"
        }
      ],
      "payable": false,
      "stateMutability": "view",
      "type": "function"
    },
    {
      "constant": true,
      "inputs": [],
      "name": "isOwner",
      "outputs": [
        {
          "name": "",
          "type": "bool"
        }
      ],
      "payable": false,
      "stateMutability": "view",
      "type": "function"
    },
    {
      "constant": true,
      "inputs": [],
      "name": "mileagePercent",
      "outputs": [
        {
          "name": "",
          "type": "uint256"
        }
      ],
      "payable": false,
      "stateMutability": "view",
      "type": "function"
    },
    {
      "constant": true,
      "inputs": [
        {
          "name": "",
          "type": "address"
        }
      ],
      "name": "whitelist",
      "outputs": [
        {
          "name": "",
          "type": "bool"
        }
      ],
      "payable": false,
      "stateMutability": "view",
      "type": "function"
    },
    {
      "constant": false,
      "inputs": [
        {
          "name": "user",
          "type": "address"
        },
        {
          "name": "amount",
          "type": "uint256"
        }
      ],
      "name": "charge",
      "outputs": [],
      "payable": false,
      "stateMutability": "nonpayable",
      "type": "function"
    },
    {
      "constant": true,
      "inputs": [],
      "name": "mix",
      "outputs": [
        {
          "name": "",
          "type": "address"
        }
      ],
      "payable": false,
      "stateMutability": "view",
      "type": "function"
    },
    {
      "constant": true,
      "inputs": [],
      "name": "onlyKlubsPercent",
      "outputs": [
        {
          "name": "",
          "type": "uint256"
        }
      ],
      "payable": false,
      "stateMutability": "view",
      "type": "function"
    },
    {
      "constant": false,
      "inputs": [
        {
          "name": "addr",
          "type": "address"
        }
      ],
      "name": "addToWhitelist",
      "outputs": [],
      "payable": false,
      "stateMutability": "nonpayable",
      "type": "function"
    },
    {
      "constant": false,
      "inputs": [
        {
          "name": "newOwner",
          "type": "address"
        }
      ],
      "name": "transferOwnership",
      "outputs": [],
      "payable": false,
      "stateMutability": "nonpayable",
      "type": "function"
    },
    {
      "inputs": [
        {
          "name": "_mix",
          "type": "address"
        }
      ],
      "payable": false,
      "stateMutability": "nonpayable",
      "type": "constructor"
    },
    {
      "anonymous": false,
      "inputs": [
        {
          "indexed": true,
          "name": "addr",
          "type": "address"
        }
      ],
      "name": "AddToWhitelist",
      "type": "event"
    },
    {
      "anonymous": false,
      "inputs": [
        {
          "indexed": true,
          "name": "addr",
          "type": "address"
        }
      ],
      "name": "RemoveFromWhitelist",
      "type": "event"
    },
    {
      "anonymous": false,
      "inputs": [
        {
          "indexed": true,
          "name": "user",
          "type": "address"
        },
        {
          "indexed": false,
          "name": "amount",
          "type": "uint256"
        }
      ],
      "name": "Charge",
      "type": "event"
    },
    {
      "anonymous": false,
      "inputs": [
        {
          "indexed": true,
          "name": "user",
          "type": "address"
        },
        {
          "indexed": false,
          "name": "amount",
          "type": "uint256"
        }
      ],
      "name": "Use",
      "type": "event"
    },
    {
      "anonymous": false,
      "inputs": [
        {
          "indexed": true,
          "name": "previousOwner",
          "type": "address"
        },
        {
          "indexed": true,
          "name": "newOwner",
          "type": "address"
        }
      ],
      "name": "OwnershipTransferred",
      "type": "event"
    }
  ],
  "bytecode": "0x60806040526064600355603260045534801561001a57600080fd5b50604051602080610b398339810180604052602081101561003a57600080fd5b5051600080546001600160a01b03191633178082556040516001600160a01b039190911691907f8be0079c531659141344cd1fd0a4f28419497f9722a3daafe3b4186f6b6457e0908290a3600280546001600160a01b0319166001600160a01b0392909216919091179055610a85806100b46000396000f3fe608060405234801561001057600080fd5b50600436106100f55760003560e01c80638f32d59b11610097578063be32cf8d11610066578063be32cf8d14610262578063dbee2a251461026a578063e43252d714610272578063f2fde38b14610298576100f5565b80638f32d59b146101ec5780639390150f146102085780639b19251a14610210578063a3ffa9cd14610236576100f5565b8063715018a6116100d3578063715018a61461017d578063874b5e32146101855780638ab1d681146101a25780638da5cb5b146101c8576100f5565b80630f3f47f3146100fa578063317c52681461013257806369fb2a2014610151575b600080fd5b6101206004803603602081101561011057600080fd5b50356001600160a01b03166102be565b60408051918252519081900360200190f35b61014f6004803603602081101561014857600080fd5b50356102d0565b005b61014f6004803603604081101561016757600080fd5b506001600160a01b03813516906020013561032d565b61014f61044b565b61014f6004803603602081101561019b57600080fd5b50356104df565b61014f600480360360208110156101b857600080fd5b50356001600160a01b031661053d565b6101d06105d0565b604080516001600160a01b039092168252519081900360200190f35b6101f46105df565b604080519115158252519081900360200190f35b6101206105f0565b6101f46004803603602081101561022657600080fd5b50356001600160a01b03166105f6565b61014f6004803603604081101561024c57600080fd5b506001600160a01b03813516906020013561060b565b6101d061072f565b61012061073e565b61014f6004803603602081101561028857600080fd5b50356001600160a01b0316610744565b61014f600480360360208110156102ae57600080fd5b50356001600160a01b03166107da565b60016020526000908152604090205481565b6102d86105df565b61031a5760408051600160e51b62461bcd0281526020600482018190526024820152600080516020610a3a833981519152604482015290519081900360640190fd5b612328811061032857600080fd5b600355565b3360009081526005602052604090205460ff1661034957600080fd5b60025460408051600160e01b63a9059cbb0281523360048201526024810184905290516001600160a01b039092169163a9059cbb916044808201926020929091908290030181600087803b1580156103a057600080fd5b505af11580156103b4573d6000803e3d6000fd5b505050506040513d60208110156103ca57600080fd5b50506001600160a01b0382166000908152600160205260409020546103f5908263ffffffff61083016565b6001600160a01b038316600081815260016020908152604091829020939093558051848152905191927f095a6ca7abcfe34d4a2c0943555a21fd5531b0a8c33bf91725429b968d2c81bd92918290030190a25050565b6104536105df565b6104955760408051600160e51b62461bcd0281526020600482018190526024820152600080516020610a3a833981519152604482015290519081900360640190fd5b600080546040516001600160a01b03909116907f8be0079c531659141344cd1fd0a4f28419497f9722a3daafe3b4186f6b6457e0908390a3600080546001600160a01b0319169055565b6104e76105df565b6105295760408051600160e51b62461bcd0281526020600482018190526024820152600080516020610a3a833981519152604482015290519081900360640190fd5b60035481111561053857600080fd5b600455565b6105456105df565b6105875760408051600160e51b62461bcd0281526020600482018190526024820152600080516020610a3a833981519152604482015290519081900360640190fd5b6001600160a01b038116600081815260056020526040808220805460ff19169055517f1f756c8b089af6b33ee121fee8badac2553a2fa89c0575ea91ff8792617746c29190a250565b6000546001600160a01b031690565b6000546001600160a01b0316331490565b60035481565b60056020526000908152604090205460ff1681565b3360009081526005602052604090205460ff1661062757600080fd5b60025460408051600160e01b6323b872dd0281523360048201523060248201526044810184905290516001600160a01b03909216916323b872dd916064808201926020929091908290030181600087803b15801561068457600080fd5b505af1158015610698573d6000803e3d6000fd5b505050506040513d60208110156106ae57600080fd5b50506001600160a01b0382166000908152600160205260409020546106d9908263ffffffff61087916565b6001600160a01b038316600081815260016020908152604091829020939093558051848152905191927f8f34218a529508858e9054bf52c7957c414473b152ee72c5355e9ebe531cbae192918290030190a25050565b6002546001600160a01b031681565b60045481565b61074c6105df565b61078e5760408051600160e51b62461bcd0281526020600482018190526024820152600080516020610a3a833981519152604482015290519081900360640190fd5b6001600160a01b038116600081815260056020526040808220805460ff19166001179055517f75b2135d1c8c3519f3c09c43fe6527089ef09f40c7981ebf0ed46e79e79032c79190a250565b6107e26105df565b6108245760408051600160e51b62461bcd0281526020600482018190526024820152600080516020610a3a833981519152604482015290519081900360640190fd5b61082d816108d6565b50565b600061087283836040518060400160405280601e81526020017f536166654d6174683a207375627472616374696f6e206f766572666c6f770000815250610979565b9392505050565b6000828201838110156108725760408051600160e51b62461bcd02815260206004820152601b60248201527f536166654d6174683a206164646974696f6e206f766572666c6f770000000000604482015290519081900360640190fd5b6001600160a01b03811661091e57604051600160e51b62461bcd028152600401808060200182810382526026815260200180610a146026913960400191505060405180910390fd5b600080546040516001600160a01b03808516939216917f8be0079c531659141344cd1fd0a4f28419497f9722a3daafe3b4186f6b6457e091a3600080546001600160a01b0319166001600160a01b0392909216919091179055565b60008184841115610a0b57604051600160e51b62461bcd0281526004018080602001828103825283818151815260200191508051906020019080838360005b838110156109d05781810151838201526020016109b8565b50505050905090810190601f1680156109fd5780820380516001836020036101000a031916815260200191505b509250505060405180910390fd5b50505090039056fe4f776e61626c653a206e6577206f776e657220697320746865207a65726f20616464726573734f776e61626c653a2063616c6c6572206973206e6f7420746865206f776e6572a165627a7a72305820d02881d8a4251ad31c6e96e899e098351cb21beab12793a5880d522255a8dc560029",
  "linkReferences": {},
  "deployedLinkReferences": {}
}