{
  "_format": "hh-sol-artifact-1",
  "contractName": "Booth",
  "sourceName": "contracts/Booth.sol",
  "abi": [
    {
      "constant": true,
      "inputs": [
        {
          "name": "interfaceId",
          "type": "bytes4"
        }
      ],
      "name": "supportsInterface",
      "outputs": [
        {
          "name": "",
          "type": "bool"
        }
      ],
      "payable": false,
      "stateMutability": "view",
      "type": "function"
    },
    {
      "constant": true,
      "inputs": [],
      "name": "name",
      "outputs": [
        {
          "name": "",
          "type": "string"
        }
      ],
      "payable": false,
      "stateMutability": "view",
      "type": "function"
    },
    {
      "constant": false,
      "inputs": [
        {
          "name": "spender",
          "type": "address"
        },
        {
          "name": "value",
          "type": "uint256"
        }
      ],
      "name": "approve",
      "outputs": [
        {
          "name": "",
          "type": "bool"
        }
      ],
      "payable": false,
      "stateMutability": "nonpayable",
      "type": "function"
    },
    {
      "constant": true,
      "inputs": [],
      "name": "totalSupply",
      "outputs": [
        {
          "name": "",
          "type": "uint256"
        }
      ],
      "payable": false,
      "stateMutability": "view",
      "type": "function"
    },
    {
      "constant": false,
      "inputs": [
        {
          "name": "sender",
          "type": "address"
        },
        {
          "name": "recipient",
          "type": "address"
        },
        {
          "name": "amount",
          "type": "uint256"
        }
      ],
      "name": "transferFrom",
      "outputs": [
        {
          "name": "",
          "type": "bool"
        }
      ],
      "payable": false,
      "stateMutability": "nonpayable",
      "type": "function"
    },
    {
      "constant": false,
      "inputs": [
        {
          "name": "share",
          "type": "uint256"
        }
      ],
      "name": "unstake",
      "outputs": [],
      "payable": false,
      "stateMutability": "nonpayable",
      "type": "function"
    },
    {
      "constant": true,
      "inputs": [],
      "name": "decimals",
      "outputs": [
        {
          "name": "",
          "type": "uint8"
        }
      ],
      "payable": false,
      "stateMutability": "view",
      "type": "function"
    },
    {
      "constant": false,
      "inputs": [
        {
          "name": "recipient",
          "type": "address"
        },
        {
          "name": "amount",
          "type": "uint256"
        }
      ],
      "name": "safeTransfer",
      "outputs": [],
      "payable": false,
      "stateMutability": "nonpayable",
      "type": "function"
    },
    {
      "constant": false,
      "inputs": [
        {
          "name": "sender",
          "type": "address"
        },
        {
          "name": "recipient",
          "type": "address"
        },
        {
          "name": "amount",
          "type": "uint256"
        }
      ],
      "name": "safeTransferFrom",
      "outputs": [],
      "payable": false,
      "stateMutability": "nonpayable",
      "type": "function"
    },
    {
      "constant": true,
      "inputs": [
        {
          "name": "account",
          "type": "address"
        }
      ],
      "name": "balanceOf",
      "outputs": [
        {
          "name": "",
          "type": "uint256"
        }
      ],
      "payable": false,
      "stateMutability": "view",
      "type": "function"
    },
    {
      "constant": true,
      "inputs": [],
      "name": "symbol",
      "outputs": [
        {
          "name": "",
          "type": "string"
        }
      ],
      "payable": false,
      "stateMutability": "view",
      "type": "function"
    },
    {
      "constant": false,
      "inputs": [
        {
          "name": "amount",
          "type": "uint256"
        }
      ],
      "name": "stake",
      "outputs": [],
      "payable": false,
      "stateMutability": "nonpayable",
      "type": "function"
    },
    {
      "constant": false,
      "inputs": [
        {
          "name": "recipient",
          "type": "address"
        },
        {
          "name": "amount",
          "type": "uint256"
        }
      ],
      "name": "transfer",
      "outputs": [
        {
          "name": "",
          "type": "bool"
        }
      ],
      "payable": false,
      "stateMutability": "nonpayable",
      "type": "function"
    },
    {
      "constant": false,
      "inputs": [
        {
          "name": "sender",
          "type": "address"
        },
        {
          "name": "recipient",
          "type": "address"
        },
        {
          "name": "amount",
          "type": "uint256"
        },
        {
          "name": "data",
          "type": "bytes"
        }
      ],
      "name": "safeTransferFrom",
      "outputs": [],
      "payable": false,
      "stateMutability": "nonpayable",
      "type": "function"
    },
    {
      "constant": true,
      "inputs": [],
      "name": "mix",
      "outputs": [
        {
          "name": "",
          "type": "address"
        }
      ],
      "payable": false,
      "stateMutability": "view",
      "type": "function"
    },
    {
      "constant": true,
      "inputs": [
        {
          "name": "owner",
          "type": "address"
        },
        {
          "name": "spender",
          "type": "address"
        }
      ],
      "name": "allowance",
      "outputs": [
        {
          "name": "",
          "type": "uint256"
        }
      ],
      "payable": false,
      "stateMutability": "view",
      "type": "function"
    },
    {
      "constant": false,
      "inputs": [
        {
          "name": "recipient",
          "type": "address"
        },
        {
          "name": "amount",
          "type": "uint256"
        },
        {
          "name": "data",
          "type": "bytes"
        }
      ],
      "name": "safeTransfer",
      "outputs": [],
      "payable": false,
      "stateMutability": "nonpayable",
      "type": "function"
    },
    {
      "inputs": [
        {
          "name": "_mix",
          "type": "address"
        }
      ],
      "payable": false,
      "stateMutability": "nonpayable",
      "type": "constructor"
    },
    {
      "anonymous": false,
      "inputs": [
        {
          "indexed": true,
          "name": "from",
          "type": "address"
        },
        {
          "indexed": true,
          "name": "to",
          "type": "address"
        },
        {
          "indexed": false,
          "name": "value",
          "type": "uint256"
        }
      ],
      "name": "Transfer",
      "type": "event"
    },
    {
      "anonymous": false,
      "inputs": [
        {
          "indexed": true,
          "name": "owner",
          "type": "address"
        },
        {
          "indexed": true,
          "name": "spender",
          "type": "address"
        },
        {
          "indexed": false,
          "name": "value",
          "type": "uint256"
        }
      ],
      "name": "Approval",
      "type": "event"
    },
    {
      "anonymous": false,
      "inputs": [
        {
          "indexed": true,
          "name": "owner",
          "type": "address"
        },
        {
          "indexed": false,
          "name": "amount",
          "type": "uint256"
        }
      ],
      "name": "Stake",
      "type": "event"
    },
    {
      "anonymous": false,
      "inputs": [
        {
          "indexed": true,
          "name": "owner",
          "type": "address"
        },
        {
          "indexed": false,
          "name": "share",
          "type": "uint256"
        }
      ],
      "name": "Unstake",
      "type": "event"
    }
  ],
  "bytecode": "0x60806040523480156200001157600080fd5b50604051602080620016fe833981018060405260208110156200003357600080fd5b5051604080518082018252600a81527f445343204d6978736574000000000000000000000000000000000000000000006020828101919091528251808401909352600683527f4d4958534554000000000000000000000000000000000000000000000000000083820152909190601290620000d4907f01ffc9a7000000000000000000000000000000000000000000000000000000009062000189811b901c565b620000ec636578737160e01b6200018960201b60201c565b82516200010190600490602086019062000258565b5081516200011790600590602085019062000258565b506006805460ff191660ff8316179055620001597fa219a0250000000000000000000000000000000000000000000000000000000062000189602090811b901c565b5050600680546001600160a01b0390931661010002610100600160a81b03199093169290921790915550620002fd565b7fffffffff0000000000000000000000000000000000000000000000000000000080821614156200021b57604080517f08c379a000000000000000000000000000000000000000000000000000000000815260206004820152601b60248201527f4b495031333a20696e76616c696420696e746572666163652069640000000000604482015290519081900360640190fd5b7fffffffff00000000000000000000000000000000000000000000000000000000166000908152602081905260409020805460ff19166001179055565b828054600181600116156101000203166002900490600052602060002090601f016020900481019282601f106200029b57805160ff1916838001178555620002cb565b82800160010185558215620002cb579182015b82811115620002cb578251825591602001919060010190620002ae565b50620002d9929150620002dd565b5090565b620002fa91905b80821115620002d95760008155600101620002e4565b90565b6113f1806200030d6000396000f3fe608060405234801561001057600080fd5b506004361061010b5760003560e01c806342842e0e116100a2578063a9059cbb11610071578063a9059cbb1461032e578063b88d4fde1461035a578063be32cf8d14610420578063dd62ed3e14610444578063eb795549146104725761010b565b806342842e0e146102ad57806370a08231146102e357806395d89b4114610309578063a694fc3a146103115761010b565b806323b872dd116100de57806323b872dd1461020e5780632e17de7814610244578063313ce56714610263578063423f6cef146102815761010b565b806301ffc9a71461011057806306fdde031461014b578063095ea7b3146101c857806318160ddd146101f4575b600080fd5b6101376004803603602081101561012657600080fd5b50356001600160e01b03191661052d565b604080519115158252519081900360200190f35b61015361054c565b6040805160208082528351818301528351919283929083019185019080838360005b8381101561018d578181015183820152602001610175565b50505050905090810190601f1680156101ba5780820380516001836020036101000a031916815260200191505b509250505060405180910390f35b610137600480360360408110156101de57600080fd5b506001600160a01b0381351690602001356105e2565b6101fc6105f9565b60408051918252519081900360200190f35b6101376004803603606081101561022457600080fd5b506001600160a01b038135811691602081013590911690604001356105ff565b6102616004803603602081101561025a57600080fd5b5035610656565b005b61026b6107e9565b6040805160ff9092168252519081900360200190f35b6102616004803603604081101561029757600080fd5b506001600160a01b0381351690602001356107f2565b610261600480360360608110156102c357600080fd5b506001600160a01b03813581169160208101359091169060400135610810565b6101fc600480360360208110156102f957600080fd5b50356001600160a01b0316610830565b61015361084b565b6102616004803603602081101561032757600080fd5b50356108ac565b6101376004803603604081101561034457600080fd5b506001600160a01b038135169060200135610a44565b6102616004803603608081101561037057600080fd5b6001600160a01b038235811692602081013590911691604082013591908101906080810160608201356401000000008111156103ab57600080fd5b8201836020820111156103bd57600080fd5b803590602001918460018302840111640100000000831117156103df57600080fd5b91908080601f016020809104026020016040519081016040528093929190818152602001838380828437600092019190915250929550610a51945050505050565b610428610aad565b604080516001600160a01b039092168252519081900360200190f35b6101fc6004803603604081101561045a57600080fd5b506001600160a01b0381358116916020013516610ac1565b6102616004803603606081101561048857600080fd5b6001600160a01b03823516916020810135918101906060810160408201356401000000008111156104b857600080fd5b8201836020820111156104ca57600080fd5b803590602001918460018302840111640100000000831117156104ec57600080fd5b91908080601f016020809104026020016040519081016040528093929190818152602001838380828437600092019190915250929550610aec945050505050565b6001600160e01b03191660009081526020819052604090205460ff1690565b60048054604080516020601f60026000196101006001881615020190951694909404938401819004810282018101909252828152606093909290918301828280156105d85780601f106105ad576101008083540402835291602001916105d8565b820191906000526020600020905b8154815290600101906020018083116105bb57829003601f168201915b5050505050905090565b60006105ef338484610b41565b5060015b92915050565b60035490565b600061060c848484610c33565b6001600160a01b03841660009081526002602090815260408083203380855292529091205461064c918691610647908663ffffffff610d7d16565b610b41565b5060019392505050565b60006106606105f9565b9050600061071b8261070f600660019054906101000a90046001600160a01b03166001600160a01b03166370a08231306040518263ffffffff1660e01b815260040180826001600160a01b03166001600160a01b0316815260200191505060206040518083038186803b1580156106d657600080fd5b505afa1580156106ea573d6000803e3d6000fd5b505050506040513d602081101561070057600080fd5b5051869063ffffffff610dc616565b9063ffffffff610e2216565b90506107273384610e64565b60065460408051600160e01b63a9059cbb0281523360048201526024810184905290516101009092046001600160a01b03169163a9059cbb916044808201926020929091908290030181600087803b15801561078257600080fd5b505af1158015610796573d6000803e3d6000fd5b505050506040513d60208110156107ac57600080fd5b505060408051848152905133917f85082129d87b2fe11527cb1b3b7a520aeb5aa6913f88a3d8757fe40d1db02fdd919081900360200190a2505050565b60065460ff1690565b61080c828260405180602001604052806000815250610aec565b5050565b61082b83838360405180602001604052806000815250610a51565b505050565b6001600160a01b031660009081526001602052604090205490565b60058054604080516020601f60026000196101006001881615020190951694909404938401819004810282018101909252828152606093909290918301828280156105d85780601f106105ad576101008083540402835291602001916105d8565b60065460408051600160e01b6370a08231028152306004820152905160009261010090046001600160a01b0316916370a08231916024808301926020929190829003018186803b1580156108ff57600080fd5b505afa158015610913573d6000803e3d6000fd5b505050506040513d602081101561092957600080fd5b5051905060006109376105f9565b9050801580610944575081155b15610958576109533384610f58565b61097c565b600061096e8361070f868563ffffffff610dc616565b905061097a3382610f58565b505b60065460408051600160e01b6323b872dd0281523360048201523060248201526044810186905290516101009092046001600160a01b0316916323b872dd916064808201926020929091908290030181600087803b1580156109dd57600080fd5b505af11580156109f1573d6000803e3d6000fd5b505050506040513d6020811015610a0757600080fd5b505060408051848152905133917febedb8b3c678666e7f36970bc8f57abf6d8fa2e828c0da91ea5b75bf68ed101a919081900360200190a2505050565b60006105ef338484610c33565b610a5c8484846105ff565b50610a698484848461104d565b610aa757604051600160e51b62461bcd02815260040180806020018281038252602e81526020018061130e602e913960400191505060405180910390fd5b50505050565b60065461010090046001600160a01b031681565b6001600160a01b03918216600090815260026020908152604080832093909416825291909152205490565b610af68383610a44565b50610b033384848461104d565b61082b57604051600160e51b62461bcd02815260040180806020018281038252602e81526020018061130e602e913960400191505060405180910390fd5b6001600160a01b038316610b8957604051600160e51b62461bcd0281526004018080602001828103825260238152602001806113a36023913960400191505060405180910390fd5b6001600160a01b038216610bd157604051600160e51b62461bcd0281526004018080602001828103825260218152602001806112ed6021913960400191505060405180910390fd5b6001600160a01b03808416600081815260026020908152604080832094871680845294825291829020859055815185815291517f8c5be1e5ebec7d5bd14f71427d1e84f3dd0314c0f7b2291e5b200ac8c7c3b9259281900390910190a3505050565b6001600160a01b038316610c7b57604051600160e51b62461bcd02815260040180806020018281038252602481526020018061135e6024913960400191505060405180910390fd5b6001600160a01b038216610cc357604051600160e51b62461bcd02815260040180806020018281038252602281526020018061133c6022913960400191505060405180910390fd5b6001600160a01b038316600090815260016020526040902054610cec908263ffffffff610d7d16565b6001600160a01b038085166000908152600160205260408082209390935590841681522054610d21908263ffffffff61118716565b6001600160a01b0380841660008181526001602090815260409182902094909455805185815290519193928716927fddf252ad1be2c89b69c2b068fc378daa952ba7f163c4a11628f55a4df523b3ef92918290030190a3505050565b6000610dbf83836040518060400160405280601e81526020017f536166654d6174683a207375627472616374696f6e206f766572666c6f7700008152506111e4565b9392505050565b600082610dd5575060006105f3565b82820282848281610de257fe5b0414610dbf57604051600160e51b62461bcd0281526004018080602001828103825260218152602001806113826021913960400191505060405180910390fd5b6000610dbf83836040518060400160405280601a81526020017f536166654d6174683a206469766973696f6e206279207a65726f00000000000081525061127e565b6001600160a01b038216610ec25760408051600160e51b62461bcd02815260206004820181905260248201527f4b4950373a206275726e2066726f6d20746865207a65726f2061646472657373604482015290519081900360640190fd5b600354610ed5908263ffffffff610d7d16565b6003556001600160a01b038216600090815260016020526040902054610f01908263ffffffff610d7d16565b6001600160a01b0383166000818152600160209081526040808320949094558351858152935191937fddf252ad1be2c89b69c2b068fc378daa952ba7f163c4a11628f55a4df523b3ef929081900390910190a35050565b6001600160a01b038216610fb65760408051600160e51b62461bcd02815260206004820152601e60248201527f4b4950373a206d696e7420746f20746865207a65726f20616464726573730000604482015290519081900360640190fd5b600354610fc9908263ffffffff61118716565b6003556001600160a01b038216600090815260016020526040902054610ff5908263ffffffff61118716565b6001600160a01b03831660008181526001602090815260408083209490945583518581529351929391927fddf252ad1be2c89b69c2b068fc378daa952ba7f163c4a11628f55a4df523b3ef9281900390910190a35050565b6000611061846001600160a01b03166112e6565b61106d5750600161117f565b604051600160e11b634e8c461102815233600482018181526001600160a01b03888116602485015260448401879052608060648501908152865160848601528651600095928a1694639d188c229490938c938b938b939260a4019060208501908083838e5b838110156110ea5781810151838201526020016110d2565b50505050905090810190601f1680156111175780820380516001836020036101000a031916815260200191505b5095505050505050602060405180830381600087803b15801561113957600080fd5b505af115801561114d573d6000803e3d6000fd5b505050506040513d602081101561116357600080fd5b50516001600160e01b031916600160e11b634e8c461102149150505b949350505050565b600082820183811015610dbf5760408051600160e51b62461bcd02815260206004820152601b60248201527f536166654d6174683a206164646974696f6e206f766572666c6f770000000000604482015290519081900360640190fd5b6000818484111561127657604051600160e51b62461bcd0281526004018080602001828103825283818151815260200191508051906020019080838360005b8381101561123b578181015183820152602001611223565b50505050905090810190601f1680156112685780820380516001836020036101000a031916815260200191505b509250505060405180910390fd5b505050900390565b600081836112d057604051600160e51b62461bcd02815260206004820181815283516024840152835190928392604490910191908501908083836000831561123b578181015183820152602001611223565b5060008385816112dc57fe5b0495945050505050565b3b15159056fe4b4950373a20617070726f766520746f20746865207a65726f20616464726573734b4950373a207472616e7366657220746f206e6f6e204b495037526563656976657220696d706c656d656e7465724b4950373a207472616e7366657220746f20746865207a65726f20616464726573734b4950373a207472616e736665722066726f6d20746865207a65726f2061646472657373536166654d6174683a206d756c7469706c69636174696f6e206f766572666c6f774b4950373a20617070726f76652066726f6d20746865207a65726f2061646472657373a165627a7a72305820a44e9cc36a8f637824ff78ff21fb0d08d3558d5d3ab1fd15d9add75b23edef380029",
  "linkReferences": {},
  "deployedLinkReferences": {}
}