{
  "_format": "hh-sol-artifact-1",
  "contractName": "KIP7StakingPool",
  "sourceName": "contracts/KIP7StakingPool.sol",
  "abi": [
    {
      "constant": true,
      "inputs": [],
      "name": "mixEmitter",
      "outputs": [
        {
          "name": "",
          "type": "address"
        }
      ],
      "payable": false,
      "stateMutability": "view",
      "type": "function"
    },
    {
      "constant": false,
      "inputs": [
        {
          "name": "amount",
          "type": "uint256"
        }
      ],
      "name": "unstake",
      "outputs": [],
      "payable": false,
      "stateMutability": "nonpayable",
      "type": "function"
    },
    {
      "constant": true,
      "inputs": [],
      "name": "totalShares",
      "outputs": [
        {
          "name": "",
          "type": "uint256"
        }
      ],
      "payable": false,
      "stateMutability": "view",
      "type": "function"
    },
    {
      "constant": false,
      "inputs": [],
      "name": "claim",
      "outputs": [],
      "payable": false,
      "stateMutability": "nonpayable",
      "type": "function"
    },
    {
      "constant": true,
      "inputs": [
        {
          "name": "owner",
          "type": "address"
        }
      ],
      "name": "claimableOf",
      "outputs": [
        {
          "name": "",
          "type": "uint256"
        }
      ],
      "payable": false,
      "stateMutability": "view",
      "type": "function"
    },
    {
      "constant": false,
      "inputs": [
        {
          "name": "amount",
          "type": "uint256"
        }
      ],
      "name": "stake",
      "outputs": [],
      "payable": false,
      "stateMutability": "nonpayable",
      "type": "function"
    },
    {
      "constant": true,
      "inputs": [
        {
          "name": "owner",
          "type": "address"
        }
      ],
      "name": "claimedOf",
      "outputs": [
        {
          "name": "",
          "type": "uint256"
        }
      ],
      "payable": false,
      "stateMutability": "view",
      "type": "function"
    },
    {
      "constant": true,
      "inputs": [],
      "name": "mix",
      "outputs": [
        {
          "name": "",
          "type": "address"
        }
      ],
      "payable": false,
      "stateMutability": "view",
      "type": "function"
    },
    {
      "constant": true,
      "inputs": [
        {
          "name": "",
          "type": "address"
        }
      ],
      "name": "shares",
      "outputs": [
        {
          "name": "",
          "type": "uint256"
        }
      ],
      "payable": false,
      "stateMutability": "view",
      "type": "function"
    },
    {
      "constant": true,
      "inputs": [
        {
          "name": "owner",
          "type": "address"
        }
      ],
      "name": "accumulativeOf",
      "outputs": [
        {
          "name": "",
          "type": "uint256"
        }
      ],
      "payable": false,
      "stateMutability": "view",
      "type": "function"
    },
    {
      "constant": true,
      "inputs": [],
      "name": "pid",
      "outputs": [
        {
          "name": "",
          "type": "uint256"
        }
      ],
      "payable": false,
      "stateMutability": "view",
      "type": "function"
    },
    {
      "constant": true,
      "inputs": [],
      "name": "token",
      "outputs": [
        {
          "name": "",
          "type": "address"
        }
      ],
      "payable": false,
      "stateMutability": "view",
      "type": "function"
    },
    {
      "inputs": [
        {
          "name": "_mixEmitter",
          "type": "address"
        },
        {
          "name": "_pid",
          "type": "uint256"
        },
        {
          "name": "_token",
          "type": "address"
        }
      ],
      "payable": false,
      "stateMutability": "nonpayable",
      "type": "constructor"
    },
    {
      "anonymous": false,
      "inputs": [
        {
          "indexed": true,
          "name": "owner",
          "type": "address"
        },
        {
          "indexed": false,
          "name": "amount",
          "type": "uint256"
        }
      ],
      "name": "Stake",
      "type": "event"
    },
    {
      "anonymous": false,
      "inputs": [
        {
          "indexed": true,
          "name": "owner",
          "type": "address"
        },
        {
          "indexed": false,
          "name": "amount",
          "type": "uint256"
        }
      ],
      "name": "Unstake",
      "type": "event"
    },
    {
      "anonymous": false,
      "inputs": [
        {
          "indexed": true,
          "name": "by",
          "type": "address"
        },
        {
          "indexed": false,
          "name": "distributed",
          "type": "uint256"
        }
      ],
      "name": "Distribute",
      "type": "event"
    },
    {
      "anonymous": false,
      "inputs": [
        {
          "indexed": true,
          "name": "to",
          "type": "address"
        },
        {
          "indexed": false,
          "name": "claimed",
          "type": "uint256"
        }
      ],
      "name": "Claim",
      "type": "event"
    }
  ],
  "bytecode": "0x608060405260006004556000600555600060075534801561001f57600080fd5b506040516060806110578339810180604052606081101561003f57600080fd5b508051602080830151604093840151600080546001600160a01b0319166001600160a01b03861690811790915585517fbe32cf8d0000000000000000000000000000000000000000000000000000000081529551949592949193909263be32cf8d9260048083019392829003018186803b1580156100bc57600080fd5b505afa1580156100d0573d6000803e3d6000fd5b505050506040513d60208110156100e657600080fd5b5051600180546001600160a01b03199081166001600160a01b039384161790915560029390935560038054909316911617905550610f2e806101296000396000f3fe608060405234801561001057600080fd5b50600436106100b45760003560e01c8063baa3f7ee11610071578063baa3f7ee14610161578063be32cf8d14610187578063ce7c2ac21461018f578063ef15f811146101b5578063f1068454146101db578063fc0c546a146101e3576100b4565b80630ade3ac1146100b95780632e17de78146100dd5780633a98ef39146100fc5780634e71d92d146101165780638903ab9d1461011e578063a694fc3a14610144575b600080fd5b6100c16101eb565b604080516001600160a01b039092168252519081900360200190f35b6100fa600480360360208110156100f357600080fd5b50356101fa565b005b6101046102bf565b60408051918252519081900360200190f35b6100fa6102c5565b6101046004803603602081101561013457600080fd5b50356001600160a01b03166103e6565b6100fa6004803603602081101561015a57600080fd5b5035610420565b6101046004803603602081101561017757600080fd5b50356001600160a01b03166104eb565b6100c1610506565b610104600480360360208110156101a557600080fd5b50356001600160a01b0316610515565b610104600480360360208110156101cb57600080fd5b50356001600160a01b0316610527565b610104610701565b6100c1610707565b6000546001600160a01b031681565b61020381610716565b60035460408051600160e01b63a9059cbb0281523360048201526024810184905290516001600160a01b039092169163a9059cbb916044808201926020929091908290030181600087803b15801561025a57600080fd5b505af115801561026e573d6000803e3d6000fd5b505050506040513d602081101561028457600080fd5b505060408051828152905133917f85082129d87b2fe11527cb1b3b7a520aeb5aa6913f88a3d8757fe40d1db02fdd919081900360200190a250565b60055481565b6102cd6107aa565b60006102d833610a99565b905080156103e35733600090815260096020526040902054610300908263ffffffff610abf16565b33600081815260096020908152604091829020939093558051848152905191927f47cee97cb7acd717b3c0aa1435d004cd5b3c8c57d70dbceb4e4458bbd60e39d492918290030190a260015460408051600160e01b63a9059cbb0281523360048201526024810184905290516001600160a01b039092169163a9059cbb916044808201926020929091908290030181600087803b1580156103a057600080fd5b505af11580156103b4573d6000803e3d6000fd5b505050506040513d60208110156103ca57600080fd5b50506004546103df908263ffffffff610b2516565b6004555b50565b6001600160a01b0381166000908152600960205260408120546104189061040c84610527565b9063ffffffff610b2516565b90505b919050565b61042981610b67565b60035460408051600160e01b6323b872dd0281523360048201523060248201526044810184905290516001600160a01b03909216916323b872dd916064808201926020929091908290030181600087803b15801561048657600080fd5b505af115801561049a573d6000803e3d6000fd5b505050506040513d60208110156104b057600080fd5b505060408051828152905133917febedb8b3c678666e7f36970bc8f57abf6d8fa2e828c0da91ea5b75bf68ed101a919081900360200190a250565b6001600160a01b031660009081526009602052604090205490565b6001546001600160a01b031681565b60066020526000908152604090205481565b60075460055460009190156106f85760015460408051600160e01b6370a082310281523060048201529051600092610641926001600160a01b03909116916370a0823191602480820192602092909190829003018186803b15801561058b57600080fd5b505afa15801561059f573d6000803e3d6000fd5b505050506040513d60208110156105b557600080fd5b505160005460025460408051600160e01b63c341a6e50281526004810192909252516001600160a01b039092169163c341a6e591602480820192602092909190829003018186803b15801561060957600080fd5b505afa15801561061d573d6000803e3d6000fd5b505050506040513d602081101561063357600080fd5b50519063ffffffff610abf16565b9050600061065a60045483610b2590919063ffffffff16565b9050801561069d5760055461069a9061068d9061068184600160801b63ffffffff610be816565b9063ffffffff610c4416565b849063ffffffff610abf16565b92505b6001600160a01b0385166000908152600860209081526040808320546006909252909120546106ee91600160801b9161068191906106e290889063ffffffff610be816565b9063ffffffff610c8616565b935050505061041b565b50600092915050565b60025481565b6003546001600160a01b031681565b61071e6107aa565b600554610731908263ffffffff610b2516565b60055533600090815260066020526040902054610754908263ffffffff610b2516565b336000908152600660205260409020556007546107979061077b908363ffffffff610be816565b336000908152600860205260409020549063ffffffff610c8616565b3360009081526008602052604090205550565b60055415610927576000805460025460408051600160e11b6328f582d30281526004810192909252516001600160a01b03909216926351eb05a69260248084019382900301818387803b15801561080057600080fd5b505af1158015610814573d6000803e3d6000fd5b505060015460408051600160e01b6370a082310281523060048201529051600094506001600160a01b0390921692506370a08231916024808301926020929190829003018186803b15801561086857600080fd5b505afa15801561087c573d6000803e3d6000fd5b505050506040513d602081101561089257600080fd5b50516004549091506000906108ae90839063ffffffff610b2516565b9050801561091e576005546108e4906108d59061068184600160801b63ffffffff610be816565b6007549063ffffffff610abf16565b60075560408051828152905133917fc1d32ad5cca423e7dda2123dbf8c482f8e77d00b631c06e903a47f2cec1334df919081900360200190a25b50600455610a97565b6000805460025460408051600160e11b6328f582d30281526004810192909252516001600160a01b03909216926351eb05a69260248084019382900301818387803b15801561097557600080fd5b505af1158015610989573d6000803e3d6000fd5b505060015460408051600160e01b6370a082310281523060048201529051600094506001600160a01b0390921692506370a08231916024808301926020929190829003018186803b1580156109dd57600080fd5b505afa1580156109f1573d6000803e3d6000fd5b505050506040513d6020811015610a0757600080fd5b5051600454909150600090610a2390839063ffffffff610b2516565b90508015610a945760015460408051600160e31b630852cd8d0281526004810184905290516001600160a01b03909216916342966c689160248082019260009290919082900301818387803b158015610a7b57600080fd5b505af1158015610a8f573d6000803e3d6000fd5b505050505b50505b565b6001600160a01b0381166000908152600960205260408120546104189061040c84610cee565b600082820183811015610b1c5760408051600160e51b62461bcd02815260206004820152601b60248201527f536166654d6174683a206164646974696f6e206f766572666c6f770000000000604482015290519081900360640190fd5b90505b92915050565b6000610b1c83836040518060400160405280601e81526020017f536166654d6174683a207375627472616374696f6e206f766572666c6f770000815250610d32565b610b6f6107aa565b600554610b82908263ffffffff610abf16565b60055533600090815260066020526040902054610ba5908263ffffffff610abf16565b3360009081526006602052604090205560075461079790610bcc908363ffffffff610be816565b336000908152600860205260409020549063ffffffff610dcc16565b600082610bf757506000610b1f565b82820282848281610c0457fe5b0414610b1c57604051600160e51b62461bcd028152600401808060200182810382526021815260200180610ebe6021913960400191505060405180910390fd5b6000610b1c83836040518060400160405280601a81526020017f536166654d6174683a206469766973696f6e206279207a65726f000000000000815250610e34565b6000828201818312801590610c9b5750838112155b80610cb05750600083128015610cb057508381125b610b1c57604051600160e51b62461bcd028152600401808060200182810382526021815260200180610e9d6021913960400191505060405180910390fd5b6001600160a01b038116600090815260086020908152604080832054600690925282205460075461041892600160801b92610681926106e29163ffffffff610be816565b60008184841115610dc457604051600160e51b62461bcd0281526004018080602001828103825283818151815260200191508051906020019080838360005b83811015610d89578181015183820152602001610d71565b50505050905090810190601f168015610db65780820380516001836020036101000a031916815260200191505b509250505060405180910390fd5b505050900390565b6000818303818312801590610de15750838113155b80610df65750600083128015610df657508381135b610b1c57604051600160e51b62461bcd028152600401808060200182810382526024815260200180610edf6024913960400191505060405180910390fd5b60008183610e8657604051600160e51b62461bcd028152602060048201818152835160248401528351909283926044909101919085019080838360008315610d89578181015183820152602001610d71565b506000838581610e9257fe5b049594505050505056fe5369676e6564536166654d6174683a206164646974696f6e206f766572666c6f77536166654d6174683a206d756c7469706c69636174696f6e206f766572666c6f775369676e6564536166654d6174683a207375627472616374696f6e206f766572666c6f77a165627a7a7230582057ea6e5a1ab6772631b0357b664feb5e86764f825e14e92d9d0d660dd6d398d50029",
  "linkReferences": {},
  "deployedLinkReferences": {}
}