{
  "_format": "hh-sol-artifact-1",
  "contractName": "KlayswapAirdropPool",
  "sourceName": "contracts/klayswap/KlayswapAirdropPool.sol",
  "abi": [
    {
      "constant": true,
      "inputs": [],
      "name": "mixEmitter",
      "outputs": [
        {
          "name": "",
          "type": "address"
        }
      ],
      "payable": false,
      "stateMutability": "view",
      "type": "function"
    },
    {
      "constant": false,
      "inputs": [
        {
          "name": "tokenAddr",
          "type": "address"
        }
      ],
      "name": "withdraw",
      "outputs": [],
      "payable": false,
      "stateMutability": "nonpayable",
      "type": "function"
    },
    {
      "constant": true,
      "inputs": [],
      "name": "operator",
      "outputs": [
        {
          "name": "",
          "type": "address"
        }
      ],
      "payable": false,
      "stateMutability": "view",
      "type": "function"
    },
    {
      "constant": false,
      "inputs": [
        {
          "name": "nextOwner",
          "type": "address"
        }
      ],
      "name": "changeNextOwner",
      "outputs": [],
      "payable": false,
      "stateMutability": "nonpayable",
      "type": "function"
    },
    {
      "constant": false,
      "inputs": [],
      "name": "changeOwner",
      "outputs": [],
      "payable": false,
      "stateMutability": "nonpayable",
      "type": "function"
    },
    {
      "constant": false,
      "inputs": [],
      "name": "renounceOwnership",
      "outputs": [],
      "payable": false,
      "stateMutability": "nonpayable",
      "type": "function"
    },
    {
      "constant": false,
      "inputs": [
        {
          "name": "_keeper",
          "type": "address"
        }
      ],
      "name": "setKeeper",
      "outputs": [],
      "payable": false,
      "stateMutability": "nonpayable",
      "type": "function"
    },
    {
      "constant": false,
      "inputs": [
        {
          "name": "totalAmount",
          "type": "uint256"
        },
        {
          "name": "blockAmount",
          "type": "uint256"
        },
        {
          "name": "startBlock",
          "type": "uint256"
        }
      ],
      "name": "createDistribution",
      "outputs": [],
      "payable": false,
      "stateMutability": "nonpayable",
      "type": "function"
    },
    {
      "constant": true,
      "inputs": [],
      "name": "owner",
      "outputs": [
        {
          "name": "",
          "type": "address"
        }
      ],
      "payable": false,
      "stateMutability": "view",
      "type": "function"
    },
    {
      "constant": true,
      "inputs": [],
      "name": "isOwner",
      "outputs": [
        {
          "name": "",
          "type": "bool"
        }
      ],
      "payable": false,
      "stateMutability": "view",
      "type": "function"
    },
    {
      "constant": true,
      "inputs": [],
      "name": "keeper",
      "outputs": [
        {
          "name": "",
          "type": "address"
        }
      ],
      "payable": false,
      "stateMutability": "view",
      "type": "function"
    },
    {
      "constant": false,
      "inputs": [
        {
          "name": "_operator",
          "type": "address"
        }
      ],
      "name": "setOperator",
      "outputs": [],
      "payable": false,
      "stateMutability": "nonpayable",
      "type": "function"
    },
    {
      "constant": false,
      "inputs": [
        {
          "name": "amount",
          "type": "uint256"
        }
      ],
      "name": "deposit",
      "outputs": [],
      "payable": false,
      "stateMutability": "nonpayable",
      "type": "function"
    },
    {
      "constant": true,
      "inputs": [],
      "name": "mix",
      "outputs": [
        {
          "name": "",
          "type": "address"
        }
      ],
      "payable": false,
      "stateMutability": "view",
      "type": "function"
    },
    {
      "constant": false,
      "inputs": [],
      "name": "forward",
      "outputs": [],
      "payable": false,
      "stateMutability": "nonpayable",
      "type": "function"
    },
    {
      "constant": false,
      "inputs": [
        {
          "name": "blockAmount",
          "type": "uint256"
        }
      ],
      "name": "refixBlockAmount",
      "outputs": [],
      "payable": false,
      "stateMutability": "nonpayable",
      "type": "function"
    },
    {
      "constant": true,
      "inputs": [],
      "name": "getAirdropStat",
      "outputs": [
        {
          "name": "distributionContract",
          "type": "address"
        },
        {
          "name": "totalAmount",
          "type": "uint256"
        },
        {
          "name": "blockAmount",
          "type": "uint256"
        },
        {
          "name": "distributableBlock",
          "type": "uint256"
        },
        {
          "name": "endBlock",
          "type": "uint256"
        },
        {
          "name": "distributed",
          "type": "uint256"
        },
        {
          "name": "remain",
          "type": "uint256"
        },
        {
          "name": "targetCount",
          "type": "uint256"
        },
        {
          "name": "targets",
          "type": "address[]"
        },
        {
          "name": "rates",
          "type": "uint256[]"
        }
      ],
      "payable": false,
      "stateMutability": "view",
      "type": "function"
    },
    {
      "constant": true,
      "inputs": [],
      "name": "pid",
      "outputs": [
        {
          "name": "",
          "type": "uint256"
        }
      ],
      "payable": false,
      "stateMutability": "view",
      "type": "function"
    },
    {
      "constant": false,
      "inputs": [
        {
          "name": "newOwner",
          "type": "address"
        }
      ],
      "name": "transferOwnership",
      "outputs": [],
      "payable": false,
      "stateMutability": "nonpayable",
      "type": "function"
    },
    {
      "inputs": [
        {
          "name": "_mixEmitter",
          "type": "address"
        },
        {
          "name": "_pid",
          "type": "uint256"
        },
        {
          "name": "_operator",
          "type": "address"
        }
      ],
      "payable": false,
      "stateMutability": "nonpayable",
      "type": "constructor"
    },
    {
      "anonymous": false,
      "inputs": [
        {
          "indexed": true,
          "name": "operator",
          "type": "address"
        }
      ],
      "name": "SetOperator",
      "type": "event"
    },
    {
      "anonymous": false,
      "inputs": [
        {
          "indexed": true,
          "name": "keeper",
          "type": "address"
        }
      ],
      "name": "SetKeeper",
      "type": "event"
    },
    {
      "anonymous": false,
      "inputs": [
        {
          "indexed": true,
          "name": "previousOwner",
          "type": "address"
        },
        {
          "indexed": true,
          "name": "newOwner",
          "type": "address"
        }
      ],
      "name": "OwnershipTransferred",
      "type": "event"
    }
  ],
  "bytecode": "0x608060405234801561001057600080fd5b506040516060806110fb8339810180604052606081101561003057600080fd5b5080516020820151604092830151600080546001600160a01b031916331780825594519394929391926001600160a01b0316917f8be0079c531659141344cd1fd0a4f28419497f9722a3daafe3b4186f6b6457e0908290a3600180546001600160a01b0319166001600160a01b038516908117909155604080517fbe32cf8d000000000000000000000000000000000000000000000000000000008152905163be32cf8d91600480820192602092909190829003018186803b1580156100f557600080fd5b505afa158015610109573d6000803e3d6000fd5b505050506040513d602081101561011f57600080fd5b5051600280546001600160a01b039283166001600160a01b0319918216179091556003939093556004805492909116918316919091179055600580549091163317905550610f89806101726000396000f3fe608060405234801561001057600080fd5b50600436106101215760003560e01c80638f32d59b116100ad578063d264e05e11610071578063d264e05e14610276578063d39bb21f1461027e578063eff3126d1461029b578063f106845414610386578063f2fde38b146103a057610121565b80638f32d59b14610207578063aced166114610223578063b3ab15fb1461022b578063b6b55f2514610251578063be32cf8d1461026e57610121565b806362a09477116100f457806362a09477146101a0578063715018a6146101a8578063748747e6146101b057806375706063146101d65780638da5cb5b146101ff57610121565b80630ade3ac11461012657806351cff8d91461014a578063570ca735146101725780635d7fb0d41461017a575b600080fd5b61012e6103c6565b604080516001600160a01b039092168252519081900360200190f35b6101706004803603602081101561016057600080fd5b50356001600160a01b03166103d5565b005b61012e610590565b6101706004803603602081101561019057600080fd5b50356001600160a01b031661059f565b610170610659565b6101706106b3565b610170600480360360208110156101c657600080fd5b50356001600160a01b0316610747565b610170600480360360608110156101ec57600080fd5b50803590602081013590604001356107db565b61012e61089e565b61020f6108ad565b604080519115158252519081900360200190f35b61012e6108be565b6101706004803603602081101561024157600080fd5b50356001600160a01b03166108cd565b6101706004803603602081101561026757600080fd5b5035610961565b61012e6109f9565b610170610a08565b6101706004803603602081101561029457600080fd5b5035610bf0565b6102a3610c88565b604051808b6001600160a01b03166001600160a01b031681526020018a81526020018981526020018881526020018781526020018681526020018581526020018481526020018060200180602001838103835285818151815260200191508051906020019060200280838360005b83811015610329578181015183820152602001610311565b50505050905001838103825284818151815260200191508051906020019060200280838360005b83811015610368578181015183820152602001610350565b505050509050019c5050505050505050505050505060405180910390f35b61038e610e18565b60408051918252519081900360200190f35b610170600480360360208110156103b657600080fd5b50356001600160a01b0316610e1e565b6001546001600160a01b031681565b6103dd6108ad565b61041f5760408051600160e51b62461bcd0281526020600482018190526024820152600080516020610f3e833981519152604482015290519081900360640190fd5b6004805460408051600160e01b6351cff8d90281526001600160a01b0385811694820194909452905192909116916351cff8d99160248082019260009290919082900301818387803b15801561047457600080fd5b505af1158015610488573d6000803e3d6000fd5b505060408051600160e01b6370a082310281523060048201529051600093506001600160a01b03851692506370a0823191602480820192602092909190829003018186803b1580156104d957600080fd5b505afa1580156104ed573d6000803e3d6000fd5b505050506040513d602081101561050357600080fd5b50519050801561058c5760408051600160e01b63a9059cbb0281523360048201526024810183905290516001600160a01b0384169163a9059cbb9160448083019260209291908290030181600087803b15801561055f57600080fd5b505af1158015610573573d6000803e3d6000fd5b505050506040513d602081101561058957600080fd5b50505b5050565b6004546001600160a01b031681565b6105a76108ad565b6105e95760408051600160e51b62461bcd0281526020600482018190526024820152600080516020610f3e833981519152604482015290519081900360640190fd5b6004805460408051600160e21b63175fec350281526001600160a01b038581169482019490945290519290911691635d7fb0d49160248082019260009290919082900301818387803b15801561063e57600080fd5b505af1158015610652573d6000803e3d6000fd5b5050505050565b6004805460408051600160e01b6362a0947702815290516001600160a01b03909216926362a0947792828201926000929082900301818387803b15801561069f57600080fd5b505af1158015610589573d6000803e3d6000fd5b6106bb6108ad565b6106fd5760408051600160e51b62461bcd0281526020600482018190526024820152600080516020610f3e833981519152604482015290519081900360640190fd5b600080546040516001600160a01b03909116907f8be0079c531659141344cd1fd0a4f28419497f9722a3daafe3b4186f6b6457e0908390a3600080546001600160a01b0319169055565b61074f6108ad565b6107915760408051600160e51b62461bcd0281526020600482018190526024820152600080516020610f3e833981519152604482015290519081900360640190fd5b600580546001600160a01b0319166001600160a01b0383169081179091556040517fefb5cfa1a8690c124332ab93324539c5c9c4be03f28aeb8be86f2d8a0c9fb99b90600090a250565b6107e36108ad565b6108255760408051600160e51b62461bcd0281526020600482018190526024820152600080516020610f3e833981519152604482015290519081900360640190fd5b6004805460408051600160e01b63757060630281529283018690526024830185905260448301849052516001600160a01b0390911691637570606391606480830192600092919082900301818387803b15801561088157600080fd5b505af1158015610895573d6000803e3d6000fd5b50505050505050565b6000546001600160a01b031690565b6000546001600160a01b0316331490565b6005546001600160a01b031681565b6108d56108ad565b6109175760408051600160e51b62461bcd0281526020600482018190526024820152600080516020610f3e833981519152604482015290519081900360640190fd5b600480546001600160a01b0319166001600160a01b0383169081179091556040517fdbebfba65bd6398fb722063efc10c99f624f9cd8ba657201056af918a676d5ee90600090a250565b6109696108ad565b6109ab5760408051600160e51b62461bcd0281526020600482018190526024820152600080516020610f3e833981519152604482015290519081900360640190fd5b6004805460408051600160e01b63b6b55f25028152928301849052516001600160a01b039091169163b6b55f2591602480830192600092919082900301818387803b15801561063e57600080fd5b6002546001600160a01b031681565b610a106108ad565b80610a2557506005546001600160a01b031633145b610a2e57600080fd5b60015460035460408051600160e11b6328f582d30281526004810192909252516001600160a01b03909216916351eb05a69160248082019260009290919082900301818387803b158015610a8157600080fd5b505af1158015610a95573d6000803e3d6000fd5b505060025460408051600160e01b6370a082310281523060048201529051600094506001600160a01b0390921692506370a08231916024808301926020929190829003018186803b158015610ae957600080fd5b505afa158015610afd573d6000803e3d6000fd5b505050506040513d6020811015610b1357600080fd5b50516002546004805460408051600160e01b63a9059cbb0281526001600160a01b039283169381019390935260248301859052519394509091169163a9059cbb916044808201926020929091908290030181600087803b158015610b7657600080fd5b505af1158015610b8a573d6000803e3d6000fd5b505050506040513d6020811015610ba057600080fd5b50506004805460408051600160e01b63b6b55f25028152928301849052516001600160a01b039091169163b6b55f2591602480830192600092919082900301818387803b15801561063e57600080fd5b610bf86108ad565b610c3a5760408051600160e51b62461bcd0281526020600482018190526024820152600080516020610f3e833981519152604482015290519081900360640190fd5b6004805460408051600160e01b63d39bb21f028152928301849052516001600160a01b039091169163d39bb21f91602480830192600092919082900301818387803b15801561063e57600080fd5b600080600080600080600080606080600460009054906101000a90046001600160a01b03166001600160a01b031663eff3126d6040518163ffffffff1660e01b815260040160006040518083038186803b158015610ce557600080fd5b505afa158015610cf9573d6000803e3d6000fd5b505050506040513d6000823e601f3d908101601f19168201604052610140811015610d2357600080fd5b8151602083015160408401516060850151608086015160a087015160c088015160e08901516101008a018051989a9799969895979496939592949193820192640100000000811115610d7457600080fd5b82016020810184811115610d8757600080fd5b8151856020820283011164010000000082111715610da457600080fd5b50509291906020018051640100000000811115610dc057600080fd5b82016020810184811115610dd357600080fd5b8151856020820283011164010000000082111715610df057600080fd5b5050929190505050995099509950995099509950995099509950995090919293949596979899565b60035481565b610e266108ad565b610e685760408051600160e51b62461bcd0281526020600482018190526024820152600080516020610f3e833981519152604482015290519081900360640190fd5b610e7181610e74565b50565b6001600160a01b038116610ebc57604051600160e51b62461bcd028152600401808060200182810382526026815260200180610f186026913960400191505060405180910390fd5b600080546040516001600160a01b03808516939216917f8be0079c531659141344cd1fd0a4f28419497f9722a3daafe3b4186f6b6457e091a3600080546001600160a01b0319166001600160a01b039290921691909117905556fe4f776e61626c653a206e6577206f776e657220697320746865207a65726f20616464726573734f776e61626c653a2063616c6c6572206973206e6f7420746865206f776e6572a165627a7a7230582099177d7c197c69d45e23ad5f6635c373b7b4780bb1061467a2cbb4eb9384ea7f0029",
  "linkReferences": {},
  "deployedLinkReferences": {}
}