{
  "_format": "hh-sol-artifact-1",
  "contractName": "ForwardingPool",
  "sourceName": "contracts/ForwardingPool.sol",
  "abi": [
    {
      "constant": true,
      "inputs": [],
      "name": "mixEmitter",
      "outputs": [
        {
          "name": "",
          "type": "address"
        }
      ],
      "payable": false,
      "stateMutability": "view",
      "type": "function"
    },
    {
      "constant": true,
      "inputs": [],
      "name": "to",
      "outputs": [
        {
          "name": "",
          "type": "address"
        }
      ],
      "payable": false,
      "stateMutability": "view",
      "type": "function"
    },
    {
      "constant": false,
      "inputs": [],
      "name": "renounceOwnership",
      "outputs": [],
      "payable": false,
      "stateMutability": "nonpayable",
      "type": "function"
    },
    {
      "constant": false,
      "inputs": [
        {
          "name": "_to",
          "type": "address"
        }
      ],
      "name": "setTo",
      "outputs": [],
      "payable": false,
      "stateMutability": "nonpayable",
      "type": "function"
    },
    {
      "constant": true,
      "inputs": [],
      "name": "owner",
      "outputs": [
        {
          "name": "",
          "type": "address"
        }
      ],
      "payable": false,
      "stateMutability": "view",
      "type": "function"
    },
    {
      "constant": true,
      "inputs": [],
      "name": "isOwner",
      "outputs": [
        {
          "name": "",
          "type": "bool"
        }
      ],
      "payable": false,
      "stateMutability": "view",
      "type": "function"
    },
    {
      "constant": true,
      "inputs": [],
      "name": "mix",
      "outputs": [
        {
          "name": "",
          "type": "address"
        }
      ],
      "payable": false,
      "stateMutability": "view",
      "type": "function"
    },
    {
      "constant": false,
      "inputs": [],
      "name": "forward",
      "outputs": [],
      "payable": false,
      "stateMutability": "nonpayable",
      "type": "function"
    },
    {
      "constant": true,
      "inputs": [],
      "name": "pid",
      "outputs": [
        {
          "name": "",
          "type": "uint256"
        }
      ],
      "payable": false,
      "stateMutability": "view",
      "type": "function"
    },
    {
      "constant": false,
      "inputs": [
        {
          "name": "newOwner",
          "type": "address"
        }
      ],
      "name": "transferOwnership",
      "outputs": [],
      "payable": false,
      "stateMutability": "nonpayable",
      "type": "function"
    },
    {
      "inputs": [
        {
          "name": "_mixEmitter",
          "type": "address"
        },
        {
          "name": "_pid",
          "type": "uint256"
        },
        {
          "name": "_to",
          "type": "address"
        }
      ],
      "payable": false,
      "stateMutability": "nonpayable",
      "type": "constructor"
    },
    {
      "anonymous": false,
      "inputs": [
        {
          "indexed": true,
          "name": "to",
          "type": "address"
        }
      ],
      "name": "SetTo",
      "type": "event"
    },
    {
      "anonymous": false,
      "inputs": [
        {
          "indexed": true,
          "name": "previousOwner",
          "type": "address"
        },
        {
          "indexed": true,
          "name": "newOwner",
          "type": "address"
        }
      ],
      "name": "OwnershipTransferred",
      "type": "event"
    }
  ],
  "bytecode": "0x608060405234801561001057600080fd5b506040516060806107718339810180604052606081101561003057600080fd5b5080516020820151604092830151600080546001600160a01b031916331780825594519394929391926001600160a01b0316917f8be0079c531659141344cd1fd0a4f28419497f9722a3daafe3b4186f6b6457e0908290a3600180546001600160a01b0319166001600160a01b038516908117909155604080517fbe32cf8d000000000000000000000000000000000000000000000000000000008152905163be32cf8d91600480820192602092909190829003018186803b1580156100f557600080fd5b505afa158015610109573d6000803e3d6000fd5b505050506040513d602081101561011f57600080fd5b5051600280546001600160a01b03199081166001600160a01b03938416179091556003939093556004805490931691161790555061060f806101626000396000f3fe608060405234801561001057600080fd5b506004361061009e5760003560e01c80638f32d59b116100665780638f32d59b14610107578063be32cf8d14610123578063d264e05e1461012b578063f106845414610133578063f2fde38b1461014d5761009e565b80630ade3ac1146100a357806313151981146100c7578063715018a6146100cf57806377233e90146100d95780638da5cb5b146100ff575b600080fd5b6100ab610173565b604080516001600160a01b039092168252519081900360200190f35b6100ab610182565b6100d7610191565b005b6100d7600480360360208110156100ef57600080fd5b50356001600160a01b0316610225565b6100ab6102b9565b61010f6102c8565b604080519115158252519081900360200190f35b6100ab6102d9565b6100d76102e8565b61013b61049e565b60408051918252519081900360200190f35b6100d76004803603602081101561016357600080fd5b50356001600160a01b03166104a4565b6001546001600160a01b031681565b6004546001600160a01b031681565b6101996102c8565b6101db5760408051600160e51b62461bcd02815260206004820181905260248201526000805160206105c4833981519152604482015290519081900360640190fd5b600080546040516001600160a01b03909116907f8be0079c531659141344cd1fd0a4f28419497f9722a3daafe3b4186f6b6457e0908390a3600080546001600160a01b0319169055565b61022d6102c8565b61026f5760408051600160e51b62461bcd02815260206004820181905260248201526000805160206105c4833981519152604482015290519081900360640190fd5b600480546001600160a01b0319166001600160a01b0383169081179091556040517fb19d3ee4c3d1459278c131884ef67449890fea57cdd313f01e1ec8e1a0ccb72e90600090a250565b6000546001600160a01b031690565b6000546001600160a01b0316331490565b6002546001600160a01b031681565b6102f06102c8565b6103325760408051600160e51b62461bcd02815260206004820181905260248201526000805160206105c4833981519152604482015290519081900360640190fd5b60015460035460408051600160e11b6328f582d30281526004810192909252516001600160a01b03909216916351eb05a69160248082019260009290919082900301818387803b15801561038557600080fd5b505af1158015610399573d6000803e3d6000fd5b50506002546004805460408051600160e01b6370a082310281523093810193909352516001600160a01b03938416955063a9059cbb945092169184916370a08231916024808301926020929190829003018186803b1580156103fa57600080fd5b505afa15801561040e573d6000803e3d6000fd5b505050506040513d602081101561042457600080fd5b50516040805163ffffffff851660e01b81526001600160a01b03909316600484015260248301919091525160448083019260209291908290030181600087803b15801561047057600080fd5b505af1158015610484573d6000803e3d6000fd5b505050506040513d602081101561049a57600080fd5b5050565b60035481565b6104ac6102c8565b6104ee5760408051600160e51b62461bcd02815260206004820181905260248201526000805160206105c4833981519152604482015290519081900360640190fd5b6104f7816104fa565b50565b6001600160a01b03811661054257604051600160e51b62461bcd02815260040180806020018281038252602681526020018061059e6026913960400191505060405180910390fd5b600080546040516001600160a01b03808516939216917f8be0079c531659141344cd1fd0a4f28419497f9722a3daafe3b4186f6b6457e091a3600080546001600160a01b0319166001600160a01b039290921691909117905556fe4f776e61626c653a206e6577206f776e657220697320746865207a65726f20616464726573734f776e61626c653a2063616c6c6572206973206e6f7420746865206f776e6572a165627a7a723058202f3a5e0096e9e695536ee56687aad7a3e10cc1124d71ca81dab63ab53956c2980029",
  "linkReferences": {},
  "deployedLinkReferences": {}
}