{
  "_format": "hh-sol-artifact-1",
  "contractName": "ArtStore",
  "sourceName": "contracts/ArtStore.sol",
  "abi": [
    {
      "constant": true,
      "inputs": [],
      "name": "onAuctionsCount",
      "outputs": [
        {
          "name": "",
          "type": "uint256"
        }
      ],
      "payable": false,
      "stateMutability": "view",
      "type": "function"
    },
    {
      "constant": true,
      "inputs": [
        {
          "name": "seller",
          "type": "address"
        }
      ],
      "name": "userAuctionInfoLength",
      "outputs": [
        {
          "name": "",
          "type": "uint256"
        }
      ],
      "payable": false,
      "stateMutability": "view",
      "type": "function"
    },
    {
      "constant": false,
      "inputs": [
        {
          "name": "ids",
          "type": "uint256[]"
        }
      ],
      "name": "cancelAuctionByOwner",
      "outputs": [],
      "payable": false,
      "stateMutability": "nonpayable",
      "type": "function"
    },
    {
      "constant": true,
      "inputs": [
        {
          "name": "",
          "type": "uint256"
        },
        {
          "name": "",
          "type": "uint256"
        }
      ],
      "name": "biddings",
      "outputs": [
        {
          "name": "bidder",
          "type": "address"
        },
        {
          "name": "price",
          "type": "uint256"
        },
        {
          "name": "mileage",
          "type": "uint256"
        }
      ],
      "payable": false,
      "stateMutability": "view",
      "type": "function"
    },
    {
      "constant": false,
      "inputs": [
        {
          "name": "user",
          "type": "address"
        }
      ],
      "name": "banUser",
      "outputs": [],
      "payable": false,
      "stateMutability": "nonpayable",
      "type": "function"
    },
    {
      "constant": true,
      "inputs": [],
      "name": "mileage",
      "outputs": [
        {
          "name": "",
          "type": "address"
        }
      ],
      "payable": false,
      "stateMutability": "view",
      "type": "function"
    },
    {
      "constant": false,
      "inputs": [
        {
          "name": "_artists",
          "type": "address"
        }
      ],
      "name": "setArtists",
      "outputs": [],
      "payable": false,
      "stateMutability": "nonpayable",
      "type": "function"
    },
    {
      "constant": true,
      "inputs": [
        {
          "name": "",
          "type": "uint256"
        }
      ],
      "name": "onSalesIndex",
      "outputs": [
        {
          "name": "",
          "type": "uint256"
        }
      ],
      "payable": false,
      "stateMutability": "view",
      "type": "function"
    },
    {
      "constant": true,
      "inputs": [
        {
          "name": "",
          "type": "address"
        },
        {
          "name": "",
          "type": "uint256"
        }
      ],
      "name": "userAuctionInfo",
      "outputs": [
        {
          "name": "id",
          "type": "uint256"
        },
        {
          "name": "price",
          "type": "uint256"
        }
      ],
      "payable": false,
      "stateMutability": "view",
      "type": "function"
    },
    {
      "constant": true,
      "inputs": [
        {
          "name": "id",
          "type": "uint256"
        }
      ],
      "name": "checkAuction",
      "outputs": [
        {
          "name": "",
          "type": "bool"
        }
      ],
      "payable": false,
      "stateMutability": "view",
      "type": "function"
    },
    {
      "constant": true,
      "inputs": [],
      "name": "onSalesCount",
      "outputs": [
        {
          "name": "",
          "type": "uint256"
        }
      ],
      "payable": false,
      "stateMutability": "view",
      "type": "function"
    },
    {
      "constant": false,
      "inputs": [
        {
          "name": "id",
          "type": "uint256"
        },
        {
          "name": "price",
          "type": "uint256"
        },
        {
          "name": "_mileage",
          "type": "uint256"
        }
      ],
      "name": "bid",
      "outputs": [
        {
          "name": "biddingId",
          "type": "uint256"
        }
      ],
      "payable": false,
      "stateMutability": "nonpayable",
      "type": "function"
    },
    {
      "constant": false,
      "inputs": [
        {
          "name": "ids",
          "type": "uint256[]"
        },
        {
          "name": "offerIds",
          "type": "uint256[]"
        }
      ],
      "name": "cancelOfferByOwner",
      "outputs": [],
      "payable": false,
      "stateMutability": "nonpayable",
      "type": "function"
    },
    {
      "constant": false,
      "inputs": [
        {
          "name": "id",
          "type": "uint256"
        }
      ],
      "name": "claim",
      "outputs": [],
      "payable": false,
      "stateMutability": "nonpayable",
      "type": "function"
    },
    {
      "constant": false,
      "inputs": [
        {
          "name": "ids",
          "type": "uint256[]"
        }
      ],
      "name": "cancelSaleByOwner",
      "outputs": [],
      "payable": false,
      "stateMutability": "nonpayable",
      "type": "function"
    },
    {
      "constant": true,
      "inputs": [
        {
          "name": "bidder",
          "type": "address"
        }
      ],
      "name": "userBiddingInfoLength",
      "outputs": [
        {
          "name": "",
          "type": "uint256"
        }
      ],
      "payable": false,
      "stateMutability": "view",
      "type": "function"
    },
    {
      "constant": true,
      "inputs": [
        {
          "name": "",
          "type": "address"
        },
        {
          "name": "",
          "type": "uint256"
        }
      ],
      "name": "userOfferInfo",
      "outputs": [
        {
          "name": "id",
          "type": "uint256"
        },
        {
          "name": "price",
          "type": "uint256"
        }
      ],
      "payable": false,
      "stateMutability": "view",
      "type": "function"
    },
    {
      "constant": true,
      "inputs": [
        {
          "name": "id",
          "type": "uint256"
        }
      ],
      "name": "checkSelling",
      "outputs": [
        {
          "name": "",
          "type": "bool"
        }
      ],
      "payable": false,
      "stateMutability": "view",
      "type": "function"
    },
    {
      "constant": true,
      "inputs": [
        {
          "name": "",
          "type": "uint256"
        },
        {
          "name": "",
          "type": "uint256"
        }
      ],
      "name": "offers",
      "outputs": [
        {
          "name": "offeror",
          "type": "address"
        },
        {
          "name": "price",
          "type": "uint256"
        },
        {
          "name": "mileage",
          "type": "uint256"
        }
      ],
      "payable": false,
      "stateMutability": "view",
      "type": "function"
    },
    {
      "constant": false,
      "inputs": [
        {
          "name": "user",
          "type": "address"
        }
      ],
      "name": "unbanUser",
      "outputs": [],
      "payable": false,
      "stateMutability": "nonpayable",
      "type": "function"
    },
    {
      "constant": true,
      "inputs": [
        {
          "name": "id",
          "type": "uint256"
        }
      ],
      "name": "biddingCount",
      "outputs": [
        {
          "name": "",
          "type": "uint256"
        }
      ],
      "payable": false,
      "stateMutability": "view",
      "type": "function"
    },
    {
      "constant": true,
      "inputs": [
        {
          "name": "",
          "type": "uint256"
        }
      ],
      "name": "auctions",
      "outputs": [
        {
          "name": "seller",
          "type": "address"
        },
        {
          "name": "startPrice",
          "type": "uint256"
        },
        {
          "name": "endBlock",
          "type": "uint256"
        }
      ],
      "payable": false,
      "stateMutability": "view",
      "type": "function"
    },
    {
      "constant": true,
      "inputs": [
        {
          "name": "seller",
          "type": "address"
        }
      ],
      "name": "userSellInfoLength",
      "outputs": [
        {
          "name": "",
          "type": "uint256"
        }
      ],
      "payable": false,
      "stateMutability": "view",
      "type": "function"
    },
    {
      "constant": false,
      "inputs": [
        {
          "name": "_fee",
          "type": "uint256"
        }
      ],
      "name": "setFee",
      "outputs": [],
      "payable": false,
      "stateMutability": "nonpayable",
      "type": "function"
    },
    {
      "constant": true,
      "inputs": [
        {
          "name": "id",
          "type": "uint256"
        }
      ],
      "name": "offerCount",
      "outputs": [
        {
          "name": "",
          "type": "uint256"
        }
      ],
      "payable": false,
      "stateMutability": "view",
      "type": "function"
    },
    {
      "constant": false,
      "inputs": [],
      "name": "renounceOwnership",
      "outputs": [],
      "payable": false,
      "stateMutability": "nonpayable",
      "type": "function"
    },
    {
      "constant": false,
      "inputs": [
        {
          "name": "id",
          "type": "uint256"
        },
        {
          "name": "offerId",
          "type": "uint256"
        }
      ],
      "name": "acceptOffer",
      "outputs": [],
      "payable": false,
      "stateMutability": "nonpayable",
      "type": "function"
    },
    {
      "constant": false,
      "inputs": [
        {
          "name": "interval",
          "type": "uint256"
        }
      ],
      "name": "setAuctionExtensionInterval",
      "outputs": [],
      "payable": false,
      "stateMutability": "nonpayable",
      "type": "function"
    },
    {
      "constant": true,
      "inputs": [
        {
          "name": "",
          "type": "uint256"
        }
      ],
      "name": "onAuctionsIndex",
      "outputs": [
        {
          "name": "",
          "type": "uint256"
        }
      ],
      "payable": false,
      "stateMutability": "view",
      "type": "function"
    },
    {
      "constant": true,
      "inputs": [],
      "name": "owner",
      "outputs": [
        {
          "name": "",
          "type": "address"
        }
      ],
      "payable": false,
      "stateMutability": "view",
      "type": "function"
    },
    {
      "constant": true,
      "inputs": [],
      "name": "isOwner",
      "outputs": [
        {
          "name": "",
          "type": "bool"
        }
      ],
      "payable": false,
      "stateMutability": "view",
      "type": "function"
    },
    {
      "constant": false,
      "inputs": [
        {
          "name": "ids",
          "type": "uint256[]"
        },
        {
          "name": "prices",
          "type": "uint256[]"
        }
      ],
      "name": "changeSellPrice",
      "outputs": [],
      "payable": false,
      "stateMutability": "nonpayable",
      "type": "function"
    },
    {
      "constant": false,
      "inputs": [
        {
          "name": "id",
          "type": "uint256"
        }
      ],
      "name": "cancelAuction",
      "outputs": [],
      "payable": false,
      "stateMutability": "nonpayable",
      "type": "function"
    },
    {
      "constant": true,
      "inputs": [
        {
          "name": "",
          "type": "address"
        }
      ],
      "name": "isBanned",
      "outputs": [
        {
          "name": "",
          "type": "bool"
        }
      ],
      "payable": false,
      "stateMutability": "view",
      "type": "function"
    },
    {
      "constant": true,
      "inputs": [
        {
          "name": "offeror",
          "type": "address"
        }
      ],
      "name": "userOfferInfoLength",
      "outputs": [
        {
          "name": "",
          "type": "uint256"
        }
      ],
      "payable": false,
      "stateMutability": "view",
      "type": "function"
    },
    {
      "constant": true,
      "inputs": [
        {
          "name": "",
          "type": "uint256"
        }
      ],
      "name": "onAuctions",
      "outputs": [
        {
          "name": "",
          "type": "uint256"
        }
      ],
      "payable": false,
      "stateMutability": "view",
      "type": "function"
    },
    {
      "constant": true,
      "inputs": [],
      "name": "auctionExtensionInterval",
      "outputs": [
        {
          "name": "",
          "type": "uint256"
        }
      ],
      "payable": false,
      "stateMutability": "view",
      "type": "function"
    },
    {
      "constant": false,
      "inputs": [
        {
          "name": "_arts",
          "type": "address"
        }
      ],
      "name": "setArts",
      "outputs": [],
      "payable": false,
      "stateMutability": "nonpayable",
      "type": "function"
    },
    {
      "constant": true,
      "inputs": [],
      "name": "arts",
      "outputs": [
        {
          "name": "",
          "type": "address"
        }
      ],
      "payable": false,
      "stateMutability": "view",
      "type": "function"
    },
    {
      "constant": true,
      "inputs": [],
      "name": "feeReceiver",
      "outputs": [
        {
          "name": "",
          "type": "address"
        }
      ],
      "payable": false,
      "stateMutability": "view",
      "type": "function"
    },
    {
      "constant": true,
      "inputs": [
        {
          "name": "",
          "type": "address"
        },
        {
          "name": "",
          "type": "uint256"
        }
      ],
      "name": "userSellInfo",
      "outputs": [
        {
          "name": "id",
          "type": "uint256"
        },
        {
          "name": "price",
          "type": "uint256"
        }
      ],
      "payable": false,
      "stateMutability": "view",
      "type": "function"
    },
    {
      "constant": true,
      "inputs": [
        {
          "name": "",
          "type": "uint256"
        }
      ],
      "name": "sales",
      "outputs": [
        {
          "name": "seller",
          "type": "address"
        },
        {
          "name": "price",
          "type": "uint256"
        }
      ],
      "payable": false,
      "stateMutability": "view",
      "type": "function"
    },
    {
      "constant": true,
      "inputs": [],
      "name": "mix",
      "outputs": [
        {
          "name": "",
          "type": "address"
        }
      ],
      "payable": false,
      "stateMutability": "view",
      "type": "function"
    },
    {
      "constant": true,
      "inputs": [],
      "name": "artists",
      "outputs": [
        {
          "name": "",
          "type": "address"
        }
      ],
      "payable": false,
      "stateMutability": "view",
      "type": "function"
    },
    {
      "constant": false,
      "inputs": [
        {
          "name": "ids",
          "type": "uint256[]"
        },
        {
          "name": "to",
          "type": "address[]"
        }
      ],
      "name": "batchTransfer",
      "outputs": [],
      "payable": false,
      "stateMutability": "nonpayable",
      "type": "function"
    },
    {
      "constant": false,
      "inputs": [
        {
          "name": "id",
          "type": "uint256"
        },
        {
          "name": "startPrice",
          "type": "uint256"
        },
        {
          "name": "endBlock",
          "type": "uint256"
        }
      ],
      "name": "createAuction",
      "outputs": [],
      "payable": false,
      "stateMutability": "nonpayable",
      "type": "function"
    },
    {
      "constant": false,
      "inputs": [
        {
          "name": "ids",
          "type": "uint256[]"
        },
        {
          "name": "prices",
          "type": "uint256[]"
        }
      ],
      "name": "sell",
      "outputs": [],
      "payable": false,
      "stateMutability": "nonpayable",
      "type": "function"
    },
    {
      "constant": false,
      "inputs": [
        {
          "name": "id",
          "type": "uint256"
        },
        {
          "name": "offerId",
          "type": "uint256"
        }
      ],
      "name": "cancelOffer",
      "outputs": [],
      "payable": false,
      "stateMutability": "nonpayable",
      "type": "function"
    },
    {
      "constant": false,
      "inputs": [
        {
          "name": "ids",
          "type": "uint256[]"
        }
      ],
      "name": "cancelSale",
      "outputs": [],
      "payable": false,
      "stateMutability": "nonpayable",
      "type": "function"
    },
    {
      "constant": true,
      "inputs": [
        {
          "name": "",
          "type": "address"
        },
        {
          "name": "",
          "type": "uint256"
        }
      ],
      "name": "userBiddingInfo",
      "outputs": [
        {
          "name": "id",
          "type": "uint256"
        },
        {
          "name": "price",
          "type": "uint256"
        }
      ],
      "payable": false,
      "stateMutability": "view",
      "type": "function"
    },
    {
      "constant": true,
      "inputs": [],
      "name": "fee",
      "outputs": [
        {
          "name": "",
          "type": "uint256"
        }
      ],
      "payable": false,
      "stateMutability": "view",
      "type": "function"
    },
    {
      "constant": true,
      "inputs": [
        {
          "name": "",
          "type": "uint256"
        }
      ],
      "name": "onSales",
      "outputs": [
        {
          "name": "",
          "type": "uint256"
        }
      ],
      "payable": false,
      "stateMutability": "view",
      "type": "function"
    },
    {
      "constant": false,
      "inputs": [
        {
          "name": "id",
          "type": "uint256"
        },
        {
          "name": "price",
          "type": "uint256"
        },
        {
          "name": "_mileage",
          "type": "uint256"
        }
      ],
      "name": "makeOffer",
      "outputs": [
        {
          "name": "offerId",
          "type": "uint256"
        }
      ],
      "payable": false,
      "stateMutability": "nonpayable",
      "type": "function"
    },
    {
      "constant": false,
      "inputs": [
        {
          "name": "_receiver",
          "type": "address"
        }
      ],
      "name": "setFeeReceiver",
      "outputs": [],
      "payable": false,
      "stateMutability": "nonpayable",
      "type": "function"
    },
    {
      "constant": false,
      "inputs": [
        {
          "name": "newOwner",
          "type": "address"
        }
      ],
      "name": "transferOwnership",
      "outputs": [],
      "payable": false,
      "stateMutability": "nonpayable",
      "type": "function"
    },
    {
      "constant": false,
      "inputs": [
        {
          "name": "ids",
          "type": "uint256[]"
        },
        {
          "name": "prices",
          "type": "uint256[]"
        },
        {
          "name": "mileages",
          "type": "uint256[]"
        }
      ],
      "name": "buy",
      "outputs": [],
      "payable": false,
      "stateMutability": "nonpayable",
      "type": "function"
    },
    {
      "inputs": [
        {
          "name": "_artists",
          "type": "address"
        },
        {
          "name": "_arts",
          "type": "address"
        },
        {
          "name": "_mix",
          "type": "address"
        },
        {
          "name": "_mileage",
          "type": "address"
        }
      ],
      "payable": false,
      "stateMutability": "nonpayable",
      "type": "constructor"
    },
    {
      "anonymous": false,
      "inputs": [
        {
          "indexed": true,
          "name": "id",
          "type": "uint256"
        },
        {
          "indexed": true,
          "name": "owner",
          "type": "address"
        },
        {
          "indexed": false,
          "name": "price",
          "type": "uint256"
        }
      ],
      "name": "Sell",
      "type": "event"
    },
    {
      "anonymous": false,
      "inputs": [
        {
          "indexed": true,
          "name": "id",
          "type": "uint256"
        },
        {
          "indexed": true,
          "name": "owner",
          "type": "address"
        },
        {
          "indexed": false,
          "name": "price",
          "type": "uint256"
        }
      ],
      "name": "ChangeSellPrice",
      "type": "event"
    },
    {
      "anonymous": false,
      "inputs": [
        {
          "indexed": true,
          "name": "id",
          "type": "uint256"
        },
        {
          "indexed": true,
          "name": "buyer",
          "type": "address"
        },
        {
          "indexed": false,
          "name": "price",
          "type": "uint256"
        }
      ],
      "name": "Buy",
      "type": "event"
    },
    {
      "anonymous": false,
      "inputs": [
        {
          "indexed": true,
          "name": "id",
          "type": "uint256"
        },
        {
          "indexed": true,
          "name": "owner",
          "type": "address"
        }
      ],
      "name": "CancelSale",
      "type": "event"
    },
    {
      "anonymous": false,
      "inputs": [
        {
          "indexed": true,
          "name": "id",
          "type": "uint256"
        },
        {
          "indexed": true,
          "name": "offerId",
          "type": "uint256"
        },
        {
          "indexed": false,
          "name": "offeror",
          "type": "address"
        },
        {
          "indexed": false,
          "name": "price",
          "type": "uint256"
        }
      ],
      "name": "MakeOffer",
      "type": "event"
    },
    {
      "anonymous": false,
      "inputs": [
        {
          "indexed": true,
          "name": "id",
          "type": "uint256"
        },
        {
          "indexed": true,
          "name": "offerId",
          "type": "uint256"
        },
        {
          "indexed": false,
          "name": "offeror",
          "type": "address"
        }
      ],
      "name": "CancelOffer",
      "type": "event"
    },
    {
      "anonymous": false,
      "inputs": [
        {
          "indexed": true,
          "name": "id",
          "type": "uint256"
        },
        {
          "indexed": true,
          "name": "offerId",
          "type": "uint256"
        },
        {
          "indexed": false,
          "name": "acceptor",
          "type": "address"
        }
      ],
      "name": "AcceptOffer",
      "type": "event"
    },
    {
      "anonymous": false,
      "inputs": [
        {
          "indexed": true,
          "name": "id",
          "type": "uint256"
        },
        {
          "indexed": true,
          "name": "owner",
          "type": "address"
        },
        {
          "indexed": false,
          "name": "startPrice",
          "type": "uint256"
        },
        {
          "indexed": false,
          "name": "endBlock",
          "type": "uint256"
        }
      ],
      "name": "CreateAuction",
      "type": "event"
    },
    {
      "anonymous": false,
      "inputs": [
        {
          "indexed": true,
          "name": "id",
          "type": "uint256"
        },
        {
          "indexed": true,
          "name": "owner",
          "type": "address"
        }
      ],
      "name": "CancelAuction",
      "type": "event"
    },
    {
      "anonymous": false,
      "inputs": [
        {
          "indexed": true,
          "name": "id",
          "type": "uint256"
        },
        {
          "indexed": true,
          "name": "bidder",
          "type": "address"
        },
        {
          "indexed": false,
          "name": "price",
          "type": "uint256"
        }
      ],
      "name": "Bid",
      "type": "event"
    },
    {
      "anonymous": false,
      "inputs": [
        {
          "indexed": true,
          "name": "id",
          "type": "uint256"
        },
        {
          "indexed": true,
          "name": "bidder",
          "type": "address"
        },
        {
          "indexed": false,
          "name": "price",
          "type": "uint256"
        }
      ],
      "name": "Claim",
      "type": "event"
    },
    {
      "anonymous": false,
      "inputs": [
        {
          "indexed": true,
          "name": "id",
          "type": "uint256"
        }
      ],
      "name": "CancelSaleByOwner",
      "type": "event"
    },
    {
      "anonymous": false,
      "inputs": [
        {
          "indexed": true,
          "name": "id",
          "type": "uint256"
        },
        {
          "indexed": true,
          "name": "offerId",
          "type": "uint256"
        }
      ],
      "name": "CancelOfferByOwner",
      "type": "event"
    },
    {
      "anonymous": false,
      "inputs": [
        {
          "indexed": true,
          "name": "id",
          "type": "uint256"
        }
      ],
      "name": "CancelAuctionByOwner",
      "type": "event"
    },
    {
      "anonymous": false,
      "inputs": [
        {
          "indexed": true,
          "name": "user",
          "type": "address"
        }
      ],
      "name": "Ban",
      "type": "event"
    },
    {
      "anonymous": false,
      "inputs": [
        {
          "indexed": true,
          "name": "user",
          "type": "address"
        }
      ],
      "name": "Unban",
      "type": "event"
    },
    {
      "anonymous": false,
      "inputs": [
        {
          "indexed": true,
          "name": "previousOwner",
          "type": "address"
        },
        {
          "indexed": true,
          "name": "newOwner",
          "type": "address"
        }
      ],
      "name": "OwnershipTransferred",
      "type": "event"
    }
  ],
  "bytecode": "0x608060405260fa60015561012c60035534801561001b57600080fd5b506040516080806200535a8339810180604052608081101561003c57600080fd5b5080516020820151604080840151606090940151600080546001600160a01b031916331780825592519495939491926001600160a01b0316917f8be0079c531659141344cd1fd0a4f28419497f9722a3daafe3b4186f6b6457e0908290a360028054336001600160a01b0319918216179091556004805482166001600160a01b03968716179055600580548216948616949094179093556006805484169285169290921790915560078054909216921691909117905561525880620001026000396000f3fe608060405234801561001057600080fd5b50600436106103785760003560e01c8063860f2249116101d3578063be32cf8d11610104578063daa30712116100a2578063e210a72d1161007c578063e210a72d14610d41578063efdcd97414610d6a578063f2fde38b14610d90578063ff472d7c14610db657610378565b8063daa3071214610cf0578063ddca3f4314610d1c578063e0e3257f14610d2457610378565b8063cda4beef116100de578063cda4beef14610b78578063d07fd39314610ba1578063d45557cc14610c5f578063d457942b14610c8257610378565b8063be32cf8d14610aaa578063c5237f4114610ab2578063c52c159314610aba57610378565b8063a25e974211610171578063b294a3e91161014b578063b294a3e914610a2e578063b3f0067414610a36578063b534f15014610a3e578063b5f522f714610a6a57610378565b8063a25e9742146109e3578063a914607c14610a00578063aa92b7fa14610a0857610378565b8063901d6604116101ad578063901d6604146108bc57806396b5a7551461097a57806397f735d5146109975780639e584b30146109bd57610378565b8063860f22491461088f5780638da5cb5b146108ac5780638f32d59b146108b457610378565b806338713990116102ad578063571a26a01161024b5780636bab37ec116102255780636bab37ec1461082a578063715018a61461084757806381257bd51461084f578063822232021461087257610378565b8063571a26a0146107ca5780635cf435a7146107e757806369fe0e2d1461080d57610378565b80634743b232116102875780634743b232146107475780634d03a9a5146107645780634d12b695146107875780635547e424146107ad57610378565b806338713990146106875780633bdf871a146106f557806346a11e5c1461071b57610378565b8063196d99c81161031a578063250aa133116102f4578063250aa1331461057b5780632ac9bf0914610583578063356f4ba7146105ac578063379607f51461066a57610378565b8063196d99c8146104e8578063200d44eb1461050557806320c039481461054a57610378565b80630aaa38c1116103565780630aaa38c11461042d57806310d86b1f14610478578063155852891461049e57806318ce75c1146104c257610378565b8063013d81761461037d578063072f5ff5146103975780630979cceb146103bd575b600080fd5b610385610ec4565b60408051918252519081900360200190f35b610385600480360360208110156103ad57600080fd5b50356001600160a01b0316610ecb565b61042b600480360360208110156103d357600080fd5b810190602081018135600160201b8111156103ed57600080fd5b8201836020820111156103ff57600080fd5b803590602001918460208302840111600160201b8311171561042057600080fd5b509092509050610ee6565b005b6104506004803603604081101561044357600080fd5b5080359060200135611412565b604080516001600160a01b039094168452602084019290925282820152519081900360600190f35b61042b6004803603602081101561048e57600080fd5b50356001600160a01b031661145b565b6104a66114f1565b604080516001600160a01b039092168252519081900360200190f35b61042b600480360360208110156104d857600080fd5b50356001600160a01b0316611500565b610385600480360360208110156104fe57600080fd5b503561156c565b6105316004803603604081101561051b57600080fd5b506001600160a01b03813516906020013561157e565b6040805192835260208301919091528051918290030190f35b6105676004803603602081101561056057600080fd5b50356115b7565b604080519115158252519081900360200190f35b6103856115d4565b6103856004803603606081101561059957600080fd5b50803590602081013590604001356115da565b61042b600480360360408110156105c257600080fd5b810190602081018135600160201b8111156105dc57600080fd5b8201836020820111156105ee57600080fd5b803590602001918460208302840111600160201b8311171561060f57600080fd5b919390929091602081019035600160201b81111561062c57600080fd5b82018360208201111561063e57600080fd5b803590602001918460208302840111600160201b8311171561065f57600080fd5b509092509050611b63565b61042b6004803603602081101561068057600080fd5b5035611f4e565b61042b6004803603602081101561069d57600080fd5b810190602081018135600160201b8111156106b757600080fd5b8201836020820111156106c957600080fd5b803590602001918460208302840111600160201b831117156106ea57600080fd5b509092509050612143565b6103856004803603602081101561070b57600080fd5b50356001600160a01b0316612297565b6105316004803603604081101561073157600080fd5b506001600160a01b0381351690602001356122b2565b6105676004803603602081101561075d57600080fd5b50356122cb565b6104506004803603604081101561077a57600080fd5b50803590602001356122e8565b61042b6004803603602081101561079d57600080fd5b50356001600160a01b0316612301565b610385600480360360208110156107c357600080fd5b5035612394565b610450600480360360208110156107e057600080fd5b50356123a6565b610385600480360360208110156107fd57600080fd5b50356001600160a01b03166123d1565b61042b6004803603602081101561082357600080fd5b50356123ec565b6103856004803603602081101561084057600080fd5b5035612449565b61042b61245b565b61042b6004803603604081101561086557600080fd5b50803590602001356124ef565b61042b6004803603602081101561088857600080fd5b503561268a565b610385600480360360208110156108a557600080fd5b50356126d9565b6104a66126eb565b6105676126fa565b61042b600480360360408110156108d257600080fd5b810190602081018135600160201b8111156108ec57600080fd5b8201836020820111156108fe57600080fd5b803590602001918460208302840111600160201b8311171561091f57600080fd5b919390929091602081019035600160201b81111561093c57600080fd5b82018360208201111561094e57600080fd5b803590602001918460208302840111600160201b8311171561096f57600080fd5b50909250905061270b565b61042b6004803603602081101561099057600080fd5b5035612887565b610567600480360360208110156109ad57600080fd5b50356001600160a01b031661297e565b610385600480360360208110156109d357600080fd5b50356001600160a01b0316612993565b610385600480360360208110156109f957600080fd5b50356129ae565b6103856129cc565b61042b60048036036020811015610a1e57600080fd5b50356001600160a01b03166129d2565b6104a6612a3e565b6104a6612a4d565b61053160048036036040811015610a5457600080fd5b506001600160a01b038135169060200135612a5c565b610a8760048036036020811015610a8057600080fd5b5035612a75565b604080516001600160a01b03909316835260208301919091528051918290030190f35b6104a6612a9a565b6104a6612aa9565b61042b60048036036040811015610ad057600080fd5b810190602081018135600160201b811115610aea57600080fd5b820183602082011115610afc57600080fd5b803590602001918460208302840111600160201b83111715610b1d57600080fd5b919390929091602081019035600160201b811115610b3a57600080fd5b820183602082011115610b4c57600080fd5b803590602001918460208302840111600160201b83111715610b6d57600080fd5b509092509050612ab8565b61042b60048036036060811015610b8e57600080fd5b5080359060208101359060400135612c47565b61042b60048036036040811015610bb757600080fd5b810190602081018135600160201b811115610bd157600080fd5b820183602082011115610be357600080fd5b803590602001918460208302840111600160201b83111715610c0457600080fd5b919390929091602081019035600160201b811115610c2157600080fd5b820183602082011115610c3357600080fd5b803590602001918460208302840111600160201b83111715610c5457600080fd5b509092509050612f3f565b61042b60048036036040811015610c7557600080fd5b508035906020013561335f565b61042b60048036036020811015610c9857600080fd5b810190602081018135600160201b811115610cb257600080fd5b820183602082011115610cc457600080fd5b803590602001918460208302840111600160201b83111715610ce557600080fd5b5090925090506135fe565b61053160048036036040811015610d0657600080fd5b506001600160a01b0381351690602001356136b4565b6103856136cd565b61038560048036036020811015610d3a57600080fd5b50356136d3565b61038560048036036060811015610d5757600080fd5b50803590602081013590604001356136e0565b61042b60048036036020811015610d8057600080fd5b50356001600160a01b0316613ab1565b61042b60048036036020811015610da657600080fd5b50356001600160a01b0316613b1d565b61042b60048036036060811015610dcc57600080fd5b810190602081018135600160201b811115610de657600080fd5b820183602082011115610df857600080fd5b803590602001918460208302840111600160201b83111715610e1957600080fd5b919390929091602081019035600160201b811115610e3657600080fd5b820183602082011115610e4857600080fd5b803590602001918460208302840111600160201b83111715610e6957600080fd5b919390929091602081019035600160201b811115610e8657600080fd5b820183602082011115610e9857600080fd5b803590602001918460208302840111600160201b83111715610eb957600080fd5b509092509050613b73565b6012545b90565b6001600160a01b031660009081526014602052604090205490565b610eee6126fa565b610f305760408051600160e51b62461bcd028152602060048201819052602482015260008051602061520d833981519152604482015290519081900360640190fd5b60005b8181101561140d57610f43615089565b60116000858585818110610f5357fe5b9050602002013581526020019081526020016000206040518060600160405290816000820160009054906101000a90046001600160a01b03166001600160a01b03166001600160a01b03168152602001600182015481526020016002820154815250509050606060166000868686818110610fca57fe5b905060200201358152602001908152602001600020805480602002602001604051908101604052809291908181526020016000905b82821015611054576000848152602090819020604080516060810182526003860290920180546001600160a01b0316835260018082015484860152600290910154918301919091529083529092019101610fff565b5050505090506000815111156112955761106c615089565b8160018351038151811061107c57fe5b60209081029190910181015160065481516040830151938301519294506001600160a01b039091169263a9059cbb926110ba9163ffffffff613ef516565b6040518363ffffffff1660e01b815260040180836001600160a01b03166001600160a01b0316815260200182815260200192505050602060405180830381600087803b15801561110957600080fd5b505af115801561111d573d6000803e3d6000fd5b505050506040513d602081101561113357600080fd5b5050604081015115611244576006546007546040808401518151600160e01b63095ea7b30281526001600160a01b03938416600482015260248101919091529051919092169163095ea7b39160448083019260209291908290030181600087803b1580156111a057600080fd5b505af11580156111b4573d6000803e3d6000fd5b505050506040513d60208110156111ca57600080fd5b505060075481516040808401518151600160e01b63a3ffa9cd0281526001600160a01b03938416600482015260248101919091529051919092169163a3ffa9cd91604480830192600092919082900301818387803b15801561122b57600080fd5b505af115801561123f573d6000803e3d6000fd5b505050505b80516112629087878781811061125657fe5b90506020020135613f40565b6016600087878781811061127257fe5b905060200201358152602001908152602001600020600061129391906150b3565b505b60055482516001600160a01b03909116906323b872dd9030908888888181106112ba57fe5b905060200201356040518463ffffffff1660e01b815260040180846001600160a01b03166001600160a01b03168152602001836001600160a01b03166001600160a01b031681526020018281526020019350505050600060405180830381600087803b15801561132957600080fd5b505af115801561133d573d6000803e3d6000fd5b5050505061135c85858581811061135057fe5b9050602002013561405a565b815161137a9086868681811061136e57fe5b90506020020135614129565b81516001600160a01b031685858581811061139157fe5b905060200201357f2a6445a420b30cbabfffd85287bfa6c0c8f9b5f65d48637922da74abf357e52b60405160405180910390a38484848181106113d057fe5b905060200201357f0fb22ce9c3dd30b91be1c7b574f572078ae945415fd4a1e8d71abc78b57a1b9760405160405180910390a25050600101610f33565b505050565b6016602052816000526040600020818154811061142b57fe5b60009182526020909120600390910201805460018201546002909201546001600160a01b03909116935090915083565b6114636126fa565b6114a55760408051600160e51b62461bcd028152602060048201819052602482015260008051602061520d833981519152604482015290519081900360640190fd5b6001600160a01b038116600081815260086020526040808220805460ff19166001179055517f9a4e757235705bd178419abc9fa645392c5c7dce5b09940a81ef76794b84bd689190a250565b6007546001600160a01b031681565b6115086126fa565b61154a5760408051600160e51b62461bcd028152602060048201819052602482015260008051602061520d833981519152604482015290519081900360640190fd5b600480546001600160a01b0319166001600160a01b0392909216919091179055565b600b6020526000908152604090205481565b6014602052816000526040600020818154811061159757fe5b600091825260209091206002909102018054600190910154909250905082565b6000908152601160205260409020546001600160a01b0316151590565b600a5490565b3360008181526008602052604081205490919060ff16156115fa57600080fd5b60055460408051600160e11b6362bd4e2b0281526004810188905290516001600160a01b039092169163c57a9c5691602480820192602092909190829003018186803b15801561164957600080fd5b505afa15801561165d573d6000803e3d6000fd5b505050506040513d602081101561167357600080fd5b50511561167f57600080fd5b6000858152601160205260409020600281015481546001600160a01b031680158015906116b557506001600160a01b0381163314155b80156116c057508143105b6116c957600080fd5b600088815260166020526040902080549550856116f65787846001015411156116f157600080fd5b611921565b6116fe615089565b81600188038154811061170d57fe5b600091825260209182902060408051606081018252600390930290910180546001600160a01b03168352600181015493830184905260020154908201529150891161175757600080fd5b6006548151604083015160208401516001600160a01b039093169263a9059cbb9291611789919063ffffffff613ef516565b6040518363ffffffff1660e01b815260040180836001600160a01b03166001600160a01b0316815260200182815260200192505050602060405180830381600087803b1580156117d857600080fd5b505af11580156117ec573d6000803e3d6000fd5b505050506040513d602081101561180257600080fd5b5050604081015115611913576006546007546040808401518151600160e01b63095ea7b30281526001600160a01b03938416600482015260248101919091529051919092169163095ea7b39160448083019260209291908290030181600087803b15801561186f57600080fd5b505af1158015611883573d6000803e3d6000fd5b505050506040513d602081101561189957600080fd5b505060075481516040808401518151600160e01b63a3ffa9cd0281526001600160a01b03938416600482015260248101919091529051919092169163a3ffa9cd91604480830192600092919082900301818387803b1580156118fa57600080fd5b505af115801561190e573d6000803e3d6000fd5b505050505b805161191f908b613f40565b505b604080516060810182523380825260208083018c81529383018b81528554600180820188556000888152939093209451600390910290940180546001600160a01b0319166001600160a01b039586161781559451918501919091555160029093019290925560065416906323b872dd903061199c8c8c613ef5565b6040805163ffffffff861660e01b81526001600160a01b0394851660048201529290931660248301526044820152905160648083019260209291908290030181600087803b1580156119ed57600080fd5b505af1158015611a01573d6000803e3d6000fd5b505050506040513d6020811015611a1757600080fd5b50508615611a8e5760075460408051600160e51b63034fd951028152336004820152602481018a905290516001600160a01b03909216916369fb2a209160448082019260009290919082900301818387803b158015611a7557600080fd5b505af1158015611a89573d6000803e3d6000fd5b505050505b6000611a9933612297565b336000908152601760209081526040808320815180830183528f81528084018f815282546001818101855593875285872092516002909102909201918255519101558d835260189091529020819055600354909150611aff90859063ffffffff613ef516565b4310611b1f57600354611b1990859063ffffffff61423716565b60028601555b604080518a8152905133918c917fdcd726e11f8b5e160f00290f0fe3a1abb547474e53a8e7a8f49a85e7b1ca31999181900360200190a35050505050509392505050565b611b6b6126fa565b611bad5760408051600160e51b62461bcd028152602060048201819052602482015260008051602061520d833981519152604482015290519081900360640190fd5b828114611bb957600080fd5b60005b83811015611f47576000600e6000878785818110611bd657fe5b9050602002013581526020019081526020016000209050611bf5615089565b81858585818110611c0257fe5b9050602002013581548110611c1357fe5b600091825260209182902060408051606081018252600390930290910180546001600160a01b0316835260018101549383019390935260029092015491810191909152905081858585818110611c6557fe5b9050602002013581548110611c7657fe5b60009182526020822060039091020180546001600160a01b031916815560018101829055600201558051611cbc90888886818110611cb057fe5b90506020020135614294565b6006548151604083015160208401516001600160a01b039093169263a9059cbb9291611cee919063ffffffff613ef516565b6040518363ffffffff1660e01b815260040180836001600160a01b03166001600160a01b0316815260200182815260200192505050602060405180830381600087803b158015611d3d57600080fd5b505af1158015611d51573d6000803e3d6000fd5b505050506040513d6020811015611d6757600080fd5b5050604081015115611e78576006546007546040808401518151600160e01b63095ea7b30281526001600160a01b03938416600482015260248101919091529051919092169163095ea7b39160448083019260209291908290030181600087803b158015611dd457600080fd5b505af1158015611de8573d6000803e3d6000fd5b505050506040513d6020811015611dfe57600080fd5b505060075481516040808401518151600160e01b63a3ffa9cd0281526001600160a01b03938416600482015260248101919091529051919092169163a3ffa9cd91604480830192600092919082900301818387803b158015611e5f57600080fd5b505af1158015611e73573d6000803e3d6000fd5b505050505b848484818110611e8457fe5b90506020020135878785818110611e9757fe5b905060200201357fccb899300cb935e998c7444c113e3ac7b090caab89b13ed4c8366af29a8a419f836000015160405180826001600160a01b03166001600160a01b0316815260200191505060405180910390a3848484818110611ef757fe5b90506020020135878785818110611f0a57fe5b905060200201357f8047da8ca276225b5287b6f7fd37731a23b839f76076b5a0ec499f8362c966df60405160405180910390a35050600101611bbc565b5050505050565b611f56615089565b50600081815260116020908152604080832081516060808201845282546001600160a01b03168252600183015482860152600290920154818401528585526016845282852080548451818702810187019095528085529195929490929084015b8282101561200b576000848152602090819020604080516060810182526003860290920180546001600160a01b0316835260018082015484860152600290910154918301919091529083529092019101611fb6565b505050509050612019615089565b8151829061202e90600163ffffffff613ef516565b8151811061203857fe5b60200260200101519050826040015143101561205357600080fd5b600554815160408051600160e11b63214217070281523060048201526001600160a01b03928316602482015260448101889052905191909216916342842e0e91606480830192600092919082900301818387803b1580156120b357600080fd5b505af11580156120c7573d6000803e3d6000fd5b50508251855160208501516120df94508893506143dd565b82516120eb9085614129565b80516120f79085613f40565b805160208083015160408051918252516001600160a01b039093169287927f3ed1528b0fdc7c5207c1bf935e34a667e13656b9ed165260c522be0bc544f303928290030190a350505050565b61214b6126fa565b61218d5760408051600160e51b62461bcd028152602060048201819052602482015260008051602061520d833981519152604482015290519081900360640190fd5b60005b8181101561140d576000600960008585858181106121aa57fe5b60209081029290920135835250810191909152604001600020546001600160a01b031690506121ea8484848181106121de57fe5b90506020020135614c75565b612206818585858181106121fa57fe5b90506020020135614d3d565b806001600160a01b031684848481811061221c57fe5b905060200201357f48b5d3e2b93e61b20a7185aa9e047d84796db4a8eb13625338a700ecfb1531f960405160405180910390a383838381811061225b57fe5b905060200201357feaf0e69133a47f3b83d01ac36e72390eb5c1bc865837639be7ebee6c342c64e760405160405180910390a250600101612190565b6001600160a01b031660009081526017602052604090205490565b600f602052816000526040600020818154811061159757fe5b6000908152600960205260409020546001600160a01b0316151590565b600e602052816000526040600020818154811061142b57fe5b6123096126fa565b61234b5760408051600160e51b62461bcd028152602060048201819052602482015260008051602061520d833981519152604482015290519081900360640190fd5b6001600160a01b038116600081815260086020526040808220805460ff19169055517f866c4c4c778f85c380f911e6c43d125e57865fec38a5ccf53b62b74a8473ed169190a250565b60009081526016602052604090205490565b6011602052600090815260409020805460018201546002909201546001600160a01b03909116919083565b6001600160a01b03166000908152600c602052604090205490565b6123f46126fa565b6124365760408051600160e51b62461bcd028152602060048201819052602482015260008051602061520d833981519152604482015290519081900360640190fd5b612328811061244457600080fd5b600155565b6000908152600e602052604090205490565b6124636126fa565b6124a55760408051600160e51b62461bcd028152602060048201819052602482015260008051602061520d833981519152604482015290519081900360640190fd5b600080546040516001600160a01b03909116907f8be0079c531659141344cd1fd0a4f28419497f9722a3daafe3b4186f6b6457e0908390a3600080546001600160a01b0319169055565b3360008181526008602052604090205460ff161561250c57600080fd5b6000838152600e60205260409020612522615089565b81848154811061252e57fe5b600091825260209182902060408051606081018252600390930290910180546001600160a01b03168084526001820154948401949094526002015490820152915033141561257b57600080fd5b600554815160408051600160e11b63214217070281523360048201526001600160a01b03928316602482015260448101899052905191909216916342842e0e91606480830192600092919082900301818387803b1580156125db57600080fd5b505af11580156125ef573d6000803e3d6000fd5b5050505060008160200151905082858154811061260857fe5b60009182526020822060039091020180546001600160a01b03191681556001810182905560020155815161263f90879033846143dd565b815161264b9087614294565b604080513381529051869188917f457ae6ede965e3fd86a2382471652c3f75c762405ace25d5e575b507c80d51d19181900360200190a3505050505050565b6126926126fa565b6126d45760408051600160e51b62461bcd028152602060048201819052602482015260008051602061520d833981519152604482015290519081900360640190fd5b600355565b60136020526000908152604090205481565b6000546001600160a01b031690565b6000546001600160a01b0316331490565b3360008181526008602052604090205460ff161561272857600080fd5b83821461273457600080fd5b60005b8481101561287f5760006009600088888581811061275157fe5b6020908102929092013583525081019190915260400160002080549091506001600160a01b0316331461278357600080fd5b84848381811061278f57fe5b60200291909101356001830155508484838181106127a957fe5b90506020020135600c6000336001600160a01b03166001600160a01b03168152602001908152602001600020600d60008a8a878181106127e557fe5b905060200201358152602001908152602001600020548154811061280557fe5b60009182526020909120600160029092020101553387878481811061282657fe5b905060200201357fca4cc7f6147058b62d5b4ab7ffc550fdfa8a2d4a5e612876fbf6239e3fc6be7287878681811061285a57fe5b905060200201356040518082815260200191505060405180910390a350600101612737565b505050505050565b600081815260166020526040902054156128a057600080fd5b6000818152601160205260409020546001600160a01b03163381146128c457600080fd5b60055460408051600160e01b6323b872dd0281523060048201526001600160a01b03848116602483015260448201869052915191909216916323b872dd91606480830192600092919082900301818387803b15801561292257600080fd5b505af1158015612936573d6000803e3d6000fd5b505050506129438261405a565b61294d8183614129565b604051339083907f2a6445a420b30cbabfffd85287bfa6c0c8f9b5f65d48637922da74abf357e52b90600090a35050565b60086020526000908152604090205460ff1681565b6001600160a01b03166000908152600f602052604090205490565b601281815481106129bb57fe5b600091825260209091200154905081565b60035481565b6129da6126fa565b612a1c5760408051600160e51b62461bcd028152602060048201819052602482015260008051602061520d833981519152604482015290519081900360640190fd5b600580546001600160a01b0319166001600160a01b0392909216919091179055565b6005546001600160a01b031681565b6002546001600160a01b031681565b600c602052816000526040600020818154811061159757fe5b600960205260009081526040902080546001909101546001600160a01b039091169082565b6006546001600160a01b031681565b6004546001600160a01b031681565b3360008181526008602052604090205460ff1615612ad557600080fd5b838214612ae157600080fd5b60005b8481101561287f576005546001600160a01b031663c57a9c56878784818110612b0957fe5b905060200201356040518263ffffffff1660e01b81526004018082815260200191505060206040518083038186803b158015612b4457600080fd5b505afa158015612b58573d6000803e3d6000fd5b505050506040513d6020811015612b6e57600080fd5b505115612b7a57600080fd5b6005546001600160a01b03166342842e0e33868685818110612b9857fe5b905060200201356001600160a01b0316898986818110612bb457fe5b905060200201356040518463ffffffff1660e01b815260040180846001600160a01b03166001600160a01b03168152602001836001600160a01b03166001600160a01b031681526020018281526020019350505050600060405180830381600087803b158015612c2357600080fd5b505af1158015612c37573d6000803e3d6000fd5b505060019092019150612ae49050565b3360008181526008602052604090205460ff1615612c6457600080fd5b60055460408051600160e11b6331a9108f02815260048101879052905133926001600160a01b031691636352211e916024808301926020929190829003018186803b158015612cb257600080fd5b505afa158015612cc6573d6000803e3d6000fd5b505050506040513d6020811015612cdc57600080fd5b50516001600160a01b031614612cf157600080fd5b60055460408051600160e11b6362bd4e2b0281526004810187905290516001600160a01b039092169163c57a9c5691602480820192602092909190829003018186803b158015612d4057600080fd5b505afa158015612d54573d6000803e3d6000fd5b505050506040513d6020811015612d6a57600080fd5b505115612d7657600080fd5b438211612d8257600080fd5b612d8b846122cb565b15612d9557600080fd5b60055460408051600160e01b6323b872dd0281523360048201523060248201526044810187905290516001600160a01b03909216916323b872dd9160648082019260009290919082900301818387803b158015612df157600080fd5b505af1158015612e05573d6000803e3d6000fd5b50506040805160608101825233808252602080830189815283850189815260008c815260118452868120955186546001600160a01b0319166001600160a01b039091161786559151600180870191909155905160029095019490945560128054601390935294812082905592810184559282527fbb8a6a4669ba250d26cd7a459eca9d215f8307e33aebe50379bc5a3617ec34449092018890559250612eab9150610ecb565b336000818152601460209081526040808320815180830183528b81528084018b81528254600181810185559387528587209251600290910290920191825551910155898352601582529182902084905581518881529081018790528151939450919288927fcbe04387a0a4ba3f222173882400f28bdb5f8ffb497a2f5feb5cec2cc51ae00692908290030190a35050505050565b3360008181526008602052604090205460ff1615612f5c57600080fd5b838214612f6857600080fd5b60005b8481101561287f576005546001600160a01b031663c57a9c56878784818110612f9057fe5b905060200201356040518263ffffffff1660e01b81526004018082815260200191505060206040518083038186803b158015612fcb57600080fd5b505afa158015612fdf573d6000803e3d6000fd5b505050506040513d6020811015612ff557600080fd5b50511561300157600080fd5b600084848381811061300f57fe5b905060200201351161302057600080fd5b60055433906001600160a01b0316636352211e88888581811061303f57fe5b905060200201356040518263ffffffff1660e01b81526004018082815260200191505060206040518083038186803b15801561307a57600080fd5b505afa15801561308e573d6000803e3d6000fd5b505050506040513d60208110156130a457600080fd5b50516001600160a01b0316146130b957600080fd5b60055460408051600160e01b63e985e9c502815233600482015230602482015290516001600160a01b039092169163e985e9c591604480820192602092909190829003018186803b15801561310d57600080fd5b505afa158015613121573d6000803e3d6000fd5b505050506040513d602081101561313757600080fd5b505161314257600080fd5b61315d86868381811061315157fe5b905060200201356122cb565b1561316757600080fd5b6040518060400160405280336001600160a01b0316815260200185858481811061318d57fe5b90506020020135815250600960008888858181106131a757fe5b60209081029290920135835250818101929092526040016000908120835181546001600160a01b0319166001600160a01b039091161781559290910151600190920191909155600a5490600b9088888581811061320057fe5b90506020020135815260200190815260200160002081905550600a86868381811061322757fe5b8354600181018555600094855260208086209202939093013592019190915550613250336123d1565b336000908152600c60205260409081902081518083019092529192508089898681811061327957fe5b90506020020135815260200187878681811061329157fe5b60209081029290920135909252835460018181018655600095865282862085516002909302019182559390910151920191909155508190600d908989868181106132d757fe5b90506020020135815260200190815260200160002081905550336001600160a01b031687878481811061330657fe5b905060200201357fd80eade75ae9e6851c77c535311c9f41a2dd6fba19e375235116c09f0810c12887878681811061333a57fe5b905060200201356040518082815260200191505060405180910390a350600101612f6b565b6000828152600e60205260409020613375615089565b81838154811061338157fe5b600091825260209182902060408051606081018252600390930290910180546001600160a01b03168084526001820154948401949094526002015490820152915033146133cd57600080fd5b8183815481106133d957fe5b60009182526020822060039091020180546001600160a01b0319168155600181018290556002015561340b3385614294565b600654604082015160208301516001600160a01b039092169163a9059cbb91339161343b9163ffffffff613ef516565b6040518363ffffffff1660e01b815260040180836001600160a01b03166001600160a01b0316815260200182815260200192505050602060405180830381600087803b15801561348a57600080fd5b505af115801561349e573d6000803e3d6000fd5b505050506040513d60208110156134b457600080fd5b50506040810151156135c1576006546007546040808401518151600160e01b63095ea7b30281526001600160a01b03938416600482015260248101919091529051919092169163095ea7b39160448083019260209291908290030181600087803b15801561352157600080fd5b505af1158015613535573d6000803e3d6000fd5b505050506040513d602081101561354b57600080fd5b50506007546040808301518151600160e01b63a3ffa9cd028152336004820152602481019190915290516001600160a01b039092169163a3ffa9cd9160448082019260009290919082900301818387803b1580156135a857600080fd5b505af11580156135bc573d6000803e3d6000fd5b505050505b604080513381529051849186917fccb899300cb935e998c7444c113e3ac7b090caab89b13ed4c8366af29a8a419f9181900360200190a350505050565b60005b8181101561140d5760006009600085858581811061361b57fe5b60209081029290920135835250810191909152604001600020546001600160a01b0316905033811461364c57600080fd5b61365b8484848181106121de57fe5b61366b818585858181106121fa57fe5b3384848481811061367857fe5b905060200201357f48b5d3e2b93e61b20a7185aa9e047d84796db4a8eb13625338a700ecfb1531f960405160405180910390a350600101613601565b6017602052816000526040600020818154811061159757fe5b60015481565b600a81815481106129bb57fe5b3360008181526008602052604081205490919060ff161561370057600080fd5b6000841161370d57600080fd5b60055460408051600160e11b6331a9108f02815260048101889052905133926001600160a01b031691636352211e916024808301926020929190829003018186803b15801561375b57600080fd5b505afa15801561376f573d6000803e3d6000fd5b505050506040513d602081101561378557600080fd5b50516001600160a01b0316141561379b57600080fd5b60055460408051600160e11b6362bd4e2b0281526004810188905290516001600160a01b039092169163c57a9c5691602480820192602092909190829003018186803b1580156137ea57600080fd5b505afa1580156137fe573d6000803e3d6000fd5b505050506040513d602081101561381457600080fd5b50511561382057600080fd5b600061382b33612993565b111561388c57336000908152600f602052604081208054829061384a57fe5b6000918252602080832089845260108252604080852033865290925292205460029091029091019150158015613881575080548614155b61388a57600080fd5b505b6000858152600e6020908152604080832080548251606081018452338082528186018b81529482018a8152600180850186558589529690972091516003840290920180546001600160a01b0319166001600160a01b0393841617815594519585019590955594516002909301929092556006549195509216906323b872dd90306139168989613ef5565b6040805163ffffffff861660e01b81526001600160a01b0394851660048201529290931660248301526044820152905160648083019260209291908290030181600087803b15801561396757600080fd5b505af115801561397b573d6000803e3d6000fd5b505050506040513d602081101561399157600080fd5b50508315613a085760075460408051600160e51b63034fd9510281523360048201526024810187905290516001600160a01b03909216916369fb2a209160448082019260009290919082900301818387803b1580156139ef57600080fd5b505af1158015613a03573d6000803e3d6000fd5b505050505b6000613a1333612993565b336000818152600f60209081526040808320815180830183528d81528084018d815282546001818101855593875285872092516002909102909201918255519101558b83526010825280832084845282529182902084905581519283528201899052805192935086928a927fd8be2fb08ccc8de78d48139fb65c01262349e079aaf4fa201aeac99ec8a86e1992908290030190a35050509392505050565b613ab96126fa565b613afb5760408051600160e51b62461bcd028152602060048201819052602482015260008051602061520d833981519152604482015290519081900360640190fd5b600280546001600160a01b0319166001600160a01b0392909216919091179055565b613b256126fa565b613b675760408051600160e51b62461bcd028152602060048201819052602482015260008051602061520d833981519152604482015290519081900360640190fd5b613b7081614e4b565b50565b3360008181526008602052604090205460ff1615613b9057600080fd5b8584148015613b9e57508582145b613ba757600080fd5b60005b86811015613eeb57613bba6150d4565b600960008a8a85818110613bca57fe5b60209081029290920135835250818101929092526040908101600020815180830190925280546001600160a01b031680835260019091015492820192909252915015801590613c23575080516001600160a01b03163314155b613c2c57600080fd5b868683818110613c3857fe5b90506020020135816020015114613c4e57600080fd5b60055481516001600160a01b03909116906342842e0e90338c8c87818110613c7257fe5b905060200201356040518463ffffffff1660e01b815260040180846001600160a01b03166001600160a01b03168152602001836001600160a01b03166001600160a01b031681526020018281526020019350505050600060405180830381600087803b158015613ce157600080fd5b505af1158015613cf5573d6000803e3d6000fd5b50506006546001600160a01b031691506323b872dd90503330613d35898988818110613d1d57fe5b6020898101519391020135905063ffffffff613ef516565b6040805163ffffffff861660e01b81526001600160a01b0394851660048201529290931660248301526044820152905160648083019260209291908290030181600087803b158015613d8657600080fd5b505af1158015613d9a573d6000803e3d6000fd5b505050506040513d6020811015613db057600080fd5b5060009050858584818110613dc157fe5b905060200201351115613e5b576007546001600160a01b03166369fb2a2033878786818110613dec57fe5b905060200201356040518363ffffffff1660e01b815260040180836001600160a01b03166001600160a01b0316815260200182815260200192505050600060405180830381600087803b158015613e4257600080fd5b505af1158015613e56573d6000803e3d6000fd5b505050505b613e81898984818110613e6a57fe5b9050602002013533836000015184602001516143dd565b8051613e93908a8a858181106121fa57fe5b33898984818110613ea057fe5b905060200201357f3b599f6217e39be59216b60e543ce0d4c7d534fe64dd9d962334924e7819894e83602001516040518082815260200191505060405180910390a350600101613baa565b5050505050505050565b6000613f3783836040518060400160405280601e81526020017f536166654d6174683a207375627472616374696f6e206f766572666c6f770000815250614eee565b90505b92915050565b6000613f5c6001613f5085612297565b9063ffffffff613ef516565b60008381526018602052604090205490915080821461401c57613f7d6150eb565b6001600160a01b0385166000908152601760205260409020805484908110613fa157fe5b6000918252602080832060408051808201825260029094029091018054845260010154838301526001600160a01b038916845260179091529091208054919250829184908110613fed57fe5b600091825260208083208451600290930201918255928301516001909101559151825260189052604090208190555b6001600160a01b0384166000908152601760205260409020805490614045906000198301615105565b50505060009081526018602052604081205550565b614063816115b7565b156141005760006140776001613f50610ec4565b6000838152601360205260409020549091508082146140da5760006012838154811061409f57fe5b9060005260206000200154905080601283815481106140ba57fe5b600091825260208083209091019290925591825260139052604090208190555b60128054906140ed906000198301615131565b5050506000818152601360205260408120555b600090815260116020526040812080546001600160a01b03191681556001810182905560020155565b60006141396001613f5085610ecb565b6000838152601560205260409020549091508082146141f95761415a6150eb565b6001600160a01b038516600090815260146020526040902080548490811061417e57fe5b6000918252602080832060408051808201825260029094029091018054845260010154838301526001600160a01b0389168452601490915290912080549192508291849081106141ca57fe5b600091825260208083208451600290930201918255928301516001909101559151825260159052604090208190555b6001600160a01b0384166000908152601460205260409020805490614222906000198301615105565b50505060009081526015602052604081205550565b600082820183811015613f375760408051600160e51b62461bcd02815260206004820152601b60248201527f536166654d6174683a206164646974696f6e206f766572666c6f770000000000604482015290519081900360640190fd5b60006142a46001613f5085612993565b60008381526010602090815260408083206001600160a01b038816845290915290205490915080821461438a576142d96150eb565b6001600160a01b0385166000908152600f602052604090208054849081106142fd57fe5b6000918252602080832060408051808201825260029094029091018054845260010154838301526001600160a01b0389168452600f909152909120805491925082918490811061434957fe5b60009182526020808320845160029093020191825592830151600190910155915182526010815260408083206001600160a01b038816845290915290208190555b6001600160a01b0384166000908152600f602052604090208054906143b3906000198301615105565b50505060009081526010602090815260408083206001600160a01b03909416835292905290812055565b60055460408051600160e01b630410d0870281526004810187905290516000926001600160a01b031691630410d087916024808301926020929190829003018186803b15801561442c57600080fd5b505afa158015614440573d6000803e3d6000fd5b505050506040513d602081101561445657600080fd5b505160055460408051600160e01b63a7b63a4b028152600481018990529051929350600092839283926001600160a01b039091169163a7b63a4b91602480820192602092909190829003018186803b1580156144b157600080fd5b505afa1580156144c5573d6000803e3d6000fd5b505050506040513d60208110156144db57600080fd5b50511561490c576004805460408051600160e11b633325e07d0281526001600160a01b03888116948201949094529051929091169163664bc0fa91602480820192602092909190829003018186803b15801561453657600080fd5b505afa15801561454a573d6000803e3d6000fd5b505050506040513d602081101561456057600080fd5b5051156147d05760006146056127106145f9600760009054906101000a90046001600160a01b03166001600160a01b031663dbee2a256040518163ffffffff1660e01b815260040160206040518083038186803b1580156145c057600080fd5b505afa1580156145d4573d6000803e3d6000fd5b505050506040513d60208110156145ea57600080fd5b5051899063ffffffff614f8816565b9063ffffffff614fe416565b90506146226127106145f960015489614f8890919063ffffffff16565b9350808411156146465790508061463f848263ffffffff613ef516565b935061464c565b60009391505b60006146e282613f506127106145f9600760009054906101000a90046001600160a01b03166001600160a01b0316639390150f6040518163ffffffff1660e01b815260040160206040518083038186803b1580156146a957600080fd5b505afa1580156146bd573d6000803e3d6000fd5b505050506040513d60208110156146d357600080fd5b50518c9063ffffffff614f8816565b905061477f6127106145f9600560009054906101000a90046001600160a01b03166001600160a01b0316637f77f5748e6040518263ffffffff1660e01b81526004018082815260200191505060206040518083038186803b15801561474657600080fd5b505afa15801561475a573d6000803e3d6000fd5b505050506040513d602081101561477057600080fd5b50518a9063ffffffff614f8816565b9350808411156147b257614799838263ffffffff61423716565b92506147ab848263ffffffff613ef516565b93506147c9565b6147c2838563ffffffff61423716565b9250600093505b5050614907565b6147eb6127106145f960015488614f8890919063ffffffff16565b925061487d6127106145f9600760009054906101000a90046001600160a01b03166001600160a01b0316639390150f6040518163ffffffff1660e01b815260040160206040518083038186803b15801561484457600080fd5b505afa158015614858573d6000803e3d6000fd5b505050506040513d602081101561486e57600080fd5b5051889063ffffffff614f8816565b90506148e16127106145f9600560009054906101000a90046001600160a01b03166001600160a01b0316637f77f5748c6040518263ffffffff1660e01b81526004018082815260200191505060206040518083038186803b15801561484457600080fd5b915080821115614902576148fb828263ffffffff613ef516565b9150614907565b506000905b61498e565b6149276127106145f960015488614f8890919063ffffffff16565b925061498b6127106145f9600560009054906101000a90046001600160a01b03166001600160a01b0316637f77f5748c6040518263ffffffff1660e01b81526004018082815260200191505060206040518083038186803b15801561484457600080fd5b91505b8215614a1d5760065460025460408051600160e01b63a9059cbb0281526001600160a01b039283166004820152602481018790529051919092169163a9059cbb9160448083019260209291908290030181600087803b1580156149f057600080fd5b505af1158015614a04573d6000803e3d6000fd5b505050506040513d6020811015614a1a57600080fd5b50505b8115614aa95760065460408051600160e01b63a9059cbb0281526001600160a01b038781166004830152602482018690529151919092169163a9059cbb9160448083019260209291908290030181600087803b158015614a7c57600080fd5b505af1158015614a90573d6000803e3d6000fd5b505050506040513d6020811015614aa657600080fd5b50505b8015614ba85760065460075460408051600160e01b63095ea7b30281526001600160a01b039283166004820152602481018590529051919092169163095ea7b39160448083019260209291908290030181600087803b158015614b0b57600080fd5b505af1158015614b1f573d6000803e3d6000fd5b505050506040513d6020811015614b3557600080fd5b505060075460408051600160e01b63a3ffa9cd0281526001600160a01b038a81166004830152602482018590529151919092169163a3ffa9cd91604480830192600092919082900301818387803b158015614b8f57600080fd5b505af1158015614ba3573d6000803e3d6000fd5b505050505b6006546001600160a01b031663a9059cbb87614bd084613f5087818c8b63ffffffff613ef516565b6040518363ffffffff1660e01b815260040180836001600160a01b03166001600160a01b0316815260200182815260200192505050602060405180830381600087803b158015614c1f57600080fd5b505af1158015614c33573d6000803e3d6000fd5b505050506040513d6020811015614c4957600080fd5b50614c55905088614c75565b614c5e8861405a565b6000888152601660205260408120613eeb916150b3565b614c7e816122cb565b15614d1b576000614c926001613f506115d4565b6000838152600b6020526040902054909150808214614cf5576000600a8381548110614cba57fe5b9060005260206000200154905080600a8381548110614cd557fe5b6000918252602080832090910192909255918252600b9052604090208190555b600a805490614d08906000198301615131565b5050506000818152600b60205260408120555b600090815260096020526040812080546001600160a01b031916815560010155565b6000614d4d6001613f50856123d1565b6000838152600d6020526040902054909150808214614e0d57614d6e6150eb565b6001600160a01b0385166000908152600c60205260409020805484908110614d9257fe5b6000918252602080832060408051808201825260029094029091018054845260010154838301526001600160a01b0389168452600c9091529091208054919250829184908110614dde57fe5b6000918252602080832084516002909302019182559283015160019091015591518252600d9052604090208190555b6001600160a01b0384166000908152600c60205260409020805490614e36906000198301615105565b5050506000908152600d602052604081205550565b6001600160a01b038116614e9357604051600160e51b62461bcd0281526004018080602001828103825260268152602001806151c66026913960400191505060405180910390fd5b600080546040516001600160a01b03808516939216917f8be0079c531659141344cd1fd0a4f28419497f9722a3daafe3b4186f6b6457e091a3600080546001600160a01b0319166001600160a01b0392909216919091179055565b60008184841115614f8057604051600160e51b62461bcd0281526004018080602001828103825283818151815260200191508051906020019080838360005b83811015614f45578181015183820152602001614f2d565b50505050905090810190601f168015614f725780820380516001836020036101000a031916815260200191505b509250505060405180910390fd5b505050900390565b600082614f9757506000613f3a565b82820282848281614fa457fe5b0414613f3757604051600160e51b62461bcd0281526004018080602001828103825260218152602001806151ec6021913960400191505060405180910390fd5b6000613f3783836040518060400160405280601a81526020017f536166654d6174683a206469766973696f6e206279207a65726f0000000000008152506000818361507357604051600160e51b62461bcd028152602060048201818152835160248401528351909283926044909101919085019080838360008315614f45578181015183820152602001614f2d565b50600083858161507f57fe5b0495945050505050565b604051806060016040528060006001600160a01b0316815260200160008152602001600081525090565b5080546000825560030290600052602060002090810190613b709190615155565b604080518082019091526000808252602082015290565b604051806040016040528060008152602001600081525090565b81548183558181111561140d5760020281600202836000526020600020918201910161140d919061518b565b81548183558181111561140d5760008381526020902061140d9181019083016151ab565b610ec891905b808211156151875780546001600160a01b0319168155600060018201819055600282015560030161515b565b5090565b610ec891905b808211156151875760008082556001820155600201615191565b610ec891905b8082111561518757600081556001016151b156fe4f776e61626c653a206e6577206f776e657220697320746865207a65726f2061646472657373536166654d6174683a206d756c7469706c69636174696f6e206f766572666c6f774f776e61626c653a2063616c6c6572206973206e6f7420746865206f776e6572a165627a7a723058206dee28e013476e2696c275081f4bd5205f034b1e8a86197f968499ba92efef040029",
  "linkReferences": {},
  "deployedLinkReferences": {}
}