{
  "_format": "hh-sol-artifact-1",
  "contractName": "Turntables",
  "sourceName": "contracts/Turntables.sol",
  "abi": [
    {
      "constant": true,
      "inputs": [],
      "name": "mixEmitter",
      "outputs": [
        {
          "name": "",
          "type": "address"
        }
      ],
      "payable": false,
      "stateMutability": "view",
      "type": "function"
    },
    {
      "constant": true,
      "inputs": [
        {
          "name": "",
          "type": "uint256"
        }
      ],
      "name": "typeWhitelist",
      "outputs": [
        {
          "name": "",
          "type": "bool"
        }
      ],
      "payable": false,
      "stateMutability": "view",
      "type": "function"
    },
    {
      "constant": true,
      "inputs": [],
      "name": "turntableLength",
      "outputs": [
        {
          "name": "",
          "type": "uint256"
        }
      ],
      "payable": false,
      "stateMutability": "view",
      "type": "function"
    },
    {
      "constant": false,
      "inputs": [
        {
          "name": "turntableId",
          "type": "uint256"
        },
        {
          "name": "amount",
          "type": "uint256"
        }
      ],
      "name": "charge",
      "outputs": [],
      "payable": false,
      "stateMutability": "nonpayable",
      "type": "function"
    },
    {
      "constant": false,
      "inputs": [
        {
          "name": "value",
          "type": "uint256"
        }
      ],
      "name": "setChargingEfficiency",
      "outputs": [],
      "payable": false,
      "stateMutability": "nonpayable",
      "type": "function"
    },
    {
      "constant": true,
      "inputs": [
        {
          "name": "turntableId",
          "type": "uint256"
        }
      ],
      "name": "claimedOf",
      "outputs": [
        {
          "name": "",
          "type": "uint256"
        }
      ],
      "payable": false,
      "stateMutability": "view",
      "type": "function"
    },
    {
      "constant": false,
      "inputs": [
        {
          "name": "price",
          "type": "uint256"
        },
        {
          "name": "destroyReturn",
          "type": "uint256"
        },
        {
          "name": "volume",
          "type": "uint256"
        },
        {
          "name": "lifetime",
          "type": "uint256"
        }
      ],
      "name": "addType",
      "outputs": [
        {
          "name": "typeId",
          "type": "uint256"
        }
      ],
      "payable": false,
      "stateMutability": "nonpayable",
      "type": "function"
    },
    {
      "constant": true,
      "inputs": [
        {
          "name": "turntableId",
          "type": "uint256"
        }
      ],
      "name": "exists",
      "outputs": [
        {
          "name": "",
          "type": "bool"
        }
      ],
      "payable": false,
      "stateMutability": "view",
      "type": "function"
    },
    {
      "constant": true,
      "inputs": [
        {
          "name": "turntableId",
          "type": "uint256"
        }
      ],
      "name": "claimableOf",
      "outputs": [
        {
          "name": "",
          "type": "uint256"
        }
      ],
      "payable": false,
      "stateMutability": "view",
      "type": "function"
    },
    {
      "constant": true,
      "inputs": [],
      "name": "totalVolume",
      "outputs": [
        {
          "name": "",
          "type": "uint256"
        }
      ],
      "payable": false,
      "stateMutability": "view",
      "type": "function"
    },
    {
      "constant": true,
      "inputs": [],
      "name": "typeCount",
      "outputs": [
        {
          "name": "",
          "type": "uint256"
        }
      ],
      "payable": false,
      "stateMutability": "view",
      "type": "function"
    },
    {
      "constant": true,
      "inputs": [
        {
          "name": "turntableId",
          "type": "uint256"
        }
      ],
      "name": "ownerOf",
      "outputs": [
        {
          "name": "",
          "type": "address"
        }
      ],
      "payable": false,
      "stateMutability": "view",
      "type": "function"
    },
    {
      "constant": false,
      "inputs": [
        {
          "name": "turntableIds",
          "type": "uint256[]"
        }
      ],
      "name": "claim",
      "outputs": [
        {
          "name": "totalClaimable",
          "type": "uint256"
        }
      ],
      "payable": false,
      "stateMutability": "nonpayable",
      "type": "function"
    },
    {
      "constant": false,
      "inputs": [],
      "name": "renounceOwnership",
      "outputs": [],
      "payable": false,
      "stateMutability": "nonpayable",
      "type": "function"
    },
    {
      "constant": false,
      "inputs": [
        {
          "name": "typeId",
          "type": "uint256"
        }
      ],
      "name": "allowType",
      "outputs": [],
      "payable": false,
      "stateMutability": "nonpayable",
      "type": "function"
    },
    {
      "constant": true,
      "inputs": [
        {
          "name": "turntableId",
          "type": "uint256"
        }
      ],
      "name": "accumulativeOf",
      "outputs": [
        {
          "name": "",
          "type": "uint256"
        }
      ],
      "payable": false,
      "stateMutability": "view",
      "type": "function"
    },
    {
      "constant": true,
      "inputs": [],
      "name": "owner",
      "outputs": [
        {
          "name": "",
          "type": "address"
        }
      ],
      "payable": false,
      "stateMutability": "view",
      "type": "function"
    },
    {
      "constant": true,
      "inputs": [],
      "name": "isOwner",
      "outputs": [
        {
          "name": "",
          "type": "bool"
        }
      ],
      "payable": false,
      "stateMutability": "view",
      "type": "function"
    },
    {
      "constant": false,
      "inputs": [
        {
          "name": "turntableId",
          "type": "uint256"
        }
      ],
      "name": "destroy",
      "outputs": [],
      "payable": false,
      "stateMutability": "nonpayable",
      "type": "function"
    },
    {
      "constant": true,
      "inputs": [],
      "name": "mix",
      "outputs": [
        {
          "name": "",
          "type": "address"
        }
      ],
      "payable": false,
      "stateMutability": "view",
      "type": "function"
    },
    {
      "constant": true,
      "inputs": [],
      "name": "chargingEfficiency",
      "outputs": [
        {
          "name": "",
          "type": "uint256"
        }
      ],
      "payable": false,
      "stateMutability": "view",
      "type": "function"
    },
    {
      "constant": false,
      "inputs": [
        {
          "name": "typeId",
          "type": "uint256"
        }
      ],
      "name": "denyType",
      "outputs": [],
      "payable": false,
      "stateMutability": "nonpayable",
      "type": "function"
    },
    {
      "constant": true,
      "inputs": [
        {
          "name": "",
          "type": "uint256"
        }
      ],
      "name": "types",
      "outputs": [
        {
          "name": "price",
          "type": "uint256"
        },
        {
          "name": "destroyReturn",
          "type": "uint256"
        },
        {
          "name": "volume",
          "type": "uint256"
        },
        {
          "name": "lifetime",
          "type": "uint256"
        }
      ],
      "payable": false,
      "stateMutability": "view",
      "type": "function"
    },
    {
      "constant": false,
      "inputs": [
        {
          "name": "typeId",
          "type": "uint256"
        }
      ],
      "name": "buy",
      "outputs": [
        {
          "name": "turntableId",
          "type": "uint256"
        }
      ],
      "payable": false,
      "stateMutability": "nonpayable",
      "type": "function"
    },
    {
      "constant": true,
      "inputs": [
        {
          "name": "",
          "type": "uint256"
        }
      ],
      "name": "turntables",
      "outputs": [
        {
          "name": "owner",
          "type": "address"
        },
        {
          "name": "typeId",
          "type": "uint256"
        },
        {
          "name": "endBlock",
          "type": "uint256"
        },
        {
          "name": "lastClaimedBlock",
          "type": "uint256"
        }
      ],
      "payable": false,
      "stateMutability": "view",
      "type": "function"
    },
    {
      "constant": true,
      "inputs": [],
      "name": "pid",
      "outputs": [
        {
          "name": "",
          "type": "uint256"
        }
      ],
      "payable": false,
      "stateMutability": "view",
      "type": "function"
    },
    {
      "constant": false,
      "inputs": [
        {
          "name": "newOwner",
          "type": "address"
        }
      ],
      "name": "transferOwnership",
      "outputs": [],
      "payable": false,
      "stateMutability": "nonpayable",
      "type": "function"
    },
    {
      "inputs": [
        {
          "name": "_mixEmitter",
          "type": "address"
        },
        {
          "name": "_pid",
          "type": "uint256"
        }
      ],
      "payable": false,
      "stateMutability": "nonpayable",
      "type": "constructor"
    },
    {
      "anonymous": false,
      "inputs": [
        {
          "indexed": false,
          "name": "price",
          "type": "uint256"
        },
        {
          "indexed": false,
          "name": "destroyReturn",
          "type": "uint256"
        },
        {
          "indexed": false,
          "name": "volume",
          "type": "uint256"
        },
        {
          "indexed": false,
          "name": "lifetime",
          "type": "uint256"
        }
      ],
      "name": "AddType",
      "type": "event"
    },
    {
      "anonymous": false,
      "inputs": [
        {
          "indexed": true,
          "name": "typeId",
          "type": "uint256"
        }
      ],
      "name": "AllowType",
      "type": "event"
    },
    {
      "anonymous": false,
      "inputs": [
        {
          "indexed": true,
          "name": "typeId",
          "type": "uint256"
        }
      ],
      "name": "DenyType",
      "type": "event"
    },
    {
      "anonymous": false,
      "inputs": [
        {
          "indexed": false,
          "name": "value",
          "type": "uint256"
        }
      ],
      "name": "ChangeChargingEfficiency",
      "type": "event"
    },
    {
      "anonymous": false,
      "inputs": [
        {
          "indexed": true,
          "name": "owner",
          "type": "address"
        },
        {
          "indexed": true,
          "name": "turntableId",
          "type": "uint256"
        }
      ],
      "name": "Buy",
      "type": "event"
    },
    {
      "anonymous": false,
      "inputs": [
        {
          "indexed": true,
          "name": "owner",
          "type": "address"
        },
        {
          "indexed": true,
          "name": "turntableId",
          "type": "uint256"
        },
        {
          "indexed": false,
          "name": "amount",
          "type": "uint256"
        }
      ],
      "name": "Charge",
      "type": "event"
    },
    {
      "anonymous": false,
      "inputs": [
        {
          "indexed": true,
          "name": "owner",
          "type": "address"
        },
        {
          "indexed": true,
          "name": "turntableId",
          "type": "uint256"
        }
      ],
      "name": "Destroy",
      "type": "event"
    },
    {
      "anonymous": false,
      "inputs": [
        {
          "indexed": true,
          "name": "by",
          "type": "address"
        },
        {
          "indexed": false,
          "name": "distributed",
          "type": "uint256"
        }
      ],
      "name": "Distribute",
      "type": "event"
    },
    {
      "anonymous": false,
      "inputs": [
        {
          "indexed": true,
          "name": "turntableId",
          "type": "uint256"
        },
        {
          "indexed": false,
          "name": "claimed",
          "type": "uint256"
        }
      ],
      "name": "Claim",
      "type": "event"
    },
    {
      "anonymous": false,
      "inputs": [
        {
          "indexed": true,
          "name": "previousOwner",
          "type": "address"
        },
        {
          "indexed": true,
          "name": "newOwner",
          "type": "address"
        }
      ],
      "name": "OwnershipTransferred",
      "type": "event"
    }
  ],
  "bytecode": "0x608060405260006004556000600555600060065560c8600d553480156200002557600080fd5b5060405160408062002440833981018060405260408110156200004757600080fd5b508051602090910151600080546001600160a01b03191633178082556040516001600160a01b039190911691907f8be0079c531659141344cd1fd0a4f28419497f9722a3daafe3b4186f6b6457e0908290a3816001600160a01b0316631f2698ab6040518163ffffffff1660e01b815260040160206040518083038186803b158015620000d357600080fd5b505afa158015620000e8573d6000803e3d6000fd5b505050506040513d6020811015620000ff57600080fd5b50516200010b57600080fd5b600180546001600160a01b0319166001600160a01b038416908117909155604080517fbe32cf8d000000000000000000000000000000000000000000000000000000008152905163be32cf8d91600480820192602092909190829003018186803b1580156200017957600080fd5b505afa1580156200018e573d6000803e3d6000fd5b505050506040513d6020811015620001a557600080fd5b5051600280546001600160a01b0319166001600160a01b039092169190911790556003555061226680620001da6000396000f3fe608060405234801561001057600080fd5b50600436106101a95760003560e01c8063715018a6116100f9578063c2b5849911610097578063d96a094a11610071578063d96a094a14610494578063e8c06611146104b1578063f1068454146104fe578063f2fde38b14610506576101a9565b8063c2b584991461042c578063c646d70714610434578063cefbfa3614610451576101a9565b80638da5cb5b116100d35780638da5cb5b146103f75780638f32d59b146103ff5780639d11877014610407578063be32cf8d14610424576101a9565b8063715018a6146103b557806372543bf0146103bd5780637f05adeb146103da576101a9565b80634d26c57b116101665780635f81a57c116101405780635f81a57c146102e5578063602d7fe6146102ed5780636352211e146102f55780636ba4c13814610312576101a9565b80634d26c57b1461027c5780634f558e79146102ab578063513bed12146102c8576101a9565b80630ade3ac1146101ae57806314f3111b146101d2578063165c1ec1146102035780632cc5af881461021d5780632ceb1b721461024257806349e8e06a1461025f575b600080fd5b6101b661052c565b604080516001600160a01b039092168252519081900360200190f35b6101ef600480360360208110156101e857600080fd5b503561053b565b604080519115158252519081900360200190f35b61020b610550565b60408051918252519081900360200190f35b6102406004803603604081101561023357600080fd5b5080359060200135610556565b005b6102406004803603602081101561025857600080fd5b50356107e8565b61020b6004803603602081101561027557600080fd5b503561086d565b61020b6004803603608081101561029257600080fd5b5080359060208101359060408101359060600135610882565b6101ef600480360360208110156102c157600080fd5b5035610a00565b61020b600480360360208110156102de57600080fd5b5035610a3b565b61020b610b3f565b61020b610b45565b6101b66004803603602081101561030b57600080fd5b5035610b4b565b61020b6004803603602081101561032857600080fd5b81019060208101813564010000000081111561034357600080fd5b82018360208201111561035557600080fd5b8035906020019184602083028401116401000000008311171561037757600080fd5b919080806020026020016040519081016040528093929190818152602001838360200280828437600092019190915250929550610b7a945050505050565b610240610f33565b610240600480360360208110156103d357600080fd5b5035610fc7565b61020b600480360360208110156103f057600080fd5b5035611054565b6101b661124b565b6101ef61125a565b6102406004803603602081101561041d57600080fd5b503561126b565b6101b661158d565b61020b61159c565b6102406004803603602081101561044a57600080fd5b50356115a2565b61046e6004803603602081101561046757600080fd5b503561162c565b604080519485526020850193909352838301919091526060830152519081900360800190f35b61020b600480360360208110156104aa57600080fd5b5035611663565b6104ce600480360360208110156104c757600080fd5b503561190e565b604080516001600160a01b0390951685526020850193909352838301919091526060830152519081900360800190f35b61020b61194f565b6102406004803603602081101561051c57600080fd5b50356001600160a01b0316611955565b6001546001600160a01b031681565b600b6020526000908152604090205460ff1681565b600c5490565b6000811161056357600080fd5b6000600c838154811061057257fe5b6000918252602090912060049091020180549091506001600160a01b0316331461059b57600080fd5b6105a3612132565b600a8260010154815481106105b457fe5b9060005260206000209060040201604051806080016040529081600082015481526020016001820154815260200160028201548152602001600382015481525050905060606001604051908082528060200260200182016040528015610624578160200160208202803883390190505b509050848160008151811061063557fe5b60200260200101818152505061064a81610b7a565b50600061068f83600001516106836064610683600d546106778b8a606001516119ab90919063ffffffff16565b9063ffffffff6119ab16565b9063ffffffff611a1016565b60028501549091506106b6824383116106a857436106aa565b825b9063ffffffff611a5216565b6002808701919091555460408051600160e41b63079cc6790281523360048201526024810189905290516001600160a01b03909216916379cc67909160448082019260009290919082900301818387803b15801561071357600080fd5b505af1158015610727573d6000803e3d6000fd5b505060025460408051600160e01b6370a0823102815230600482015290516001600160a01b0390921693506370a082319250602480820192602092909190829003018186803b15801561077957600080fd5b505afa15801561078d573d6000803e3d6000fd5b505050506040513d60208110156107a357600080fd5b5051600455604080518781529051889133917f720e2015c6c49aa255ac152528ef75a8d12b40300a289e74c701a97c428654859181900360200190a350505050505050565b6107f061125a565b6108325760408051600160e51b62461bcd02815260206004820181905260248201526000805160206121f4833981519152604482015290519081900360640190fd5b600d8190556040805182815290517f5d9a0841f0ca8c4ebf807312bdb5c5a129b5f0ac7d6b8b86401c73bc06a1e2279181900360200190a150565b6000818152600960205260409020545b919050565b600061088c61125a565b6108ce5760408051600160e51b62461bcd02815260206004820181905260248201526000805160206121f4833981519152604482015290519081900360640190fd5b838510156108db57600080fd5b50600a80546040805160808082018352888252602080830189815283850189815260608086018a8152600189018a556000999099529451600488027fc65a7bb8d6351c1cf70c95a316cc6a92839c986682d98bc35f958f4883f9d2a881019190915591517fc65a7bb8d6351c1cf70c95a316cc6a92839c986682d98bc35f958f4883f9d2a9830155517fc65a7bb8d6351c1cf70c95a316cc6a92839c986682d98bc35f958f4883f9d2aa82015595517fc65a7bb8d6351c1cf70c95a316cc6a92839c986682d98bc35f958f4883f9d2ab909601959095558251898152948501889052848301879052908401859052905191927f85e4812711635b1184f61fedf83f621e7893fa63c576d6020c0e2bf3ef15fc5b929081900390910190a1949350505050565b6000806001600160a01b0316600c8381548110610a1957fe5b60009182526020909120600490910201546001600160a01b0316141592915050565b6000818152600860205260408120548190610a6590610a5985611054565b9063ffffffff611aaf16565b9050610a6f61215a565b600c8481548110610a7c57fe5b600091825260209182902060408051608081018252600490930290910180546001600160a01b0316835260018101549383019390935260028301549082018190526003909201546060820181905290925010610add5760009250505061087d565b4381604001511015610b3757610b2e610b03826060015143611aaf90919063ffffffff16565b610683610b2184606001518560400151611aaf90919063ffffffff16565b859063ffffffff6119ab16565b9250505061087d565b50905061087d565b60055481565b600a5490565b6000600c8281548110610b5a57fe5b60009182526020909120600490910201546001600160a01b031692915050565b6000610b84611af1565b8151600090815b81811015610db4576000858281518110610ba157fe5b60200260200101519050336001600160a01b0316610bbe82610b4b565b6001600160a01b031614610bd157600080fd5b6000610bdc82611de8565b90508015610daa576000610bee61215a565b600c8481548110610bfb57fe5b600091825260209182902060408051608081018252600490930290910180546001600160a01b0316835260018101549383019390935260028301549082018190526003909201546060820181905290925010610c5657610cb2565b4381604001511015610cae57610ca7610c7c826060015143611aaf90919063ffffffff16565b610683610c9a84606001518560400151611aaf90919063ffffffff16565b869063ffffffff6119ab16565b9150610cb2565b8291505b610cd2610cc5848463ffffffff611aaf16565b889063ffffffff611a5216565b96508115610d5357600084815260096020526040902054610cf9908363ffffffff611a5216565b600085815260096020908152604091829020929092558051848152905186927f022e3d29644ead4083349ca84d24bcac368b2461819b70f5921fea15de4dec4d928290030190a2610d50888363ffffffff611a5216565b97505b600084815260086020526040902054610d72908463ffffffff611a5216565b600085815260086020526040902055600c805443919086908110610d9257fe5b90600052602060002090600402016003018190555050505b5050600101610b8b565b508215610e3f5760025460408051600160e01b63a9059cbb0281523360048201526024810186905290516001600160a01b039092169163a9059cbb916044808201926020929091908290030181600087803b158015610e1257600080fd5b505af1158015610e26573d6000803e3d6000fd5b505050506040513d6020811015610e3c57600080fd5b50505b8115610eae5760025460408051600160e31b630852cd8d0281526004810185905290516001600160a01b03909216916342966c689160248082019260009290919082900301818387803b158015610e9557600080fd5b505af1158015610ea9573d6000803e3d6000fd5b505050505b60025460408051600160e01b6370a0823102815230600482015290516001600160a01b03909216916370a0823191602480820192602092909190829003018186803b158015610efc57600080fd5b505afa158015610f10573d6000803e3d6000fd5b505050506040513d6020811015610f2657600080fd5b5051600455509092915050565b610f3b61125a565b610f7d5760408051600160e51b62461bcd02815260206004820181905260248201526000805160206121f4833981519152604482015290519081900360640190fd5b600080546040516001600160a01b03909116907f8be0079c531659141344cd1fd0a4f28419497f9722a3daafe3b4186f6b6457e0908390a3600080546001600160a01b0319169055565b610fcf61125a565b6110115760408051600160e51b62461bcd02815260206004820181905260248201526000805160206121f4833981519152604482015290519081900360640190fd5b6000818152600b6020526040808220805460ff191660011790555182917ff63fc27d68936931b1aa71456bd1e24c37597be8175773539462eb8c12fba78b91a250565b60065460055460009190156112425760025460408051600160e01b6370a08231028152306004820152905160009261116e926001600160a01b03909116916370a0823191602480820192602092909190829003018186803b1580156110b857600080fd5b505afa1580156110cc573d6000803e3d6000fd5b505050506040513d60208110156110e257600080fd5b505160015460035460408051600160e01b63c341a6e50281526004810192909252516001600160a01b039092169163c341a6e591602480820192602092909190829003018186803b15801561113657600080fd5b505afa15801561114a573d6000803e3d6000fd5b505050506040513d602081101561116057600080fd5b50519063ffffffff611a5216565b9050600061118760045483611aaf90919063ffffffff16565b905080156111be576005546111bb906111ae9061068384600160801b63ffffffff6119ab16565b849063ffffffff611a5216565b92505b611238600160801b610683600760008981526020019081526020016000205461122c600a600c8b815481106111ef57fe5b9060005260206000209060040201600101548154811061120b57fe5b906000526020600020906004020160020154886119ab90919063ffffffff16565b9063ffffffff611e0416565b935050505061087d565b50600092915050565b6000546001600160a01b031690565b6000546001600160a01b0316331490565b61127361215a565b600c828154811061128057fe5b600091825260209182902060408051608081018252600490930290910180546001600160a01b0316808452600182015494840194909452600281015491830191909152600301546060820152915033146112d957600080fd5b60408051600180825281830190925260609160208083019080388339019050509050828160008151811061130957fe5b60200260200101818152505061131e81610b7a565b50611327612132565b600a83602001518154811061133857fe5b906000526020600020906004020160405180608001604052908160008201548152602001600182015481526020016002820154815260200160038201548152505090506113948160400151600554611aaf90919063ffffffff16565b6005556000848152600760209081526040808320839055600254848301518251600160e01b63a9059cbb028152336004820152602481019190915291516001600160a01b039091169363a9059cbb93604480850194919392918390030190829087803b15801561140357600080fd5b505af1158015611417573d6000803e3d6000fd5b505050506040513d602081101561142d57600080fd5b50506002546020820151825160408051600160e31b630852cd8d028152929091036004830152516001600160a01b03909216916342966c689160248082019260009290919082900301818387803b15801561148757600080fd5b505af115801561149b573d6000803e3d6000fd5b50505050600c84815481106114ac57fe5b6000918252602080832060049283020180546001600160a01b0319168155600181018490556002808201859055600390910193909355915460408051600160e01b6370a082310281523093810193909352516001600160a01b03909116926370a082319260248082019391829003018186803b15801561152b57600080fd5b505afa15801561153f573d6000803e3d6000fd5b505050506040513d602081101561155557600080fd5b5051600455604051849033907f81325e2a6c442af9d36e4ee9697f38d5f4bf0837ade0f6c411c6a40af7c057ee90600090a350505050565b6002546001600160a01b031681565b600d5481565b6115aa61125a565b6115ec5760408051600160e51b62461bcd02815260206004820181905260248201526000805160206121f4833981519152604482015290519081900360640190fd5b6000818152600b6020526040808220805460ff191690555182917f68257ff285866774581ae98f2aedeffcf29271c31b61e77bc4a9ce898b08d25191a250565b600a818154811061163957fe5b60009182526020909120600490910201805460018201546002830154600390930154919350919084565b6000818152600b602052604081205460ff1661167e57600080fd5b611686612132565b600a838154811061169357fe5b90600052602060002090600402016040518060800160405290816000820154815260200160018201548152602001600282015481526020016003820154815250509050600c805490509150600c6040518060800160405280336001600160a01b03168152602001858152602001611717846060015143611a5290919063ffffffff16565b815243602091820152825460018082018555600094855293829020835160049092020180546001600160a01b0319166001600160a01b039092169190911781559082015192810192909255604081015160028301556060015160039091015561177e611af1565b60408101516005546117959163ffffffff611a5216565b60055560408101516006546117c391600019916117b79163ffffffff6119ab16565b9063ffffffff611e6c16565b60008381526007602090815260408083209390935560025484518451600160e01b6323b872dd028152336004820152306024820152604481019190915293516001600160a01b03909116936323b872dd9360648083019493928390030190829087803b15801561183257600080fd5b505af1158015611846573d6000803e3d6000fd5b505050506040513d602081101561185c57600080fd5b505060025460408051600160e01b6370a0823102815230600482015290516001600160a01b03909216916370a0823191602480820192602092909190829003018186803b1580156118ac57600080fd5b505afa1580156118c0573d6000803e3d6000fd5b505050506040513d60208110156118d657600080fd5b5051600455604051829033907fe3d4187f6ca4248660cc0ac8b8056515bac4a8132be2eca31d6d0cc170722a7e90600090a350919050565b600c818154811061191b57fe5b600091825260209091206004909102018054600182015460028301546003909301546001600160a01b039092169350919084565b60035481565b61195d61125a565b61199f5760408051600160e51b62461bcd02815260206004820181905260248201526000805160206121f4833981519152604482015290519081900360640190fd5b6119a881611f1b565b50565b6000826119ba57506000611a0a565b828202828482816119c757fe5b0414611a0757604051600160e51b62461bcd0281526004018080602001828103825260218152602001806121d36021913960400191505060405180910390fd5b90505b92915050565b6000611a0783836040518060400160405280601a81526020017f536166654d6174683a206469766973696f6e206279207a65726f000000000000815250611fbe565b600082820183811015611a075760408051600160e51b62461bcd02815260206004820152601b60248201527f536166654d6174683a206164646974696f6e206f766572666c6f770000000000604482015290519081900360640190fd5b6000611a0783836040518060400160405280601e81526020017f536166654d6174683a207375627472616374696f6e206f766572666c6f770000815250612063565b60055415611c715760015460035460408051600160e11b6328f582d30281526004810192909252516001600160a01b03909216916351eb05a69160248082019260009290919082900301818387803b158015611b4c57600080fd5b505af1158015611b60573d6000803e3d6000fd5b505060025460408051600160e01b6370a082310281523060048201529051600094506001600160a01b0390921692506370a08231916024808301926020929190829003018186803b158015611bb457600080fd5b505afa158015611bc8573d6000803e3d6000fd5b505050506040513d6020811015611bde57600080fd5b5051600454909150600090611bfa90839063ffffffff611aaf16565b90508015611c6a57600554611c3090611c219061068384600160801b63ffffffff6119ab16565b6006549063ffffffff611a5216565b60065560408051828152905133917fc1d32ad5cca423e7dda2123dbf8c482f8e77d00b631c06e903a47f2cec1334df919081900360200190a25b5050611de6565b60015460035460408051600160e11b6328f582d30281526004810192909252516001600160a01b03909216916351eb05a69160248082019260009290919082900301818387803b158015611cc457600080fd5b505af1158015611cd8573d6000803e3d6000fd5b505060025460408051600160e01b6370a082310281523060048201529051600094506001600160a01b0390921692506370a08231916024808301926020929190829003018186803b158015611d2c57600080fd5b505afa158015611d40573d6000803e3d6000fd5b505050506040513d6020811015611d5657600080fd5b5051600454909150600090611d7290839063ffffffff611aaf16565b90508015611de35760025460408051600160e31b630852cd8d0281526004810184905290516001600160a01b03909216916342966c689160248082019260009290919082900301818387803b158015611dca57600080fd5b505af1158015611dde573d6000803e3d6000fd5b505050505b50505b565b600081815260086020526040812054611a0a90610a59846120c0565b6000828201818312801590611e195750838112155b80611e2e5750600083128015611e2e57508381125b611a0757604051600160e51b62461bcd0281526004018080602001828103825260218152602001806121b26021913960400191505060405180910390fd5b600082611e7b57506000611a0a565b82600019148015611e8f5750600160ff1b82145b15611ece57604051600160e51b62461bcd0281526004018080602001828103825260278152602001806122146027913960400191505060405180910390fd5b82820282848281611edb57fe5b0514611a0757604051600160e51b62461bcd0281526004018080602001828103825260278152602001806122146027913960400191505060405180910390fd5b6001600160a01b038116611f6357604051600160e51b62461bcd02815260040180806020018281038252602681526020018061218c6026913960400191505060405180910390fd5b600080546040516001600160a01b03808516939216917f8be0079c531659141344cd1fd0a4f28419497f9722a3daafe3b4186f6b6457e091a3600080546001600160a01b0319166001600160a01b0392909216919091179055565b6000818361204d57604051600160e51b62461bcd0281526004018080602001828103825283818151815260200191508051906020019080838360005b83811015612012578181015183820152602001611ffa565b50505050905090810190601f16801561203f5780820380516001836020036101000a031916815260200191505b509250505060405180910390fd5b50600083858161205957fe5b0495945050505050565b600081848411156120b857604051600160e51b62461bcd028152602060048201818152835160248401528351909283926044909101919085019080838360008315612012578181015183820152602001611ffa565b505050900390565b6000611a0a600160801b610683600760008681526020019081526020016000205461122c600a600c88815481106120f357fe5b9060005260206000209060040201600101548154811061210f57fe5b9060005260206000209060040201600201546006546119ab90919063ffffffff16565b6040518060800160405280600081526020016000815260200160008152602001600081525090565b604051806080016040528060006001600160a01b03168152602001600081526020016000815260200160008152509056fe4f776e61626c653a206e6577206f776e657220697320746865207a65726f20616464726573735369676e6564536166654d6174683a206164646974696f6e206f766572666c6f77536166654d6174683a206d756c7469706c69636174696f6e206f766572666c6f774f776e61626c653a2063616c6c6572206973206e6f7420746865206f776e65725369676e6564536166654d6174683a206d756c7469706c69636174696f6e206f766572666c6f77a165627a7a72305820ea724f7c4583fbbaef8e1a6bbf635421a4470cc6f4a8d4daa0cf74dd0b10d9c70029",
  "linkReferences": {},
  "deployedLinkReferences": {}
}