{
  "_format": "hh-sol-artifact-1",
  "contractName": "TestERC1155",
  "sourceName": "contracts/test/TestERC1155.sol",
  "abi": [
    {
      "constant": true,
      "inputs": [
        {
          "name": "_id",
          "type": "uint256"
        }
      ],
      "name": "paused",
      "outputs": [
        {
          "name": "",
          "type": "bool"
        }
      ],
      "payable": false,
      "stateMutability": "view",
      "type": "function"
    },
    {
      "constant": true,
      "inputs": [
        {
          "name": "account",
          "type": "address"
        },
        {
          "name": "id",
          "type": "uint256"
        }
      ],
      "name": "balanceOf",
      "outputs": [
        {
          "name": "",
          "type": "uint256"
        }
      ],
      "payable": false,
      "stateMutability": "view",
      "type": "function"
    },
    {
      "constant": true,
      "inputs": [
        {
          "name": "interfaceId",
          "type": "bytes4"
        }
      ],
      "name": "supportsInterface",
      "outputs": [
        {
          "name": "",
          "type": "bool"
        }
      ],
      "payable": false,
      "stateMutability": "view",
      "type": "function"
    },
    {
      "constant": true,
      "inputs": [
        {
          "name": "tokenId",
          "type": "uint256"
        }
      ],
      "name": "uri",
      "outputs": [
        {
          "name": "",
          "type": "string"
        }
      ],
      "payable": false,
      "stateMutability": "view",
      "type": "function"
    },
    {
      "constant": false,
      "inputs": [
        {
          "name": "_id",
          "type": "uint256"
        }
      ],
      "name": "pause",
      "outputs": [],
      "payable": false,
      "stateMutability": "nonpayable",
      "type": "function"
    },
    {
      "constant": false,
      "inputs": [
        {
          "name": "from",
          "type": "address"
        },
        {
          "name": "to",
          "type": "address"
        },
        {
          "name": "ids",
          "type": "uint256[]"
        },
        {
          "name": "amounts",
          "type": "uint256[]"
        },
        {
          "name": "data",
          "type": "bytes"
        }
      ],
      "name": "safeBatchTransferFrom",
      "outputs": [],
      "payable": false,
      "stateMutability": "nonpayable",
      "type": "function"
    },
    {
      "constant": false,
      "inputs": [],
      "name": "unpause",
      "outputs": [],
      "payable": false,
      "stateMutability": "nonpayable",
      "type": "function"
    },
    {
      "constant": true,
      "inputs": [
        {
          "name": "account",
          "type": "address"
        }
      ],
      "name": "isPauser",
      "outputs": [
        {
          "name": "",
          "type": "bool"
        }
      ],
      "payable": false,
      "stateMutability": "view",
      "type": "function"
    },
    {
      "constant": false,
      "inputs": [
        {
          "name": "_id",
          "type": "uint256"
        },
        {
          "name": "_initialSupply",
          "type": "uint256"
        },
        {
          "name": "_uri",
          "type": "string"
        }
      ],
      "name": "create",
      "outputs": [
        {
          "name": "",
          "type": "bool"
        }
      ],
      "payable": false,
      "stateMutability": "nonpayable",
      "type": "function"
    },
    {
      "constant": true,
      "inputs": [
        {
          "name": "accounts",
          "type": "address[]"
        },
        {
          "name": "ids",
          "type": "uint256[]"
        }
      ],
      "name": "balanceOfBatch",
      "outputs": [
        {
          "name": "",
          "type": "uint256[]"
        }
      ],
      "payable": false,
      "stateMutability": "view",
      "type": "function"
    },
    {
      "constant": true,
      "inputs": [],
      "name": "paused",
      "outputs": [
        {
          "name": "",
          "type": "bool"
        }
      ],
      "payable": false,
      "stateMutability": "view",
      "type": "function"
    },
    {
      "constant": false,
      "inputs": [
        {
          "name": "account",
          "type": "address"
        },
        {
          "name": "ids",
          "type": "uint256[]"
        },
        {
          "name": "values",
          "type": "uint256[]"
        }
      ],
      "name": "burnBatch",
      "outputs": [],
      "payable": false,
      "stateMutability": "nonpayable",
      "type": "function"
    },
    {
      "constant": false,
      "inputs": [],
      "name": "renouncePauser",
      "outputs": [],
      "payable": false,
      "stateMutability": "nonpayable",
      "type": "function"
    },
    {
      "constant": false,
      "inputs": [],
      "name": "renounceOwnership",
      "outputs": [],
      "payable": false,
      "stateMutability": "nonpayable",
      "type": "function"
    },
    {
      "constant": true,
      "inputs": [
        {
          "name": "tokenId",
          "type": "uint256"
        }
      ],
      "name": "isTokenExistent",
      "outputs": [
        {
          "name": "",
          "type": "bool"
        }
      ],
      "payable": false,
      "stateMutability": "view",
      "type": "function"
    },
    {
      "constant": false,
      "inputs": [
        {
          "name": "account",
          "type": "address"
        }
      ],
      "name": "addPauser",
      "outputs": [],
      "payable": false,
      "stateMutability": "nonpayable",
      "type": "function"
    },
    {
      "constant": false,
      "inputs": [
        {
          "name": "_id",
          "type": "uint256"
        },
        {
          "name": "_to",
          "type": "address"
        },
        {
          "name": "_value",
          "type": "uint256"
        }
      ],
      "name": "mint",
      "outputs": [],
      "payable": false,
      "stateMutability": "nonpayable",
      "type": "function"
    },
    {
      "constant": false,
      "inputs": [],
      "name": "pause",
      "outputs": [],
      "payable": false,
      "stateMutability": "nonpayable",
      "type": "function"
    },
    {
      "constant": true,
      "inputs": [],
      "name": "owner",
      "outputs": [
        {
          "name": "",
          "type": "address"
        }
      ],
      "payable": false,
      "stateMutability": "view",
      "type": "function"
    },
    {
      "constant": true,
      "inputs": [],
      "name": "isOwner",
      "outputs": [
        {
          "name": "",
          "type": "bool"
        }
      ],
      "payable": false,
      "stateMutability": "view",
      "type": "function"
    },
    {
      "constant": false,
      "inputs": [
        {
          "name": "account",
          "type": "address"
        }
      ],
      "name": "addMinter",
      "outputs": [],
      "payable": false,
      "stateMutability": "nonpayable",
      "type": "function"
    },
    {
      "constant": false,
      "inputs": [],
      "name": "renounceMinter",
      "outputs": [],
      "payable": false,
      "stateMutability": "nonpayable",
      "type": "function"
    },
    {
      "constant": false,
      "inputs": [
        {
          "name": "operator",
          "type": "address"
        },
        {
          "name": "approved",
          "type": "bool"
        }
      ],
      "name": "setApprovalForAll",
      "outputs": [],
      "payable": false,
      "stateMutability": "nonpayable",
      "type": "function"
    },
    {
      "constant": true,
      "inputs": [
        {
          "name": "account",
          "type": "address"
        }
      ],
      "name": "isMinter",
      "outputs": [
        {
          "name": "",
          "type": "bool"
        }
      ],
      "payable": false,
      "stateMutability": "view",
      "type": "function"
    },
    {
      "constant": true,
      "inputs": [
        {
          "name": "_tokenId",
          "type": "uint256"
        }
      ],
      "name": "totalSupply",
      "outputs": [
        {
          "name": "",
          "type": "uint256"
        }
      ],
      "payable": false,
      "stateMutability": "view",
      "type": "function"
    },
    {
      "constant": true,
      "inputs": [
        {
          "name": "",
          "type": "uint256"
        }
      ],
      "name": "creators",
      "outputs": [
        {
          "name": "",
          "type": "address"
        }
      ],
      "payable": false,
      "stateMutability": "view",
      "type": "function"
    },
    {
      "constant": false,
      "inputs": [
        {
          "name": "_id",
          "type": "uint256"
        },
        {
          "name": "_toList",
          "type": "address[]"
        },
        {
          "name": "_values",
          "type": "uint256[]"
        }
      ],
      "name": "mint",
      "outputs": [],
      "payable": false,
      "stateMutability": "nonpayable",
      "type": "function"
    },
    {
      "constant": false,
      "inputs": [
        {
          "name": "_to",
          "type": "address"
        },
        {
          "name": "_ids",
          "type": "uint256[]"
        },
        {
          "name": "_values",
          "type": "uint256[]"
        }
      ],
      "name": "mintBatch",
      "outputs": [],
      "payable": false,
      "stateMutability": "nonpayable",
      "type": "function"
    },
    {
      "constant": true,
      "inputs": [
        {
          "name": "account",
          "type": "address"
        },
        {
          "name": "operator",
          "type": "address"
        }
      ],
      "name": "isApprovedForAll",
      "outputs": [
        {
          "name": "",
          "type": "bool"
        }
      ],
      "payable": false,
      "stateMutability": "view",
      "type": "function"
    },
    {
      "constant": false,
      "inputs": [
        {
          "name": "from",
          "type": "address"
        },
        {
          "name": "to",
          "type": "address"
        },
        {
          "name": "id",
          "type": "uint256"
        },
        {
          "name": "amount",
          "type": "uint256"
        },
        {
          "name": "data",
          "type": "bytes"
        }
      ],
      "name": "safeTransferFrom",
      "outputs": [],
      "payable": false,
      "stateMutability": "nonpayable",
      "type": "function"
    },
    {
      "constant": false,
      "inputs": [
        {
          "name": "newOwner",
          "type": "address"
        }
      ],
      "name": "transferOwnership",
      "outputs": [],
      "payable": false,
      "stateMutability": "nonpayable",
      "type": "function"
    },
    {
      "constant": false,
      "inputs": [
        {
          "name": "account",
          "type": "address"
        },
        {
          "name": "id",
          "type": "uint256"
        },
        {
          "name": "value",
          "type": "uint256"
        }
      ],
      "name": "burn",
      "outputs": [],
      "payable": false,
      "stateMutability": "nonpayable",
      "type": "function"
    },
    {
      "constant": false,
      "inputs": [
        {
          "name": "_id",
          "type": "uint256"
        }
      ],
      "name": "unpause",
      "outputs": [],
      "payable": false,
      "stateMutability": "nonpayable",
      "type": "function"
    },
    {
      "anonymous": false,
      "inputs": [
        {
          "indexed": true,
          "name": "previousOwner",
          "type": "address"
        },
        {
          "indexed": true,
          "name": "newOwner",
          "type": "address"
        }
      ],
      "name": "OwnershipTransferred",
      "type": "event"
    },
    {
      "anonymous": false,
      "inputs": [
        {
          "indexed": true,
          "name": "account",
          "type": "address"
        }
      ],
      "name": "MinterAdded",
      "type": "event"
    },
    {
      "anonymous": false,
      "inputs": [
        {
          "indexed": true,
          "name": "account",
          "type": "address"
        }
      ],
      "name": "MinterRemoved",
      "type": "event"
    },
    {
      "anonymous": false,
      "inputs": [
        {
          "indexed": false,
          "name": "tokenId",
          "type": "uint256"
        },
        {
          "indexed": false,
          "name": "account",
          "type": "address"
        }
      ],
      "name": "Paused",
      "type": "event"
    },
    {
      "anonymous": false,
      "inputs": [
        {
          "indexed": false,
          "name": "tokenId",
          "type": "uint256"
        },
        {
          "indexed": false,
          "name": "account",
          "type": "address"
        }
      ],
      "name": "Unpaused",
      "type": "event"
    },
    {
      "anonymous": false,
      "inputs": [
        {
          "indexed": false,
          "name": "account",
          "type": "address"
        }
      ],
      "name": "Paused",
      "type": "event"
    },
    {
      "anonymous": false,
      "inputs": [
        {
          "indexed": false,
          "name": "account",
          "type": "address"
        }
      ],
      "name": "Unpaused",
      "type": "event"
    },
    {
      "anonymous": false,
      "inputs": [
        {
          "indexed": true,
          "name": "account",
          "type": "address"
        }
      ],
      "name": "PauserAdded",
      "type": "event"
    },
    {
      "anonymous": false,
      "inputs": [
        {
          "indexed": true,
          "name": "account",
          "type": "address"
        }
      ],
      "name": "PauserRemoved",
      "type": "event"
    },
    {
      "anonymous": false,
      "inputs": [
        {
          "indexed": true,
          "name": "operator",
          "type": "address"
        },
        {
          "indexed": true,
          "name": "from",
          "type": "address"
        },
        {
          "indexed": true,
          "name": "to",
          "type": "address"
        },
        {
          "indexed": false,
          "name": "id",
          "type": "uint256"
        },
        {
          "indexed": false,
          "name": "value",
          "type": "uint256"
        }
      ],
      "name": "TransferSingle",
      "type": "event"
    },
    {
      "anonymous": false,
      "inputs": [
        {
          "indexed": true,
          "name": "operator",
          "type": "address"
        },
        {
          "indexed": true,
          "name": "from",
          "type": "address"
        },
        {
          "indexed": true,
          "name": "to",
          "type": "address"
        },
        {
          "indexed": false,
          "name": "ids",
          "type": "uint256[]"
        },
        {
          "indexed": false,
          "name": "values",
          "type": "uint256[]"
        }
      ],
      "name": "TransferBatch",
      "type": "event"
    },
    {
      "anonymous": false,
      "inputs": [
        {
          "indexed": true,
          "name": "account",
          "type": "address"
        },
        {
          "indexed": true,
          "name": "operator",
          "type": "address"
        },
        {
          "indexed": false,
          "name": "approved",
          "type": "bool"
        }
      ],
      "name": "ApprovalForAll",
      "type": "event"
    },
    {
      "anonymous": false,
      "inputs": [
        {
          "indexed": false,
          "name": "value",
          "type": "string"
        },
        {
          "indexed": true,
          "name": "id",
          "type": "uint256"
        }
      ],
      "name": "URI",
      "type": "event"
    }
  ],
  "bytecode": "0x60a060405260006080908152806200003e7f01ffc9a70000000000000000000000000000000000000000000000000000000062000161602090811b901c565b6200004f816200023060201b60201c565b62000067636433ca1f60e01b6200016160201b60201c565b6200007f630e89341c60e01b6200016160201b60201c565b5062000098639e094e9e60e01b6200016160201b60201c565b620000a9336200024960201b60201c565b6006805460ff19169055620000e57f0e8ffdb70000000000000000000000000000000000000000000000000000000062000161602090811b901c565b620000f6336200029b60201b60201c565b6200010e63dfd9d9ec60e01b6200016160201b60201c565b50600b80546001600160a01b0319163317908190556040516001600160a01b0391909116906000907f8be0079c531659141344cd1fd0a4f28419497f9722a3daafe3b4186f6b6457e0908290a3620004b9565b7fffffffff000000000000000000000000000000000000000000000000000000008082161415620001f357604080517f08c379a000000000000000000000000000000000000000000000000000000000815260206004820152601b60248201527f4b495031333a20696e76616c696420696e746572666163652069640000000000604482015290519081900360640190fd5b7fffffffff00000000000000000000000000000000000000000000000000000000166000908152602081905260409020805460ff19166001179055565b80516200024590600490602084019062000414565b5050565b62000264816005620002ed60201b62003a3a1790919060201c565b6040516001600160a01b038216907f6719d08c1888103bea251a4ed56406bd0c3e69723c8a1686e017e7bbe159b6f890600090a250565b620002b6816008620002ed60201b62003a3a1790919060201c565b6040516001600160a01b038216907f6ae172837ea30b801fbfcdd4108aa1d5bf8ff775444fd70256b44e6bf3dfc3f690600090a250565b620002ff82826200039160201b60201c565b156200036c57604080517f08c379a000000000000000000000000000000000000000000000000000000000815260206004820152601f60248201527f526f6c65733a206163636f756e7420616c72656164792068617320726f6c6500604482015290519081900360640190fd5b6001600160a01b0316600090815260209190915260409020805460ff19166001179055565b60006001600160a01b038216620003f4576040517f08c379a0000000000000000000000000000000000000000000000000000000008152600401808060200182810382526022815260200180620043c76022913960400191505060405180910390fd5b506001600160a01b03166000908152602091909152604090205460ff1690565b828054600181600116156101000203166002900490600052602060002090601f016020900481019282601f106200045757805160ff191683800117855562000487565b8280016001018555821562000487579182015b82811115620004875782518255916020019190600101906200046a565b506200049592915062000499565b5090565b620004b691905b80821115620004955760008155600101620004a0565b90565b613efe80620004c96000396000f3fe608060405234801561001057600080fd5b50600436106101f95760003560e01c8063836a10401161011a578063bd85b039116100ad578063e985e9c51161007c578063e985e9c514610c64578063f242432a14610c92578063f2fde38b14610d5b578063f5298aca14610d81578063fabc1cbc14610db3576101f9565b8063bd85b039146109cd578063cd53d08e146109ea578063cfa84fc114610a07578063d81d0a1514610b31576101f9565b8063983b2d56116100e9578063983b2d561461094b5780639865027514610971578063a22cb46514610979578063aa271e1a146109a7576101f9565b8063836a1040146108e55780638456cb59146109175780638da5cb5b1461091f5780638f32d59b14610943576101f9565b80634b068c78116101925780636ef8d66d116101615780636ef8d66d14610892578063715018a61461089a5780637ed28e0f146108a257806382dc1ec4146108bf576101f9565b80634b068c78146105345780634e1273f4146105e45780635c975abb146107575780636b20c4541461075f576101f9565b8063136439dd116101ce578063136439dd146103265780632eb2c2d6146103455780633f4ba83a1461050657806346fbf68e1461050e576101f9565b8062dde10e146101fe578062fdd58e1461022f57806301ffc9a71461026d5780630e89341c14610294575b600080fd5b61021b6004803603602081101561021457600080fd5b5035610dd0565b604080519115158252519081900360200190f35b61025b6004803603604081101561024557600080fd5b506001600160a01b038135169060200135610de8565b60408051918252519081900360200190f35b61021b6004803603602081101561028357600080fd5b50356001600160e01b031916610e5a565b6102b1600480360360208110156102aa57600080fd5b5035610e79565b6040805160208082528351818301528351919283929083019185019080838360005b838110156102eb5781810151838201526020016102d3565b50505050905090810190601f1680156103185780820380516001836020036101000a031916815260200191505b509250505060405180910390f35b6103436004803603602081101561033c57600080fd5b5035610fbb565b005b610343600480360360a081101561035b57600080fd5b6001600160a01b038235811692602081013590911691810190606081016040820135600160201b81111561038e57600080fd5b8201836020820111156103a057600080fd5b803590602001918460208302840111600160201b831117156103c157600080fd5b9190808060200260200160405190810160405280939291908181526020018383602002808284376000920191909152509295949360208101935035915050600160201b81111561041057600080fd5b82018360208201111561042257600080fd5b803590602001918460208302840111600160201b8311171561044357600080fd5b9190808060200260200160405190810160405280939291908181526020018383602002808284376000920191909152509295949360208101935035915050600160201b81111561049257600080fd5b8201836020820111156104a457600080fd5b803590602001918460018302840111600160201b831117156104c557600080fd5b91908080601f0160208091040260200160405190810160405280939291908181526020018383808284376000920191909152509295506110c3945050505050565b610343611408565b61021b6004803603602081101561052457600080fd5b50356001600160a01b03166114e8565b61021b6004803603606081101561054a57600080fd5b813591602081013591810190606081016040820135600160201b81111561057057600080fd5b82018360208201111561058257600080fd5b803590602001918460018302840111600160201b831117156105a357600080fd5b91908080601f016020809104026020016040519081016040528093929190818152602001838380828437600092019190915250929550611501945050505050565b610707600480360360408110156105fa57600080fd5b810190602081018135600160201b81111561061457600080fd5b82018360208201111561062657600080fd5b803590602001918460208302840111600160201b8311171561064757600080fd5b9190808060200260200160405190810160405280939291908181526020018383602002808284376000920191909152509295949360208101935035915050600160201b81111561069657600080fd5b8201836020820111156106a857600080fd5b803590602001918460208302840111600160201b831117156106c957600080fd5b9190808060200260200160405190810160405280939291908181526020018383602002808284376000920191909152509295506116ae945050505050565b60408051602080825283518183015283519192839290830191858101910280838360005b8381101561074357818101518382015260200161072b565b505050509050019250505060405180910390f35b61021b61181b565b6103436004803603606081101561077557600080fd5b6001600160a01b038235169190810190604081016020820135600160201b81111561079f57600080fd5b8201836020820111156107b157600080fd5b803590602001918460208302840111600160201b831117156107d257600080fd5b9190808060200260200160405190810160405280939291908181526020018383602002808284376000920191909152509295949360208101935035915050600160201b81111561082157600080fd5b82018360208201111561083357600080fd5b803590602001918460208302840111600160201b8311171561085457600080fd5b919080806020026020016040519081016040528093929190818152602001838360200280828437600092019190915250929550611825945050505050565b6103436118a1565b6103436118ac565b61021b600480360360208110156108b857600080fd5b5035611952565b610343600480360360208110156108d557600080fd5b50356001600160a01b031661195d565b610343600480360360608110156108fb57600080fd5b508035906001600160a01b0360208201351690604001356119b0565b610343611a6f565b610927611b53565b604080516001600160a01b039092168252519081900360200190f35b61021b611b62565b6103436004803603602081101561096157600080fd5b50356001600160a01b0316611b73565b610343611bc3565b6103436004803603604081101561098f57600080fd5b506001600160a01b0381351690602001351515611bcc565b61021b600480360360208110156109bd57600080fd5b50356001600160a01b0316611cbe565b61025b600480360360208110156109e357600080fd5b5035611cd1565b61092760048036036020811015610a0057600080fd5b5035611ce3565b61034360048036036060811015610a1d57600080fd5b81359190810190604081016020820135600160201b811115610a3e57600080fd5b820183602082011115610a5057600080fd5b803590602001918460208302840111600160201b83111715610a7157600080fd5b9190808060200260200160405190810160405280939291908181526020018383602002808284376000920191909152509295949360208101935035915050600160201b811115610ac057600080fd5b820183602082011115610ad257600080fd5b803590602001918460208302840111600160201b83111715610af357600080fd5b919080806020026020016040519081016040528093929190818152602001838360200280828437600092019190915250929550611cfe945050505050565b61034360048036036060811015610b4757600080fd5b6001600160a01b038235169190810190604081016020820135600160201b811115610b7157600080fd5b820183602082011115610b8357600080fd5b803590602001918460208302840111600160201b83111715610ba457600080fd5b9190808060200260200160405190810160405280939291908181526020018383602002808284376000920191909152509295949360208101935035915050600160201b811115610bf357600080fd5b820183602082011115610c0557600080fd5b803590602001918460208302840111600160201b83111715610c2657600080fd5b919080806020026020016040519081016040528093929190818152602001838360200280828437600092019190915250929550611e4c945050505050565b61021b60048036036040811015610c7a57600080fd5b506001600160a01b0381358116916020013516611f33565b610343600480360360a0811015610ca857600080fd5b6001600160a01b03823581169260208101359091169160408201359160608101359181019060a081016080820135600160201b811115610ce757600080fd5b820183602082011115610cf957600080fd5b803590602001918460018302840111600160201b83111715610d1a57600080fd5b91908080601f016020809104026020016040519081016040528093929190818152602001838380828437600092019190915250929550611f61945050505050565b61034360048036036020811015610d7157600080fd5b50356001600160a01b0316612176565b61034360048036036060811015610d9757600080fd5b506001600160a01b0381351690602081013590604001356121db565b61034360048036036020811015610dc957600080fd5b5035612252565b60008181526007602052604090205460ff165b919050565b60006001600160a01b038316610e3257604051600160e51b62461bcd028152600401808060200182810382526029815260200180613c176029913960400191505060405180910390fd5b5060009081526001602090815260408083206001600160a01b03949094168352929052205490565b6001600160e01b03191660009081526020819052604090205460ff1690565b6000818152600a60209081526040918290208054835160026001831615610100026000190190921691909104601f81018490048402820184019094528381526060938493919291830182828015610f115780601f10610ee657610100808354040283529160200191610f11565b820191906000526020600020905b815481529060010190602001808311610ef457829003601f168201915b505050505090508051600014610f28579050610de3565b6004805460408051602060026001851615610100026000190190941693909304601f81018490048402820184019092528181529291830182828015610fae5780601f10610f8357610100808354040283529160200191610fae565b820191906000526020600020905b815481529060010190602001808311610f9157829003601f168201915b5050505050915050919050565b610fc4336114e8565b61100257604051600160e51b62461bcd028152600401808060200182810382526030815260200180613b7e6030913960400191505060405180910390fd5b60008181526007602052604090205460ff16156110695760408051600160e51b62461bcd02815260206004820152601d60248201527f4b495033375061757361626c653a20616c726561647920706175736564000000604482015290519081900360640190fd5b600081815260076020908152604091829020805460ff191660011790558151838152339181019190915281517fabdb1c9133626eb4f8c5f2ec7e3c60a969a2fb148a0c341a3cf6597242c8f8f5929181900390910190a150565b815183511461110657604051600160e51b62461bcd028152600401808060200182810382526026815260200180613c906026913960400191505060405180910390fd5b6001600160a01b03841661114e57604051600160e51b62461bcd028152600401808060200182810382526023815260200180613e296023913960400191505060405180910390fd5b61115661235b565b6001600160a01b0316856001600160a01b0316148061118157506111818561117c61235b565b611f33565b6111bf57604051600160e51b62461bcd028152600401808060200182810382526030815260200180613cb66030913960400191505060405180910390fd5b60006111c961235b565b90506111d981878787878761235f565b60005b84518110156112da5760008582815181106111f357fe5b60200260200101519050600085838151811061120b57fe5b6020026020010151905061127881604051806060016040528060288152602001613ce6602891396001600086815260200190815260200160002060008d6001600160a01b03166001600160a01b03168152602001908152602001600020546124309092919063ffffffff16565b60008381526001602090815260408083206001600160a01b038e811685529252808320939093558a16815220546112af90826124ca565b60009283526001602081815260408086206001600160a01b038d1687529091529093205550016111dc565b50846001600160a01b0316866001600160a01b0316826001600160a01b03167f4a39dc06d4c0dbc64b70af90fd698a233a518aa5d07e595d983b8c0526c8f7fb8787604051808060200180602001838103835285818151815260200191508051906020019060200280838360005b83811015611360578181015183820152602001611348565b50505050905001838103825284818151815260200191508051906020019060200280838360005b8381101561139f578181015183820152602001611387565b5050505090500194505050505060405180910390a46113c2818787878787612527565b61140057604051600160e51b62461bcd028152600401808060200182810382526036815260200180613e4c6036913960400191505060405180910390fd5b505050505050565b611411336114e8565b61144f57604051600160e51b62461bcd028152600401808060200182810382526030815260200180613b7e6030913960400191505060405180910390fd5b60065460ff166114a95760408051600160e51b62461bcd02815260206004820152601460248201527f5061757361626c653a206e6f7420706175736564000000000000000000000000604482015290519081900360640190fd5b6006805460ff191690556040805133815290517f5db9ee0a495bf2e6ff9c91a7834c1ba4fdd244a5e8aa4e537bd38aeae4b073aa9181900360200190a1565b60006114fb60058363ffffffff612a1a16565b92915050565b600061150c33611cbe565b61154a57604051600160e51b62461bcd028152600401808060200182810382526030815260200180613d0e6030913960400191505060405180910390fd5b61155384612a84565b156115a85760408051600160e51b62461bcd02815260206004820152601c60248201527f4b495033373a20746f6b656e20616c7265616479206372656174656400000000604482015290519081900360640190fd5b600084815260096020908152604080832080546001600160a01b0319163390811790915581519283019091529181526115e5919086908690612aa1565b8151156116a7576000848152600a60209081526040909120835161160b92850190613abe565b50837f6bb7ff708619ba0610cba295a58592e0451dee2622938c8755667688daf3529b836040518080602001828103825283818151815260200191508051906020019080838360005b8381101561166c578181015183820152602001611654565b50505050905090810190601f1680156116995780820380516001836020036101000a031916815260200191505b509250505060405180910390a25b9392505050565b606081518351146116f357604051600160e51b62461bcd028152600401808060200182810382526027815260200180613b576027913960400191505060405180910390fd5b60608351604051908082528060200260200182016040528015611720578160200160208202803883390190505b50905060005b84518110156118135760006001600160a01b031685828151811061174657fe5b60200260200101516001600160a01b0316141561179757604051600160e51b62461bcd02815260040180806020018281038252602f815260200180613e82602f913960400191505060405180910390fd5b600160008583815181106117a757fe5b6020026020010151815260200190815260200160002060008683815181106117cb57fe5b60200260200101516001600160a01b03166001600160a01b031681526020019081526020016000205482828151811061180057fe5b6020908102919091010152600101611726565b509392505050565b60065460ff165b90565b61182d61235b565b6001600160a01b0316836001600160a01b0316148061185357506118538361117c61235b565b61189157604051600160e51b62461bcd028152600401808060200182810382526027815260200180613e026027913960400191505060405180910390fd5b61189c838383612c3e565b505050565b6118aa33612f4f565b565b6118b4611b62565b6119085760408051600160e51b62461bcd02815260206004820181905260248201527f4f776e61626c653a2063616c6c6572206973206e6f7420746865206f776e6572604482015290519081900360640190fd5b600b546040516000916001600160a01b0316907f8be0079c531659141344cd1fd0a4f28419497f9722a3daafe3b4186f6b6457e0908390a3600b80546001600160a01b0319169055565b60006114fb82612a84565b611966336114e8565b6119a457604051600160e51b62461bcd028152600401808060200182810382526030815260200180613b7e6030913960400191505060405180910390fd5b6119ad81612f97565b50565b6119b933611cbe565b6119f757604051600160e51b62461bcd028152600401808060200182810382526030815260200180613d0e6030913960400191505060405180910390fd5b611a0083612a84565b611a545760408051600160e51b62461bcd02815260206004820152601860248201527f4b495033373a206e6f6e6578697374656e7420746f6b656e0000000000000000604482015290519081900360640190fd5b61189c82848360405180602001604052806000815250612aa1565b611a78336114e8565b611ab657604051600160e51b62461bcd028152600401808060200182810382526030815260200180613b7e6030913960400191505060405180910390fd5b60065460ff1615611b115760408051600160e51b62461bcd02815260206004820152601060248201527f5061757361626c653a2070617573656400000000000000000000000000000000604482015290519081900360640190fd5b6006805460ff191660011790556040805133815290517f62e78cea01bee320cd4e420270b5ea74000d11b0c9f74754ebdbfc544b05a2589181900360200190a1565b600b546001600160a01b031690565b600b546001600160a01b0316331490565b611b7c33611cbe565b611bba57604051600160e51b62461bcd028152600401808060200182810382526030815260200180613d0e6030913960400191505060405180910390fd5b6119ad81612fdf565b6118aa33613027565b816001600160a01b0316611bde61235b565b6001600160a01b03161415611c2757604051600160e51b62461bcd028152600401808060200182810382526027815260200180613d896027913960400191505060405180910390fd5b8060026000611c3461235b565b6001600160a01b03908116825260208083019390935260409182016000908120918716808252919093529120805460ff191692151592909217909155611c7861235b565b60408051841515815290516001600160a01b0392909216917f17307eab39ab6107e8899845ad3d59bd9653f200f220920489ca2b5937696c319181900360200190a35050565b60006114fb60088363ffffffff612a1a16565b60009081526003602052604090205490565b6009602052600090815260409020546001600160a01b031681565b611d0733611cbe565b611d4557604051600160e51b62461bcd028152600401808060200182810382526030815260200180613d0e6030913960400191505060405180910390fd5b611d4e83612a84565b611da25760408051600160e51b62461bcd02815260206004820152601860248201527f4b495033373a206e6f6e6578697374656e7420746f6b656e0000000000000000604482015290519081900360640190fd5b8051825114611de557604051600160e51b62461bcd028152600401808060200182810382526029815260200180613c676029913960400191505060405180910390fd5b60005b8251811015611e46576000838281518110611dff57fe5b602002602001015190506000838381518110611e1757fe5b60200260200101519050611e3c82878360405180602001604052806000815250612aa1565b5050600101611de8565b50505050565b611e5533611cbe565b611e9357604051600160e51b62461bcd028152600401808060200182810382526030815260200180613d0e6030913960400191505060405180910390fd5b60005b8251811015611f1757611ebb838281518110611eae57fe5b6020026020010151612a84565b611f0f5760408051600160e51b62461bcd02815260206004820152601860248201527f4b495033373a206e6f6e6578697374656e7420746f6b656e0000000000000000604482015290519081900360640190fd5b600101611e96565b5061189c8383836040518060200160405280600081525061306f565b6001600160a01b03918216600090815260026020908152604080832093909416825291909152205460ff1690565b6001600160a01b038416611fa957604051600160e51b62461bcd028152600401808060200182810382526023815260200180613e296023913960400191505060405180910390fd5b611fb161235b565b6001600160a01b0316856001600160a01b03161480611fd75750611fd78561117c61235b565b61201557604051600160e51b62461bcd028152600401808060200182810382526027815260200180613e026027913960400191505060405180910390fd5b600061201f61235b565b905061203f81878761203088613384565b61203988613384565b8761235f565b61208c83604051806060016040528060288152602001613ce66028913960008781526001602090815260408083206001600160a01b038d168452909152902054919063ffffffff61243016565b60008581526001602090815260408083206001600160a01b038b811685529252808320939093558716815220546120c390846124ca565b60008581526001602090815260408083206001600160a01b03808b168086529184529382902094909455805188815291820187905280518a8416938616927fc3d58168c5ae7397731d063d5bbf3d657854427343f4c083240f7aacaa2d0f6292908290030190a46121388187878787876133c8565b61140057604051600160e51b62461bcd028152600401808060200182810382526030815260200180613dd26030913960400191505060405180910390fd5b61217e611b62565b6121d25760408051600160e51b62461bcd02815260206004820181905260248201527f4f776e61626c653a2063616c6c6572206973206e6f7420746865206f776e6572604482015290519081900360640190fd5b6119ad81613794565b6121e361235b565b6001600160a01b0316836001600160a01b0316148061220957506122098361117c61235b565b61224757604051600160e51b62461bcd028152600401808060200182810382526027815260200180613e026027913960400191505060405180910390fd5b61189c838383613838565b61225b336114e8565b61229957604051600160e51b62461bcd028152600401808060200182810382526030815260200180613b7e6030913960400191505060405180910390fd5b60008181526007602052604090205460ff1615156001146123045760408051600160e51b62461bcd02815260206004820152601f60248201527f4b495033375061757361626c653a20616c726561647920756e70617573656400604482015290519081900360640190fd5b600081815260076020908152604091829020805460ff191690558151838152339181019190915281517ffe9b5e5216db9de81757f43d20f846bea509c040a560d136b8263dd8cd764238929181900390910190a150565b3390565b61236761181b565b156123a657604051600160e51b62461bcd02815260040180806020018281038252602a815260200180613d5f602a913960400191505060405180910390fd5b60005b835181101561242757600760008583815181106123c257fe5b60209081029190910181015182528101919091526040016000205460ff161561241f57604051600160e51b62461bcd028152600401808060200182810382526022815260200180613eb16022913960400191505060405180910390fd5b6001016123a9565b50505050505050565b600081848411156124c257604051600160e51b62461bcd0281526004018080602001828103825283818151815260200191508051906020019080838360005b8381101561248757818101518382015260200161246f565b50505050905090810190601f1680156124b45780820380516001836020036101000a031916815260200191505b509250505060405180910390fd5b505050900390565b6000828201838110156116a75760408051600160e51b62461bcd02815260206004820152601b60248201527f536166654d6174683a206164646974696f6e206f766572666c6f770000000000604482015290519081900360640190fd5b600080606061253e876001600160a01b03166139ca565b61254d57600192505050612a10565b866001600160a01b031663bc197c8160e01b8a8a89898960405160240180866001600160a01b03166001600160a01b03168152602001856001600160a01b03166001600160a01b03168152602001806020018060200180602001848103845287818151815260200191508051906020019060200280838360005b838110156125df5781810151838201526020016125c7565b50505050905001848103835286818151815260200191508051906020019060200280838360005b8381101561261e578181015183820152602001612606565b50505050905001848103825285818151815260200191508051906020019080838360005b8381101561265a578181015183820152602001612642565b50505050905090810190601f1680156126875780820380516001836020036101000a031916815260200191505b5098505050505050505050604051602081830303815290604052906001600160e01b0319166020820180516001600160e01b0383818316178352505050506040518082805190602001908083835b602083106126f45780518252601f1990920191602091820191016126d5565b6001836020036101000a0380198251168184511680821785525050505050509050019150506000604051808303816000865af19150503d8060008114612756576040519150601f19603f3d011682016040523d82523d6000602084013e61275b565b606091505b50805191935091501580159061279b57508051600160e01b63bc197c8102906020808401919081101561278d57600080fd5b50516001600160e01b031916145b156127ab57600192505050612a10565b866001600160a01b0316639b49e33260e01b8a8a89898960405160240180866001600160a01b03166001600160a01b03168152602001856001600160a01b03166001600160a01b03168152602001806020018060200180602001848103845287818151815260200191508051906020019060200280838360005b8381101561283d578181015183820152602001612825565b50505050905001848103835286818151815260200191508051906020019060200280838360005b8381101561287c578181015183820152602001612864565b50505050905001848103825285818151815260200191508051906020019080838360005b838110156128b85781810151838201526020016128a0565b50505050905090810190601f1680156128e55780820380516001836020036101000a031916815260200191505b5098505050505050505050604051602081830303815290604052906001600160e01b0319166020820180516001600160e01b0383818316178352505050506040518082805190602001908083835b602083106129525780518252601f199092019160209182019101612933565b6001836020036101000a0380198251168184511680821785525050505050509050019150506000604051808303816000865af19150503d80600081146129b4576040519150601f19603f3d011682016040523d82523d6000602084013e6129b9565b606091505b5080519193509150158015906129f957508051600160e11b634da4f1990290602080840191908110156129eb57600080fd5b50516001600160e01b031916145b15612a0957600192505050612a10565b6000925050505b9695505050505050565b60006001600160a01b038216612a6457604051600160e51b62461bcd028152600401808060200182810382526022815260200180613db06022913960400191505060405180910390fd5b506001600160a01b03166000908152602091909152604090205460ff1690565b6000908152600960205260409020546001600160a01b0316151590565b6001600160a01b038416612aff5760408051600160e51b62461bcd02815260206004820152601f60248201527f4b495033373a206d696e7420746f20746865207a65726f206164647265737300604482015290519081900360640190fd5b6000612b0961235b565b9050612b1b8160008761203088613384565b60008481526001602090815260408083206001600160a01b0389168452909152902054612b4e908463ffffffff6124ca16565b60008581526001602090815260408083206001600160a01b038a168452825280832093909355868252600390522054612b8d908463ffffffff6124ca16565b600085815260036020908152604080832093909355825187815290810186905282516001600160a01b03808a1694908616927fc3d58168c5ae7397731d063d5bbf3d657854427343f4c083240f7aacaa2d0f62929081900390910190a4612bf9816000878787876133c8565b612c3757604051600160e51b62461bcd028152600401808060200182810382526030815260200180613dd26030913960400191505060405180910390fd5b5050505050565b6001600160a01b038316612c8657604051600160e51b62461bcd028152600401808060200182810382526021815260200180613bf66021913960400191505060405180910390fd5b8051825114612cc957604051600160e51b62461bcd028152600401808060200182810382526026815260200180613c906026913960400191505060405180910390fd5b6000612cd361235b565b9050612cf38185600086866040518060200160405280600081525061235f565b60005b8351811015612e6e57612d88838281518110612d0e57fe5b6020026020010151604051806060016040528060228152602001613bd46022913960016000888681518110612d3f57fe5b602002602001015181526020019081526020016000206000896001600160a01b03166001600160a01b03168152602001908152602001600020546124309092919063ffffffff16565b60016000868481518110612d9857fe5b602002602001015181526020019081526020016000206000876001600160a01b03166001600160a01b0316815260200190815260200160002081905550612e3b838281518110612de457fe5b6020026020010151604051806060016040528060278152602001613c406027913960036000888681518110612e1557fe5b60200260200101518152602001908152602001600020546124309092919063ffffffff16565b60036000868481518110612e4b57fe5b602090810291909101810151825281019190915260400160002055600101612cf6565b5060006001600160a01b0316846001600160a01b0316826001600160a01b03167f4a39dc06d4c0dbc64b70af90fd698a233a518aa5d07e595d983b8c0526c8f7fb8686604051808060200180602001838103835285818151815260200191508051906020019060200280838360005b83811015612ef5578181015183820152602001612edd565b50505050905001838103825284818151815260200191508051906020019060200280838360005b83811015612f34578181015183820152602001612f1c565b5050505090500194505050505060405180910390a450505050565b612f6060058263ffffffff6139d016565b6040516001600160a01b038216907fcd265ebaf09df2871cc7bd4133404a235ba12eff2041bb89d9c714a2621c7c7e90600090a250565b612fa860058263ffffffff613a3a16565b6040516001600160a01b038216907f6719d08c1888103bea251a4ed56406bd0c3e69723c8a1686e017e7bbe159b6f890600090a250565b612ff060088263ffffffff613a3a16565b6040516001600160a01b038216907f6ae172837ea30b801fbfcdd4108aa1d5bf8ff775444fd70256b44e6bf3dfc3f690600090a250565b61303860088263ffffffff6139d016565b6040516001600160a01b038216907fe94479a9f7e1952cc78f2d6baab678adc1b772d936c6583def489e524cb6669290600090a250565b6001600160a01b0384166130cd5760408051600160e51b62461bcd02815260206004820152601f60248201527f4b495033373a206d696e7420746f20746865207a65726f206164647265737300604482015290519081900360640190fd5b815183511461311057604051600160e51b62461bcd028152600401808060200182810382526026815260200180613c906026913960400191505060405180910390fd5b600061311a61235b565b905061312b8160008787878761235f565b60005b845181101561325c576131a66001600087848151811061314a57fe5b602002602001015181526020019081526020016000206000886001600160a01b03166001600160a01b031681526020019081526020016000205485838151811061319057fe5b60200260200101516124ca90919063ffffffff16565b600160008784815181106131b657fe5b602002602001015181526020019081526020016000206000886001600160a01b03166001600160a01b03168152602001908152602001600020819055506132296003600087848151811061320657fe5b602002602001015181526020019081526020016000205485838151811061319057fe5b6003600087848151811061323957fe5b60209081029190910181015182528101919091526040016000205560010161312e565b50846001600160a01b031660006001600160a01b0316826001600160a01b03167f4a39dc06d4c0dbc64b70af90fd698a233a518aa5d07e595d983b8c0526c8f7fb8787604051808060200180602001838103835285818151815260200191508051906020019060200280838360005b838110156132e35781810151838201526020016132cb565b50505050905001838103825284818151815260200191508051906020019060200280838360005b8381101561332257818101518382015260200161330a565b5050505090500194505050505060405180910390a461334681600087878787612527565b612c3757604051600160e51b62461bcd028152600401808060200182810382526036815260200180613e4c6036913960400191505060405180910390fd5b6040805160018082528183019092526060918291906020808301908038833901905050905082816000815181106133b757fe5b602090810291909101015292915050565b60008060606133df876001600160a01b03166139ca565b6133ee57600192505050612a10565b866001600160a01b031663f23a6e6160e01b8a8a89898960405160240180866001600160a01b03166001600160a01b03168152602001856001600160a01b03166001600160a01b0316815260200184815260200183815260200180602001828103825283818151815260200191508051906020019080838360005b83811015613481578181015183820152602001613469565b50505050905090810190601f1680156134ae5780820380516001836020036101000a031916815260200191505b509650505050505050604051602081830303815290604052906001600160e01b0319166020820180516001600160e01b0383818316178352505050506040518082805190602001908083835b602083106135195780518252601f1990920191602091820191016134fa565b6001836020036101000a0380198251168184511680821785525050505050509050019150506000604051808303816000865af19150503d806000811461357b576040519150601f19603f3d011682016040523d82523d6000602084013e613580565b606091505b5080519193509150158015906135c057508051600160e01b63f23a6e610290602080840191908110156135b257600080fd5b50516001600160e01b031916145b156135d057600192505050612a10565b866001600160a01b031663e78b332560e01b8a8a89898960405160240180866001600160a01b03166001600160a01b03168152602001856001600160a01b03166001600160a01b0316815260200184815260200183815260200180602001828103825283818151815260200191508051906020019080838360005b8381101561366357818101518382015260200161364b565b50505050905090810190601f1680156136905780820380516001836020036101000a031916815260200191505b509650505050505050604051602081830303815290604052906001600160e01b0319166020820180516001600160e01b0383818316178352505050506040518082805190602001908083835b602083106136fb5780518252601f1990920191602091820191016136dc565b6001836020036101000a0380198251168184511680821785525050505050509050019150506000604051808303816000865af19150503d806000811461375d576040519150601f19603f3d011682016040523d82523d6000602084013e613762565b606091505b5080519193509150158015906129f957508051600160e01b63e78b33250290602080840191908110156129eb57600080fd5b6001600160a01b0381166137dc57604051600160e51b62461bcd028152600401808060200182810382526026815260200180613bae6026913960400191505060405180910390fd5b600b546040516001600160a01b038084169216907f8be0079c531659141344cd1fd0a4f28419497f9722a3daafe3b4186f6b6457e090600090a3600b80546001600160a01b0319166001600160a01b0392909216919091179055565b6001600160a01b03831661388057604051600160e51b62461bcd028152600401808060200182810382526021815260200180613bf66021913960400191505060405180910390fd5b600061388a61235b565b90506138ba8185600061389c87613384565b6138a587613384565b6040518060200160405280600081525061235f565b61390782604051806060016040528060228152602001613bd46022913960008681526001602090815260408083206001600160a01b038b168452909152902054919063ffffffff61243016565b60008481526001602090815260408083206001600160a01b03891684528252918290209290925580516060810190915260278082526139679285929190613c4090830139600086815260036020526040902054919063ffffffff61243016565b6000848152600360209081526040808320939093558251868152908101859052825191926001600160a01b0388811693908616927fc3d58168c5ae7397731d063d5bbf3d657854427343f4c083240f7aacaa2d0f6292908290030190a450505050565b3b151590565b6139da8282612a1a565b613a1857604051600160e51b62461bcd028152600401808060200182810382526021815260200180613d3e6021913960400191505060405180910390fd5b6001600160a01b0316600090815260209190915260409020805460ff19169055565b613a448282612a1a565b15613a995760408051600160e51b62461bcd02815260206004820152601f60248201527f526f6c65733a206163636f756e7420616c72656164792068617320726f6c6500604482015290519081900360640190fd5b6001600160a01b0316600090815260209190915260409020805460ff19166001179055565b828054600181600116156101000203166002900490600052602060002090601f016020900481019282601f10613aff57805160ff1916838001178555613b2c565b82800160010185558215613b2c579182015b82811115613b2c578251825591602001919060010190613b11565b50613b38929150613b3c565b5090565b61182291905b80821115613b385760008155600101613b4256fe4b495033373a206163636f756e747320616e6420696473206c656e677468206d69736d61746368506175736572526f6c653a2063616c6c657220646f6573206e6f742068617665207468652050617573657220726f6c654f776e61626c653a206e6577206f776e657220697320746865207a65726f20616464726573734b495033373a206275726e20616d6f756e7420657863656564732062616c616e63654b495033373a206275726e2066726f6d20746865207a65726f20616464726573734b495033373a2062616c616e636520717565727920666f7220746865207a65726f20616464726573734b495033373a206275726e20616d6f756e74206578636565647320746f74616c20737570706c794b495033373a20746f4c69737420616e64205f76616c756573206c656e677468206d69736d617463684b495033373a2069647320616e6420616d6f756e7473206c656e677468206d69736d617463684b495033373a207472616e736665722063616c6c6572206973206e6f74206f776e6572206e6f7220617070726f7665644b495033373a20696e73756666696369656e742062616c616e636520666f72207472616e736665724d696e746572526f6c653a2063616c6c657220646f6573206e6f74206861766520746865204d696e74657220726f6c65526f6c65733a206163636f756e7420646f6573206e6f74206861766520726f6c654b495033375061757361626c653a20746f6b656e207472616e73666572207768696c65207061757365644b495033373a2073657474696e6720617070726f76616c2073746174757320666f722073656c66526f6c65733a206163636f756e7420697320746865207a65726f20616464726573734b495033373a207472616e7366657220746f206e6f6e204b49503337526563656976657220696d706c656d656e7465724b495033373a2063616c6c6572206973206e6f74206f776e6572206e6f7220617070726f7665644b495033373a207472616e7366657220746f20746865207a65726f20616464726573734b495033373a206261746368207472616e7366657220746f206e6f6e204b49503337526563656976657220696d706c656d656e7465724b495033373a2062617463682062616c616e636520717565727920666f7220746865207a65726f20616464726573734b495033375061757361626c653a2074686520746f6b656e20697320706175736564a165627a7a72305820e6a24a73cc6f82c2402d39c32f37cb7c5e56c41a1dc76d7f9e42f36e7d8714d10029526f6c65733a206163636f756e7420697320746865207a65726f2061646472657373",
  "linkReferences": {},
  "deployedLinkReferences": {}
}