{
  "_format": "hh-sol-artifact-1",
  "contractName": "ItemStoreSale",
  "sourceName": "contracts/ItemStoreSale.sol",
  "abi": [
    {
      "constant": false,
      "inputs": [
        {
          "name": "saleVerificationIDs",
          "type": "bytes32[]"
        }
      ],
      "name": "cancelSaleByOwner",
      "outputs": [],
      "payable": false,
      "stateMutability": "nonpayable",
      "type": "function"
    },
    {
      "constant": false,
      "inputs": [
        {
          "name": "offerVerificationIDs",
          "type": "bytes32[]"
        }
      ],
      "name": "cancelOfferByOwner",
      "outputs": [],
      "payable": false,
      "stateMutability": "nonpayable",
      "type": "function"
    },
    {
      "constant": true,
      "inputs": [],
      "name": "mileage",
      "outputs": [
        {
          "name": "",
          "type": "address"
        }
      ],
      "payable": false,
      "stateMutability": "view",
      "type": "function"
    },
    {
      "constant": true,
      "inputs": [
        {
          "name": "item",
          "type": "address"
        }
      ],
      "name": "onSalesCount",
      "outputs": [
        {
          "name": "",
          "type": "uint256"
        }
      ],
      "payable": false,
      "stateMutability": "view",
      "type": "function"
    },
    {
      "constant": false,
      "inputs": [
        {
          "name": "saleVerificationIDs",
          "type": "bytes32[]"
        }
      ],
      "name": "cancelSale",
      "outputs": [],
      "payable": false,
      "stateMutability": "nonpayable",
      "type": "function"
    },
    {
      "constant": false,
      "inputs": [
        {
          "name": "offerVerificationID",
          "type": "bytes32"
        },
        {
          "name": "amount",
          "type": "uint256"
        }
      ],
      "name": "acceptOffer",
      "outputs": [],
      "payable": false,
      "stateMutability": "nonpayable",
      "type": "function"
    },
    {
      "constant": false,
      "inputs": [
        {
          "name": "metaverseId",
          "type": "uint256"
        },
        {
          "name": "item",
          "type": "address"
        },
        {
          "name": "id",
          "type": "uint256"
        },
        {
          "name": "amount",
          "type": "uint256"
        },
        {
          "name": "unitPrice",
          "type": "uint256"
        },
        {
          "name": "partialBuying",
          "type": "bool"
        },
        {
          "name": "_mileage",
          "type": "uint256"
        }
      ],
      "name": "makeOffer",
      "outputs": [
        {
          "name": "offerId",
          "type": "uint256"
        }
      ],
      "payable": false,
      "stateMutability": "nonpayable",
      "type": "function"
    },
    {
      "constant": true,
      "inputs": [
        {
          "name": "offeror",
          "type": "address"
        },
        {
          "name": "metaverseId",
          "type": "uint256"
        },
        {
          "name": "item",
          "type": "address"
        },
        {
          "name": "id",
          "type": "uint256"
        },
        {
          "name": "amount",
          "type": "uint256"
        }
      ],
      "name": "canOffer",
      "outputs": [
        {
          "name": "",
          "type": "bool"
        }
      ],
      "payable": false,
      "stateMutability": "view",
      "type": "function"
    },
    {
      "constant": true,
      "inputs": [
        {
          "name": "",
          "type": "address"
        },
        {
          "name": "",
          "type": "uint256"
        }
      ],
      "name": "userOfferInfo",
      "outputs": [
        {
          "name": "",
          "type": "bytes32"
        }
      ],
      "payable": false,
      "stateMutability": "view",
      "type": "function"
    },
    {
      "constant": true,
      "inputs": [
        {
          "name": "seller",
          "type": "address"
        }
      ],
      "name": "userSellInfoLength",
      "outputs": [
        {
          "name": "",
          "type": "uint256"
        }
      ],
      "payable": false,
      "stateMutability": "view",
      "type": "function"
    },
    {
      "constant": false,
      "inputs": [
        {
          "name": "metaverseIds",
          "type": "uint256[]"
        },
        {
          "name": "items",
          "type": "address[]"
        },
        {
          "name": "ids",
          "type": "uint256[]"
        },
        {
          "name": "amounts",
          "type": "uint256[]"
        },
        {
          "name": "unitPrices",
          "type": "uint256[]"
        },
        {
          "name": "partialBuyings",
          "type": "bool[]"
        }
      ],
      "name": "sell",
      "outputs": [],
      "payable": false,
      "stateMutability": "nonpayable",
      "type": "function"
    },
    {
      "constant": true,
      "inputs": [
        {
          "name": "",
          "type": "address"
        },
        {
          "name": "",
          "type": "address"
        },
        {
          "name": "",
          "type": "uint256"
        }
      ],
      "name": "userOnSaleAmounts",
      "outputs": [
        {
          "name": "",
          "type": "uint256"
        }
      ],
      "payable": false,
      "stateMutability": "view",
      "type": "function"
    },
    {
      "constant": true,
      "inputs": [
        {
          "name": "",
          "type": "address"
        }
      ],
      "name": "nonce",
      "outputs": [
        {
          "name": "",
          "type": "uint256"
        }
      ],
      "payable": false,
      "stateMutability": "view",
      "type": "function"
    },
    {
      "constant": false,
      "inputs": [
        {
          "name": "saleVerificationIDs",
          "type": "bytes32[]"
        },
        {
          "name": "amounts",
          "type": "uint256[]"
        },
        {
          "name": "unitPrices",
          "type": "uint256[]"
        },
        {
          "name": "mileages",
          "type": "uint256[]"
        }
      ],
      "name": "buy",
      "outputs": [],
      "payable": false,
      "stateMutability": "nonpayable",
      "type": "function"
    },
    {
      "constant": false,
      "inputs": [],
      "name": "renounceOwnership",
      "outputs": [],
      "payable": false,
      "stateMutability": "nonpayable",
      "type": "function"
    },
    {
      "constant": true,
      "inputs": [
        {
          "name": "",
          "type": "address"
        },
        {
          "name": "",
          "type": "uint256"
        },
        {
          "name": "",
          "type": "uint256"
        }
      ],
      "name": "sales",
      "outputs": [
        {
          "name": "seller",
          "type": "address"
        },
        {
          "name": "metaverseId",
          "type": "uint256"
        },
        {
          "name": "item",
          "type": "address"
        },
        {
          "name": "id",
          "type": "uint256"
        },
        {
          "name": "amount",
          "type": "uint256"
        },
        {
          "name": "unitPrice",
          "type": "uint256"
        },
        {
          "name": "partialBuying",
          "type": "bool"
        },
        {
          "name": "verificationID",
          "type": "bytes32"
        }
      ],
      "payable": false,
      "stateMutability": "view",
      "type": "function"
    },
    {
      "constant": false,
      "inputs": [
        {
          "name": "saleVerificationIDs",
          "type": "bytes32[]"
        },
        {
          "name": "unitPrices",
          "type": "uint256[]"
        }
      ],
      "name": "changeSellPrice",
      "outputs": [],
      "payable": false,
      "stateMutability": "nonpayable",
      "type": "function"
    },
    {
      "constant": true,
      "inputs": [
        {
          "name": "saleVerificationID",
          "type": "bytes32"
        }
      ],
      "name": "getSaleInfo",
      "outputs": [
        {
          "name": "item",
          "type": "address"
        },
        {
          "name": "id",
          "type": "uint256"
        },
        {
          "name": "saleId",
          "type": "uint256"
        }
      ],
      "payable": false,
      "stateMutability": "view",
      "type": "function"
    },
    {
      "constant": true,
      "inputs": [],
      "name": "owner",
      "outputs": [
        {
          "name": "",
          "type": "address"
        }
      ],
      "payable": false,
      "stateMutability": "view",
      "type": "function"
    },
    {
      "constant": true,
      "inputs": [],
      "name": "isOwner",
      "outputs": [
        {
          "name": "",
          "type": "bool"
        }
      ],
      "payable": false,
      "stateMutability": "view",
      "type": "function"
    },
    {
      "constant": true,
      "inputs": [
        {
          "name": "offeror",
          "type": "address"
        }
      ],
      "name": "userOfferInfoLength",
      "outputs": [
        {
          "name": "",
          "type": "uint256"
        }
      ],
      "payable": false,
      "stateMutability": "view",
      "type": "function"
    },
    {
      "constant": true,
      "inputs": [
        {
          "name": "item",
          "type": "address"
        },
        {
          "name": "id",
          "type": "uint256"
        }
      ],
      "name": "offersCount",
      "outputs": [
        {
          "name": "",
          "type": "uint256"
        }
      ],
      "payable": false,
      "stateMutability": "view",
      "type": "function"
    },
    {
      "constant": true,
      "inputs": [
        {
          "name": "",
          "type": "address"
        },
        {
          "name": "",
          "type": "uint256"
        }
      ],
      "name": "userSellInfo",
      "outputs": [
        {
          "name": "",
          "type": "bytes32"
        }
      ],
      "payable": false,
      "stateMutability": "view",
      "type": "function"
    },
    {
      "constant": true,
      "inputs": [],
      "name": "mix",
      "outputs": [
        {
          "name": "",
          "type": "address"
        }
      ],
      "payable": false,
      "stateMutability": "view",
      "type": "function"
    },
    {
      "constant": true,
      "inputs": [
        {
          "name": "metaverseId",
          "type": "uint256"
        }
      ],
      "name": "salesOnMetaverseLength",
      "outputs": [
        {
          "name": "",
          "type": "uint256"
        }
      ],
      "payable": false,
      "stateMutability": "view",
      "type": "function"
    },
    {
      "constant": true,
      "inputs": [
        {
          "name": "",
          "type": "address"
        },
        {
          "name": "",
          "type": "uint256"
        }
      ],
      "name": "onSales",
      "outputs": [
        {
          "name": "",
          "type": "bytes32"
        }
      ],
      "payable": false,
      "stateMutability": "view",
      "type": "function"
    },
    {
      "constant": true,
      "inputs": [
        {
          "name": "offerVerificationID",
          "type": "bytes32"
        }
      ],
      "name": "getOfferInfo",
      "outputs": [
        {
          "name": "item",
          "type": "address"
        },
        {
          "name": "id",
          "type": "uint256"
        },
        {
          "name": "offerId",
          "type": "uint256"
        }
      ],
      "payable": false,
      "stateMutability": "view",
      "type": "function"
    },
    {
      "constant": true,
      "inputs": [
        {
          "name": "seller",
          "type": "address"
        },
        {
          "name": "metaverseId",
          "type": "uint256"
        },
        {
          "name": "item",
          "type": "address"
        },
        {
          "name": "id",
          "type": "uint256"
        },
        {
          "name": "amount",
          "type": "uint256"
        }
      ],
      "name": "canSell",
      "outputs": [
        {
          "name": "",
          "type": "bool"
        }
      ],
      "payable": false,
      "stateMutability": "view",
      "type": "function"
    },
    {
      "constant": true,
      "inputs": [
        {
          "name": "",
          "type": "address"
        },
        {
          "name": "",
          "type": "uint256"
        },
        {
          "name": "",
          "type": "uint256"
        }
      ],
      "name": "offers",
      "outputs": [
        {
          "name": "offeror",
          "type": "address"
        },
        {
          "name": "metaverseId",
          "type": "uint256"
        },
        {
          "name": "item",
          "type": "address"
        },
        {
          "name": "id",
          "type": "uint256"
        },
        {
          "name": "amount",
          "type": "uint256"
        },
        {
          "name": "unitPrice",
          "type": "uint256"
        },
        {
          "name": "partialBuying",
          "type": "bool"
        },
        {
          "name": "mileage",
          "type": "uint256"
        },
        {
          "name": "verificationID",
          "type": "bytes32"
        }
      ],
      "payable": false,
      "stateMutability": "view",
      "type": "function"
    },
    {
      "constant": true,
      "inputs": [],
      "name": "commonData",
      "outputs": [
        {
          "name": "",
          "type": "address"
        }
      ],
      "payable": false,
      "stateMutability": "view",
      "type": "function"
    },
    {
      "constant": false,
      "inputs": [
        {
          "name": "newOwner",
          "type": "address"
        }
      ],
      "name": "transferOwnership",
      "outputs": [],
      "payable": false,
      "stateMutability": "nonpayable",
      "type": "function"
    },
    {
      "constant": true,
      "inputs": [
        {
          "name": "item",
          "type": "address"
        },
        {
          "name": "id",
          "type": "uint256"
        }
      ],
      "name": "salesCount",
      "outputs": [
        {
          "name": "",
          "type": "uint256"
        }
      ],
      "payable": false,
      "stateMutability": "view",
      "type": "function"
    },
    {
      "constant": false,
      "inputs": [
        {
          "name": "offerVerificationID",
          "type": "bytes32"
        }
      ],
      "name": "cancelOffer",
      "outputs": [],
      "payable": false,
      "stateMutability": "nonpayable",
      "type": "function"
    },
    {
      "constant": true,
      "inputs": [
        {
          "name": "",
          "type": "uint256"
        },
        {
          "name": "",
          "type": "uint256"
        }
      ],
      "name": "salesOnMetaverse",
      "outputs": [
        {
          "name": "",
          "type": "bytes32"
        }
      ],
      "payable": false,
      "stateMutability": "view",
      "type": "function"
    },
    {
      "inputs": [
        {
          "name": "_commonData",
          "type": "address"
        }
      ],
      "payable": false,
      "stateMutability": "nonpayable",
      "type": "constructor"
    },
    {
      "anonymous": false,
      "inputs": [
        {
          "indexed": true,
          "name": "metaverseId",
          "type": "uint256"
        },
        {
          "indexed": true,
          "name": "item",
          "type": "address"
        },
        {
          "indexed": false,
          "name": "id",
          "type": "uint256"
        },
        {
          "indexed": false,
          "name": "seller",
          "type": "address"
        },
        {
          "indexed": false,
          "name": "amount",
          "type": "uint256"
        },
        {
          "indexed": false,
          "name": "unitPrice",
          "type": "uint256"
        },
        {
          "indexed": false,
          "name": "partialBuying",
          "type": "bool"
        },
        {
          "indexed": true,
          "name": "saleVerificationID",
          "type": "bytes32"
        }
      ],
      "name": "Sell",
      "type": "event"
    },
    {
      "anonymous": false,
      "inputs": [
        {
          "indexed": true,
          "name": "metaverseId",
          "type": "uint256"
        },
        {
          "indexed": true,
          "name": "item",
          "type": "address"
        },
        {
          "indexed": false,
          "name": "id",
          "type": "uint256"
        },
        {
          "indexed": false,
          "name": "newUnitPrice",
          "type": "uint256"
        },
        {
          "indexed": true,
          "name": "saleVerificationID",
          "type": "bytes32"
        }
      ],
      "name": "ChangeSellPrice",
      "type": "event"
    },
    {
      "anonymous": false,
      "inputs": [
        {
          "indexed": true,
          "name": "metaverseId",
          "type": "uint256"
        },
        {
          "indexed": true,
          "name": "item",
          "type": "address"
        },
        {
          "indexed": false,
          "name": "id",
          "type": "uint256"
        },
        {
          "indexed": false,
          "name": "buyer",
          "type": "address"
        },
        {
          "indexed": false,
          "name": "amount",
          "type": "uint256"
        },
        {
          "indexed": false,
          "name": "isFulfilled",
          "type": "bool"
        },
        {
          "indexed": true,
          "name": "saleVerificationID",
          "type": "bytes32"
        }
      ],
      "name": "Buy",
      "type": "event"
    },
    {
      "anonymous": false,
      "inputs": [
        {
          "indexed": true,
          "name": "metaverseId",
          "type": "uint256"
        },
        {
          "indexed": true,
          "name": "item",
          "type": "address"
        },
        {
          "indexed": false,
          "name": "id",
          "type": "uint256"
        },
        {
          "indexed": false,
          "name": "amount",
          "type": "uint256"
        },
        {
          "indexed": true,
          "name": "saleVerificationID",
          "type": "bytes32"
        }
      ],
      "name": "CancelSale",
      "type": "event"
    },
    {
      "anonymous": false,
      "inputs": [
        {
          "indexed": true,
          "name": "metaverseId",
          "type": "uint256"
        },
        {
          "indexed": true,
          "name": "item",
          "type": "address"
        },
        {
          "indexed": false,
          "name": "id",
          "type": "uint256"
        },
        {
          "indexed": false,
          "name": "offeror",
          "type": "address"
        },
        {
          "indexed": false,
          "name": "amount",
          "type": "uint256"
        },
        {
          "indexed": false,
          "name": "unitPrice",
          "type": "uint256"
        },
        {
          "indexed": false,
          "name": "partialBuying",
          "type": "bool"
        },
        {
          "indexed": true,
          "name": "offerVerificationID",
          "type": "bytes32"
        }
      ],
      "name": "MakeOffer",
      "type": "event"
    },
    {
      "anonymous": false,
      "inputs": [
        {
          "indexed": true,
          "name": "metaverseId",
          "type": "uint256"
        },
        {
          "indexed": true,
          "name": "item",
          "type": "address"
        },
        {
          "indexed": false,
          "name": "id",
          "type": "uint256"
        },
        {
          "indexed": false,
          "name": "amount",
          "type": "uint256"
        },
        {
          "indexed": true,
          "name": "offerVerificationID",
          "type": "bytes32"
        }
      ],
      "name": "CancelOffer",
      "type": "event"
    },
    {
      "anonymous": false,
      "inputs": [
        {
          "indexed": true,
          "name": "metaverseId",
          "type": "uint256"
        },
        {
          "indexed": true,
          "name": "item",
          "type": "address"
        },
        {
          "indexed": false,
          "name": "id",
          "type": "uint256"
        },
        {
          "indexed": false,
          "name": "acceptor",
          "type": "address"
        },
        {
          "indexed": false,
          "name": "amount",
          "type": "uint256"
        },
        {
          "indexed": false,
          "name": "isFulfilled",
          "type": "bool"
        },
        {
          "indexed": true,
          "name": "offerVerificationID",
          "type": "bytes32"
        }
      ],
      "name": "AcceptOffer",
      "type": "event"
    },
    {
      "anonymous": false,
      "inputs": [
        {
          "indexed": true,
          "name": "metaverseId",
          "type": "uint256"
        },
        {
          "indexed": true,
          "name": "item",
          "type": "address"
        },
        {
          "indexed": false,
          "name": "id",
          "type": "uint256"
        },
        {
          "indexed": true,
          "name": "saleVerificationID",
          "type": "bytes32"
        }
      ],
      "name": "CancelSaleByOwner",
      "type": "event"
    },
    {
      "anonymous": false,
      "inputs": [
        {
          "indexed": true,
          "name": "metaverseId",
          "type": "uint256"
        },
        {
          "indexed": true,
          "name": "item",
          "type": "address"
        },
        {
          "indexed": false,
          "name": "id",
          "type": "uint256"
        },
        {
          "indexed": true,
          "name": "offerVerificationID",
          "type": "bytes32"
        }
      ],
      "name": "CancelOfferByOwner",
      "type": "event"
    },
    {
      "anonymous": false,
      "inputs": [
        {
          "indexed": true,
          "name": "previousOwner",
          "type": "address"
        },
        {
          "indexed": true,
          "name": "newOwner",
          "type": "address"
        }
      ],
      "name": "OwnershipTransferred",
      "type": "event"
    }
  ],
  "bytecode": "0x60806040523480156200001157600080fd5b50604051602080620050e1833981018060405260208110156200003357600080fd5b5051600080546001600160a01b03191633178082556040516001600160a01b039190911691907f8be0079c531659141344cd1fd0a4f28419497f9722a3daafe3b4186f6b6457e0908290a3600180546001600160a01b0319166001600160a01b038316908117909155604080517fbe32cf8d000000000000000000000000000000000000000000000000000000008152905163be32cf8d91600480820192602092909190829003018186803b158015620000ec57600080fd5b505afa15801562000101573d6000803e3d6000fd5b505050506040513d60208110156200011857600080fd5b5051600280546001600160a01b0319166001600160a01b03928316179055604080517f15585289000000000000000000000000000000000000000000000000000000008152905191831691631558528991600480820192602092909190829003018186803b1580156200018a57600080fd5b505afa1580156200019f573d6000803e3d6000fd5b505050506040513d6020811015620001b657600080fd5b5051600380546001600160a01b0319166001600160a01b0390921691909117905550614ef980620001e86000396000f3fe608060405234801561001057600080fd5b50600436106102065760003560e01c806388f536531161011a578063d14ff430116100ad578063f28a94541161007c578063f28a945414610bd5578063f2fde38b14610bdd578063f643b00314610c03578063f952279e14610c2f578063fca64f0e14610c4c57610206565b8063d14ff43014610ac2578063db2aa6fb14610aee578063ddd1cf7314610b0b578063e3b4367714610b4b57610206565b8063a6b95c2f116100e9578063a6b95c2f14610a45578063b534f15014610a71578063be32cf8d14610a9d578063cc41e70e14610aa557610206565b806388f53653146109ca5780638da5cb5b14610a0f5780638f32d59b14610a175780639e584b3014610a1f57610206565b806346a11e5c1161019d57806370ae92d21161016c57806370ae92d2146106fc57806370dbff3b14610722578063715018a614610880578063769a8b2e146108885780638526e8191461090c57610206565b806346a11e5c146104765780635cf435a7146104a25780635d1ac249146104c8578063660f88b2146106c657610206565b806338cfbaef116101d957806338cfbaef146103455780633e314b5a146103b35780633fab6e6b146103d6578063450aefe11461042257610206565b806302e73ad81461020b5780630d238a9c1461027b57806315585289146102e957806316a649c51461030d575b600080fd5b6102796004803603602081101561022157600080fd5b810190602081018135600160201b81111561023b57600080fd5b82018360208201111561024d57600080fd5b803590602001918460208302840111600160201b8311171561026e57600080fd5b509092509050610c6f565b005b6102796004803603602081101561029157600080fd5b810190602081018135600160201b8111156102ab57600080fd5b8201836020820111156102bd57600080fd5b803590602001918460208302840111600160201b831117156102de57600080fd5b509092509050610e42565b6102f16111d1565b604080516001600160a01b039092168252519081900360200190f35b6103336004803603602081101561032357600080fd5b50356001600160a01b03166111e0565b60408051918252519081900360200190f35b6102796004803603602081101561035b57600080fd5b810190602081018135600160201b81111561037557600080fd5b82018360208201111561038757600080fd5b803590602001918460208302840111600160201b831117156103a857600080fd5b5090925090506111fb565b610279600480360360408110156103c957600080fd5b508035906020013561131c565b610333600480360360e08110156103ec57600080fd5b508035906001600160a01b036020820135169060408101359060608101359060808101359060a081013515159060c00135611639565b610462600480360360a081101561043857600080fd5b506001600160a01b0381358116916020810135916040820135169060608101359060800135611bcd565b604080519115158252519081900360200190f35b6103336004803603604081101561048c57600080fd5b506001600160a01b038135169060200135611d9a565b610333600480360360208110156104b857600080fd5b50356001600160a01b0316611dc8565b610279600480360360c08110156104de57600080fd5b810190602081018135600160201b8111156104f857600080fd5b82018360208201111561050a57600080fd5b803590602001918460208302840111600160201b8311171561052b57600080fd5b919390929091602081019035600160201b81111561054857600080fd5b82018360208201111561055a57600080fd5b803590602001918460208302840111600160201b8311171561057b57600080fd5b919390929091602081019035600160201b81111561059857600080fd5b8201836020820111156105aa57600080fd5b803590602001918460208302840111600160201b831117156105cb57600080fd5b919390929091602081019035600160201b8111156105e857600080fd5b8201836020820111156105fa57600080fd5b803590602001918460208302840111600160201b8311171561061b57600080fd5b919390929091602081019035600160201b81111561063857600080fd5b82018360208201111561064a57600080fd5b803590602001918460208302840111600160201b8311171561066b57600080fd5b919390929091602081019035600160201b81111561068857600080fd5b82018360208201111561069a57600080fd5b803590602001918460208302840111600160201b831117156106bb57600080fd5b509092509050611de3565b610333600480360360608110156106dc57600080fd5b506001600160a01b038135811691602081013590911690604001356124ac565b6103336004803603602081101561071257600080fd5b50356001600160a01b03166124cf565b6102796004803603608081101561073857600080fd5b810190602081018135600160201b81111561075257600080fd5b82018360208201111561076457600080fd5b803590602001918460208302840111600160201b8311171561078557600080fd5b919390929091602081019035600160201b8111156107a257600080fd5b8201836020820111156107b457600080fd5b803590602001918460208302840111600160201b831117156107d557600080fd5b919390929091602081019035600160201b8111156107f257600080fd5b82018360208201111561080457600080fd5b803590602001918460208302840111600160201b8311171561082557600080fd5b919390929091602081019035600160201b81111561084257600080fd5b82018360208201111561085457600080fd5b803590602001918460208302840111600160201b8311171561087557600080fd5b5090925090506124e1565b610279612a88565b6108ba6004803603606081101561089e57600080fd5b506001600160a01b038135169060208101359060400135612b1c565b604080516001600160a01b03998a168152602081019890985295909716868601526060860193909352608085019190915260a0840152151560c083015260e08201929092529051908190036101000190f35b6102796004803603604081101561092257600080fd5b810190602081018135600160201b81111561093c57600080fd5b82018360208201111561094e57600080fd5b803590602001918460208302840111600160201b8311171561096f57600080fd5b919390929091602081019035600160201b81111561098c57600080fd5b82018360208201111561099e57600080fd5b803590602001918460208302840111600160201b831117156109bf57600080fd5b509092509050612b99565b6109e7600480360360208110156109e057600080fd5b5035612da8565b604080516001600160a01b039094168452602084019290925282820152519081900360600190f35b6102f1612e19565b610462612e29565b61033360048036036020811015610a3557600080fd5b50356001600160a01b0316612e3a565b61033360048036036040811015610a5b57600080fd5b506001600160a01b038135169060200135612e55565b61033360048036036040811015610a8757600080fd5b506001600160a01b038135169060200135612e80565b6102f1612e99565b61033360048036036020811015610abb57600080fd5b5035612ea8565b61033360048036036040811015610ad857600080fd5b506001600160a01b038135169060200135612eba565b6109e760048036036020811015610b0457600080fd5b5035612ed3565b610462600480360360a0811015610b2157600080fd5b506001600160a01b0381358116916020810135916040820135169060608101359060800135612f2b565b610b7d60048036036060811015610b6157600080fd5b506001600160a01b0381351690602081013590604001356131b6565b604080516001600160a01b039a8b168152602081019990995296909816878701526060870194909452608086019290925260a0850152151560c084015260e08301526101008201929092529051908190036101200190f35b6102f161323a565b61027960048036036020811015610bf357600080fd5b50356001600160a01b0316613249565b61033360048036036040811015610c1957600080fd5b506001600160a01b03813516906020013561329f565b61027960048036036020811015610c4557600080fd5b50356132c7565b61033360048036036040811015610c6257600080fd5b508035906020013561354e565b610c77612e29565b610cb95760408051600160e51b62461bcd0281526020600482018190526024820152600080516020614eae833981519152604482015290519081900360640190fd5b60005b81811015610e3d57600060066000858585818110610cd657fe5b602090810292909201358352508181019290925260409081016000908120805460018201546001600160a01b03909116808452600586528484208285529095529282206002820154815492965090918110610d2d57fe5b6000918252602090912060089091020180549091506001600160a01b031680610d5557600080fd5b6001820154888888818110610d6657fe5b90506020020135856001600160a01b0316827facfe0f819474d40915d9be5556ed18f3b87b614364616483fd0d3cf050a67b93878760040154604051808381526020018281526020019250505060405180910390a4888888818110610dc757fe5b90506020020135856001600160a01b0316827f7f01fdef81ecda3b8b0781af3885d83f44681709927b0932ad5e01b8832e5192876040518082815260200191505060405180910390a4610e2b898989818110610e1f57fe5b90506020020135613567565b505060019094019350610cbc92505050565b505050565b610e4a612e29565b610e8c5760408051600160e51b62461bcd0281526020600482018190526024820152600080516020614eae833981519152604482015290519081900360640190fd5b60005b81811015610e3d576000600f6000858585818110610ea957fe5b602090810292909201358352508181019290925260409081016000908120805460018201546001600160a01b03909116808452600e86528484208285529095529282206002820154815492965090918110610f0057fe5b6000918252602090912060099091020180549091506001600160a01b031680610f2857600080fd5b6004820154600783015460025460058501546001600160a01b039091169063a9059cbb908590610f71908590610f6590889063ffffffff613b4c16565b9063ffffffff613baf16565b6040518363ffffffff1660e01b815260040180836001600160a01b03166001600160a01b0316815260200182815260200192505050602060405180830381600087803b158015610fc057600080fd5b505af1158015610fd4573d6000803e3d6000fd5b505050506040513d6020811015610fea57600080fd5b505080156110eb5760025460035460408051600160e01b63095ea7b30281526001600160a01b039283166004820152602481018590529051919092169163095ea7b39160448083019260209291908290030181600087803b15801561104e57600080fd5b505af1158015611062573d6000803e3d6000fd5b505050506040513d602081101561107857600080fd5b505060035460408051600160e01b63a3ffa9cd0281526001600160a01b038681166004830152602482018590529151919092169163a3ffa9cd91604480830192600092919082900301818387803b1580156110d257600080fd5b505af11580156110e6573d6000803e3d6000fd5b505050505b60018401548a8a8a8181106110fc57fe5b90506020020135876001600160a01b0316827ff76a58c46a0526f0559c71dfecd8d91a1b27c081edad6a5fb56c73cf3b5473e58987604051808381526020018281526020019250505060405180910390a48a8a8a81811061115957fe5b90506020020135876001600160a01b0316827f68e095e64068d54d58ea4b5f2136b72367d1646471f72b574c936b131bcad378896040518082815260200191505060405180910390a46111bd8b8b8b8181106111b157fe5b90506020020135613bf1565b505060019096019550610e8f945050505050565b6003546001600160a01b031681565b6001600160a01b031660009081526007602052604090205490565b60005b81811015610e3d5760006006600085858581811061121857fe5b602090810292909201358352508181019290925260409081016000908120805460018201546001600160a01b0390911680845260058652848420828552909552928220600282015481549296509091811061126f57fe5b6000918252602090912060089091020180549091506001600160a01b0316331461129857600080fd5b8686868181106112a457fe5b90506020020135836001600160a01b031682600101547facfe0f819474d40915d9be5556ed18f3b87b614364616483fd0d3cf050a67b93858560040154604051808381526020018281526020019250505060405180910390a461130c878787818110610e1f57fe5b5050600190920191506111fe9050565b60015460408051600160e01b638fb74ae902815233600482015290516001600160a01b0390921691638fb74ae991602480820192602092909190829003018186803b15801561136a57600080fd5b505afa15801561137e573d6000803e3d6000fd5b505050506040513d602081101561139457600080fd5b5051156113a057600080fd5b6000828152600f60209081526040808320805460018201546001600160a01b03909116808652600e85528386208287529094529184206002820154815492959281106113e857fe5b600091825260209182902060099091020180546001808301546004808501549254604080516001600160e21b6222f31702031981529283018490526001600160a01b038b8116602485015290519698509485169692959394169263ff7433a492604480840193919291829003018186803b15801561146557600080fd5b505afa158015611479573d6000803e3d6000fd5b505050506040513d602081101561148f57600080fd5b505161149a57600080fd5b6001600160a01b038316158015906114bb57506001600160a01b0383163314155b6114c457600080fd5b600684015460ff166114e1578781146114dc57600080fd5b6114ee565b878110156114ee57600080fd5b60015460408051600160e01b63977803b7028152905161157e926001600160a01b03169163977803b7916004808301926020929190829003018186803b15801561153757600080fd5b505afa15801561154b573d6000803e3d6000fd5b505050506040513d602081101561156157600080fd5b50516001600160a01b0388169084888c338963ffffffff613f9c16565b600061159785600501548a613b4c90919063ffffffff16565b90506115a5838533846140d0565b6000806115b8848c63ffffffff613baf16565b600488018190559050806115d4576115cf8c613bf1565b600191505b50604080518881523360208201528082018c9052821515606082015290518c916001600160a01b038b169187917fe72046225a281061076ae167a511710c2ad7368e22ca18da53a3ad4d617dc756919081900360800190a45050505050505050505050565b60015460408051600160e01b638fb74ae902815233600482015290516000926001600160a01b031691638fb74ae9916024808301926020929190829003018186803b15801561168757600080fd5b505afa15801561169b573d6000803e3d6000fd5b505050506040513d60208110156116b157600080fd5b5051156116bd57600080fd5b600084116116ca57600080fd5b6116d73389898989611bcd565b6116e057600080fd5b3360008181526004602090815260408083208054600181019091558151606095861b81850152603481018e90526001600160a01b03808e1690961b6054820152606881018c9052608881018b905260a881018a905288151560f81b60c882015260c9810188905260e98082019290925282518082039092018252610109018252805190830120808452600f909252909120549091161561177f57600080fd5b600e6000896001600160a01b03166001600160a01b031681526020019081526020016000206000888152602001908152602001600020805490509150600e6000896001600160a01b03166001600160a01b031681526020019081526020016000206000888152602001908152602001600020604051806101200160405280336001600160a01b031681526020018b81526020018a6001600160a01b031681526020018981526020018881526020018781526020018615158152602001858152602001838152509080600181540180825580915050906001820390600052602060002090600902016000909192909190915060008201518160000160006101000a8154816001600160a01b0302191690836001600160a01b031602179055506020820151816001015560408201518160020160006101000a8154816001600160a01b0302191690836001600160a01b03160217905550606082015181600301556080820151816004015560a0820151816005015560c08201518160060160006101000a81548160ff02191690831515021790555060e0820151816007015561010082015181600801555050506040518060600160405280896001600160a01b0316815260200188815260200183815250600f600083815260200190815260200160002060008201518160000160006101000a8154816001600160a01b0302191690836001600160a01b03160217905550602082015181600101556040820151816002015590505060106000336001600160a01b03166001600160a01b0316815260200190815260200160002080549050601160008381526020019081526020016000208190555060106000336001600160a01b03166001600160a01b03168152602001908152602001600020819080600181540180825580915050906001820390600052602060002001600090919290919091505550600260009054906101000a90046001600160a01b03166001600160a01b03166323b872dd3330611a7187610f658b8d613b4c90919063ffffffff16565b6040805163ffffffff861660e01b81526001600160a01b0394851660048201529290931660248301526044820152905160648083019260209291908290030181600087803b158015611ac257600080fd5b505af1158015611ad6573d6000803e3d6000fd5b505050506040513d6020811015611aec57600080fd5b50508215611b635760035460408051600160e51b63034fd9510281523360048201526024810186905290516001600160a01b03909216916369fb2a209160448082019260009290919082900301818387803b158015611b4a57600080fd5b505af1158015611b5e573d6000803e3d6000fd5b505050505b60408051888152336020820152808201889052606081018790528515156080820152905182916001600160a01b038b16918c917f202195ab8848854ace244f7da052d00021ff62a3cd1dc122daa2f6091b087fa1919081900360a00190a450979650505050505050565b600154604080516001600160e21b6222f3170203198152600481018790526001600160a01b0386811660248301529151600093929092169163ff7433a491604480820192602092909190829003018186803b158015611c2b57600080fd5b505afa158015611c3f573d6000803e3d6000fd5b505050506040513d6020811015611c5557600080fd5b5051611c6357506000611d91565b60015460408051600160e01b63977803b70281529051611cef926001600160a01b03169163977803b7916004808301926020929190829003018186803b158015611cac57600080fd5b505afa158015611cc0573d6000803e3d6000fd5b505050506040513d6020811015611cd657600080fd5b50516001600160a01b038616908763ffffffff61495216565b15611cfd5750801515611d91565b816001148015611d8e5750856001600160a01b0316846001600160a01b0316636352211e856040518263ffffffff1660e01b81526004018082815260200191505060206040518083038186803b158015611d5657600080fd5b505afa158015611d6a573d6000803e3d6000fd5b505050506040513d6020811015611d8057600080fd5b50516001600160a01b031614155b90505b95945050505050565b60106020528160005260406000208181548110611db357fe5b90600052602060002001600091509150505481565b6001600160a01b031660009081526009602052604090205490565b60015460408051600160e01b638fb74ae902815233600482015290516001600160a01b0390921691638fb74ae991602480820192602092909190829003018186803b158015611e3157600080fd5b505afa158015611e45573d6000803e3d6000fd5b505050506040513d6020811015611e5b57600080fd5b505115611e6757600080fd5b8a89148015611e7557508a87145b8015611e8057508a85145b8015611e8b57508a83145b8015611e9657508a81145b611e9f57600080fd5b60005b8b81101561249d5760008d8d83818110611eb857fe5b90506020020135905060008c8c84818110611ecf57fe5b905060200201356001600160a01b0316905060008b8b85818110611eef57fe5b90506020020135905060008a8a86818110611f0657fe5b9050602002013590506000898987818110611f1d57fe5b9050602002013590506000888888818110611f3457fe5b905060200201351515905060008211611f4c57600080fd5b611f593387878787612f2b565b611f6257600080fd5b3360008181526004602090815260408083208054600181019091558151606095861b81850152603481018c90526001600160a01b03808c1690961b6054820152606881018a90526088810189905260a8810188905286151560f81b60c882015260c9808201929092528251808203909201825260e901825280519083012080845260069092529091205490911615611ff957600080fd5b600060056000886001600160a01b03166001600160a01b03168152602001908152602001600020600087815260200190815260200160002080549050905060056000886001600160a01b03166001600160a01b031681526020019081526020016000206000878152602001908152602001600020604051806101000160405280336001600160a01b031681526020018a8152602001896001600160a01b031681526020018881526020018781526020018681526020018515158152602001848152509080600181540180825580915050906001820390600052602060002090600802016000909192909190915060008201518160000160006101000a8154816001600160a01b0302191690836001600160a01b031602179055506020820151816001015560408201518160020160006101000a8154816001600160a01b0302191690836001600160a01b03160217905550606082015181600301556080820151816004015560a0820151816005015560c08201518160060160006101000a81548160ff02191690831515021790555060e082015181600701555050506040518060600160405280886001600160a01b03168152602001878152602001828152506006600084815260200190815260200160002060008201518160000160006101000a8154816001600160a01b0302191690836001600160a01b03160217905550602082015181600101556040820151816002015590505060076000886001600160a01b03166001600160a01b0316815260200190815260200160002080549050600860008481526020019081526020016000208190555060076000886001600160a01b03166001600160a01b0316815260200190815260200160002082908060018154018082558091505090600182039060005260206000200160009091929091909150555060096000336001600160a01b03166001600160a01b0316815260200190815260200160002080549050600a60008481526020019081526020016000208190555060096000336001600160a01b03166001600160a01b03168152602001908152602001600020829080600181540180825580915050906001820390600052602060002001600090919290919091505550600b600089815260200190815260200160002080549050600c600084815260200190815260200160002081905550600b600089815260200190815260200160002082908060018154018082558091505090600182039060005260206000200160009091929091909150555061240585600d6000336001600160a01b03166001600160a01b0316815260200190815260200160002060008a6001600160a01b03166001600160a01b031681526020019081526020016000206000898152602001908152602001600020546149f390919063ffffffff16565b336000818152600d602090815260408083206001600160a01b038d168085529083528184208c85528352928190209490945583518a81529081019290925281830188905260608201879052851515608083015291518492918b917f603e64b68fccdbc6f7ef5b0bb4cd498ca89b30fad7cdd0d0ea5759427e084c2d9181900360a00190a4505060019096019550611ea2945050505050565b50505050505050505050505050565b600d60209081526000938452604080852082529284528284209052825290205481565b60046020526000908152604090205481565b60015460408051600160e01b638fb74ae902815233600482015290516001600160a01b0390921691638fb74ae991602480820192602092909190829003018186803b15801561252f57600080fd5b505afa158015612543573d6000803e3d6000fd5b505050506040513d602081101561255957600080fd5b50511561256557600080fd5b848714801561257357508483145b801561257e57508481145b61258757600080fd5b60015460408051600160e01b63977803b702815290516000926001600160a01b03169163977803b7916004808301926020929190829003018186803b1580156125cf57600080fd5b505afa1580156125e3573d6000803e3d6000fd5b505050506040513d60208110156125f957600080fd5b5051905060005b86811015612a7c5760008a8a8381811061261657fe5b905060200201359050612627614c32565b506000818152600660209081526040808320815160608101835281546001600160a01b0316808252600183015482860190815260029093015482850190815290865260058552838620925186529190935290832090518154929392811061268a57fe5b6000918252602091829020600890910201805460018083015490548651604080516001600160e21b6222f3170203198152600481018590526001600160a01b039283166024820152905195975093811695929491169263ff7433a4926044808301939192829003018186803b15801561270257600080fd5b505afa158015612716573d6000803e3d6000fd5b505050506040513d602081101561272c57600080fd5b505161273757600080fd5b6001600160a01b0382161580159061275857506001600160a01b0382163314155b61276157600080fd5b8a8a8781811061276d57fe5b9050602002013583600501541461278357600080fd5b60008d8d8881811061279157fe5b60048701546006880154602090920293909301359350600092915060ff166127c4578281146127bf57600080fd5b6127d1565b828110156127d157600080fd5b6127e1818463ffffffff613baf16565b600487018190556020880151885191935061281592506001600160a01b03909116908b90869086893363ffffffff613f9c16565b600061283c8e8e8b81811061282657fe5b9050602002013584613b4c90919063ffffffff16565b905060008c8c8b81811061284c57fe5b600254602090910292909201359250506001600160a01b03166323b872dd333061287c868663ffffffff613baf16565b6040805163ffffffff861660e01b81526001600160a01b0394851660048201529290931660248301526044820152905160648083019260209291908290030181600087803b1580156128cd57600080fd5b505af11580156128e1573d6000803e3d6000fd5b505050506040513d60208110156128f757600080fd5b5050801561296e5760035460408051600160e51b63034fd9510281523360048201526024810184905290516001600160a01b03909216916369fb2a209160448082019260009290919082900301818387803b15801561295557600080fd5b505af1158015612969573d6000803e3d6000fd5b505050505b61297a853388856140d0565b6001600160a01b038087166000908152600d602090815260408083208c5190941683529281528282208b8201518352905220546129bd908563ffffffff613baf16565b6001600160a01b038088166000908152600d602090815260408083208d5190941683529281528282208c820151835290529081209190915583612a0757612a038a613567565b5060015b88516020808b0151604080519182523392820192909252808201889052831515606082015290518c926001600160a01b03169189917f8e8c45899726bbc16f0e33f07f8ae9c15a231a8771790ce7b674a2be83d527129181900360800190a45050600190980197506126009650505050505050565b50505050505050505050565b612a90612e29565b612ad25760408051600160e51b62461bcd0281526020600482018190526024820152600080516020614eae833981519152604482015290519081900360640190fd5b600080546040516001600160a01b03909116907f8be0079c531659141344cd1fd0a4f28419497f9722a3daafe3b4186f6b6457e0908390a3600080546001600160a01b0319169055565b60056020528260005260406000206020528160005260406000208181548110612b4157fe5b6000918252602090912060089091020180546001820154600283015460038401546004850154600586015460068701546007909701546001600160a01b039687169a5094985092909416955093909160ff9091169088565b60015460408051600160e01b638fb74ae902815233600482015290516001600160a01b0390921691638fb74ae991602480820192602092909190829003018186803b158015612be757600080fd5b505afa158015612bfb573d6000803e3d6000fd5b505050506040513d6020811015612c1157600080fd5b505115612c1d57600080fd5b828114612c2957600080fd5b60005b83811015612da157600060066000878785818110612c4657fe5b602090810292909201358352508181019290925260409081016000908120805460018201546001600160a01b03909116808452600586528484208285529095529282206002820154815492965090918110612c9d57fe5b6000918252602090912060089091020180549091506001600160a01b03163314612cc657600080fd5b868686818110612cd257fe5b9050602002013581600501541415612ce957600080fd5b6000878787818110612cf757fe5b9050602002013511612d0857600080fd5b868686818110612d1457fe5b6020029190910135600583015550888886818110612d2e57fe5b90506020020135836001600160a01b031682600101547f34fb77e580d631c8d04a854287f72aa49de9dc76bab60aacc88e687a593f2181858b8b8b818110612d7257fe5b604080519485526020918202939093013590840152508051918290030190a4505060019092019150612c2c9050565b5050505050565b6000806000612db5614c32565b50600084815260066020908152604091829020825160608101845281546001600160a01b031680825260018301549382019390935260029091015492810192909252612e0057600080fd5b8051602082015160409092015190969195509350915050565b6000546001600160a01b03165b90565b6000546001600160a01b0316331490565b6001600160a01b031660009081526010602052604090205490565b6001600160a01b0382166000908152600e602090815260408083208484529091529020545b92915050565b60096020528160005260406000208181548110611db357fe5b6002546001600160a01b031681565b6000908152600b602052604090205490565b60076020528160005260406000208181548110611db357fe5b6000806000612ee0614c32565b506000848152600f6020908152604091829020825160608101845281546001600160a01b031680825260018301549382019390935260029091015492810192909252612e0057600080fd5b600154604080516001600160e21b6222f3170203198152600481018790526001600160a01b0386811660248301529151600093929092169163ff7433a491604480820192602092909190829003018186803b158015612f8957600080fd5b505afa158015612f9d573d6000803e3d6000fd5b505050506040513d6020811015612fb357600080fd5b5051612fc157506000611d91565b60015460408051600160e01b63977803b7028152905161300a926001600160a01b03169163977803b7916004808301926020929190829003018186803b158015611cac57600080fd5b156130ea57600082118015611d8e5750836001600160a01b031662fdd58e87856040518363ffffffff1660e01b815260040180836001600160a01b03166001600160a01b031681526020018281526020019250505060206040518083038186803b15801561307757600080fd5b505afa15801561308b573d6000803e3d6000fd5b505050506040513d60208110156130a157600080fd5b50516001600160a01b038088166000908152600d602090815260408083209389168352928152828220878352905220546130e1908463ffffffff6149f316565b11159050611d91565b81600114801561317a5750856001600160a01b0316846001600160a01b0316636352211e856040518263ffffffff1660e01b81526004018082815260200191505060206040518083038186803b15801561314357600080fd5b505afa158015613157573d6000803e3d6000fd5b505050506040513d602081101561316d57600080fd5b50516001600160a01b0316145b8015611d8e5750506001600160a01b038581166000908152600d6020908152604080832093871683529281528282208583529052205415611d91565b600e60205282600052604060002060205281600052604060002081815481106131db57fe5b60009182526020909120600990910201805460018201546002830154600384015460048501546005860154600687015460078801546008909801546001600160a01b039788169b50959950939095169650909490939260ff9092169189565b6001546001600160a01b031681565b613251612e29565b6132935760408051600160e51b62461bcd0281526020600482018190526024820152600080516020614eae833981519152604482015290519081900360640190fd5b61329c81614a50565b50565b6001600160a01b03919091166000908152600560209081526040808320938352929052205490565b6000818152600f60209081526040808320805460018201546001600160a01b03909116808652600e855283862082875290945291842060028201548154929592811061330f57fe5b6000918252602090912060099091020180549091506001600160a01b0316331461333857600080fd5b6004810154600782015460025460058401546001600160a01b039091169063a9059cbb903390613375908590610f6590889063ffffffff613b4c16565b6040518363ffffffff1660e01b815260040180836001600160a01b03166001600160a01b0316815260200182815260200192505050602060405180830381600087803b1580156133c457600080fd5b505af11580156133d8573d6000803e3d6000fd5b505050506040513d60208110156133ee57600080fd5b505080156134ed5760025460035460408051600160e01b63095ea7b30281526001600160a01b039283166004820152602481018590529051919092169163095ea7b39160448083019260209291908290030181600087803b15801561345257600080fd5b505af1158015613466573d6000803e3d6000fd5b505050506040513d602081101561347c57600080fd5b505060035460408051600160e01b63a3ffa9cd0281523360048201526024810184905290516001600160a01b039092169163a3ffa9cd9160448082019260009290919082900301818387803b1580156134d457600080fd5b505af11580156134e8573d6000803e3d6000fd5b505050505b86856001600160a01b031684600101547ff76a58c46a0526f0559c71dfecd8d91a1b27c081edad6a5fb56c73cf3b5473e58786604051808381526020018281526020019250505060405180910390a461354587613bf1565b50505050505050565b600b6020528160005260406000208181548110611db357fe5b60008181526006602090815260408083208054600182015460028301546001600160a01b0390921680875260058652848720828852909552928520805492959192839081106135b257fe5b600091825260208083206001600160a01b03881684526007909152604083205460089092020192506135eb90600163ffffffff613baf16565b600088815260086020526040902054909150808214613686576001600160a01b038616600090815260076020526040812080548490811061362857fe5b906000526020600020015490508060076000896001600160a01b03166001600160a01b03168152602001908152602001600020838154811061366657fe5b600091825260208083209091019290925591825260089052604090208190555b6001600160a01b03861660009081526007602052604090208054906136af906000198301614c5c565b50600088815260086020908152604080832083905585546001600160a01b03168084526009909252909120546136ec90600163ffffffff613baf16565b60008a8152600a60205260409020549093509150818314613789576001600160a01b038116600090815260096020526040812080548590811061372b57fe5b906000526020600020015490508060096000846001600160a01b03166001600160a01b03168152602001908152602001600020848154811061376957fe5b6000918252602080832090910192909255918252600a9052604090208290555b6001600160a01b03811660009081526009602052604090208054906137b2906000198301614c5c565b506000898152600a60209081526040808320839055600180880154808552600b90935292205490916137ea919063ffffffff613baf16565b60008b8152600c6020526040902054909450925082841461386b576000818152600b6020526040812080548690811061381f57fe5b9060005260206000200154905080600b6000848152602001908152602001600020858154811061384b57fe5b6000918252602080832090910192909255918252600c9052604090208390555b6000818152600b6020526040902080549061388a906000198301614c5c565b5060008a8152600c602052604081205560048501548015613912576001600160a01b038084166000908152600d60209081526040808320938d1683529281528282208b8352905220546138e3908263ffffffff613baf16565b6001600160a01b038085166000908152600d60209081526040808320938e1683529281528282208c8352905220555b6001600160a01b03891660009081526005602090815260408083208b845290915281205461394790600163ffffffff613baf16565b9050613951614c80565b6001600160a01b038b1660009081526005602090815260408083208d8452909152902080548390811061398057fe5b60009182526020918290206040805161010081018252600890930290910180546001600160a01b0390811684526001820154948401949094526002810154909316908201526003820154606082015260048201546080820152600582015460a0820152600682015460ff16151560c082015260079091015460e08201529050888214613adf576001600160a01b038b1660009081526005602090815260408083208d8452909152902080548291908b908110613a3857fe5b6000918252602080832084516008939093020180546001600160a01b03199081166001600160a01b03948516178255858301516001830155604080870151600280850180549094169190961617909155606086015160038301556080860151600483015560a0860151600583015560c08601516006808401805460ff19169215159290921790915560e0968701516007909301929092559486015184529052919020018990555b6001600160a01b038b1660009081526005602090815260408083208d84529091529020805490613b13906000198301614cc4565b50505060009a8b525050600660205250506040872080546001600160a01b03191681556001810188905560020196909655505050505050565b600082613b5b57506000612e7a565b82820282848281613b6857fe5b0414613ba857604051600160e51b62461bcd028152600401808060200182810382526021815260200180614e8d6021913960400191505060405180910390fd5b9392505050565b6000613ba883836040518060400160405280601e81526020017f536166654d6174683a207375627472616374696f6e206f766572666c6f770000815250614af3565b6000818152600f602090815260408083208054600182015460028301546001600160a01b03909216808752600e865284872082885290955292852080549295919283908110613c3c57fe5b60009182526020808320600990920290910180546001600160a01b031680845260109092526040832054909350909190613c7d90600163ffffffff613baf16565b600089815260116020526040902054909150808214613d18576001600160a01b0383166000908152601060205260408120805484908110613cba57fe5b906000526020600020015490508060106000866001600160a01b03166001600160a01b031681526020019081526020016000208381548110613cf857fe5b600091825260208083209091019290925591825260119052604090208190555b6001600160a01b0383166000908152601060205260409020805490613d41906000198301614c5c565b5060008981526011602090815260408083208390556001600160a01b038a168352600e8252808320898452909152812054613d8390600163ffffffff613baf16565b9050613d8d614cf0565b6001600160a01b0389166000908152600e602090815260408083208b84529091529020805483908110613dbc57fe5b60009182526020918290206040805161012081018252600990930290910180546001600160a01b0390811684526001820154948401949094526002810154909316908201526003820154606082015260048201546080820152600582015460a0820152600682015460ff16151560c0820152600782015460e08201526008909101546101008201529050868214613f31576001600160a01b0389166000908152600e602090815260408083208b84529091529020805482919089908110613e7f57fe5b6000918252602080832084516009939093020180546001600160a01b03199081166001600160a01b03948516178255858301516001830155604080870151600280850180549094169190961617909155606086015160038301556080860151600483015560a0860151600583015560c086015160068301805460ff191691151591909117905560e0860151600783015561010095860151600890920191909155938501518352600f9052919020018790555b6001600160a01b0389166000908152600e602090815260408083208b84529091529020805490613f65906000198301614d53565b50505060009889525050600f60205250506040852080546001600160a01b0319168155600181018690556002019490945550505050565b613fa7878787614952565b156140455760008311613fb957600080fd5b60408051600160e11b63792121950281526001600160a01b0384811660048301528381166024830152604482018790526064820186905260a06084830152600060a483018190529251908a169263f242432a9260e4808201939182900301818387803b15801561402857600080fd5b505af115801561403c573d6000803e3d6000fd5b50505050613545565b8260011461405257600080fd5b60408051600160e01b6323b872dd0281526001600160a01b0384811660048301528381166024830152604482018790529151918916916323b872dd9160648082019260009290919082900301818387803b1580156140af57600080fd5b505af11580156140c3573d6000803e3d6000fd5b5050505050505050505050565b60015460408051600160e01b63977803b702815290516000926001600160a01b03169163977803b7916004808301926020929190829003018186803b15801561411857600080fd5b505afa15801561412c573d6000803e3d6000fd5b505050506040513d602081101561414257600080fd5b505160015460408051600160e01b63ddca3f4302815290519293506000926001600160a01b039092169163ddca3f4391600480820192602092909190829003018186803b15801561419257600080fd5b505afa1580156141a6573d6000803e3d6000fd5b505050506040513d60208110156141bc57600080fd5b505160408051600160e21b631fddfd5d02815260048101899052815192935060009283926001600160a01b03871692637f77f5749260248083019392829003018186803b15801561420c57600080fd5b505afa158015614220573d6000803e3d6000fd5b505050506040513d604081101561423657600080fd5b50805160209182015160408051600160e01b63a7b63a4b028152600481018d90529051929550909350600092839283926001600160a01b038a169263a7b63a4b92602480840193829003018186803b15801561429157600080fd5b505afa1580156142a5573d6000803e3d6000fd5b505050506040513d60208110156142bb57600080fd5b50511561460157866001600160a01b0316635184eca88c6040518263ffffffff1660e01b81526004018082815260200191505060206040518083038186803b15801561430657600080fd5b505afa15801561431a573d6000803e3d6000fd5b505050506040513d602081101561433057600080fd5b5051156145165760006143d56127106143c9600360009054906101000a90046001600160a01b03166001600160a01b031663dbee2a256040518163ffffffff1660e01b815260040160206040518083038186803b15801561439057600080fd5b505afa1580156143a4573d6000803e3d6000fd5b505050506040513d60208110156143ba57600080fd5b50518c9063ffffffff613b4c16565b9063ffffffff614b8d16565b90506143ed6127106143c98b8a63ffffffff613b4c16565b9350808411156144115790508061440a848263ffffffff613baf16565b9350614417565b60009391505b60006144ad82610f656127106143c9600360009054906101000a90046001600160a01b03166001600160a01b0316639390150f6040518163ffffffff1660e01b815260040160206040518083038186803b15801561447457600080fd5b505afa158015614488573d6000803e3d6000fd5b505050506040513d602081101561449e57600080fd5b50518f9063ffffffff613b4c16565b90506144c56127106143c98c8963ffffffff613b4c16565b9350808411156144f8576144df838263ffffffff6149f316565b92506144f1848263ffffffff613baf16565b935061450f565b614508838563ffffffff6149f316565b9250600093505b50506145fc565b61452c6127106143c98a8963ffffffff613b4c16565b92506145be6127106143c9600360009054906101000a90046001600160a01b03166001600160a01b0316639390150f6040518163ffffffff1660e01b815260040160206040518083038186803b15801561458557600080fd5b505afa158015614599573d6000803e3d6000fd5b505050506040513d60208110156145af57600080fd5b50518b9063ffffffff613b4c16565b90506145d66127106143c98a8763ffffffff613b4c16565b9150808211156145f7576145f0828263ffffffff613baf16565b91506145fc565b506000905b614632565b6146176127106143c98a8963ffffffff613b4c16565b925061462f6127106143c98a8763ffffffff613b4c16565b91505b821561472c5760025460015460408051600160e21b632cfc019d02815290516001600160a01b039384169363a9059cbb93169163b3f00674916004808301926020929190829003018186803b15801561468a57600080fd5b505afa15801561469e573d6000803e3d6000fd5b505050506040513d60208110156146b457600080fd5b50516040805163ffffffff841660e01b81526001600160a01b039092166004830152602482018790525160448083019260209291908290030181600087803b1580156146ff57600080fd5b505af1158015614713573d6000803e3d6000fd5b505050506040513d602081101561472957600080fd5b50505b81156147b85760025460408051600160e01b63a9059cbb0281526001600160a01b038881166004830152602482018690529151919092169163a9059cbb9160448083019260209291908290030181600087803b15801561478b57600080fd5b505af115801561479f573d6000803e3d6000fd5b505050506040513d60208110156147b557600080fd5b50505b80156148b75760025460035460408051600160e01b63095ea7b30281526001600160a01b039283166004820152602481018590529051919092169163095ea7b39160448083019260209291908290030181600087803b15801561481a57600080fd5b505af115801561482e573d6000803e3d6000fd5b505050506040513d602081101561484457600080fd5b505060035460408051600160e01b63a3ffa9cd0281526001600160a01b038d81166004830152602482018590529151919092169163a3ffa9cd91604480830192600092919082900301818387803b15801561489e57600080fd5b505af11580156148b2573d6000803e3d6000fd5b505050505b6148cd81610f6584818c8863ffffffff613baf16565b60025460408051600160e01b63a9059cbb0281526001600160a01b038d81166004830152602482018590529151939b5091169163a9059cbb916044808201926020929091908290030181600087803b15801561492857600080fd5b505af115801561493c573d6000803e3d6000fd5b505050506040513d602081101561249d57600080fd5b600080836001600160a01b03166349d1834a84876040518363ffffffff1660e01b815260040180838152602001826001600160a01b03166001600160a01b031681526020019250505060206040518083038186803b1580156149b357600080fd5b505afa1580156149c7573d6000803e3d6000fd5b505050506040513d60208110156149dd57600080fd5b505160018111156149ea57fe5b14949350505050565b600082820183811015613ba85760408051600160e51b62461bcd02815260206004820152601b60248201527f536166654d6174683a206164646974696f6e206f766572666c6f770000000000604482015290519081900360640190fd5b6001600160a01b038116614a9857604051600160e51b62461bcd028152600401808060200182810382526026815260200180614e676026913960400191505060405180910390fd5b600080546040516001600160a01b03808516939216917f8be0079c531659141344cd1fd0a4f28419497f9722a3daafe3b4186f6b6457e091a3600080546001600160a01b0319166001600160a01b0392909216919091179055565b60008184841115614b8557604051600160e51b62461bcd0281526004018080602001828103825283818151815260200191508051906020019080838360005b83811015614b4a578181015183820152602001614b32565b50505050905090810190601f168015614b775780820380516001836020036101000a031916815260200191505b509250505060405180910390fd5b505050900390565b6000613ba883836040518060400160405280601a81526020017f536166654d6174683a206469766973696f6e206279207a65726f00000000000081525060008183614c1c57604051600160e51b62461bcd028152602060048201818152835160248401528351909283926044909101919085019080838360008315614b4a578181015183820152602001614b32565b506000838581614c2857fe5b0495945050505050565b604051806060016040528060006001600160a01b0316815260200160008152602001600081525090565b815481835581811115610e3d57600083815260209020610e3d918101908301614d7f565b6040805161010081018252600080825260208201819052918101829052606081018290526080810182905260a0810182905260c0810182905260e081019190915290565b815481835581811115610e3d57600802816008028360005260206000209182019101610e3d9190614d9d565b60405180610120016040528060006001600160a01b031681526020016000815260200160006001600160a01b0316815260200160008152602001600081526020016000815260200160001515815260200160008152602001600080191681525090565b815481835581811115610e3d57600902816009028360005260206000209182019101610e3d9190614dfe565b612e2691905b80821115614d995760008155600101614d85565b5090565b612e2691905b80821115614d995780546001600160a01b0319908116825560006001830181905560028301805490921690915560038201819055600482018190556005820181905560068201805460ff191690556007820155600801614da3565b612e2691905b80821115614d995780546001600160a01b0319908116825560006001830181905560028301805490921690915560038201819055600482018190556005820181905560068201805460ff19169055600782018190556008820155600901614e0456fe4f776e61626c653a206e6577206f776e657220697320746865207a65726f2061646472657373536166654d6174683a206d756c7469706c69636174696f6e206f766572666c6f774f776e61626c653a2063616c6c6572206973206e6f7420746865206f776e6572a165627a7a723058209b11bc00f87169865a2dc288b4a2b12041036b2d22c29d97a22e43caf525095d0029",
  "linkReferences": {},
  "deployedLinkReferences": {}
}