{
  "_format": "hh-sol-artifact-1",
  "contractName": "MixEmitter",
  "sourceName": "contracts/MixEmitter.sol",
  "abi": [
    {
      "constant": true,
      "inputs": [
        {
          "name": "",
          "type": "uint256"
        }
      ],
      "name": "poolInfo",
      "outputs": [
        {
          "name": "to",
          "type": "address"
        },
        {
          "name": "allocPoint",
          "type": "uint256"
        },
        {
          "name": "lastEmitBlock",
          "type": "uint256"
        }
      ],
      "payable": false,
      "stateMutability": "view",
      "type": "function"
    },
    {
      "constant": true,
      "inputs": [],
      "name": "totalAllocPoint",
      "outputs": [
        {
          "name": "",
          "type": "uint256"
        }
      ],
      "payable": false,
      "stateMutability": "view",
      "type": "function"
    },
    {
      "constant": false,
      "inputs": [
        {
          "name": "pid",
          "type": "uint256"
        },
        {
          "name": "allocPoint",
          "type": "uint256"
        }
      ],
      "name": "set",
      "outputs": [],
      "payable": false,
      "stateMutability": "nonpayable",
      "type": "function"
    },
    {
      "constant": true,
      "inputs": [],
      "name": "started",
      "outputs": [
        {
          "name": "",
          "type": "bool"
        }
      ],
      "payable": false,
      "stateMutability": "view",
      "type": "function"
    },
    {
      "constant": false,
      "inputs": [
        {
          "name": "pid",
          "type": "uint256"
        }
      ],
      "name": "updatePool",
      "outputs": [],
      "payable": false,
      "stateMutability": "nonpayable",
      "type": "function"
    },
    {
      "constant": false,
      "inputs": [
        {
          "name": "_emissionPerBlock",
          "type": "uint256"
        }
      ],
      "name": "setEmissionPerBlock",
      "outputs": [],
      "payable": false,
      "stateMutability": "nonpayable",
      "type": "function"
    },
    {
      "constant": false,
      "inputs": [],
      "name": "renounceOwnership",
      "outputs": [],
      "payable": false,
      "stateMutability": "nonpayable",
      "type": "function"
    },
    {
      "constant": true,
      "inputs": [],
      "name": "owner",
      "outputs": [
        {
          "name": "",
          "type": "address"
        }
      ],
      "payable": false,
      "stateMutability": "view",
      "type": "function"
    },
    {
      "constant": true,
      "inputs": [],
      "name": "isOwner",
      "outputs": [
        {
          "name": "",
          "type": "bool"
        }
      ],
      "payable": false,
      "stateMutability": "view",
      "type": "function"
    },
    {
      "constant": true,
      "inputs": [],
      "name": "mix",
      "outputs": [
        {
          "name": "",
          "type": "address"
        }
      ],
      "payable": false,
      "stateMutability": "view",
      "type": "function"
    },
    {
      "constant": false,
      "inputs": [],
      "name": "start",
      "outputs": [],
      "payable": false,
      "stateMutability": "nonpayable",
      "type": "function"
    },
    {
      "constant": true,
      "inputs": [
        {
          "name": "pid",
          "type": "uint256"
        }
      ],
      "name": "pendingMix",
      "outputs": [
        {
          "name": "",
          "type": "uint256"
        }
      ],
      "payable": false,
      "stateMutability": "view",
      "type": "function"
    },
    {
      "constant": true,
      "inputs": [],
      "name": "emissionPerBlock",
      "outputs": [
        {
          "name": "",
          "type": "uint256"
        }
      ],
      "payable": false,
      "stateMutability": "view",
      "type": "function"
    },
    {
      "constant": false,
      "inputs": [
        {
          "name": "newOwner",
          "type": "address"
        }
      ],
      "name": "transferOwnership",
      "outputs": [],
      "payable": false,
      "stateMutability": "nonpayable",
      "type": "function"
    },
    {
      "constant": true,
      "inputs": [],
      "name": "poolCount",
      "outputs": [
        {
          "name": "",
          "type": "uint256"
        }
      ],
      "payable": false,
      "stateMutability": "view",
      "type": "function"
    },
    {
      "constant": false,
      "inputs": [
        {
          "name": "to",
          "type": "address"
        },
        {
          "name": "allocPoint",
          "type": "uint256"
        }
      ],
      "name": "add",
      "outputs": [],
      "payable": false,
      "stateMutability": "nonpayable",
      "type": "function"
    },
    {
      "inputs": [
        {
          "name": "_mix",
          "type": "address"
        },
        {
          "name": "_emissionPerBlock",
          "type": "uint256"
        }
      ],
      "payable": false,
      "stateMutability": "nonpayable",
      "type": "constructor"
    },
    {
      "anonymous": false,
      "inputs": [
        {
          "indexed": false,
          "name": "to",
          "type": "address"
        },
        {
          "indexed": false,
          "name": "allocPoint",
          "type": "uint256"
        }
      ],
      "name": "Add",
      "type": "event"
    },
    {
      "anonymous": false,
      "inputs": [
        {
          "indexed": true,
          "name": "pid",
          "type": "uint256"
        },
        {
          "indexed": false,
          "name": "allocPoint",
          "type": "uint256"
        }
      ],
      "name": "Set",
      "type": "event"
    },
    {
      "anonymous": false,
      "inputs": [
        {
          "indexed": false,
          "name": "emissionPerBlock",
          "type": "uint256"
        }
      ],
      "name": "SetEmissionPerBlock",
      "type": "event"
    },
    {
      "anonymous": false,
      "inputs": [
        {
          "indexed": true,
          "name": "previousOwner",
          "type": "address"
        },
        {
          "indexed": true,
          "name": "newOwner",
          "type": "address"
        }
      ],
      "name": "OwnershipTransferred",
      "type": "event"
    }
  ],
  "bytecode": "0x60806040526005805460ff1916905534801561001a57600080fd5b50604051604080610dab8339810180604052604081101561003a57600080fd5b508051602090910151600080546001600160a01b03191633178082556040516001600160a01b039190911691907f8be0079c531659141344cd1fd0a4f28419497f9722a3daafe3b4186f6b6457e0908290a3600180546001600160a01b0319166001600160a01b039390931692909217909155600255610cec806100bf6000396000f3fe608060405234801561001057600080fd5b50600436106101005760003560e01c80638f32d59b11610097578063c95986a211610066578063c95986a214610240578063f2fde38b14610248578063f525cb681461026e578063f5d82b6b1461027657610100565b80638f32d59b1461020b578063be32cf8d14610213578063be9a65551461021b578063c341a6e51461022357610100565b806351eb05a6116100d357806351eb05a6146101a5578063710fe5cd146101c2578063715018a6146101df5780638da5cb5b146101e757610100565b80631526fe271461010557806317caf6f11461014a5780631ab06ee5146101645780631f2698ab14610189575b600080fd5b6101226004803603602081101561011b57600080fd5b50356102a2565b604080516001600160a01b039094168452602084019290925282820152519081900360600190f35b6101526102dc565b60408051918252519081900360200190f35b6101876004803603604081101561017a57600080fd5b50803590602001356102e2565b005b6101916103dc565b604080519115158252519081900360200190f35b610187600480360360208110156101bb57600080fd5b50356103e5565b610187600480360360208110156101d857600080fd5b50356104f6565b610187610583565b6101ef610617565b604080516001600160a01b039092168252519081900360200190f35b610191610626565b6101ef610637565b610187610646565b6101526004803603602081101561023957600080fd5b50356106e9565b610152610797565b6101876004803603602081101561025e57600080fd5b50356001600160a01b031661079d565b6101526107f0565b6101876004803603604081101561028c57600080fd5b506001600160a01b0381351690602001356107f6565b600381815481106102af57fe5b60009182526020909120600390910201805460018201546002909201546001600160a01b03909116925083565b60045481565b6102ea610626565b61032c5760408051600160e51b62461bcd0281526020600482018190526024820152600080516020610ca1833981519152604482015290519081900360640190fd5b610334610921565b6103778161036b6003858154811061034857fe5b90600052602060002090600302016001015460045461094490919063ffffffff16565b9063ffffffff61098f16565b600481905550806003838154811061038b57fe5b906000526020600020906003020160010181905550817f545b620a3000f6303b158b321f06b4e95e28a27d70aecac8c6bdac4f48a9f6b3826040518082815260200191505060405180910390a25050565b60055460ff1681565b6000600382815481106103f457fe5b9060005260206000209060030201905060008160020154905080431161041b5750506104f3565b60018201546104315750436002909101556104f3565b6000610472600454610466856001015461045a60025461045a884361094490919063ffffffff16565b9063ffffffff6109ec16565b9063ffffffff610a4816565b600154845460408051600160e01b6340c10f190281526001600160a01b0392831660048201526024810185905290519394509116916340c10f199160448082019260009290919082900301818387803b1580156104ce57600080fd5b505af11580156104e2573d6000803e3d6000fd5b505050504383600201819055505050505b50565b6104fe610626565b6105405760408051600160e51b62461bcd0281526020600482018190526024820152600080516020610ca1833981519152604482015290519081900360640190fd5b610548610921565b60028190556040805182815290517f8b4310f1fd18dcc17d090874bf2aec666d0e75364021a5bc6f53ddcb5d64cfa89181900360200190a150565b61058b610626565b6105cd5760408051600160e51b62461bcd0281526020600482018190526024820152600080516020610ca1833981519152604482015290519081900360640190fd5b600080546040516001600160a01b03909116907f8be0079c531659141344cd1fd0a4f28419497f9722a3daafe3b4186f6b6457e0908390a3600080546001600160a01b0319169055565b6000546001600160a01b031690565b6000546001600160a01b0316331490565b6001546001600160a01b031681565b61064e610626565b6106905760408051600160e51b62461bcd0281526020600482018190526024820152600080516020610ca1833981519152604482015290519081900360640190fd5b60055460ff16156106a057600080fd5b60035460005b818110156106d85743600382815481106106bc57fe5b60009182526020909120600260039092020101556001016106a6565b50506005805460ff19166001179055565b60006106f3610c2f565b6003838154811061070057fe5b600091825260209182902060408051606081018252600390930290910180546001600160a01b03168352600181015493830193909352600290920154918101829052915043811080156107565750602082015115155b1561078b57610782600454610466846020015161045a60025461045a874361094490919063ffffffff16565b92505050610792565b6000925050505b919050565b60025481565b6107a5610626565b6107e75760408051600160e51b62461bcd0281526020600482018190526024820152600080516020610ca1833981519152604482015290519081900360640190fd5b6104f381610a8a565b60035490565b6107fe610626565b6108405760408051600160e51b62461bcd0281526020600482018190526024820152600080516020610ca1833981519152604482015290519081900360640190fd5b610848610921565b60045461085b908263ffffffff61098f16565b600455604080516060810182526001600160a01b03841681526020810183905260055460039282019060ff1661089357600019610895565b435b90528154600180820184556000938452602093849020835160039093020180546001600160a01b0319166001600160a01b0393841617815583850151918101919091556040928301516002909101558151908516815291820183905280517f2728c9d3205d667bbc0eefdfeda366261b4d021949630c047f3e5834b30611ab9281900390910190a15050565b60035460005b8181101561094057610938816103e5565b600101610927565b5050565b600061098683836040518060400160405280601e81526020017f536166654d6174683a207375627472616374696f6e206f766572666c6f770000815250610b2d565b90505b92915050565b6000828201838110156109865760408051600160e51b62461bcd02815260206004820152601b60248201527f536166654d6174683a206164646974696f6e206f766572666c6f770000000000604482015290519081900360640190fd5b6000826109fb57506000610989565b82820282848281610a0857fe5b041461098657604051600160e51b62461bcd028152600401808060200182810382526021815260200180610c806021913960400191505060405180910390fd5b600061098683836040518060400160405280601a81526020017f536166654d6174683a206469766973696f6e206279207a65726f000000000000815250610bc7565b6001600160a01b038116610ad257604051600160e51b62461bcd028152600401808060200182810382526026815260200180610c5a6026913960400191505060405180910390fd5b600080546040516001600160a01b03808516939216917f8be0079c531659141344cd1fd0a4f28419497f9722a3daafe3b4186f6b6457e091a3600080546001600160a01b0319166001600160a01b0392909216919091179055565b60008184841115610bbf57604051600160e51b62461bcd0281526004018080602001828103825283818151815260200191508051906020019080838360005b83811015610b84578181015183820152602001610b6c565b50505050905090810190601f168015610bb15780820380516001836020036101000a031916815260200191505b509250505060405180910390fd5b505050900390565b60008183610c1957604051600160e51b62461bcd028152602060048201818152835160248401528351909283926044909101919085019080838360008315610b84578181015183820152602001610b6c565b506000838581610c2557fe5b0495945050505050565b604051806060016040528060006001600160a01b031681526020016000815260200160008152509056fe4f776e61626c653a206e6577206f776e657220697320746865207a65726f2061646472657373536166654d6174683a206d756c7469706c69636174696f6e206f766572666c6f774f776e61626c653a2063616c6c6572206973206e6f7420746865206f776e6572a165627a7a7230582082cdfb90a62b9fcacd1f454e13d5d4ef4e105d0f003fa3a4928c9875192a9c5f0029",
  "linkReferences": {},
  "deployedLinkReferences": {}
}