{
  "_format": "hh-sol-artifact-1",
  "contractName": "KIP17Dividend",
  "sourceName": "contracts/KIP17Dividend.sol",
  "abi": [
    {
      "constant": true,
      "inputs": [],
      "name": "mixEmitter",
      "outputs": [
        {
          "name": "",
          "type": "address"
        }
      ],
      "payable": false,
      "stateMutability": "view",
      "type": "function"
    },
    {
      "constant": true,
      "inputs": [],
      "name": "accumulativeOf",
      "outputs": [
        {
          "name": "",
          "type": "uint256"
        }
      ],
      "payable": false,
      "stateMutability": "view",
      "type": "function"
    },
    {
      "constant": true,
      "inputs": [],
      "name": "maxNFTSupply",
      "outputs": [
        {
          "name": "",
          "type": "uint256"
        }
      ],
      "payable": false,
      "stateMutability": "view",
      "type": "function"
    },
    {
      "constant": true,
      "inputs": [],
      "name": "nft",
      "outputs": [
        {
          "name": "",
          "type": "address"
        }
      ],
      "payable": false,
      "stateMutability": "view",
      "type": "function"
    },
    {
      "constant": true,
      "inputs": [
        {
          "name": "id",
          "type": "uint256"
        }
      ],
      "name": "claimedOf",
      "outputs": [
        {
          "name": "",
          "type": "uint256"
        }
      ],
      "payable": false,
      "stateMutability": "view",
      "type": "function"
    },
    {
      "constant": true,
      "inputs": [
        {
          "name": "id",
          "type": "uint256"
        }
      ],
      "name": "claimableOf",
      "outputs": [
        {
          "name": "",
          "type": "uint256"
        }
      ],
      "payable": false,
      "stateMutability": "view",
      "type": "function"
    },
    {
      "constant": false,
      "inputs": [
        {
          "name": "ids",
          "type": "uint256[]"
        }
      ],
      "name": "claim",
      "outputs": [
        {
          "name": "totalClaimable",
          "type": "uint256"
        }
      ],
      "payable": false,
      "stateMutability": "nonpayable",
      "type": "function"
    },
    {
      "constant": true,
      "inputs": [],
      "name": "mix",
      "outputs": [
        {
          "name": "",
          "type": "address"
        }
      ],
      "payable": false,
      "stateMutability": "view",
      "type": "function"
    },
    {
      "constant": true,
      "inputs": [],
      "name": "pid",
      "outputs": [
        {
          "name": "",
          "type": "uint256"
        }
      ],
      "payable": false,
      "stateMutability": "view",
      "type": "function"
    },
    {
      "inputs": [
        {
          "name": "_mixEmitter",
          "type": "address"
        },
        {
          "name": "_pid",
          "type": "uint256"
        },
        {
          "name": "_nft",
          "type": "address"
        },
        {
          "name": "_maxNFTSupply",
          "type": "uint256"
        }
      ],
      "payable": false,
      "stateMutability": "nonpayable",
      "type": "constructor"
    },
    {
      "anonymous": false,
      "inputs": [
        {
          "indexed": true,
          "name": "by",
          "type": "address"
        },
        {
          "indexed": false,
          "name": "distributed",
          "type": "uint256"
        }
      ],
      "name": "Distribute",
      "type": "event"
    },
    {
      "anonymous": false,
      "inputs": [
        {
          "indexed": true,
          "name": "id",
          "type": "uint256"
        },
        {
          "indexed": false,
          "name": "claimed",
          "type": "uint256"
        }
      ],
      "name": "Claim",
      "type": "event"
    }
  ],
  "bytecode": "0x60806040526000600555600060065534801561001a57600080fd5b50604051608080610bc98339810180604052608081101561003a57600080fd5b508051602080830151604080850151606090950151600080546001600160a01b0319166001600160a01b03871690811790915582517fbe32cf8d00000000000000000000000000000000000000000000000000000000815292519596939593949193909263be32cf8d926004808301939192829003018186803b1580156100c057600080fd5b505afa1580156100d4573d6000803e3d6000fd5b505050506040513d60208110156100ea57600080fd5b5051600180546001600160a01b03199081166001600160a01b03938416179091556002949094556003805490941692169190911790915560045550610a95806101346000396000f3fe608060405234801561001057600080fd5b50600436106100935760003560e01c806349e8e06a1161006657806349e8e06a146100e6578063513bed12146101035780636ba4c13814610120578063be32cf8d14610190578063f10684541461019857610093565b80630ade3ac1146100985780631c9e005e146100bc57806324c979a3146100d657806347ccca02146100de575b600080fd5b6100a06101a0565b604080516001600160a01b039092168252519081900360200190f35b6100c46101af565b60408051918252519081900360200190f35b6100c461034c565b6100a0610352565b6100c4600480360360208110156100fc57600080fd5b5035610361565b6100c46004803603602081101561011957600080fd5b5035610373565b6100c46004803603602081101561013657600080fd5b81019060208101813564010000000081111561015157600080fd5b82018360208201111561016357600080fd5b8035906020019184602083028401116401000000008311171561018557600080fd5b5090925090506103b0565b6100a0610638565b6100c4610647565b6000546001600160a01b031681565b60065460045460009190156103435760015460408051600160e01b6370a0823102815230600482015290516000926102c9926001600160a01b03909116916370a0823191602480820192602092909190829003018186803b15801561021357600080fd5b505afa158015610227573d6000803e3d6000fd5b505050506040513d602081101561023d57600080fd5b505160005460025460408051600160e01b63c341a6e50281526004810192909252516001600160a01b039092169163c341a6e591602480820192602092909190829003018186803b15801561029157600080fd5b505afa1580156102a5573d6000803e3d6000fd5b505050506040513d60208110156102bb57600080fd5b50519063ffffffff61064d16565b905060006102e2600554836106b190919063ffffffff16565b9050801561032557600454610322906103159061030984600160801b63ffffffff6106f316565b9063ffffffff61074f16565b849063ffffffff61064d16565b92505b61033983600160801b63ffffffff61074f16565b9350505050610349565b60009150505b90565b60045481565b6003546001600160a01b031681565b60009081526007602052604090205490565b6000600454821061038357600080fd5b6000828152600760205260409020546103aa9061039e6101af565b9063ffffffff6106b116565b92915050565b60006103ba610791565b8160005b8181101561050d5760008585838181106103d457fe5b9050602002013590506004548110801561046e575060035460408051600160e11b6331a9108f02815260048101849052905133926001600160a01b031691636352211e916024808301926020929190829003018186803b15801561043757600080fd5b505afa15801561044b573d6000803e3d6000fd5b505050506040513d602081101561046157600080fd5b50516001600160a01b0316145b61047757600080fd5b60006104828261090c565b90508015610503576000828152600760205260409020546104a9908263ffffffff61064d16565b600083815260076020908152604091829020929092558051838152905184927f022e3d29644ead4083349ca84d24bcac368b2461819b70f5921fea15de4dec4d928290030190a2610500858263ffffffff61064d16565b94505b50506001016103be565b506001546001600160a01b03166379cc67903361053185600a63ffffffff61074f16565b6040518363ffffffff1660e01b815260040180836001600160a01b03166001600160a01b0316815260200182815260200192505050600060405180830381600087803b15801561058057600080fd5b505af1158015610594573d6000803e3d6000fd5b505060015460408051600160e01b63a9059cbb0281523360048201526024810187905290516001600160a01b03909216935063a9059cbb92506044808201926020929091908290030181600087803b1580156105ef57600080fd5b505af1158015610603573d6000803e3d6000fd5b505050506040513d602081101561061957600080fd5b505060055461062e908363ffffffff6106b116565b6005555092915050565b6001546001600160a01b031681565b60025481565b6000828201838110156106aa5760408051600160e51b62461bcd02815260206004820152601b60248201527f536166654d6174683a206164646974696f6e206f766572666c6f770000000000604482015290519081900360640190fd5b9392505050565b60006106aa83836040518060400160405280601e81526020017f536166654d6174683a207375627472616374696f6e206f766572666c6f770000815250610927565b600082610702575060006103aa565b8282028284828161070f57fe5b04146106aa57604051600160e51b62461bcd028152600401808060200182810382526021815260200180610a496021913960400191505060405180910390fd5b60006106aa83836040518060400160405280601a81526020017f536166654d6174683a206469766973696f6e206279207a65726f0000000000008152506109c1565b6004541561090a576000805460025460408051600160e11b6328f582d30281526004810192909252516001600160a01b03909216926351eb05a69260248084019382900301818387803b1580156107e757600080fd5b505af11580156107fb573d6000803e3d6000fd5b505060015460408051600160e01b6370a082310281523060048201529051600094506001600160a01b0390921692506370a08231916024808301926020929190829003018186803b15801561084f57600080fd5b505afa158015610863573d6000803e3d6000fd5b505050506040513d602081101561087957600080fd5b505160055490915060009061089590839063ffffffff6106b116565b90508015610905576004546108cb906108bc9061030984600160801b63ffffffff6106f316565b6006549063ffffffff61064d16565b60065560408051828152905133917fc1d32ad5cca423e7dda2123dbf8c482f8e77d00b631c06e903a47f2cec1334df919081900360200190a25b506005555b565b6000818152600760205260408120546103aa9061039e610a29565b600081848411156109b957604051600160e51b62461bcd0281526004018080602001828103825283818151815260200191508051906020019080838360005b8381101561097e578181015183820152602001610966565b50505050905090810190601f1680156109ab5780820380516001836020036101000a031916815260200191505b509250505060405180910390fd5b505050900390565b60008183610a1357604051600160e51b62461bcd02815260206004820181815283516024840152835190928392604490910191908501908083836000831561097e578181015183820152602001610966565b506000838581610a1f57fe5b0495945050505050565b600654600090610a4390600160801b63ffffffff61074f16565b90509056fe536166654d6174683a206d756c7469706c69636174696f6e206f766572666c6f77a165627a7a723058207f3a59b81c36eefd6edc8327a40b0de5100737b3a19e0bc0368cafe18c315a4a0029",
  "linkReferences": {},
  "deployedLinkReferences": {}
}